{
  "abi": [
    {
      "inputs": [
        {
          "components": [
            {
              "internalType": "uint256",
              "name": "rawValue",
              "type": "uint256"
            }
          ],
          "internalType": "struct FixedPoint.Unsigned",
          "name": "_fixedOracleFeePerSecondPerPfc",
          "type": "tuple"
        },
        {
          "components": [
            {
              "internalType": "uint256",
              "name": "rawValue",
              "type": "uint256"
            }
          ],
          "internalType": "struct FixedPoint.Unsigned",
          "name": "_weeklyDelayFeePerSecondPerPfc",
          "type": "tuple"
        },
        {
          "internalType": "address",
          "name": "_timerAddress",
          "type": "address"
        }
      ],
      "stateMutability": "nonpayable",
      "type": "constructor"
    },
    {
      "anonymous": false,
      "inputs": [
        {
          "indexed": true,
          "internalType": "uint256",
          "name": "roleId",
          "type": "uint256"
        },
        {
          "indexed": true,
          "internalType": "address",
          "name": "newMember",
          "type": "address"
        },
        {
          "indexed": true,
          "internalType": "address",
          "name": "manager",
          "type": "address"
        }
      ],
      "name": "AddedSharedMember",
      "type": "event"
    },
    {
      "anonymous": false,
      "inputs": [
        {
          "components": [
            {
              "internalType": "uint256",
              "name": "rawValue",
              "type": "uint256"
            }
          ],
          "indexed": false,
          "internalType": "struct FixedPoint.Unsigned",
          "name": "newFinalFee",
          "type": "tuple"
        }
      ],
      "name": "NewFinalFee",
      "type": "event"
    },
    {
      "anonymous": false,
      "inputs": [
        {
          "components": [
            {
              "internalType": "uint256",
              "name": "rawValue",
              "type": "uint256"
            }
          ],
          "indexed": false,
          "internalType": "struct FixedPoint.Unsigned",
          "name": "newOracleFee",
          "type": "tuple"
        }
      ],
      "name": "NewFixedOracleFeePerSecondPerPfc",
      "type": "event"
    },
    {
      "anonymous": false,
      "inputs": [
        {
          "components": [
            {
              "internalType": "uint256",
              "name": "rawValue",
              "type": "uint256"
            }
          ],
          "indexed": false,
          "internalType": "struct FixedPoint.Unsigned",
          "name": "newWeeklyDelayFeePerSecondPerPfc",
          "type": "tuple"
        }
      ],
      "name": "NewWeeklyDelayFeePerSecondPerPfc",
      "type": "event"
    },
    {
      "anonymous": false,
      "inputs": [
        {
          "indexed": true,
          "internalType": "uint256",
          "name": "roleId",
          "type": "uint256"
        },
        {
          "indexed": true,
          "internalType": "address",
          "name": "oldMember",
          "type": "address"
        },
        {
          "indexed": true,
          "internalType": "address",
          "name": "manager",
          "type": "address"
        }
      ],
      "name": "RemovedSharedMember",
      "type": "event"
    },
    {
      "anonymous": false,
      "inputs": [
        {
          "indexed": true,
          "internalType": "uint256",
          "name": "roleId",
          "type": "uint256"
        },
        {
          "indexed": true,
          "internalType": "address",
          "name": "newMember",
          "type": "address"
        },
        {
          "indexed": true,
          "internalType": "address",
          "name": "manager",
          "type": "address"
        }
      ],
      "name": "ResetExclusiveMember",
      "type": "event"
    },
    {
      "inputs": [],
      "name": "SECONDS_PER_WEEK",
      "outputs": [
        {
          "internalType": "uint256",
          "name": "",
          "type": "uint256"
        }
      ],
      "stateMutability": "view",
      "type": "function"
    },
    {
      "inputs": [
        {
          "internalType": "uint256",
          "name": "roleId",
          "type": "uint256"
        },
        {
          "internalType": "address",
          "name": "newMember",
          "type": "address"
        }
      ],
      "name": "addMember",
      "outputs": [],
      "stateMutability": "nonpayable",
      "type": "function"
    },
    {
      "inputs": [
        {
          "internalType": "address",
          "name": "currency",
          "type": "address"
        }
      ],
      "name": "computeFinalFee",
      "outputs": [
        {
          "components": [
            {
              "internalType": "uint256",
              "name": "rawValue",
              "type": "uint256"
            }
          ],
          "internalType": "struct FixedPoint.Unsigned",
          "name": "",
          "type": "tuple"
        }
      ],
      "stateMutability": "view",
      "type": "function"
    },
    {
      "inputs": [
        {
          "internalType": "uint256",
          "name": "startTime",
          "type": "uint256"
        },
        {
          "internalType": "uint256",
          "name": "endTime",
          "type": "uint256"
        },
        {
          "components": [
            {
              "internalType": "uint256",
              "name": "rawValue",
              "type": "uint256"
            }
          ],
          "internalType": "struct FixedPoint.Unsigned",
          "name": "pfc",
          "type": "tuple"
        }
      ],
      "name": "computeRegularFee",
      "outputs": [
        {
          "components": [
            {
              "internalType": "uint256",
              "name": "rawValue",
              "type": "uint256"
            }
          ],
          "internalType": "struct FixedPoint.Unsigned",
          "name": "regularFee",
          "type": "tuple"
        },
        {
          "components": [
            {
              "internalType": "uint256",
              "name": "rawValue",
              "type": "uint256"
            }
          ],
          "internalType": "struct FixedPoint.Unsigned",
          "name": "latePenalty",
          "type": "tuple"
        }
      ],
      "stateMutability": "view",
      "type": "function"
    },
    {
      "inputs": [
        {
          "internalType": "address",
          "name": "",
          "type": "address"
        }
      ],
      "name": "finalFees",
      "outputs": [
        {
          "internalType": "uint256",
          "name": "rawValue",
          "type": "uint256"
        }
      ],
      "stateMutability": "view",
      "type": "function"
    },
    {
      "inputs": [],
      "name": "fixedOracleFeePerSecondPerPfc",
      "outputs": [
        {
          "internalType": "uint256",
          "name": "rawValue",
          "type": "uint256"
        }
      ],
      "stateMutability": "view",
      "type": "function"
    },
    {
      "inputs": [],
      "name": "getCurrentTime",
      "outputs": [
        {
          "internalType": "uint256",
          "name": "",
          "type": "uint256"
        }
      ],
      "stateMutability": "view",
      "type": "function"
    },
    {
      "inputs": [
        {
          "internalType": "uint256",
          "name": "roleId",
          "type": "uint256"
        }
      ],
      "name": "getMember",
      "outputs": [
        {
          "internalType": "address",
          "name": "",
          "type": "address"
        }
      ],
      "stateMutability": "view",
      "type": "function"
    },
    {
      "inputs": [
        {
          "internalType": "uint256",
          "name": "roleId",
          "type": "uint256"
        },
        {
          "internalType": "address",
          "name": "memberToCheck",
          "type": "address"
        }
      ],
      "name": "holdsRole",
      "outputs": [
        {
          "internalType": "bool",
          "name": "",
          "type": "bool"
        }
      ],
      "stateMutability": "view",
      "type": "function"
    },
    {
      "inputs": [],
      "name": "payOracleFees",
      "outputs": [],
      "stateMutability": "payable",
      "type": "function"
    },
    {
      "inputs": [
        {
          "internalType": "address",
          "name": "erc20Address",
          "type": "address"
        },
        {
          "components": [
            {
              "internalType": "uint256",
              "name": "rawValue",
              "type": "uint256"
            }
          ],
          "internalType": "struct FixedPoint.Unsigned",
          "name": "amount",
          "type": "tuple"
        }
      ],
      "name": "payOracleFeesErc20",
      "outputs": [],
      "stateMutability": "nonpayable",
      "type": "function"
    },
    {
      "inputs": [
        {
          "internalType": "uint256",
          "name": "roleId",
          "type": "uint256"
        },
        {
          "internalType": "address",
          "name": "memberToRemove",
          "type": "address"
        }
      ],
      "name": "removeMember",
      "outputs": [],
      "stateMutability": "nonpayable",
      "type": "function"
    },
    {
      "inputs": [
        {
          "internalType": "uint256",
          "name": "roleId",
          "type": "uint256"
        }
      ],
      "name": "renounceMembership",
      "outputs": [],
      "stateMutability": "nonpayable",
      "type": "function"
    },
    {
      "inputs": [
        {
          "internalType": "uint256",
          "name": "roleId",
          "type": "uint256"
        },
        {
          "internalType": "address",
          "name": "newMember",
          "type": "address"
        }
      ],
      "name": "resetMember",
      "outputs": [],
      "stateMutability": "nonpayable",
      "type": "function"
    },
    {
      "inputs": [
        {
          "internalType": "uint256",
          "name": "time",
          "type": "uint256"
        }
      ],
      "name": "setCurrentTime",
      "outputs": [],
      "stateMutability": "nonpayable",
      "type": "function"
    },
    {
      "inputs": [
        {
          "internalType": "address",
          "name": "currency",
          "type": "address"
        },
        {
          "components": [
            {
              "internalType": "uint256",
              "name": "rawValue",
              "type": "uint256"
            }
          ],
          "internalType": "struct FixedPoint.Unsigned",
          "name": "newFinalFee",
          "type": "tuple"
        }
      ],
      "name": "setFinalFee",
      "outputs": [],
      "stateMutability": "nonpayable",
      "type": "function"
    },
    {
      "inputs": [
        {
          "components": [
            {
              "internalType": "uint256",
              "name": "rawValue",
              "type": "uint256"
            }
          ],
          "internalType": "struct FixedPoint.Unsigned",
          "name": "newFixedOracleFeePerSecondPerPfc",
          "type": "tuple"
        }
      ],
      "name": "setFixedOracleFeePerSecondPerPfc",
      "outputs": [],
      "stateMutability": "nonpayable",
      "type": "function"
    },
    {
      "inputs": [
        {
          "components": [
            {
              "internalType": "uint256",
              "name": "rawValue",
              "type": "uint256"
            }
          ],
          "internalType": "struct FixedPoint.Unsigned",
          "name": "newWeeklyDelayFeePerSecondPerPfc",
          "type": "tuple"
        }
      ],
      "name": "setWeeklyDelayFeePerSecondPerPfc",
      "outputs": [],
      "stateMutability": "nonpayable",
      "type": "function"
    },
    {
      "inputs": [],
      "name": "timerAddress",
      "outputs": [
        {
          "internalType": "address",
          "name": "",
          "type": "address"
        }
      ],
      "stateMutability": "view",
      "type": "function"
    },
    {
      "inputs": [],
      "name": "weeklyDelayFeePerSecondPerPfc",
      "outputs": [
        {
          "internalType": "uint256",
          "name": "rawValue",
          "type": "uint256"
        }
      ],
      "stateMutability": "view",
      "type": "function"
    },
    {
      "inputs": [
        {
          "internalType": "uint256",
          "name": "amount",
          "type": "uint256"
        }
      ],
      "name": "withdraw",
      "outputs": [],
      "stateMutability": "nonpayable",
      "type": "function"
    },
    {
      "inputs": [
        {
          "internalType": "address",
          "name": "erc20Address",
          "type": "address"
        },
        {
          "internalType": "uint256",
          "name": "amount",
          "type": "uint256"
        }
      ],
      "name": "withdrawErc20",
      "outputs": [],
      "stateMutability": "nonpayable",
      "type": "function"
    }
  ],
  "bytecode": {
    "object": "0x60806040523480156200001157600080fd5b5060405162001f8a38038062001f8a833981016040819052620000349162000655565b600280546001600160a01b0319166001600160a01b0383161790556200005d600080336200008b565b6200006c6001600033620001ec565b620000778362000203565b620000828262000300565b505050620006ed565b826000808281526020819052604090206001015460ff166002811115620000b657620000b6620006b1565b14620001095760405162461bcd60e51b815260206004820152601e60248201527f43616e6e6f74207573652061207072652d6578697374696e6720726f6c65000060448201526064015b60405180910390fd5b60008481526020819052604090206001808201805460ff191682800217905550838155620001476002820184620003f7602090811b62000dd717901c565b60008481526020819052604081206001015460ff166002811115620001705762000170620006b1565b03620001e55760405162461bcd60e51b815260206004820152603c60248201527f417474656d7074656420746f2075736520616e20696e76616c696420726f6c6560448201527f20746f206d616e61676520616e206578636c757369766520726f6c6500000000606482015260840162000100565b5050505050565b6001839055620001fe8383836200008b565b505050565b600062000211813362000407565b620002595760405162461bcd60e51b8152602060048201526022602482015260008051602062001f6a8339815191526044820152616c6560f01b606482015260840162000100565b62000274600183620004df60201b62000de11790919060201c565b620002c25760405162461bcd60e51b815260206004820152601e60248201527f466565206d757374206265203c203130302520706572207365636f6e642e0000604482015260640162000100565b815160038190556040519081527e41cf46cedaae9927def5c0647b190fd958c8ab8cde4219dad74319bc05d3d9906020015b60405180910390a15050565b60006200030e813362000407565b620003565760405162461bcd60e51b8152602060048201526022602482015260008051602062001f6a8339815191526044820152616c6560f01b606482015260840162000100565b62000371600183620004df60201b62000de11790919060201c565b620003bf5760405162461bcd60e51b815260206004820152601f60248201527f7765656b6c792064656c617920666565206d757374206265203c203130302500604482015260640162000100565b815160048190556040519081527f2e6cd3e6f7808568620c647ac0e652b0e95bef2494692adbc118fbbd02a8e82e90602001620002f4565b620004038282620004f8565b5050565b600082815260208190526040812060018082015460ff166002811115620004325762000432620006b1565b036200045e576200045583826002016200057960201b62000df81790919060201c565b915050620004d9565b6002600182015460ff1660028111156200047c576200047c620006b1565b036200049f576200045583826003016200058c60201b62000e0b1790919060201c565b60405162461bcd60e51b815260206004820152600e60248201526d125b9d985b1a59081c9bdb19525960921b604482015260640162000100565b92915050565b6000620004ec82620005ab565b51835110905092915050565b6001600160a01b0381166200055c5760405162461bcd60e51b815260206004820152602360248201527f43616e6e6f742073657420616e206578636c757369766520726f6c6520746f2060448201526203078360ec1b606482015260840162000100565b81546001600160a01b0319166001600160a01b0391909116179055565b90546001600160a01b0391821691161490565b6001600160a01b03166000908152602091909152604090205460ff1690565b6040805160208101909152600081526040518060200160405280620005e7670de0b6b3a764000085620005ef60201b62000e2a1790919060201c565b905292915050565b6000620005fd8284620006c7565b9392505050565b6000602082840312156200061757600080fd5b604051602081016001600160401b03811182821017156200064857634e487b7160e01b600052604160045260246000fd5b6040529151825250919050565b6000806000606084860312156200066b57600080fd5b62000677858562000604565b925062000688856020860162000604565b60408501519092506001600160a01b0381168114620006a657600080fd5b809150509250925092565b634e487b7160e01b600052602160045260246000fd5b8082028115828204841417620004d957634e487b7160e01b600052601160045260246000fd5b61186d80620006fd6000396000f3fe6080604052600436106101355760003560e01c80637d69dfdb116100ab578063ab3545e51161006f578063ab3545e5146103b1578063acb6f6cb146103d1578063b187487d146103f1578063bd1f4b5214610411578063cd3a9b2414610431578063d97c05be1461043957600080fd5b80637d69dfdb146103235780637e7e591d1461033a57806384ae2a741461035a5780638659d23214610371578063aaa14ca31461039157600080fd5b80635b97aadd116100fd5780635b97aadd146101f35780636be7658b146102515780636f356f4a1461027157806374201feb1461029e57806374d0a676146102d35780637cdc1cb9146102f357600080fd5b80631c39c38d1461013a57806322f8e5661461017757806329cb924d146101995780632e1a7d4d146101bc5780632fee2098146101dc575b600080fd5b34801561014657600080fd5b5060025461015a906001600160a01b031681565b6040516001600160a01b0390911681526020015b60405180910390f35b34801561018357600080fd5b5061019761019236600461143a565b610459565b005b3480156101a557600080fd5b506101ae6104cf565b60405190815260200161016e565b3480156101c857600080fd5b506101976101d736600461143a565b610564565b3480156101e857600080fd5b506003546101ae9081565b3480156101ff57600080fd5b5061024261020e36600461146f565b60408051602080820183526000918290526001600160a01b0393909316815260058352819020815192830190915254815290565b6040519051815260200161016e565b34801561025d57600080fd5b5061019761026c36600461148a565b6105a4565b34801561027d57600080fd5b506101ae61028c36600461146f565b60056020526000908152604090205481565b3480156102aa57600080fd5b506102be6102b93660046114ce565b61067a565b6040805192518352905160208301520161016e565b3480156102df57600080fd5b506101976102ee36600461148a565b610740565b3480156102ff57600080fd5b5061031361030e36600461148a565b610816565b604051901515815260200161016e565b34801561032f57600080fd5b506004546101ae9081565b34801561034657600080fd5b50610197610355366004611554565b6108cb565b34801561036657600080fd5b506101ae62093a8081565b34801561037d57600080fd5b5061019761038c36600461157f565b61094f565b34801561039d57600080fd5b506101976103ac36600461143a565b6109d1565b3480156103bd57600080fd5b5061015a6103cc36600461143a565b610a8d565b3480156103dd57600080fd5b506101976103ec3660046115aa565b610af8565b3480156103fd57600080fd5b5061019761040c3660046115aa565b610bb5565b34801561041d57600080fd5b5061019761042c3660046115c6565b610c6b565b610197610caf565b34801561044557600080fd5b5061019761045436600461148a565b610d01565b6002546001600160a01b031661046e57600080fd5b60025460405163117c72b360e11b8152600481018390526001600160a01b03909116906322f8e56690602401600060405180830381600087803b1580156104b457600080fd5b505af11580156104c8573d6000803e3d6000fd5b5050505050565b6002546000906001600160a01b03161561055f57600260009054906101000a90046001600160a01b03166001600160a01b03166329cb924d6040518163ffffffff1660e01b8152600401602060405180830381865afa158015610536573d6000803e3d6000fd5b505050506040513d601f19601f8201168201806040525081019061055a91906115f0565b905090565b504290565b6001546105718133610816565b6105965760405162461bcd60e51b815260040161058d90611609565b60405180910390fd5b6105a03383610e36565b5050565b81600260008281526020819052604090206001015460ff1660028111156105cd576105cd61164b565b146105ea5760405162461bcd60e51b815260040161058d90611661565b60008381526020819052604090205483906106059033610816565b6106215760405162461bcd60e51b815260040161058d906116ad565b600084815260208190526040902061063c9060030184610f4f565b60405133906001600160a01b0385169086907feb3e33034c392e69263b04ec0fa376dc12784a41b6676c7f31b936cbc0fbb5af90600090a450505050565b60408051602081019091526000815260408051602081019091526000815260006106a48587610f71565b604080516020810190915260035481529091506106da906106d4836106ce368990038901896115aa565b90610f7d565b90610fae565b925060006106f0876106ea6104cf565b90610f71565b9050600061071a6107048362093a80610feb565b6040805160208101909152600454815290610f7d565b9050610733816106d4856106ce368b90038b018b6115aa565b9350505050935093915050565b81600260008281526020819052604090206001015460ff1660028111156107695761076961164b565b146107865760405162461bcd60e51b815260040161058d90611661565b60008381526020819052604090205483906107a19033610816565b6107bd5760405162461bcd60e51b815260040161058d906116ad565b60008481526020819052604090206107d89060030184610ff7565b60405133906001600160a01b0385169086907f63502af7324ff6db91ab38f8236a648727d9385ea6c782073dd4882d8a61a48f90600090a450505050565b600082815260208190526040812060018082015460ff16600281111561083e5761083e61164b565b0361085f5760028101546001600160a01b038481169116145b9150506108c5565b6002600182015460ff16600281111561087a5761087a61164b565b0361088c576108576003820184610e0b565b60405162461bcd60e51b815260206004820152600e60248201526d125b9d985b1a59081c9bdb19525960921b604482015260640161058d565b92915050565b60006108d78133610816565b6108f35760405162461bcd60e51b815260040161058d90611609565b6001600160a01b0383166000908152600560205260409081902083519055517f98c807f575ae6584ff8200eaf3205f3f20abf9c954fff030c152f5e7c5446d6e90610942908451815260200190565b60405180910390a1505050565b8161096a6000610964368590038501856115aa565b90611072565b6109b65760405162461bcd60e51b815260206004820152601960248201527f416d6f756e742073656e742063616e2774206265207a65726f00000000000000604482015260640161058d565b6109cc6001600160a01b03821633308535611089565b505050565b80600260008281526020819052604090206001015460ff1660028111156109fa576109fa61164b565b14610a175760405162461bcd60e51b815260040161058d90611661565b81610a228133610816565b610a3e5760405162461bcd60e51b815260040161058d90611609565b6000838152602081905260409020610a599060030133610f4f565b6040513390819085907feb3e33034c392e69263b04ec0fa376dc12784a41b6676c7f31b936cbc0fbb5af90600090a4505050565b600081600160008281526020819052604090206001015460ff166002811115610ab857610ab861164b565b14610ad55760405162461bcd60e51b815260040161058d906116f1565b6000838152602081905260409020600201546001600160a01b03165b9392505050565b6000610b048133610816565b610b205760405162461bcd60e51b815260040161058d90611609565b610b2b826001610de1565b610b775760405162461bcd60e51b815260206004820152601e60248201527f466565206d757374206265203c203130302520706572207365636f6e642e0000604482015260640161058d565b815160038190556040519081527e41cf46cedaae9927def5c0647b190fd958c8ab8cde4219dad74319bc05d3d9906020015b60405180910390a15050565b6000610bc18133610816565b610bdd5760405162461bcd60e51b815260040161058d90611609565b610be8826001610de1565b610c345760405162461bcd60e51b815260206004820152601f60248201527f7765656b6c792064656c617920666565206d757374206265203c203130302500604482015260640161058d565b815160048190556040519081527f2e6cd3e6f7808568620c647ac0e652b0e95bef2494692adbc118fbbd02a8e82e90602001610ba9565b600154610c788133610816565b610c945760405162461bcd60e51b815260040161058d90611609565b82610ca96001600160a01b03821633856110f4565b50505050565b60003411610cff5760405162461bcd60e51b815260206004820152601860248201527f56616c75652073656e742063616e2774206265207a65726f0000000000000000604482015260640161058d565b565b81600160008281526020819052604090206001015460ff166002811115610d2a57610d2a61164b565b14610d475760405162461bcd60e51b815260040161058d906116f1565b6000838152602081905260409020548390610d629033610816565b610d7e5760405162461bcd60e51b815260040161058d906116ad565b6000848152602081905260409020610d999060020184611124565b60405133906001600160a01b0385169086907f3b855c56b409b671c7112789d022675eb639d0bcb8896f1b6197c132f799e74690600090a450505050565b6105a08282611124565b6000610dec826111a3565b51835110905092915050565b90546001600160a01b0391821691161490565b6001600160a01b03166000908152602091909152604090205460ff1690565b6000610af18284611756565b80471015610e865760405162461bcd60e51b815260206004820152601d60248201527f416464726573733a20696e73756666696369656e742062616c616e6365000000604482015260640161058d565b6000826001600160a01b03168260405160006040518083038185875af1925050503d8060008114610ed3576040519150601f19603f3d011682016040523d82523d6000602084013e610ed8565b606091505b50509050806109cc5760405162461bcd60e51b815260206004820152603a60248201527f416464726573733a20756e61626c6520746f2073656e642076616c75652c207260448201527f6563697069656e74206d61792068617665207265766572746564000000000000606482015260840161058d565b6001600160a01b0316600090815260209190915260409020805460ff19169055565b6000610af1828461176d565b604080516020810190915260008152604080516020810190915283518190610fa59085610e2a565b90529392505050565b6040805160208101909152600081526040805160208101909152825184518291670de0b6b3a764000091610fe191610e2a565b610fa59190611780565b6000610af18284611780565b6001600160a01b03811661104d5760405162461bcd60e51b815260206004820152601f60248201527f43616e6e6f74206164642030783020746f20612073686172656420726f6c6500604482015260640161058d565b6001600160a01b0316600090815260209190915260409020805460ff19166001179055565b600061107d826111a3565b51835111905092915050565b6040516001600160a01b0380851660248301528316604482015260648101829052610ca99085906323b872dd60e01b906084015b60408051601f198184030181529190526020810180516001600160e01b03166001600160e01b0319909316929092179091526111d8565b6040516001600160a01b0383166024820152604481018290526109cc90849063a9059cbb60e01b906064016110bd565b6001600160a01b0381166111865760405162461bcd60e51b815260206004820152602360248201527f43616e6e6f742073657420616e206578636c757369766520726f6c6520746f2060448201526203078360ec1b606482015260840161058d565b81546001600160a01b0319166001600160a01b0391909116179055565b6040805160208101909152600081526040805160208101909152806111d084670de0b6b3a7640000610e2a565b905292915050565b600061122d826040518060400160405280602081526020017f5361666545524332303a206c6f772d6c6576656c2063616c6c206661696c6564815250856001600160a01b03166112aa9092919063ffffffff16565b8051909150156109cc578080602001905181019061124b91906117a2565b6109cc5760405162461bcd60e51b815260206004820152602a60248201527f5361666545524332303a204552433230206f7065726174696f6e20646964206e6044820152691bdd081cdd58d8d9595960b21b606482015260840161058d565b60606112b984846000856112c1565b949350505050565b6060824710156113225760405162461bcd60e51b815260206004820152602660248201527f416464726573733a20696e73756666696369656e742062616c616e636520666f6044820152651c8818d85b1b60d21b606482015260840161058d565b600080866001600160a01b0316858760405161133e91906117e8565b60006040518083038185875af1925050503d806000811461137b576040519150601f19603f3d011682016040523d82523d6000602084013e611380565b606091505b50915091506113918783838761139c565b979650505050505050565b6060831561140b578251600003611404576001600160a01b0385163b6114045760405162461bcd60e51b815260206004820152601d60248201527f416464726573733a2063616c6c20746f206e6f6e2d636f6e7472616374000000604482015260640161058d565b50816112b9565b6112b983838151156114205781518083602001fd5b8060405162461bcd60e51b815260040161058d9190611804565b60006020828403121561144c57600080fd5b5035919050565b80356001600160a01b038116811461146a57600080fd5b919050565b60006020828403121561148157600080fd5b610af182611453565b6000806040838503121561149d57600080fd5b823591506114ad60208401611453565b90509250929050565b6000602082840312156114c857600080fd5b50919050565b6000806000606084860312156114e357600080fd5b83359250602084013591506114fb85604086016114b6565b90509250925092565b60006020828403121561151657600080fd5b6040516020810181811067ffffffffffffffff8211171561154757634e487b7160e01b600052604160045260246000fd5b6040529135825250919050565b6000806040838503121561156757600080fd5b61157083611453565b91506114ad8460208501611504565b6000806040838503121561159257600080fd5b61159b83611453565b91506114ad84602085016114b6565b6000602082840312156115bc57600080fd5b610af18383611504565b600080604083850312156115d957600080fd5b6115e283611453565b946020939093013593505050565b60006020828403121561160257600080fd5b5051919050565b60208082526022908201527f53656e64657220646f6573206e6f7420686f6c6420726571756972656420726f6040820152616c6560f01b606082015260800190565b634e487b7160e01b600052602160045260246000fd5b6020808252602c908201527f4d7573742062652063616c6c6564206f6e20616e20696e697469616c697a656460408201526b2053686172656420726f6c6560a01b606082015260800190565b60208082526024908201527f43616e206f6e6c792062652063616c6c6564206279206120726f6c65206d616e60408201526330b3b2b960e11b606082015260800190565b6020808252602f908201527f4d7573742062652063616c6c6564206f6e20616e20696e697469616c697a656460408201526e204578636c757369766520726f6c6560881b606082015260800190565b634e487b7160e01b600052601160045260246000fd5b80820281158282048414176108c5576108c5611740565b818103818111156108c5576108c5611740565b60008261179d57634e487b7160e01b600052601260045260246000fd5b500490565b6000602082840312156117b457600080fd5b81518015158114610af157600080fd5b60005b838110156117df5781810151838201526020016117c7565b50506000910152565b600082516117fa8184602087016117c4565b9190910192915050565b60208152600082518060208401526118238160408501602087016117c4565b601f01601f1916919091016040019291505056fea26469706673582212204ed43bce9efb45142489445b7bcd04af88f3f6566b6787413c363474a0a2021664736f6c6343000811003353656e64657220646f6573206e6f7420686f6c6420726571756972656420726f",
    "linkReferences": {}
  },
  "methodIdentifiers": {
    "SECONDS_PER_WEEK()": "84ae2a74",
    "addMember(uint256,address)": "74d0a676",
    "computeFinalFee(address)": "5b97aadd",
    "computeRegularFee(uint256,uint256,(uint256))": "74201feb",
    "finalFees(address)": "6f356f4a",
    "fixedOracleFeePerSecondPerPfc()": "2fee2098",
    "getCurrentTime()": "29cb924d",
    "getMember(uint256)": "ab3545e5",
    "holdsRole(uint256,address)": "7cdc1cb9",
    "payOracleFees()": "cd3a9b24",
    "payOracleFeesErc20(address,(uint256))": "8659d232",
    "removeMember(uint256,address)": "6be7658b",
    "renounceMembership(uint256)": "aaa14ca3",
    "resetMember(uint256,address)": "d97c05be",
    "setCurrentTime(uint256)": "22f8e566",
    "setFinalFee(address,(uint256))": "7e7e591d",
    "setFixedOracleFeePerSecondPerPfc((uint256))": "acb6f6cb",
    "setWeeklyDelayFeePerSecondPerPfc((uint256))": "b187487d",
    "timerAddress()": "1c39c38d",
    "weeklyDelayFeePerSecondPerPfc()": "7d69dfdb",
    "withdraw(uint256)": "2e1a7d4d",
    "withdrawErc20(address,uint256)": "bd1f4b52"
  },
  "id": 40
}