{
  "abi": [
    {
      "inputs": [
        {
          "internalType": "uint256",
          "name": "_liveness",
          "type": "uint256"
        },
        {
          "internalType": "address",
          "name": "_finderAddress",
          "type": "address"
        },
        {
          "internalType": "address",
          "name": "_timerAddress",
          "type": "address"
        }
      ],
      "stateMutability": "nonpayable",
      "type": "constructor"
    },
    {
      "anonymous": false,
      "inputs": [
        {
          "indexed": true,
          "internalType": "address",
          "name": "requester",
          "type": "address"
        },
        {
          "indexed": true,
          "internalType": "bytes32",
          "name": "identifier",
          "type": "bytes32"
        },
        {
          "indexed": false,
          "internalType": "uint32",
          "name": "timestamp",
          "type": "uint32"
        },
        {
          "indexed": false,
          "internalType": "bytes",
          "name": "ancillaryData",
          "type": "bytes"
        },
        {
          "components": [
            {
              "internalType": "address",
              "name": "proposer",
              "type": "address"
            },
            {
              "internalType": "address",
              "name": "disputer",
              "type": "address"
            },
            {
              "internalType": "contract IERC20",
              "name": "currency",
              "type": "address"
            },
            {
              "internalType": "bool",
              "name": "settled",
              "type": "bool"
            },
            {
              "internalType": "int256",
              "name": "proposedPrice",
              "type": "int256"
            },
            {
              "internalType": "int256",
              "name": "resolvedPrice",
              "type": "int256"
            },
            {
              "internalType": "uint256",
              "name": "expirationTime",
              "type": "uint256"
            },
            {
              "internalType": "uint256",
              "name": "reward",
              "type": "uint256"
            },
            {
              "internalType": "uint256",
              "name": "finalFee",
              "type": "uint256"
            },
            {
              "internalType": "uint256",
              "name": "bond",
              "type": "uint256"
            },
            {
              "internalType": "uint256",
              "name": "customLiveness",
              "type": "uint256"
            }
          ],
          "indexed": false,
          "internalType": "struct SkinnyOptimisticOracleInterface.Request",
          "name": "request",
          "type": "tuple"
        }
      ],
      "name": "DisputePrice",
      "type": "event"
    },
    {
      "anonymous": false,
      "inputs": [
        {
          "indexed": true,
          "internalType": "address",
          "name": "requester",
          "type": "address"
        },
        {
          "indexed": true,
          "internalType": "bytes32",
          "name": "identifier",
          "type": "bytes32"
        },
        {
          "indexed": false,
          "internalType": "uint32",
          "name": "timestamp",
          "type": "uint32"
        },
        {
          "indexed": false,
          "internalType": "bytes",
          "name": "ancillaryData",
          "type": "bytes"
        },
        {
          "components": [
            {
              "internalType": "address",
              "name": "proposer",
              "type": "address"
            },
            {
              "internalType": "address",
              "name": "disputer",
              "type": "address"
            },
            {
              "internalType": "contract IERC20",
              "name": "currency",
              "type": "address"
            },
            {
              "internalType": "bool",
              "name": "settled",
              "type": "bool"
            },
            {
              "internalType": "int256",
              "name": "proposedPrice",
              "type": "int256"
            },
            {
              "internalType": "int256",
              "name": "resolvedPrice",
              "type": "int256"
            },
            {
              "internalType": "uint256",
              "name": "expirationTime",
              "type": "uint256"
            },
            {
              "internalType": "uint256",
              "name": "reward",
              "type": "uint256"
            },
            {
              "internalType": "uint256",
              "name": "finalFee",
              "type": "uint256"
            },
            {
              "internalType": "uint256",
              "name": "bond",
              "type": "uint256"
            },
            {
              "internalType": "uint256",
              "name": "customLiveness",
              "type": "uint256"
            }
          ],
          "indexed": false,
          "internalType": "struct SkinnyOptimisticOracleInterface.Request",
          "name": "request",
          "type": "tuple"
        }
      ],
      "name": "ProposePrice",
      "type": "event"
    },
    {
      "anonymous": false,
      "inputs": [
        {
          "indexed": true,
          "internalType": "address",
          "name": "requester",
          "type": "address"
        },
        {
          "indexed": true,
          "internalType": "bytes32",
          "name": "identifier",
          "type": "bytes32"
        },
        {
          "indexed": false,
          "internalType": "uint32",
          "name": "timestamp",
          "type": "uint32"
        },
        {
          "indexed": false,
          "internalType": "bytes",
          "name": "ancillaryData",
          "type": "bytes"
        },
        {
          "components": [
            {
              "internalType": "address",
              "name": "proposer",
              "type": "address"
            },
            {
              "internalType": "address",
              "name": "disputer",
              "type": "address"
            },
            {
              "internalType": "contract IERC20",
              "name": "currency",
              "type": "address"
            },
            {
              "internalType": "bool",
              "name": "settled",
              "type": "bool"
            },
            {
              "internalType": "int256",
              "name": "proposedPrice",
              "type": "int256"
            },
            {
              "internalType": "int256",
              "name": "resolvedPrice",
              "type": "int256"
            },
            {
              "internalType": "uint256",
              "name": "expirationTime",
              "type": "uint256"
            },
            {
              "internalType": "uint256",
              "name": "reward",
              "type": "uint256"
            },
            {
              "internalType": "uint256",
              "name": "finalFee",
              "type": "uint256"
            },
            {
              "internalType": "uint256",
              "name": "bond",
              "type": "uint256"
            },
            {
              "internalType": "uint256",
              "name": "customLiveness",
              "type": "uint256"
            }
          ],
          "indexed": false,
          "internalType": "struct SkinnyOptimisticOracleInterface.Request",
          "name": "request",
          "type": "tuple"
        }
      ],
      "name": "RequestPrice",
      "type": "event"
    },
    {
      "anonymous": false,
      "inputs": [
        {
          "indexed": true,
          "internalType": "address",
          "name": "requester",
          "type": "address"
        },
        {
          "indexed": true,
          "internalType": "bytes32",
          "name": "identifier",
          "type": "bytes32"
        },
        {
          "indexed": false,
          "internalType": "uint32",
          "name": "timestamp",
          "type": "uint32"
        },
        {
          "indexed": false,
          "internalType": "bytes",
          "name": "ancillaryData",
          "type": "bytes"
        },
        {
          "components": [
            {
              "internalType": "address",
              "name": "proposer",
              "type": "address"
            },
            {
              "internalType": "address",
              "name": "disputer",
              "type": "address"
            },
            {
              "internalType": "contract IERC20",
              "name": "currency",
              "type": "address"
            },
            {
              "internalType": "bool",
              "name": "settled",
              "type": "bool"
            },
            {
              "internalType": "int256",
              "name": "proposedPrice",
              "type": "int256"
            },
            {
              "internalType": "int256",
              "name": "resolvedPrice",
              "type": "int256"
            },
            {
              "internalType": "uint256",
              "name": "expirationTime",
              "type": "uint256"
            },
            {
              "internalType": "uint256",
              "name": "reward",
              "type": "uint256"
            },
            {
              "internalType": "uint256",
              "name": "finalFee",
              "type": "uint256"
            },
            {
              "internalType": "uint256",
              "name": "bond",
              "type": "uint256"
            },
            {
              "internalType": "uint256",
              "name": "customLiveness",
              "type": "uint256"
            }
          ],
          "indexed": false,
          "internalType": "struct SkinnyOptimisticOracleInterface.Request",
          "name": "request",
          "type": "tuple"
        }
      ],
      "name": "Settle",
      "type": "event"
    },
    {
      "inputs": [],
      "name": "ancillaryBytesLimit",
      "outputs": [
        {
          "internalType": "uint256",
          "name": "",
          "type": "uint256"
        }
      ],
      "stateMutability": "view",
      "type": "function"
    },
    {
      "inputs": [],
      "name": "defaultLiveness",
      "outputs": [
        {
          "internalType": "uint256",
          "name": "",
          "type": "uint256"
        }
      ],
      "stateMutability": "view",
      "type": "function"
    },
    {
      "inputs": [
        {
          "internalType": "address",
          "name": "requester",
          "type": "address"
        },
        {
          "internalType": "bytes32",
          "name": "identifier",
          "type": "bytes32"
        },
        {
          "internalType": "uint32",
          "name": "timestamp",
          "type": "uint32"
        },
        {
          "internalType": "bytes",
          "name": "ancillaryData",
          "type": "bytes"
        },
        {
          "components": [
            {
              "internalType": "address",
              "name": "proposer",
              "type": "address"
            },
            {
              "internalType": "address",
              "name": "disputer",
              "type": "address"
            },
            {
              "internalType": "contract IERC20",
              "name": "currency",
              "type": "address"
            },
            {
              "internalType": "bool",
              "name": "settled",
              "type": "bool"
            },
            {
              "internalType": "int256",
              "name": "proposedPrice",
              "type": "int256"
            },
            {
              "internalType": "int256",
              "name": "resolvedPrice",
              "type": "int256"
            },
            {
              "internalType": "uint256",
              "name": "expirationTime",
              "type": "uint256"
            },
            {
              "internalType": "uint256",
              "name": "reward",
              "type": "uint256"
            },
            {
              "internalType": "uint256",
              "name": "finalFee",
              "type": "uint256"
            },
            {
              "internalType": "uint256",
              "name": "bond",
              "type": "uint256"
            },
            {
              "internalType": "uint256",
              "name": "customLiveness",
              "type": "uint256"
            }
          ],
          "internalType": "struct SkinnyOptimisticOracleInterface.Request",
          "name": "request",
          "type": "tuple"
        }
      ],
      "name": "disputePrice",
      "outputs": [
        {
          "internalType": "uint256",
          "name": "totalBond",
          "type": "uint256"
        }
      ],
      "stateMutability": "nonpayable",
      "type": "function"
    },
    {
      "inputs": [
        {
          "internalType": "bytes32",
          "name": "identifier",
          "type": "bytes32"
        },
        {
          "internalType": "uint32",
          "name": "timestamp",
          "type": "uint32"
        },
        {
          "internalType": "bytes",
          "name": "ancillaryData",
          "type": "bytes"
        },
        {
          "components": [
            {
              "internalType": "address",
              "name": "proposer",
              "type": "address"
            },
            {
              "internalType": "address",
              "name": "disputer",
              "type": "address"
            },
            {
              "internalType": "contract IERC20",
              "name": "currency",
              "type": "address"
            },
            {
              "internalType": "bool",
              "name": "settled",
              "type": "bool"
            },
            {
              "internalType": "int256",
              "name": "proposedPrice",
              "type": "int256"
            },
            {
              "internalType": "int256",
              "name": "resolvedPrice",
              "type": "int256"
            },
            {
              "internalType": "uint256",
              "name": "expirationTime",
              "type": "uint256"
            },
            {
              "internalType": "uint256",
              "name": "reward",
              "type": "uint256"
            },
            {
              "internalType": "uint256",
              "name": "finalFee",
              "type": "uint256"
            },
            {
              "internalType": "uint256",
              "name": "bond",
              "type": "uint256"
            },
            {
              "internalType": "uint256",
              "name": "customLiveness",
              "type": "uint256"
            }
          ],
          "internalType": "struct SkinnyOptimisticOracleInterface.Request",
          "name": "request",
          "type": "tuple"
        },
        {
          "internalType": "address",
          "name": "disputer",
          "type": "address"
        },
        {
          "internalType": "address",
          "name": "requester",
          "type": "address"
        }
      ],
      "name": "disputePriceFor",
      "outputs": [
        {
          "internalType": "uint256",
          "name": "totalBond",
          "type": "uint256"
        }
      ],
      "stateMutability": "nonpayable",
      "type": "function"
    },
    {
      "inputs": [],
      "name": "finder",
      "outputs": [
        {
          "internalType": "contract FinderInterface",
          "name": "",
          "type": "address"
        }
      ],
      "stateMutability": "view",
      "type": "function"
    },
    {
      "inputs": [],
      "name": "getCurrentTime",
      "outputs": [
        {
          "internalType": "uint256",
          "name": "",
          "type": "uint256"
        }
      ],
      "stateMutability": "view",
      "type": "function"
    },
    {
      "inputs": [
        {
          "internalType": "address",
          "name": "requester",
          "type": "address"
        },
        {
          "internalType": "bytes32",
          "name": "identifier",
          "type": "bytes32"
        },
        {
          "internalType": "uint32",
          "name": "timestamp",
          "type": "uint32"
        },
        {
          "internalType": "bytes",
          "name": "ancillaryData",
          "type": "bytes"
        },
        {
          "components": [
            {
              "internalType": "address",
              "name": "proposer",
              "type": "address"
            },
            {
              "internalType": "address",
              "name": "disputer",
              "type": "address"
            },
            {
              "internalType": "contract IERC20",
              "name": "currency",
              "type": "address"
            },
            {
              "internalType": "bool",
              "name": "settled",
              "type": "bool"
            },
            {
              "internalType": "int256",
              "name": "proposedPrice",
              "type": "int256"
            },
            {
              "internalType": "int256",
              "name": "resolvedPrice",
              "type": "int256"
            },
            {
              "internalType": "uint256",
              "name": "expirationTime",
              "type": "uint256"
            },
            {
              "internalType": "uint256",
              "name": "reward",
              "type": "uint256"
            },
            {
              "internalType": "uint256",
              "name": "finalFee",
              "type": "uint256"
            },
            {
              "internalType": "uint256",
              "name": "bond",
              "type": "uint256"
            },
            {
              "internalType": "uint256",
              "name": "customLiveness",
              "type": "uint256"
            }
          ],
          "internalType": "struct SkinnyOptimisticOracleInterface.Request",
          "name": "request",
          "type": "tuple"
        }
      ],
      "name": "getState",
      "outputs": [
        {
          "internalType": "enum OptimisticOracleInterface.State",
          "name": "",
          "type": "uint8"
        }
      ],
      "stateMutability": "nonpayable",
      "type": "function"
    },
    {
      "inputs": [
        {
          "internalType": "address",
          "name": "requester",
          "type": "address"
        },
        {
          "internalType": "bytes32",
          "name": "identifier",
          "type": "bytes32"
        },
        {
          "internalType": "uint32",
          "name": "timestamp",
          "type": "uint32"
        },
        {
          "internalType": "bytes",
          "name": "ancillaryData",
          "type": "bytes"
        },
        {
          "components": [
            {
              "internalType": "address",
              "name": "proposer",
              "type": "address"
            },
            {
              "internalType": "address",
              "name": "disputer",
              "type": "address"
            },
            {
              "internalType": "contract IERC20",
              "name": "currency",
              "type": "address"
            },
            {
              "internalType": "bool",
              "name": "settled",
              "type": "bool"
            },
            {
              "internalType": "int256",
              "name": "proposedPrice",
              "type": "int256"
            },
            {
              "internalType": "int256",
              "name": "resolvedPrice",
              "type": "int256"
            },
            {
              "internalType": "uint256",
              "name": "expirationTime",
              "type": "uint256"
            },
            {
              "internalType": "uint256",
              "name": "reward",
              "type": "uint256"
            },
            {
              "internalType": "uint256",
              "name": "finalFee",
              "type": "uint256"
            },
            {
              "internalType": "uint256",
              "name": "bond",
              "type": "uint256"
            },
            {
              "internalType": "uint256",
              "name": "customLiveness",
              "type": "uint256"
            }
          ],
          "internalType": "struct SkinnyOptimisticOracleInterface.Request",
          "name": "request",
          "type": "tuple"
        }
      ],
      "name": "hasPrice",
      "outputs": [
        {
          "internalType": "bool",
          "name": "",
          "type": "bool"
        }
      ],
      "stateMutability": "nonpayable",
      "type": "function"
    },
    {
      "inputs": [
        {
          "internalType": "address",
          "name": "requester",
          "type": "address"
        },
        {
          "internalType": "bytes32",
          "name": "identifier",
          "type": "bytes32"
        },
        {
          "internalType": "uint32",
          "name": "timestamp",
          "type": "uint32"
        },
        {
          "internalType": "bytes",
          "name": "ancillaryData",
          "type": "bytes"
        },
        {
          "components": [
            {
              "internalType": "address",
              "name": "proposer",
              "type": "address"
            },
            {
              "internalType": "address",
              "name": "disputer",
              "type": "address"
            },
            {
              "internalType": "contract IERC20",
              "name": "currency",
              "type": "address"
            },
            {
              "internalType": "bool",
              "name": "settled",
              "type": "bool"
            },
            {
              "internalType": "int256",
              "name": "proposedPrice",
              "type": "int256"
            },
            {
              "internalType": "int256",
              "name": "resolvedPrice",
              "type": "int256"
            },
            {
              "internalType": "uint256",
              "name": "expirationTime",
              "type": "uint256"
            },
            {
              "internalType": "uint256",
              "name": "reward",
              "type": "uint256"
            },
            {
              "internalType": "uint256",
              "name": "finalFee",
              "type": "uint256"
            },
            {
              "internalType": "uint256",
              "name": "bond",
              "type": "uint256"
            },
            {
              "internalType": "uint256",
              "name": "customLiveness",
              "type": "uint256"
            }
          ],
          "internalType": "struct SkinnyOptimisticOracleInterface.Request",
          "name": "request",
          "type": "tuple"
        },
        {
          "internalType": "int256",
          "name": "proposedPrice",
          "type": "int256"
        }
      ],
      "name": "proposePrice",
      "outputs": [
        {
          "internalType": "uint256",
          "name": "totalBond",
          "type": "uint256"
        }
      ],
      "stateMutability": "nonpayable",
      "type": "function"
    },
    {
      "inputs": [
        {
          "internalType": "address",
          "name": "requester",
          "type": "address"
        },
        {
          "internalType": "bytes32",
          "name": "identifier",
          "type": "bytes32"
        },
        {
          "internalType": "uint32",
          "name": "timestamp",
          "type": "uint32"
        },
        {
          "internalType": "bytes",
          "name": "ancillaryData",
          "type": "bytes"
        },
        {
          "components": [
            {
              "internalType": "address",
              "name": "proposer",
              "type": "address"
            },
            {
              "internalType": "address",
              "name": "disputer",
              "type": "address"
            },
            {
              "internalType": "contract IERC20",
              "name": "currency",
              "type": "address"
            },
            {
              "internalType": "bool",
              "name": "settled",
              "type": "bool"
            },
            {
              "internalType": "int256",
              "name": "proposedPrice",
              "type": "int256"
            },
            {
              "internalType": "int256",
              "name": "resolvedPrice",
              "type": "int256"
            },
            {
              "internalType": "uint256",
              "name": "expirationTime",
              "type": "uint256"
            },
            {
              "internalType": "uint256",
              "name": "reward",
              "type": "uint256"
            },
            {
              "internalType": "uint256",
              "name": "finalFee",
              "type": "uint256"
            },
            {
              "internalType": "uint256",
              "name": "bond",
              "type": "uint256"
            },
            {
              "internalType": "uint256",
              "name": "customLiveness",
              "type": "uint256"
            }
          ],
          "internalType": "struct SkinnyOptimisticOracleInterface.Request",
          "name": "request",
          "type": "tuple"
        },
        {
          "internalType": "address",
          "name": "proposer",
          "type": "address"
        },
        {
          "internalType": "int256",
          "name": "proposedPrice",
          "type": "int256"
        }
      ],
      "name": "proposePriceFor",
      "outputs": [
        {
          "internalType": "uint256",
          "name": "totalBond",
          "type": "uint256"
        }
      ],
      "stateMutability": "nonpayable",
      "type": "function"
    },
    {
      "inputs": [
        {
          "internalType": "bytes32",
          "name": "identifier",
          "type": "bytes32"
        },
        {
          "internalType": "uint32",
          "name": "timestamp",
          "type": "uint32"
        },
        {
          "internalType": "bytes",
          "name": "ancillaryData",
          "type": "bytes"
        },
        {
          "internalType": "contract IERC20",
          "name": "currency",
          "type": "address"
        },
        {
          "internalType": "uint256",
          "name": "reward",
          "type": "uint256"
        },
        {
          "internalType": "uint256",
          "name": "bond",
          "type": "uint256"
        },
        {
          "internalType": "uint256",
          "name": "customLiveness",
          "type": "uint256"
        },
        {
          "internalType": "address",
          "name": "proposer",
          "type": "address"
        },
        {
          "internalType": "int256",
          "name": "proposedPrice",
          "type": "int256"
        }
      ],
      "name": "requestAndProposePriceFor",
      "outputs": [
        {
          "internalType": "uint256",
          "name": "totalBond",
          "type": "uint256"
        }
      ],
      "stateMutability": "nonpayable",
      "type": "function"
    },
    {
      "inputs": [
        {
          "internalType": "bytes32",
          "name": "identifier",
          "type": "bytes32"
        },
        {
          "internalType": "uint32",
          "name": "timestamp",
          "type": "uint32"
        },
        {
          "internalType": "bytes",
          "name": "ancillaryData",
          "type": "bytes"
        },
        {
          "internalType": "contract IERC20",
          "name": "currency",
          "type": "address"
        },
        {
          "internalType": "uint256",
          "name": "reward",
          "type": "uint256"
        },
        {
          "internalType": "uint256",
          "name": "bond",
          "type": "uint256"
        },
        {
          "internalType": "uint256",
          "name": "customLiveness",
          "type": "uint256"
        }
      ],
      "name": "requestPrice",
      "outputs": [
        {
          "internalType": "uint256",
          "name": "totalBond",
          "type": "uint256"
        }
      ],
      "stateMutability": "nonpayable",
      "type": "function"
    },
    {
      "inputs": [
        {
          "internalType": "bytes32",
          "name": "",
          "type": "bytes32"
        }
      ],
      "name": "requests",
      "outputs": [
        {
          "internalType": "bytes32",
          "name": "",
          "type": "bytes32"
        }
      ],
      "stateMutability": "view",
      "type": "function"
    },
    {
      "inputs": [
        {
          "internalType": "uint256",
          "name": "time",
          "type": "uint256"
        }
      ],
      "name": "setCurrentTime",
      "outputs": [],
      "stateMutability": "nonpayable",
      "type": "function"
    },
    {
      "inputs": [
        {
          "internalType": "address",
          "name": "requester",
          "type": "address"
        },
        {
          "internalType": "bytes32",
          "name": "identifier",
          "type": "bytes32"
        },
        {
          "internalType": "uint32",
          "name": "timestamp",
          "type": "uint32"
        },
        {
          "internalType": "bytes",
          "name": "ancillaryData",
          "type": "bytes"
        },
        {
          "components": [
            {
              "internalType": "address",
              "name": "proposer",
              "type": "address"
            },
            {
              "internalType": "address",
              "name": "disputer",
              "type": "address"
            },
            {
              "internalType": "contract IERC20",
              "name": "currency",
              "type": "address"
            },
            {
              "internalType": "bool",
              "name": "settled",
              "type": "bool"
            },
            {
              "internalType": "int256",
              "name": "proposedPrice",
              "type": "int256"
            },
            {
              "internalType": "int256",
              "name": "resolvedPrice",
              "type": "int256"
            },
            {
              "internalType": "uint256",
              "name": "expirationTime",
              "type": "uint256"
            },
            {
              "internalType": "uint256",
              "name": "reward",
              "type": "uint256"
            },
            {
              "internalType": "uint256",
              "name": "finalFee",
              "type": "uint256"
            },
            {
              "internalType": "uint256",
              "name": "bond",
              "type": "uint256"
            },
            {
              "internalType": "uint256",
              "name": "customLiveness",
              "type": "uint256"
            }
          ],
          "internalType": "struct SkinnyOptimisticOracleInterface.Request",
          "name": "request",
          "type": "tuple"
        }
      ],
      "name": "settle",
      "outputs": [
        {
          "internalType": "uint256",
          "name": "payout",
          "type": "uint256"
        },
        {
          "internalType": "int256",
          "name": "resolvedPrice",
          "type": "int256"
        }
      ],
      "stateMutability": "nonpayable",
      "type": "function"
    },
    {
      "inputs": [
        {
          "internalType": "bytes",
          "name": "ancillaryData",
          "type": "bytes"
        },
        {
          "internalType": "address",
          "name": "requester",
          "type": "address"
        }
      ],
      "name": "stampAncillaryData",
      "outputs": [
        {
          "internalType": "bytes",
          "name": "",
          "type": "bytes"
        }
      ],
      "stateMutability": "pure",
      "type": "function"
    },
    {
      "inputs": [],
      "name": "timerAddress",
      "outputs": [
        {
          "internalType": "address",
          "name": "",
          "type": "address"
        }
      ],
      "stateMutability": "view",
      "type": "function"
    }
  ],
  "bytecode": {
    "object": "0x60806040523480156200001157600080fd5b5060405162002d8138038062002d81833981016040819052620000349162000150565b60008054600160a01b6001600160a01b038481166001600160a81b03199093169290921717909155600280546001600160a01b031916918416919091179055828282620000818362000090565b50506003555062000191915050565b63bb7448008110620000de5760405162461bcd60e51b81526020600482015260126024820152714c6976656e65737320746f6f206c6172676560701b60448201526064015b60405180910390fd5b60008111620001305760405162461bcd60e51b815260206004820152601460248201527f4c6976656e6573732063616e6e6f7420626520300000000000000000000000006044820152606401620000d5565b50565b80516001600160a01b03811681146200014b57600080fd5b919050565b6000806000606084860312156200016657600080fd5b83519250620001786020850162000133565b9150620001886040850162000133565b90509250925092565b612be080620001a16000396000f3fe608060405234801561001057600080fd5b506004361061010b5760003560e01c8063a337e1ad116100a2578063b730539f11610071578063b730539f14610247578063b9a3c84c1461026f578063c371dda714610282578063d62284071461028b578063fe4e19831461029e57600080fd5b8063a337e1ad146101de578063af355d1e14610201578063af5d2f3914610214578063b1a166b21461023457600080fd5b806351205554116100de578063512055541461017857806393c44ef7146101985780639ce320c8146101ab5780639d866985146101be57600080fd5b80631c39c38d1461011057806322f8e5661461014057806329cb924d146101555780633a31577e14610165575b600080fd5b600054610123906001600160a01b031681565b6040516001600160a01b0390911681526020015b60405180910390f35b61015361014e366004612232565b6102a7565b005b425b604051908152602001610137565b61015761017336600461241a565b61031d565b61018b61018636600461241a565b610339565b60405161013791906124ad565b6101576101a63660046124d5565b610362565b6101576101b936600461255b565b610380565b6101576101cc366004612232565b60016020526000908152604090205481565b6101f16101ec36600461241a565b610745565b6040519015158152602001610137565b61015761020f3660046125ed565b6107db565b610227610222366004612693565b610d19565b604051610137919061273d565b610157610242366004612750565b610d2e565b61025a61025536600461241a565b610fcf565b60408051928352602083019190915201610137565b600254610123906001600160a01b031681565b61015761200081565b6101576102993660046127ed565b611005565b61015760035481565b6000546001600160a01b03166102bc57600080fd5b60005460405163117c72b360e11b8152600481018390526001600160a01b03909116906322f8e56690602401600060405180830381600087803b15801561030257600080fd5b505af1158015610316573d6000803e3d6000fd5b5050505050565b600061032d85858585338b610380565b90505b95945050505050565b60006103436113de565b61034b611439565b6103588686868686611448565b9050610330611555565b600061037387878787873388610d2e565b90505b9695505050505050565b600061038a6113de565b610392611439565b6001600160a01b0383166103ed5760405162461bcd60e51b815260206004820152601e60248201527f64697370757465722061646472657373206d757374206265206e6f6e2030000060448201526064015b60405180910390fd5b60026103fc8389898989611448565b600681111561040d5761040d612497565b1461044d5760405162461bcd60e51b815260206004820152601060248201526f135d5cdd081899481c1c9bdc1bdcd95960821b60448201526064016103e4565b600061045b8389898961156a565b905061046781866115a4565b600060405180610160016040528087600001516001600160a01b03168152602001866001600160a01b0316815260200187604001516001600160a01b03168152602001876060015115158152602001876080015181526020018760a0015181526020018760c0015181526020018760e0015181526020018761010001518152602001876101200151815260200187610140015181525090506105098282611633565b61010086015161012087015161051e91611652565b92508215610540576040860151610540906001600160a01b031633308661165e565b600061054a6116cf565b905060006105578361174a565b90506000610573828a610100015161165290919063ffffffff16565b90508015610611576040890151610594906001600160a01b0316848361175e565b61059c6116cf565b60408a8101518151602081018352848152915163432ce91960e11b81526001600160a01b039182166004820152915160248301529190911690638659d23290604401600060405180830381600087803b1580156105f857600080fd5b505af115801561060c573d6000803e3d6000fd5b505050505b505061061b611810565b6001600160a01b031663216666a48b8b6106358c8a61184a565b6040518463ffffffff1660e01b815260040161065393929190612872565b600060405180830381600087803b15801561066d57600080fd5b505af1158015610681573d6000803e3d6000fd5b5050505089856001600160a01b03167f2d2ed23d7d2e875b405c36213cc1668e3adf8b4d845653bd9f977c313d599ffe8b8b866040516106c393929190612938565b60405180910390a36001600160a01b0385163b1561073a576040516308dd6a0560e11b81526001600160a01b038616906311bad40a9061070d908d908d908d908890600401612968565b600060405180830381600087803b15801561072757600080fd5b505af1925050508015610738575060015b505b505050610376611555565b600061074f6113de565b610757611439565b60006107658787878761156a565b905061077181846115a4565b60006107808888888888611448565b9050600681600681111561079657610796612497565b14806107b3575060058160068111156107b1576107b1612497565b145b806107cf575060038160068111156107cd576107cd612497565b145b92505050610330611555565b60006107e56113de565b6107ed611439565b60006107fb338c8c8c61156a565b6000818152600160205260409020549091501561085a5760405162461bcd60e51b815260206004820152601b60248201527f5265717565737420616c726561647920696e697469616c697a6564000000000060448201526064016103e4565b6001600160a01b0384166108b05760405162461bcd60e51b815260206004820152601e60248201527f70726f706f7365722061646472657373206d757374206265206e6f6e2030000060448201526064016103e4565b6108b861187a565b6001600160a01b03166390978d1b8c6040518263ffffffff1660e01b81526004016108e591815260200190565b602060405180830381865afa158015610902573d6000803e3d6000fd5b505050506040513d601f19601f82011682018060405250810190610926919061299e565b61096b5760405162461bcd60e51b81526020600482015260166024820152752ab739bab83837b93a32b21034b232b73a34b334b2b960511b60448201526064016103e4565b6109736118c1565b604051631d1d5b3960e11b81526001600160a01b038a811660048301529190911690633a3ab67290602401602060405180830381865afa1580156109bb573d6000803e3d6000fd5b505050506040513d601f19601f820116820180604052508101906109df919061299e565b610a225760405162461bcd60e51b8152602060048201526014602482015273556e737570706f727465642063757272656e637960601b60448201526064016103e4565b428a63ffffffff161115610a6e5760405162461bcd60e51b815260206004820152601360248201527254696d657374616d7020696e2066757475726560681b60448201526064016103e4565b612000610a7b8a3361184a565b511115610ac45760405162461bcd60e51b8152602060048201526017602482015276416e63696c6c617279204461746120746f6f206c6f6e6760481b60448201526064016103e4565b6000610ace6116cf565b604051635b97aadd60e01b81526001600160a01b038b811660048301529190911690635b97aadd90602401602060405180830381865afa158015610b16573d6000803e3d6000fd5b505050506040513d601f19601f82011682018060405250810190610b3a91906129bb565b519050610b456121bb565b6001600160a01b038a16604082015260e0810189905261010081018290526000889003610b725781610b74565b875b61012082015261014081018790526001600160a01b038616815260808101859052610bb36000889003610ba957600354610bab565b875b425b90611652565b60c0820152610bc28382611633565b8815610bdd57610bdd6001600160a01b038b1633308c61165e565b610100810151610120820151610bf291611652565b93508315610c0f57610c0f6001600160a01b038b1633308761165e565b8c336001600160a01b03167f6f8b57987b901f40681c863d8aed32c2cc6150062aa4ddb828c89aaa896c16688e8e85604051610c4d93929190612938565b60405180910390a38c336001600160a01b03167fdb27b6b59f934dc351fe9188a12f94a06c3c867c683c6e65c7e2b4c8aa6e9a048e8e85604051610c9393929190612938565b60405180910390a3333b15610d0157336001600160a01b031663724f18148e8e8e856040518563ffffffff1660e01b8152600401610cd49493929190612968565b600060405180830381600087803b158015610cee57600080fd5b505af1925050508015610cff575060015b505b505050610d0c611555565b9998505050505050505050565b6060610d25838361184a565b90505b92915050565b6000610d386113de565b610d40611439565b6001600160a01b038316610d965760405162461bcd60e51b815260206004820152601e60248201527f50726f706f7365722061646472657373206d757374206265206e6f6e2030000060448201526064016103e4565b6001610da58989898989611448565b6006811115610db657610db6612497565b14610df75760405162461bcd60e51b8152602060048201526011602482015270135d5cdd081899481c995c5d595cdd1959607a1b60448201526064016103e4565b6000610e058989898961156a565b9050610e1181866115a4565b6000604051806101600160405280866001600160a01b0316815260200187602001516001600160a01b0316815260200187604001516001600160a01b031681526020018760600151151581526020018581526020018760a001518152602001610e94886101400151600003610e8857600354610bab565b61014089015142610bad565b81526020018760e001518152602001876101000151815260200187610120015181526020018761014001518152509050610ece8282611633565b610100860151610120870151610ee391611652565b92508215610f05576040860151610f05906001600160a01b031633308661165e565b888a6001600160a01b03167fdb27b6b59f934dc351fe9188a12f94a06c3c867c683c6e65c7e2b4c8aa6e9a048a8a85604051610f4393929190612938565b60405180910390a36001600160a01b038a163b15610fba57604051631c93c60560e21b81526001600160a01b038b169063724f181490610f8d908c908c908c908790600401612968565b600060405180830381600087803b158015610fa757600080fd5b505af1925050508015610fb8575060015b505b5050610fc4611555565b979650505050505050565b600080610fda6113de565b610fe2611439565b610fef8787878787611908565b91509150610ffb611555565b9550959350505050565b600061100f6113de565b611017611439565b6000611025338a8a8a61156a565b600081815260016020526040902054909150156110845760405162461bcd60e51b815260206004820152601b60248201527f5265717565737420616c726561647920696e697469616c697a6564000000000060448201526064016103e4565b61108c61187a565b6001600160a01b03166390978d1b8a6040518263ffffffff1660e01b81526004016110b991815260200190565b602060405180830381865afa1580156110d6573d6000803e3d6000fd5b505050506040513d601f19601f820116820180604052508101906110fa919061299e565b61113f5760405162461bcd60e51b81526020600482015260166024820152752ab739bab83837b93a32b21034b232b73a34b334b2b960511b60448201526064016103e4565b6111476118c1565b604051631d1d5b3960e11b81526001600160a01b0388811660048301529190911690633a3ab67290602401602060405180830381865afa15801561118f573d6000803e3d6000fd5b505050506040513d601f19601f820116820180604052508101906111b3919061299e565b6111f65760405162461bcd60e51b8152602060048201526014602482015273556e737570706f727465642063757272656e637960601b60448201526064016103e4565b428863ffffffff1611156112425760405162461bcd60e51b815260206004820152601360248201527254696d657374616d7020696e2066757475726560681b60448201526064016103e4565b61200061124f883361184a565b5111156112985760405162461bcd60e51b8152602060048201526017602482015276416e63696c6c617279204461746120746f6f206c6f6e6760481b60448201526064016103e4565b60006112a26116cf565b604051635b97aadd60e01b81526001600160a01b0389811660048301529190911690635b97aadd90602401602060405180830381865afa1580156112ea573d6000803e3d6000fd5b505050506040513d601f19601f8201168201806040525081019061130e91906129bb565b5190506113196121bb565b6001600160a01b038816604082015260e08101879052610100810182905260008690036113465781611348565b855b61012082015261014081018590526113608382611633565b861561137b5761137b6001600160a01b03891633308a61165e565b8a336001600160a01b03167f6f8b57987b901f40681c863d8aed32c2cc6150062aa4ddb828c89aaa896c16688c8c856040516113b993929190612938565b60405180910390a36101208101516113d19083611652565b9350505050610fc4611555565b600054600160a01b900460ff166114375760405162461bcd60e51b815260206004820152601f60248201527f5265656e7472616e637947756172643a207265656e7472616e742063616c6c0060448201526064016103e4565b565b6000805460ff60a01b19169055565b60408101516000906001600160a01b031661146557506000610330565b81516001600160a01b031661147c57506001610330565b81606001511561148e57506006610330565b60208201516001600160a01b03166114bd57428260c0015111156114b35760026114b6565b60035b9050610330565b6114c5611810565b6001600160a01b031663b551cd5086866114df878b61184a565b6040518463ffffffff1660e01b81526004016114fd93929190612872565b602060405180830381865afa15801561151a573d6000803e3d6000fd5b505050506040513d601f19601f8201168201806040525081019061153e919061299e565b61154957600461032d565b50600595945050505050565b6000805460ff60a01b1916600160a01b179055565b60008484848460405160200161158394939291906129fd565b6040516020818303038152906040528051906020012090505b949350505050565b6115ad81611c6f565b6000838152600160205260409020541461162f5760405162461bcd60e51b815260206004820152603860248201527f486173686564207265717565737420706172616d7320646f206e6f74206d617460448201527f6368206578697374696e6720726571756573742068617368000000000000000060648201526084016103e4565b5050565b61163c81611c6f565b6000928352600160205260409092209190915550565b6000610d258284612a46565b6040516001600160a01b03808516602483015283166044820152606481018290526116c99085906323b872dd60e01b906084015b60408051601f198184030181529190526020810180516001600160e01b03166001600160e01b031990931692909217909152611c9f565b50505050565b6002546040516302abf57960e61b81526453746f726560d81b60048201526000916001600160a01b03169063aafd5e40906024015b602060405180830381865afa158015611721573d6000803e3d6000fd5b505050506040513d601f19601f820116820180604052508101906117459190612a5e565b905090565b610120810151600090610d28906002611d76565b604051636eb1769f60e11b81523060048201526001600160a01b038381166024830152600091839186169063dd62ed3e90604401602060405180830381865afa1580156117af573d6000803e3d6000fd5b505050506040513d601f19601f820116820180604052508101906117d39190612a7b565b6117dd9190612a46565b6040516001600160a01b0385166024820152604481018290529091506116c990859063095ea7b360e01b90606401611692565b6002546040516302abf57960e61b8152654f7261636c6560d01b60048201526000916001600160a01b03169063aafd5e4090602401611704565b6060610d25836040518060400160405280600b81526020016a37b7a932b8bab2b9ba32b960a91b81525084611d82565b6002546040516302abf57960e61b8152721259195b9d1a599a595c95da1a5d195b1a5cdd606a1b60048201526000916001600160a01b03169063aafd5e4090602401611704565b6002546040516302abf57960e61b81527210dbdb1b185d195c985b15da1a5d195b1a5cdd606a1b60048201526000916001600160a01b03169063aafd5e4090602401611704565b60008060006119198888888861156a565b905061192581856115a4565b600060405180610160016040528086600001516001600160a01b0316815260200186602001516001600160a01b0316815260200186604001516001600160a01b03168152602001600115158152602001866080015181526020018660a0015181526020018660c0015181526020018660e00151815260200186610100015181526020018661012001518152602001866101400151815250905060006119cd8a8a8a8a8a611448565b905060038160068111156119e3576119e3612497565b03611a3857608086015160a0830181905260e0870151610100880151610120890151929650611a1592610bad91611652565b86516040880151919650611a33916001600160a01b03169087611dc9565b611ba3565b6005816006811115611a4c57611a4c612497565b03611b5157611a59611810565b6001600160a01b031663719c6d568a8a611a738b8f61184a565b6040518463ffffffff1660e01b8152600401611a9193929190612872565b602060405180830381865afa158015611aae573d6000803e3d6000fd5b505050506040513d601f19601f82011682018060405250810190611ad29190612a7b565b60a08301819052608087015160e08801516101008901519296509086141591611b1f9190610bad9081611b13611b078961174a565b6101208e015190611df9565b6101208d015190611652565b9550611b4b81611b30578751611b36565b87602001515b60408901516001600160a01b03169088611dc9565b50611ba3565b60405162461bcd60e51b815260206004820152602160248201527f416c726561647920736574746c6564206f72206e6f7420736574746c6561626c6044820152606560f81b60648201526084016103e4565b611bad8383611633565b888a6001600160a01b03167f0a9a88a76857159cb49d0944fe45537825a67ea75e0df805097782be5bdcd0af8a8a86604051611beb93929190612938565b60405180910390a36001600160a01b038a163b15611c625760405163413f3f9f60e11b81526001600160a01b038b169063827e7f3e90611c35908c908c908c908890600401612968565b600060405180830381600087803b158015611c4f57600080fd5b505af1925050508015611c60575060015b505b5050509550959350505050565b600081604051602001611c829190612a94565b604051602081830303815290604052805190602001209050919050565b6000611cf4826040518060400160405280602081526020017f5361666545524332303a206c6f772d6c6576656c2063616c6c206661696c6564815250856001600160a01b0316611e059092919063ffffffff16565b805190915015611d715780806020019051810190611d12919061299e565b611d715760405162461bcd60e51b815260206004820152602a60248201527f5361666545524332303a204552433230206f7065726174696f6e20646964206e6044820152691bdd081cdd58d8d9595960b21b60648201526084016103e4565b505050565b6000610d258284612ab9565b60606000611d908585611e14565b90508481611d9d85611e56565b604051602001611daf93929190612adb565b6040516020818303038152906040529150505b9392505050565b6040516001600160a01b038316602482015260448101829052611d7190849063a9059cbb60e01b90606401611692565b6000610d258284612b1e565b606061159c8484600085611ec3565b815160609015611e455781604051602001611e2f9190612b35565b6040516020818303038152906040529050610d28565b81604051602001611e2f9190612b69565b6060611e6e6001600160801b03602084901c16611fe9565b611e898360601b6bffffffffffffffffffffffff1916611fe9565b604051602001611ead9291909182526001600160c01b031916602082015260280190565b6040516020818303038152906040529050919050565b606082471015611f245760405162461bcd60e51b815260206004820152602660248201527f416464726573733a20696e73756666696369656e742062616c616e636520666f6044820152651c8818d85b1b60d21b60648201526084016103e4565b6001600160a01b0385163b611f7b5760405162461bcd60e51b815260206004820152601d60248201527f416464726573733a2063616c6c20746f206e6f6e2d636f6e747261637400000060448201526064016103e4565b600080866001600160a01b03168587604051611f979190612b8e565b60006040518083038185875af1925050503d8060008114611fd4576040519150601f19603f3d011682016040523d82523d6000602084013e611fd9565b606091505b5091509150610fc4828286612182565b6000808260001c9050806001600160801b03169050806801000000000000000002811777ffffffffffffffff0000000000000000ffffffffffffffff169050806401000000000281177bffffffff00000000ffffffff00000000ffffffff00000000ffffffff16905080620100000281177dffff0000ffff0000ffff0000ffff0000ffff0000ffff0000ffff0000ffff169050806101000281177eff00ff00ff00ff00ff00ff00ff00ff00ff00ff00ff00ff00ff00ff00ff00ff1690508060100281177f0f0f0f0f0f0f0f0f0f0f0f0f0f0f0f0f0f0f0f0f0f0f0f0f0f0f0f0f0f0f0f0f16905060006008827f0808080808080808080808080808080808080808080808080808080808080808168161210457612104612aa3565b0460047f040404040404040404040404040404040404040404040404040404040404040484160460027f020202020202020202020202020202020202020202020202020202020202020285160417166027029091017f3030303030303030303030303030303030303030303030303030303030303030019392505050565b60608315612191575081611dc2565b8251156121a15782518084602001fd5b8160405162461bcd60e51b81526004016103e4919061273d565b60405180610160016040528060006001600160a01b0316815260200160006001600160a01b0316815260200160006001600160a01b03168152602001600015158152602001600081526020016000815260200160008152602001600081526020016000815260200160008152602001600081525090565b60006020828403121561224457600080fd5b5035919050565b6001600160a01b038116811461226057600080fd5b50565b803561226e8161224b565b919050565b803563ffffffff8116811461226e57600080fd5b634e487b7160e01b600052604160045260246000fd5b604051610160810167ffffffffffffffff811182821017156122c1576122c1612287565b60405290565b600082601f8301126122d857600080fd5b813567ffffffffffffffff808211156122f3576122f3612287565b604051601f8301601f19908116603f0116810190828211818310171561231b5761231b612287565b8160405283815286602085880101111561233457600080fd5b836020870160208301376000602085830101528094505050505092915050565b801515811461226057600080fd5b803561226e81612354565b6000610160828403121561238057600080fd5b61238861229d565b905061239382612263565b81526123a160208301612263565b60208201526123b260408301612263565b60408201526123c360608301612362565b60608201526080820135608082015260a082013560a082015260c082013560c082015260e082013560e082015261010080830135818301525061012080830135818301525061014080830135818301525092915050565b60008060008060006101e0868803121561243357600080fd5b853561243e8161224b565b94506020860135935061245360408701612273565b9250606086013567ffffffffffffffff81111561246f57600080fd5b61247b888289016122c7565b92505061248b876080880161236d565b90509295509295909350565b634e487b7160e01b600052602160045260246000fd5b60208101600783106124cf57634e487b7160e01b600052602160045260246000fd5b91905290565b60008060008060008061020087890312156124ef57600080fd5b86356124fa8161224b565b95506020870135945061250f60408801612273565b9350606087013567ffffffffffffffff81111561252b57600080fd5b61253789828a016122c7565b935050612547886080890161236d565b91506101e087013590509295509295509295565b600080600080600080610200878903121561257557600080fd5b8635955061258560208801612273565b9450604087013567ffffffffffffffff8111156125a157600080fd5b6125ad89828a016122c7565b9450506125bd886060890161236d565b92506101c08701356125ce8161224b565b91506101e08701356125df8161224b565b809150509295509295509295565b60008060008060008060008060006101208a8c03121561260c57600080fd5b8935985061261c60208b01612273565b975060408a013567ffffffffffffffff81111561263857600080fd5b6126448c828d016122c7565b97505060608a01356126558161224b565b955060808a0135945060a08a0135935060c08a0135925060e08a013561267a8161224b565b809250506101008a013590509295985092959850929598565b600080604083850312156126a657600080fd5b823567ffffffffffffffff8111156126bd57600080fd5b6126c9858286016122c7565b92505060208301356126da8161224b565b809150509250929050565b60005b838110156127005781810151838201526020016126e8565b838111156116c95750506000910152565b600081518084526127298160208601602086016126e5565b601f01601f19169290920160200192915050565b602081526000610d256020830184612711565b6000806000806000806000610220888a03121561276c57600080fd5b87356127778161224b565b96506020880135955061278c60408901612273565b9450606088013567ffffffffffffffff8111156127a857600080fd5b6127b48a828b016122c7565b9450506127c48960808a0161236d565b92506101e08801356127d58161224b565b80925050610200880135905092959891949750929550565b600080600080600080600060e0888a03121561280857600080fd5b8735965061281860208901612273565b9550604088013567ffffffffffffffff81111561283457600080fd5b6128408a828b016122c7565b95505060608801356128518161224b565b9699959850939660808101359560a0820135955060c0909101359350915050565b83815263ffffffff831660208201526060604082015260006103306060830184612711565b80516001600160a01b0316825260208101516128be60208401826001600160a01b03169052565b5060408101516128d960408401826001600160a01b03169052565b5060608101516128ed606084018215159052565b506080818101519083015260a0808201519083015260c0808201519083015260e080820151908301526101008082015190830152610120808201519083015261014090810151910152565b60006101a063ffffffff8616835280602084015261295881840186612711565b91505061159c6040830184612897565b60006101c086835263ffffffff8616602084015280604084015261298e81840186612711565b9150506103306060830184612897565b6000602082840312156129b057600080fd5b8151611dc281612354565b6000602082840312156129cd57600080fd5b6040516020810181811067ffffffffffffffff821117156129f0576129f0612287565b6040529151825250919050565b60018060a01b038516815283602082015263ffffffff8316604082015260806060820152600061032d6080830184612711565b634e487b7160e01b600052601160045260246000fd5b60008219821115612a5957612a59612a30565b500190565b600060208284031215612a7057600080fd5b8151611dc28161224b565b600060208284031215612a8d57600080fd5b5051919050565b6101608101610d288284612897565b634e487b7160e01b600052601260045260246000fd5b600082612ad657634e487b7160e01b600052601260045260246000fd5b500490565b60008451612aed8184602089016126e5565b845190830190612b018183602089016126e5565b8451910190612b148183602088016126e5565b0195945050505050565b600082821015612b3057612b30612a30565b500390565b600b60fa1b815260008251612b518160018501602087016126e5565b601d60f91b6001939091019283015250600201919050565b60008251612b7b8184602087016126e5565b601d60f91b920191825250600101919050565b60008251612ba08184602087016126e5565b919091019291505056fea2646970667358221220b27e8d992b10483fdf539bed60c979655d6b8408498abbca0c8f12e7961cedbc64736f6c634300080d0033",
    "linkReferences": {}
  },
  "methodIdentifiers": {
    "ancillaryBytesLimit()": "c371dda7",
    "defaultLiveness()": "fe4e1983",
    "disputePrice(address,bytes32,uint32,bytes,(address,address,address,bool,int256,int256,uint256,uint256,uint256,uint256,uint256))": "3a31577e",
    "disputePriceFor(bytes32,uint32,bytes,(address,address,address,bool,int256,int256,uint256,uint256,uint256,uint256,uint256),address,address)": "9ce320c8",
    "finder()": "b9a3c84c",
    "getCurrentTime()": "29cb924d",
    "getState(address,bytes32,uint32,bytes,(address,address,address,bool,int256,int256,uint256,uint256,uint256,uint256,uint256))": "51205554",
    "hasPrice(address,bytes32,uint32,bytes,(address,address,address,bool,int256,int256,uint256,uint256,uint256,uint256,uint256))": "a337e1ad",
    "proposePrice(address,bytes32,uint32,bytes,(address,address,address,bool,int256,int256,uint256,uint256,uint256,uint256,uint256),int256)": "93c44ef7",
    "proposePriceFor(address,bytes32,uint32,bytes,(address,address,address,bool,int256,int256,uint256,uint256,uint256,uint256,uint256),address,int256)": "b1a166b2",
    "requestAndProposePriceFor(bytes32,uint32,bytes,address,uint256,uint256,uint256,address,int256)": "af355d1e",
    "requestPrice(bytes32,uint32,bytes,address,uint256,uint256,uint256)": "d6228407",
    "requests(bytes32)": "9d866985",
    "setCurrentTime(uint256)": "22f8e566",
    "settle(address,bytes32,uint32,bytes,(address,address,address,bool,int256,int256,uint256,uint256,uint256,uint256,uint256))": "b730539f",
    "stampAncillaryData(bytes,address)": "af5d2f39",
    "timerAddress()": "1c39c38d"
  },
  "id": 20
}