{"abi":[{"type":"constructor","inputs":[{"name":"name","type":"string","internalType":"string"},{"name":"symbol","type":"string","internalType":"string"}],"stateMutability":"nonpayable"},{"type":"function","name":"allowance","inputs":[{"name":"owner","type":"address","internalType":"address"},{"name":"spender","type":"address","internalType":"address"}],"outputs":[{"name":"","type":"uint256","internalType":"uint256"}],"stateMutability":"view"},{"type":"function","name":"approve","inputs":[{"name":"spender","type":"address","internalType":"address"},{"name":"value","type":"uint256","internalType":"uint256"}],"outputs":[{"name":"","type":"bool","internalType":"bool"}],"stateMutability":"nonpayable"},{"type":"function","name":"balanceOf","inputs":[{"name":"account","type":"address","internalType":"address"}],"outputs":[{"name":"","type":"uint256","internalType":"uint256"}],"stateMutability":"view"},{"type":"function","name":"decimals","inputs":[],"outputs":[{"name":"","type":"uint8","internalType":"uint8"}],"stateMutability":"view"},{"type":"function","name":"mint","inputs":[{"name":"account","type":"address","internalType":"address"},{"name":"amount","type":"uint256","internalType":"uint256"}],"outputs":[],"stateMutability":"nonpayable"},{"type":"function","name":"name","inputs":[],"outputs":[{"name":"","type":"string","internalType":"string"}],"stateMutability":"view"},{"type":"function","name":"symbol","inputs":[],"outputs":[{"name":"","type":"string","internalType":"string"}],"stateMutability":"view"},{"type":"function","name":"totalSupply","inputs":[],"outputs":[{"name":"","type":"uint256","internalType":"uint256"}],"stateMutability":"view"},{"type":"function","name":"transfer","inputs":[{"name":"to","type":"address","internalType":"address"},{"name":"value","type":"uint256","internalType":"uint256"}],"outputs":[{"name":"","type":"bool","internalType":"bool"}],"stateMutability":"nonpayable"},{"type":"function","name":"transferFrom","inputs":[{"name":"from","type":"address","internalType":"address"},{"name":"to","type":"address","internalType":"address"},{"name":"value","type":"uint256","internalType":"uint256"}],"outputs":[{"name":"","type":"bool","internalType":"bool"}],"stateMutability":"nonpayable"},{"type":"event","name":"Approval","inputs":[{"name":"owner","type":"address","indexed":true,"internalType":"address"},{"name":"spender","type":"address","indexed":true,"internalType":"address"},{"name":"value","type":"uint256","indexed":false,"internalType":"uint256"}],"anonymous":false},{"type":"event","name":"Transfer","inputs":[{"name":"from","type":"address","indexed":true,"internalType":"address"},{"name":"to","type":"address","indexed":true,"internalType":"address"},{"name":"value","type":"uint256","indexed":false,"internalType":"uint256"}],"anonymous":false},{"type":"error","name":"ERC20InsufficientAllowance","inputs":[{"name":"spender","type":"address","internalType":"address"},{"name":"allowance","type":"uint256","internalType":"uint256"},{"name":"needed","type":"uint256","internalType":"uint256"}]},{"type":"error","name":"ERC20InsufficientBalance","inputs":[{"name":"sender","type":"address","internalType":"address"},{"name":"balance","type":"uint256","internalType":"uint256"},{"name":"needed","type":"uint256","internalType":"uint256"}]},{"type":"error","name":"ERC20InvalidApprover","inputs":[{"name":"approver","type":"address","internalType":"address"}]},{"type":"error","name":"ERC20InvalidReceiver","inputs":[{"name":"receiver","type":"address","internalType":"address"}]},{"type":"error","name":"ERC20InvalidSender","inputs":[{"name":"sender","type":"address","internalType":"address"}]},{"type":"error","name":"ERC20InvalidSpender","inputs":[{"name":"spender","type":"address","internalType":"address"}]}],"bytecode":{"object":"0x60806040523480156200001157600080fd5b5060405162000c3438038062000c348339810160408190526200003491620002b3565b81816003620000448382620003ac565b506004620000538282620003ac565b505050620000713368056bc75e2d631000006200007960201b60201c565b5050620004a0565b6001600160a01b038216620000a95760405163ec442f0560e01b8152600060048201526024015b60405180910390fd5b620000b760008383620000bb565b5050565b6001600160a01b038316620000ea578060026000828254620000de919062000478565b909155506200015e9050565b6001600160a01b038316600090815260208190526040902054818110156200013f5760405163391434e360e21b81526001600160a01b03851660048201526024810182905260448101839052606401620000a0565b6001600160a01b03841660009081526020819052604090209082900390555b6001600160a01b0382166200017c576002805482900390556200019b565b6001600160a01b03821660009081526020819052604090208054820190555b816001600160a01b0316836001600160a01b03167fddf252ad1be2c89b69c2b068fc378daa952ba7f163c4a11628f55a4df523b3ef83604051620001e191815260200190565b60405180910390a3505050565b634e487b7160e01b600052604160045260246000fd5b600082601f8301126200021657600080fd5b81516001600160401b0380821115620002335762000233620001ee565b604051601f8301601f19908116603f011681019082821181831017156200025e576200025e620001ee565b816040528381526020925086838588010111156200027b57600080fd5b600091505b838210156200029f578582018301518183018401529082019062000280565b600093810190920192909252949350505050565b60008060408385031215620002c757600080fd5b82516001600160401b0380821115620002df57600080fd5b620002ed8683870162000204565b935060208501519150808211156200030457600080fd5b50620003138582860162000204565b9150509250929050565b600181811c908216806200033257607f821691505b6020821081036200035357634e487b7160e01b600052602260045260246000fd5b50919050565b601f821115620003a757600081815260208120601f850160051c81016020861015620003825750805b601f850160051c820191505b81811015620003a3578281556001016200038e565b5050505b505050565b81516001600160401b03811115620003c857620003c8620001ee565b620003e081620003d984546200031d565b8462000359565b602080601f831160018114620004185760008415620003ff5750858301515b600019600386901b1c1916600185901b178555620003a3565b600085815260208120601f198616915b82811015620004495788860151825594840194600190910190840162000428565b5085821015620004685787850151600019600388901b60f8161c191681555b5050505050600190811b01905550565b808201808211156200049a57634e487b7160e01b600052601160045260246000fd5b92915050565b61078480620004b06000396000f3fe608060405234801561001057600080fd5b506004361061009e5760003560e01c806340c10f191161006657806340c10f191461011857806370a082311461012d57806395d89b4114610156578063a9059cbb1461015e578063dd62ed3e1461017157600080fd5b806306fdde03146100a3578063095ea7b3146100c157806318160ddd146100e457806323b872dd146100f6578063313ce56714610109575b600080fd5b6100ab6101aa565b6040516100b891906105ce565b60405180910390f35b6100d46100cf366004610638565b61023c565b60405190151581526020016100b8565b6002545b6040519081526020016100b8565b6100d4610104366004610662565b610256565b604051601281526020016100b8565b61012b610126366004610638565b61027a565b005b6100e861013b36600461069e565b6001600160a01b031660009081526020819052604090205490565b6100ab610288565b6100d461016c366004610638565b610297565b6100e861017f3660046106c0565b6001600160a01b03918216600090815260016020908152604080832093909416825291909152205490565b6060600380546101b9906106f3565b80601f01602080910402602001604051908101604052809291908181526020018280546101e5906106f3565b80156102325780601f1061020757610100808354040283529160200191610232565b820191906000526020600020905b81548152906001019060200180831161021557829003601f168201915b5050505050905090565b60003361024a8185856102a5565b60019150505b92915050565b6000336102648582856102b7565b61026f85858561033a565b506001949350505050565b6102848282610399565b5050565b6060600480546101b9906106f3565b60003361024a81858561033a565b6102b283838360016103cf565b505050565b6001600160a01b038381166000908152600160209081526040808320938616835292905220546000198114610334578181101561032557604051637dc7a0d960e11b81526001600160a01b038416600482015260248101829052604481018390526064015b60405180910390fd5b610334848484840360006103cf565b50505050565b6001600160a01b03831661036457604051634b637e8f60e11b81526000600482015260240161031c565b6001600160a01b03821661038e5760405163ec442f0560e01b81526000600482015260240161031c565b6102b28383836104a4565b6001600160a01b0382166103c35760405163ec442f0560e01b81526000600482015260240161031c565b610284600083836104a4565b6001600160a01b0384166103f95760405163e602df0560e01b81526000600482015260240161031c565b6001600160a01b03831661042357604051634a1406b160e11b81526000600482015260240161031c565b6001600160a01b038085166000908152600160209081526040808320938716835292905220829055801561033457826001600160a01b0316846001600160a01b03167f8c5be1e5ebec7d5bd14f71427d1e84f3dd0314c0f7b2291e5b200ac8c7c3b9258460405161049691815260200190565b60405180910390a350505050565b6001600160a01b0383166104cf5780600260008282546104c4919061072d565b909155506105419050565b6001600160a01b038316600090815260208190526040902054818110156105225760405163391434e360e21b81526001600160a01b0385166004820152602481018290526044810183905260640161031c565b6001600160a01b03841660009081526020819052604090209082900390555b6001600160a01b03821661055d5760028054829003905561057c565b6001600160a01b03821660009081526020819052604090208054820190555b816001600160a01b0316836001600160a01b03167fddf252ad1be2c89b69c2b068fc378daa952ba7f163c4a11628f55a4df523b3ef836040516105c191815260200190565b60405180910390a3505050565b600060208083528351808285015260005b818110156105fb578581018301518582016040015282016105df565b506000604082860101526040601f19601f8301168501019250505092915050565b80356001600160a01b038116811461063357600080fd5b919050565b6000806040838503121561064b57600080fd5b6106548361061c565b946020939093013593505050565b60008060006060848603121561067757600080fd5b6106808461061c565b925061068e6020850161061c565b9150604084013590509250925092565b6000602082840312156106b057600080fd5b6106b98261061c565b9392505050565b600080604083850312156106d357600080fd5b6106dc8361061c565b91506106ea6020840161061c565b90509250929050565b600181811c9082168061070757607f821691505b60208210810361072757634e487b7160e01b600052602260045260246000fd5b50919050565b8082018082111561025057634e487b7160e01b600052601160045260246000fdfea26469706673582212207d560b29d0b9147c79dfa2eb140f83e6d9b50aee34a631327d846cf0b7c3e0f764736f6c63430008140033","linkReferences":{}},"methodIdentifiers":{"allowance(address,address)":"dd62ed3e","approve(address,uint256)":"095ea7b3","balanceOf(address)":"70a08231","decimals()":"313ce567","mint(address,uint256)":"40c10f19","name()":"06fdde03","symbol()":"95d89b41","totalSupply()":"18160ddd","transfer(address,uint256)":"a9059cbb","transferFrom(address,address,uint256)":"23b872dd"},"id":42}