{
  "abi": [
    {
      "anonymous": false,
      "inputs": [
        {
          "indexed": true,
          "internalType": "bytes32",
          "name": "interfaceName",
          "type": "bytes32"
        },
        {
          "indexed": true,
          "internalType": "address",
          "name": "newImplementationAddress",
          "type": "address"
        }
      ],
      "name": "InterfaceImplementationChanged",
      "type": "event"
    },
    {
      "anonymous": false,
      "inputs": [
        {
          "indexed": true,
          "internalType": "address",
          "name": "previousOwner",
          "type": "address"
        },
        {
          "indexed": true,
          "internalType": "address",
          "name": "newOwner",
          "type": "address"
        }
      ],
      "name": "OwnershipTransferred",
      "type": "event"
    },
    {
      "inputs": [
        {
          "internalType": "bytes32",
          "name": "interfaceName",
          "type": "bytes32"
        },
        {
          "internalType": "address",
          "name": "implementationAddress",
          "type": "address"
        }
      ],
      "name": "changeImplementationAddress",
      "outputs": [],
      "stateMutability": "nonpayable",
      "type": "function"
    },
    {
      "inputs": [
        {
          "internalType": "bytes32",
          "name": "interfaceName",
          "type": "bytes32"
        }
      ],
      "name": "getImplementationAddress",
      "outputs": [
        {
          "internalType": "address",
          "name": "",
          "type": "address"
        }
      ],
      "stateMutability": "view",
      "type": "function"
    },
    {
      "inputs": [
        {
          "internalType": "bytes32",
          "name": "",
          "type": "bytes32"
        }
      ],
      "name": "interfacesImplemented",
      "outputs": [
        {
          "internalType": "address",
          "name": "",
          "type": "address"
        }
      ],
      "stateMutability": "view",
      "type": "function"
    },
    {
      "inputs": [],
      "name": "owner",
      "outputs": [
        {
          "internalType": "address",
          "name": "",
          "type": "address"
        }
      ],
      "stateMutability": "view",
      "type": "function"
    },
    {
      "inputs": [],
      "name": "renounceOwnership",
      "outputs": [],
      "stateMutability": "nonpayable",
      "type": "function"
    },
    {
      "inputs": [
        {
          "internalType": "address",
          "name": "newOwner",
          "type": "address"
        }
      ],
      "name": "transferOwnership",
      "outputs": [],
      "stateMutability": "nonpayable",
      "type": "function"
    }
  ],
  "bytecode": {
    "object": "0x608060405234801561001057600080fd5b5061001a3361001f565b61006f565b600080546001600160a01b038381166001600160a01b0319831681178455604051919092169283917f8be0079c531659141344cd1fd0a4f28419497f9722a3daafe3b4186f6b6457e09190a35050565b6104028061007e6000396000f3fe608060405234801561001057600080fd5b50600436106100625760003560e01c806331f9665e14610067578063715018a61461007c5780638da5cb5b14610084578063aafd5e40146100ad578063cc48f4db146100c0578063f2fde38b146100e9575b600080fd5b61007a610075366004610330565b6100fc565b005b61007a610188565b6000546001600160a01b03165b6040516001600160a01b03909116815260200160405180910390f35b6100916100bb36600461035c565b6101be565b6100916100ce36600461035c565b6001602052600090815260409020546001600160a01b031681565b61007a6100f7366004610375565b610229565b6000546001600160a01b0316331461012f5760405162461bcd60e51b815260040161012690610397565b60405180910390fd5b60008281526001602052604080822080546001600160a01b0319166001600160a01b0385169081179091559051909184917fb29aa13e555039289e0513962835b00fcc6e4a265ae8f99e68e5b90d5406fe489190a35050565b6000546001600160a01b031633146101b25760405162461bcd60e51b815260040161012690610397565b6101bc60006102c4565b565b6000818152600160205260408120546001600160a01b0316806102235760405162461bcd60e51b815260206004820152601860248201527f496d706c656d656e746174696f6e206e6f7420666f756e6400000000000000006044820152606401610126565b92915050565b6000546001600160a01b031633146102535760405162461bcd60e51b815260040161012690610397565b6001600160a01b0381166102b85760405162461bcd60e51b815260206004820152602660248201527f4f776e61626c653a206e6577206f776e657220697320746865207a65726f206160448201526564647265737360d01b6064820152608401610126565b6102c1816102c4565b50565b600080546001600160a01b038381166001600160a01b0319831681178455604051919092169283917f8be0079c531659141344cd1fd0a4f28419497f9722a3daafe3b4186f6b6457e09190a35050565b80356001600160a01b038116811461032b57600080fd5b919050565b6000806040838503121561034357600080fd5b8235915061035360208401610314565b90509250929050565b60006020828403121561036e57600080fd5b5035919050565b60006020828403121561038757600080fd5b61039082610314565b9392505050565b6020808252818101527f4f776e61626c653a2063616c6c6572206973206e6f7420746865206f776e657260408201526060019056fea264697066735822122038417bdcfd4fc213368150666d2acf0efcc4e66daa475f8e9bc65719d907daf664736f6c634300080d0033",
    "linkReferences": {}
  },
  "methodIdentifiers": {
    "changeImplementationAddress(bytes32,address)": "31f9665e",
    "getImplementationAddress(bytes32)": "aafd5e40",
    "interfacesImplemented(bytes32)": "cc48f4db",
    "owner()": "8da5cb5b",
    "renounceOwnership()": "715018a6",
    "transferOwnership(address)": "f2fde38b"
  },
  "id": 26
}