{
  "abi": [
    {
      "inputs": [],
      "name": "ancillaryBytesLimit",
      "outputs": [
        {
          "internalType": "uint256",
          "name": "",
          "type": "uint256"
        }
      ],
      "stateMutability": "view",
      "type": "function"
    }
  ],
  "bytecode": {
    "object": "0x6088610038600b82828239805160001a607314602b57634e487b7160e01b600052600060045260246000fd5b30600052607381538281f3fe730000000000000000000000000000000000000000301460806040526004361060335760003560e01c8063c371dda7146038575b600080fd5b604061200081565b60405190815260200160405180910390f3fea26469706673582212209a0a698cd125b90f2431f04b41863a338b343dfcce4214abd72625f8a4c9153864736f6c63430008110033",
    "linkReferences": {}
  },
  "methodIdentifiers": {
    "ancillaryBytesLimit()": "c371dda7"
  },
  "id": 36
}