{
  "abi": [
    {
      "inputs": [
        {
          "internalType": "string",
          "name": "_tokenName",
          "type": "string"
        },
        {
          "internalType": "string",
          "name": "_tokenSymbol",
          "type": "string"
        },
        {
          "internalType": "uint8",
          "name": "_tokenDecimals",
          "type": "uint8"
        }
      ],
      "stateMutability": "nonpayable",
      "type": "constructor"
    },
    {
      "anonymous": false,
      "inputs": [
        {
          "indexed": true,
          "internalType": "uint256",
          "name": "roleId",
          "type": "uint256"
        },
        {
          "indexed": true,
          "internalType": "address",
          "name": "newMember",
          "type": "address"
        },
        {
          "indexed": true,
          "internalType": "address",
          "name": "manager",
          "type": "address"
        }
      ],
      "name": "AddedSharedMember",
      "type": "event"
    },
    {
      "anonymous": false,
      "inputs": [
        {
          "indexed": true,
          "internalType": "address",
          "name": "owner",
          "type": "address"
        },
        {
          "indexed": true,
          "internalType": "address",
          "name": "spender",
          "type": "address"
        },
        {
          "indexed": false,
          "internalType": "uint256",
          "name": "value",
          "type": "uint256"
        }
      ],
      "name": "Approval",
      "type": "event"
    },
    {
      "anonymous": false,
      "inputs": [
        {
          "indexed": true,
          "internalType": "uint256",
          "name": "roleId",
          "type": "uint256"
        },
        {
          "indexed": true,
          "internalType": "address",
          "name": "oldMember",
          "type": "address"
        },
        {
          "indexed": true,
          "internalType": "address",
          "name": "manager",
          "type": "address"
        }
      ],
      "name": "RemovedSharedMember",
      "type": "event"
    },
    {
      "anonymous": false,
      "inputs": [
        {
          "indexed": true,
          "internalType": "uint256",
          "name": "roleId",
          "type": "uint256"
        },
        {
          "indexed": true,
          "internalType": "address",
          "name": "newMember",
          "type": "address"
        },
        {
          "indexed": true,
          "internalType": "address",
          "name": "manager",
          "type": "address"
        }
      ],
      "name": "ResetExclusiveMember",
      "type": "event"
    },
    {
      "anonymous": false,
      "inputs": [
        {
          "indexed": true,
          "internalType": "address",
          "name": "from",
          "type": "address"
        },
        {
          "indexed": true,
          "internalType": "address",
          "name": "to",
          "type": "address"
        },
        {
          "indexed": false,
          "internalType": "uint256",
          "name": "value",
          "type": "uint256"
        }
      ],
      "name": "Transfer",
      "type": "event"
    },
    {
      "inputs": [
        {
          "internalType": "address",
          "name": "account",
          "type": "address"
        }
      ],
      "name": "addBurner",
      "outputs": [],
      "stateMutability": "nonpayable",
      "type": "function"
    },
    {
      "inputs": [
        {
          "internalType": "uint256",
          "name": "roleId",
          "type": "uint256"
        },
        {
          "internalType": "address",
          "name": "newMember",
          "type": "address"
        }
      ],
      "name": "addMember",
      "outputs": [],
      "stateMutability": "nonpayable",
      "type": "function"
    },
    {
      "inputs": [
        {
          "internalType": "address",
          "name": "account",
          "type": "address"
        }
      ],
      "name": "addMinter",
      "outputs": [],
      "stateMutability": "nonpayable",
      "type": "function"
    },
    {
      "inputs": [
        {
          "internalType": "address",
          "name": "owner",
          "type": "address"
        },
        {
          "internalType": "address",
          "name": "spender",
          "type": "address"
        }
      ],
      "name": "allowance",
      "outputs": [
        {
          "internalType": "uint256",
          "name": "",
          "type": "uint256"
        }
      ],
      "stateMutability": "view",
      "type": "function"
    },
    {
      "inputs": [
        {
          "internalType": "address",
          "name": "spender",
          "type": "address"
        },
        {
          "internalType": "uint256",
          "name": "amount",
          "type": "uint256"
        }
      ],
      "name": "approve",
      "outputs": [
        {
          "internalType": "bool",
          "name": "",
          "type": "bool"
        }
      ],
      "stateMutability": "nonpayable",
      "type": "function"
    },
    {
      "inputs": [
        {
          "internalType": "address",
          "name": "account",
          "type": "address"
        }
      ],
      "name": "balanceOf",
      "outputs": [
        {
          "internalType": "uint256",
          "name": "",
          "type": "uint256"
        }
      ],
      "stateMutability": "view",
      "type": "function"
    },
    {
      "inputs": [
        {
          "internalType": "uint256",
          "name": "value",
          "type": "uint256"
        }
      ],
      "name": "burn",
      "outputs": [],
      "stateMutability": "nonpayable",
      "type": "function"
    },
    {
      "inputs": [
        {
          "internalType": "address",
          "name": "recipient",
          "type": "address"
        },
        {
          "internalType": "uint256",
          "name": "value",
          "type": "uint256"
        }
      ],
      "name": "burnFrom",
      "outputs": [
        {
          "internalType": "bool",
          "name": "",
          "type": "bool"
        }
      ],
      "stateMutability": "nonpayable",
      "type": "function"
    },
    {
      "inputs": [],
      "name": "decimals",
      "outputs": [
        {
          "internalType": "uint8",
          "name": "",
          "type": "uint8"
        }
      ],
      "stateMutability": "view",
      "type": "function"
    },
    {
      "inputs": [
        {
          "internalType": "address",
          "name": "spender",
          "type": "address"
        },
        {
          "internalType": "uint256",
          "name": "subtractedValue",
          "type": "uint256"
        }
      ],
      "name": "decreaseAllowance",
      "outputs": [
        {
          "internalType": "bool",
          "name": "",
          "type": "bool"
        }
      ],
      "stateMutability": "nonpayable",
      "type": "function"
    },
    {
      "inputs": [
        {
          "internalType": "uint256",
          "name": "roleId",
          "type": "uint256"
        }
      ],
      "name": "getMember",
      "outputs": [
        {
          "internalType": "address",
          "name": "",
          "type": "address"
        }
      ],
      "stateMutability": "view",
      "type": "function"
    },
    {
      "inputs": [
        {
          "internalType": "uint256",
          "name": "roleId",
          "type": "uint256"
        },
        {
          "internalType": "address",
          "name": "memberToCheck",
          "type": "address"
        }
      ],
      "name": "holdsRole",
      "outputs": [
        {
          "internalType": "bool",
          "name": "",
          "type": "bool"
        }
      ],
      "stateMutability": "view",
      "type": "function"
    },
    {
      "inputs": [
        {
          "internalType": "address",
          "name": "spender",
          "type": "address"
        },
        {
          "internalType": "uint256",
          "name": "addedValue",
          "type": "uint256"
        }
      ],
      "name": "increaseAllowance",
      "outputs": [
        {
          "internalType": "bool",
          "name": "",
          "type": "bool"
        }
      ],
      "stateMutability": "nonpayable",
      "type": "function"
    },
    {
      "inputs": [
        {
          "internalType": "address",
          "name": "recipient",
          "type": "address"
        },
        {
          "internalType": "uint256",
          "name": "value",
          "type": "uint256"
        }
      ],
      "name": "mint",
      "outputs": [
        {
          "internalType": "bool",
          "name": "",
          "type": "bool"
        }
      ],
      "stateMutability": "nonpayable",
      "type": "function"
    },
    {
      "inputs": [],
      "name": "name",
      "outputs": [
        {
          "internalType": "string",
          "name": "",
          "type": "string"
        }
      ],
      "stateMutability": "view",
      "type": "function"
    },
    {
      "inputs": [
        {
          "internalType": "uint256",
          "name": "roleId",
          "type": "uint256"
        },
        {
          "internalType": "address",
          "name": "memberToRemove",
          "type": "address"
        }
      ],
      "name": "removeMember",
      "outputs": [],
      "stateMutability": "nonpayable",
      "type": "function"
    },
    {
      "inputs": [
        {
          "internalType": "uint256",
          "name": "roleId",
          "type": "uint256"
        }
      ],
      "name": "renounceMembership",
      "outputs": [],
      "stateMutability": "nonpayable",
      "type": "function"
    },
    {
      "inputs": [
        {
          "internalType": "uint256",
          "name": "roleId",
          "type": "uint256"
        },
        {
          "internalType": "address",
          "name": "newMember",
          "type": "address"
        }
      ],
      "name": "resetMember",
      "outputs": [],
      "stateMutability": "nonpayable",
      "type": "function"
    },
    {
      "inputs": [
        {
          "internalType": "address",
          "name": "account",
          "type": "address"
        }
      ],
      "name": "resetOwner",
      "outputs": [],
      "stateMutability": "nonpayable",
      "type": "function"
    },
    {
      "inputs": [],
      "name": "symbol",
      "outputs": [
        {
          "internalType": "string",
          "name": "",
          "type": "string"
        }
      ],
      "stateMutability": "view",
      "type": "function"
    },
    {
      "inputs": [],
      "name": "totalSupply",
      "outputs": [
        {
          "internalType": "uint256",
          "name": "",
          "type": "uint256"
        }
      ],
      "stateMutability": "view",
      "type": "function"
    },
    {
      "inputs": [
        {
          "internalType": "address",
          "name": "recipient",
          "type": "address"
        },
        {
          "internalType": "uint256",
          "name": "amount",
          "type": "uint256"
        }
      ],
      "name": "transfer",
      "outputs": [
        {
          "internalType": "bool",
          "name": "",
          "type": "bool"
        }
      ],
      "stateMutability": "nonpayable",
      "type": "function"
    },
    {
      "inputs": [
        {
          "internalType": "address",
          "name": "sender",
          "type": "address"
        },
        {
          "internalType": "address",
          "name": "recipient",
          "type": "address"
        },
        {
          "internalType": "uint256",
          "name": "amount",
          "type": "uint256"
        }
      ],
      "name": "transferFrom",
      "outputs": [
        {
          "internalType": "bool",
          "name": "",
          "type": "bool"
        }
      ],
      "stateMutability": "nonpayable",
      "type": "function"
    }
  ],
  "bytecode": {
    "object": "0x60806040523480156200001157600080fd5b5060405162001c5e38038062001c5e833981016040819052620000349162000621565b8251839083906200004d906003906020850190620004ae565b50805162000063906004906020840190620004ae565b50506006805460ff191660ff8416179055506200008360008033620000b5565b620000a060015b6040805160008082526020820190925262000205565b620000ac60026200008a565b50505062000736565b826000808281526005602052604090206001015460ff166002811115620000e057620000e0620006a6565b14620001335760405162461bcd60e51b815260206004820152601e60248201527f43616e6e6f74207573652061207072652d6578697374696e6720726f6c65000060448201526064015b60405180910390fd5b60008481526005602052604090206001808201805460ff1916828002179055508381556200017160028201846200034b602090811b62000aef17901c565b60008481526005602052604081206001015460ff1660028111156200019a576200019a620006a6565b03620001fe5760405162461bcd60e51b815260206004820152603c602482015260008051602062001c3e83398151915260448201527f20746f206d616e61676520616e206578636c757369766520726f6c650000000060648201526084016200012a565b5050505050565b826000808281526005602052604090206001015460ff166002811115620002305762000230620006a6565b146200027f5760405162461bcd60e51b815260206004820152601e60248201527f43616e6e6f74207573652061207072652d6578697374696e6720726f6c65000060448201526064016200012a565b600084815260056020908152604090912060018101805460ff1916600217905584815590620002be906003830190859062000af96200035b821b17901c565b60008481526005602052604081206001015460ff166002811115620002e757620002e7620006a6565b03620001fe5760405162461bcd60e51b8152602060048201526038602482015260008051602062001c3e83398151915260448201527f20746f206d616e61676520612073686172656420726f6c65000000000000000060648201526084016200012a565b620003578282620003b0565b5050565b60005b8151811015620003ab576200039683838381518110620003825762000382620006bc565b60200260200101516200043160201b60201c565b80620003a281620006d2565b9150506200035e565b505050565b6001600160a01b038116620004145760405162461bcd60e51b815260206004820152602360248201527f43616e6e6f742073657420616e206578636c757369766520726f6c6520746f2060448201526203078360ec1b60648201526084016200012a565b81546001600160a01b0319166001600160a01b0391909116179055565b6001600160a01b038116620004895760405162461bcd60e51b815260206004820152601f60248201527f43616e6e6f74206164642030783020746f20612073686172656420726f6c650060448201526064016200012a565b6001600160a01b0316600090815260209190915260409020805460ff19166001179055565b828054620004bc90620006fa565b90600052602060002090601f016020900481019282620004e057600085556200052b565b82601f10620004fb57805160ff19168380011785556200052b565b828001600101855582156200052b579182015b828111156200052b5782518255916020019190600101906200050e565b50620005399291506200053d565b5090565b5b808211156200053957600081556001016200053e565b634e487b7160e01b600052604160045260246000fd5b600082601f8301126200057c57600080fd5b81516001600160401b038082111562000599576200059962000554565b604051601f8301601f19908116603f01168101908282118183101715620005c457620005c462000554565b81604052838152602092508683858801011115620005e157600080fd5b600091505b83821015620006055785820183015181830184015290820190620005e6565b83821115620006175760008385830101525b9695505050505050565b6000806000606084860312156200063757600080fd5b83516001600160401b03808211156200064f57600080fd5b6200065d878388016200056a565b945060208601519150808211156200067457600080fd5b5062000683868287016200056a565b925050604084015160ff811681146200069b57600080fd5b809150509250925092565b634e487b7160e01b600052602160045260246000fd5b634e487b7160e01b600052603260045260246000fd5b600060018201620006f357634e487b7160e01b600052601160045260246000fd5b5060010190565b600181811c908216806200070f57607f821691505b6020821081036200073057634e487b7160e01b600052602260045260246000fd5b50919050565b6114f880620007466000396000f3fe608060405234801561001057600080fd5b506004361061014d5760003560e01c806374d0a676116100c3578063a9059cbb1161007c578063a9059cbb146102be578063aaa14ca3146102d1578063ab3545e5146102e4578063d97c05be1461030f578063dd62ed3e14610322578063f44637ba1461035b57600080fd5b806374d0a6761461025757806379cc67901461026a5780637cdc1cb91461027d57806395d89b4114610290578063983b2d5614610298578063a457c2d7146102ab57600080fd5b8063395093511161011557806339509351146101cd57806340c10f19146101e057806342966c68146101f35780636be7658b1461020857806370a082311461021b57806373cc802a1461024457600080fd5b806306fdde0314610152578063095ea7b31461017057806318160ddd1461019357806323b872dd146101a5578063313ce567146101b8575b600080fd5b61015a61036e565b604051610167919061117b565b60405180910390f35b61018361017e3660046111ec565b610400565b6040519015158152602001610167565b6002545b604051908152602001610167565b6101836101b3366004611216565b610417565b60065460405160ff9091168152602001610167565b6101836101db3660046111ec565b6104cd565b6101836101ee3660046111ec565b610509565b610206610201366004611252565b610547565b005b61020661021636600461126b565b61057d565b610197610229366004611297565b6001600160a01b031660009081526020819052604090205490565b610206610252366004611297565b610653565b61020661026536600461126b565b610661565b6101836102783660046111ec565b610737565b61018361028b36600461126b565b61076b565b61015a610830565b6102066102a6366004611297565b61083f565b6101836102b93660046111ec565b61084b565b6101836102cc3660046111ec565b6108da565b6102066102df366004611252565b6108e7565b6102f76102f2366004611252565b6109a3565b6040516001600160a01b039091168152602001610167565b61020661031d36600461126b565b610a0f565b6101976103303660046112b9565b6001600160a01b03918216600090815260016020908152604080832093909416825291909152205490565b610206610369366004611297565b610ae5565b60606003805461037d906112e3565b80601f01602080910402602001604051908101604052809291908181526020018280546103a9906112e3565b80156103f65780601f106103cb576101008083540402835291602001916103f6565b820191906000526020600020905b8154815290600101906020018083116103d957829003601f168201915b5050505050905090565b600061040d338484610b3f565b5060015b92915050565b6001600160a01b038316600090815260016020908152604080832033845290915281205460001981146104b757828110156104aa5760405162461bcd60e51b815260206004820152602860248201527f45524332303a207472616e7366657220616d6f756e74206578636565647320616044820152676c6c6f77616e636560c01b60648201526084015b60405180910390fd5b6104b78533858403610b3f565b6104c2858585610c63565b506001949350505050565b3360008181526001602090815260408083206001600160a01b0387168452909152812054909161040d91859061050490869061132d565b610b3f565b60006001610517813361076b565b6105335760405162461bcd60e51b81526004016104a19061135b565b61053d8484610e32565b5060019392505050565b6002610553813361076b565b61056f5760405162461bcd60e51b81526004016104a19061135b565b6105793383610f11565b5050565b81600260008281526005602052604090206001015460ff1660028111156105a6576105a6611345565b146105c35760405162461bcd60e51b81526004016104a19061139d565b60008381526005602052604090205483906105de903361076b565b6105fa5760405162461bcd60e51b81526004016104a1906113e9565b6000848152600560205260409020610615906003018461105f565b60405133906001600160a01b0385169086907feb3e33034c392e69263b04ec0fa376dc12784a41b6676c7f31b936cbc0fbb5af90600090a450505050565b61065e600082610a0f565b50565b81600260008281526005602052604090206001015460ff16600281111561068a5761068a611345565b146106a75760405162461bcd60e51b81526004016104a19061139d565b60008381526005602052604090205483906106c2903361076b565b6106de5760405162461bcd60e51b81526004016104a1906113e9565b60008481526005602052604090206106f99060030184611081565b60405133906001600160a01b0385169086907f63502af7324ff6db91ab38f8236a648727d9385ea6c782073dd4882d8a61a48f90600090a450505050565b60006002610745813361076b565b6107615760405162461bcd60e51b81526004016104a19061135b565b61053d8484610f11565b600082815260056020526040812060018082015460ff16600281111561079357610793611345565b036107b45760028101546001600160a01b038481169116145b915050610411565b6002600182015460ff1660028111156107cf576107cf611345565b036107f7576001600160a01b038316600090815260038201602052604090205460ff166107ac565b60405162461bcd60e51b815260206004820152600e60248201526d125b9d985b1a59081c9bdb19525960921b60448201526064016104a1565b60606004805461037d906112e3565b61065e60015b82610661565b3360009081526001602090815260408083206001600160a01b0386168452909152812054828110156108cd5760405162461bcd60e51b815260206004820152602560248201527f45524332303a2064656372656173656420616c6c6f77616e63652062656c6f77604482015264207a65726f60d81b60648201526084016104a1565b61053d3385858403610b3f565b600061040d338484610c63565b80600260008281526005602052604090206001015460ff16600281111561091057610910611345565b1461092d5760405162461bcd60e51b81526004016104a19061139d565b81610938813361076b565b6109545760405162461bcd60e51b81526004016104a19061135b565b600083815260056020526040902061096f906003013361105f565b6040513390819085907feb3e33034c392e69263b04ec0fa376dc12784a41b6676c7f31b936cbc0fbb5af90600090a4505050565b600081600160008281526005602052604090206001015460ff1660028111156109ce576109ce611345565b146109eb5760405162461bcd60e51b81526004016104a19061142d565b6000838152600560205260409020600201546001600160a01b031691505b50919050565b81600160008281526005602052604090206001015460ff166002811115610a3857610a38611345565b14610a555760405162461bcd60e51b81526004016104a19061142d565b6000838152600560205260409020548390610a70903361076b565b610a8c5760405162461bcd60e51b81526004016104a1906113e9565b6000848152600560205260409020610aa790600201846110fc565b60405133906001600160a01b0385169086907f3b855c56b409b671c7112789d022675eb639d0bcb8896f1b6197c132f799e74690600090a450505050565b61065e6002610845565b61057982826110fc565b60005b8151811015610b3a57610b2883838381518110610b1b57610b1b61147c565b6020026020010151611081565b80610b3281611492565b915050610afc565b505050565b6001600160a01b038316610ba15760405162461bcd60e51b8152602060048201526024808201527f45524332303a20617070726f76652066726f6d20746865207a65726f206164646044820152637265737360e01b60648201526084016104a1565b6001600160a01b038216610c025760405162461bcd60e51b815260206004820152602260248201527f45524332303a20617070726f766520746f20746865207a65726f206164647265604482015261737360f01b60648201526084016104a1565b6001600160a01b0383811660008181526001602090815260408083209487168084529482529182902085905590518481527f8c5be1e5ebec7d5bd14f71427d1e84f3dd0314c0f7b2291e5b200ac8c7c3b925910160405180910390a3505050565b6001600160a01b038316610cc75760405162461bcd60e51b815260206004820152602560248201527f45524332303a207472616e736665722066726f6d20746865207a65726f206164604482015264647265737360d81b60648201526084016104a1565b6001600160a01b038216610d295760405162461bcd60e51b815260206004820152602360248201527f45524332303a207472616e7366657220746f20746865207a65726f206164647260448201526265737360e81b60648201526084016104a1565b6001600160a01b03831660009081526020819052604090205481811015610da15760405162461bcd60e51b815260206004820152602660248201527f45524332303a207472616e7366657220616d6f756e7420657863656564732062604482015265616c616e636560d01b60648201526084016104a1565b6001600160a01b03808516600090815260208190526040808220858503905591851681529081208054849290610dd890849061132d565b92505081905550826001600160a01b0316846001600160a01b03167fddf252ad1be2c89b69c2b068fc378daa952ba7f163c4a11628f55a4df523b3ef84604051610e2491815260200190565b60405180910390a350505050565b6001600160a01b038216610e885760405162461bcd60e51b815260206004820152601f60248201527f45524332303a206d696e7420746f20746865207a65726f20616464726573730060448201526064016104a1565b8060026000828254610e9a919061132d565b90915550506001600160a01b03821660009081526020819052604081208054839290610ec790849061132d565b90915550506040518181526001600160a01b038316906000907fddf252ad1be2c89b69c2b068fc378daa952ba7f163c4a11628f55a4df523b3ef9060200160405180910390a35050565b6001600160a01b038216610f715760405162461bcd60e51b815260206004820152602160248201527f45524332303a206275726e2066726f6d20746865207a65726f206164647265736044820152607360f81b60648201526084016104a1565b6001600160a01b03821660009081526020819052604090205481811015610fe55760405162461bcd60e51b815260206004820152602260248201527f45524332303a206275726e20616d6f756e7420657863656564732062616c616e604482015261636560f01b60648201526084016104a1565b6001600160a01b03831660009081526020819052604081208383039055600280548492906110149084906114ab565b90915550506040518281526000906001600160a01b038516907fddf252ad1be2c89b69c2b068fc378daa952ba7f163c4a11628f55a4df523b3ef9060200160405180910390a3505050565b6001600160a01b0316600090815260209190915260409020805460ff19169055565b6001600160a01b0381166110d75760405162461bcd60e51b815260206004820152601f60248201527f43616e6e6f74206164642030783020746f20612073686172656420726f6c650060448201526064016104a1565b6001600160a01b0316600090815260209190915260409020805460ff19166001179055565b6001600160a01b03811661115e5760405162461bcd60e51b815260206004820152602360248201527f43616e6e6f742073657420616e206578636c757369766520726f6c6520746f2060448201526203078360ec1b60648201526084016104a1565b81546001600160a01b0319166001600160a01b0391909116179055565b600060208083528351808285015260005b818110156111a85785810183015185820160400152820161118c565b818111156111ba576000604083870101525b50601f01601f1916929092016040019392505050565b80356001600160a01b03811681146111e757600080fd5b919050565b600080604083850312156111ff57600080fd5b611208836111d0565b946020939093013593505050565b60008060006060848603121561122b57600080fd5b611234846111d0565b9250611242602085016111d0565b9150604084013590509250925092565b60006020828403121561126457600080fd5b5035919050565b6000806040838503121561127e57600080fd5b8235915061128e602084016111d0565b90509250929050565b6000602082840312156112a957600080fd5b6112b2826111d0565b9392505050565b600080604083850312156112cc57600080fd5b6112d5836111d0565b915061128e602084016111d0565b600181811c908216806112f757607f821691505b602082108103610a0957634e487b7160e01b600052602260045260246000fd5b634e487b7160e01b600052601160045260246000fd5b6000821982111561134057611340611317565b500190565b634e487b7160e01b600052602160045260246000fd5b60208082526022908201527f53656e64657220646f6573206e6f7420686f6c6420726571756972656420726f6040820152616c6560f01b606082015260800190565b6020808252602c908201527f4d7573742062652063616c6c6564206f6e20616e20696e697469616c697a656460408201526b2053686172656420726f6c6560a01b606082015260800190565b60208082526024908201527f43616e206f6e6c792062652063616c6c6564206279206120726f6c65206d616e60408201526330b3b2b960e11b606082015260800190565b6020808252602f908201527f4d7573742062652063616c6c6564206f6e20616e20696e697469616c697a656460408201526e204578636c757369766520726f6c6560881b606082015260800190565b634e487b7160e01b600052603260045260246000fd5b6000600182016114a4576114a4611317565b5060010190565b6000828210156114bd576114bd611317565b50039056fea2646970667358221220d04325700cd4dd4eaa1f70741bb5699c3e4e015a1f5315b3c7cc4d6f31d1839e64736f6c634300080d0033417474656d7074656420746f2075736520616e20696e76616c696420726f6c65",
    "linkReferences": {}
  },
  "methodIdentifiers": {
    "addBurner(address)": "f44637ba",
    "addMember(uint256,address)": "74d0a676",
    "addMinter(address)": "983b2d56",
    "allowance(address,address)": "dd62ed3e",
    "approve(address,uint256)": "095ea7b3",
    "balanceOf(address)": "70a08231",
    "burn(uint256)": "42966c68",
    "burnFrom(address,uint256)": "79cc6790",
    "decimals()": "313ce567",
    "decreaseAllowance(address,uint256)": "a457c2d7",
    "getMember(uint256)": "ab3545e5",
    "holdsRole(uint256,address)": "7cdc1cb9",
    "increaseAllowance(address,uint256)": "39509351",
    "mint(address,uint256)": "40c10f19",
    "name()": "06fdde03",
    "removeMember(uint256,address)": "6be7658b",
    "renounceMembership(uint256)": "aaa14ca3",
    "resetMember(uint256,address)": "d97c05be",
    "resetOwner(address)": "73cc802a",
    "symbol()": "95d89b41",
    "totalSupply()": "18160ddd",
    "transfer(address,uint256)": "a9059cbb",
    "transferFrom(address,address,uint256)": "23b872dd"
  },
  "id": 16
}