{
  "abi": [
    {
      "inputs": [
        {
          "internalType": "address",
          "name": "_finderAddress",
          "type": "address"
        },
        {
          "internalType": "address",
          "name": "_timerAddress",
          "type": "address"
        }
      ],
      "stateMutability": "nonpayable",
      "type": "constructor"
    },
    {
      "inputs": [],
      "name": "getCurrentTime",
      "outputs": [
        {
          "internalType": "uint256",
          "name": "",
          "type": "uint256"
        }
      ],
      "stateMutability": "view",
      "type": "function"
    },
    {
      "inputs": [],
      "name": "getPendingQueries",
      "outputs": [
        {
          "components": [
            {
              "internalType": "bytes32",
              "name": "identifier",
              "type": "bytes32"
            },
            {
              "internalType": "uint256",
              "name": "time",
              "type": "uint256"
            }
          ],
          "internalType": "struct MockOracle.QueryPoint[]",
          "name": "",
          "type": "tuple[]"
        }
      ],
      "stateMutability": "view",
      "type": "function"
    },
    {
      "inputs": [
        {
          "internalType": "bytes32",
          "name": "identifier",
          "type": "bytes32"
        },
        {
          "internalType": "uint256",
          "name": "time",
          "type": "uint256"
        }
      ],
      "name": "getPrice",
      "outputs": [
        {
          "internalType": "int256",
          "name": "",
          "type": "int256"
        }
      ],
      "stateMutability": "view",
      "type": "function"
    },
    {
      "inputs": [
        {
          "internalType": "bytes32",
          "name": "identifier",
          "type": "bytes32"
        },
        {
          "internalType": "uint256",
          "name": "time",
          "type": "uint256"
        }
      ],
      "name": "hasPrice",
      "outputs": [
        {
          "internalType": "bool",
          "name": "",
          "type": "bool"
        }
      ],
      "stateMutability": "view",
      "type": "function"
    },
    {
      "inputs": [
        {
          "internalType": "bytes32",
          "name": "identifier",
          "type": "bytes32"
        },
        {
          "internalType": "uint256",
          "name": "time",
          "type": "uint256"
        },
        {
          "internalType": "int256",
          "name": "price",
          "type": "int256"
        }
      ],
      "name": "pushPrice",
      "outputs": [],
      "stateMutability": "nonpayable",
      "type": "function"
    },
    {
      "inputs": [
        {
          "internalType": "bytes32",
          "name": "identifier",
          "type": "bytes32"
        },
        {
          "internalType": "uint256",
          "name": "time",
          "type": "uint256"
        }
      ],
      "name": "requestPrice",
      "outputs": [],
      "stateMutability": "nonpayable",
      "type": "function"
    },
    {
      "inputs": [
        {
          "internalType": "uint256",
          "name": "time",
          "type": "uint256"
        }
      ],
      "name": "setCurrentTime",
      "outputs": [],
      "stateMutability": "nonpayable",
      "type": "function"
    },
    {
      "inputs": [],
      "name": "timerAddress",
      "outputs": [
        {
          "internalType": "address",
          "name": "",
          "type": "address"
        }
      ],
      "stateMutability": "view",
      "type": "function"
    }
  ],
  "bytecode": {
    "object": "0x608060405234801561001057600080fd5b5060405161091e38038061091e83398101604081905261002f9161007f565b600080546001600160a01b039283166001600160a01b031991821617909155600180549390921692169190911790556100b2565b80516001600160a01b038116811461007a57600080fd5b919050565b6000806040838503121561009257600080fd5b61009b83610063565b91506100a960208401610063565b90509250929050565b61085d806100c16000396000f3fe608060405234801561001057600080fd5b50600436106100885760003560e01c806368ad8ae31161005b57806368ad8ae3146100fb578063a03e881a1461010e578063b555d6081461014c578063c9280f061461016157600080fd5b8063051fd48c1461008d5780631c39c38d146100a257806322f8e566146100d257806329cb924d146100e5575b600080fd5b6100a061009b3660046106cb565b610174565b005b6000546100b5906001600160a01b031681565b6040516001600160a01b0390911681526020015b60405180910390f35b6100a06100e03660046106f7565b61031c565b6100ed610392565b6040519081526020016100c9565b6100a0610109366004610710565b610423565b61013c61011c366004610710565b600091825260026020908152604080842092845291905290205460ff1690565b60405190151581526020016100c9565b6101546105a3565b6040516100c99190610732565b6100ed61016f366004610710565b610616565b6040518060600160405280600115158152602001828152602001610196610392565b9052600084815260026020818152604080842087855282528084208551815460ff19169015151781558583015160018201559481015194909201939093558582526003835280822085835290925220805460ff166102505760405162461bcd60e51b815260206004820152602d60248201527f43616e2774207075736820707269636573207468617420686176656e2774206260448201526c19595b881c995c5d595cdd1959609a1b606482015260840160405180910390fd5b60018082015460008681526003602090815260408083208884529091528120805460ff1916815583018190556004549192909161028d9190610781565b9050818114610314576000600482815481106102ab576102ab6107a6565b600091825260208083206002909202909101805483526003825260408084206001808401548652935290922001849055600480549192508291859081106102f4576102f46107a6565b600091825260209091208254600290920201908155600191820154910155505b505050505050565b6000546001600160a01b031661033157600080fd5b60005460405163117c72b360e11b8152600481018390526001600160a01b03909116906322f8e56690602401600060405180830381600087803b15801561037757600080fd5b505af115801561038b573d6000803e3d6000fd5b5050505050565b600080546001600160a01b03161561041e5760008054906101000a90046001600160a01b03166001600160a01b03166329cb924d6040518163ffffffff1660e01b8152600401602060405180830381865afa1580156103f5573d6000803e3d6000fd5b505050506040513d601f19601f8201168201806040525081019061041991906107bc565b905090565b504290565b61042b610648565b6001600160a01b03166390978d1b836040518263ffffffff1660e01b815260040161045891815260200190565b602060405180830381865afa158015610475573d6000803e3d6000fd5b505050506040513d601f19601f8201168201806040525081019061049991906107d5565b6104a257600080fd5b60008281526002602090815260408083208484529091529020805460ff161580156104e75750600083815260036020908152604080832085845290915290205460ff16155b1561059e57604080518082018252600180825260048054602080850191825260008981526003825286812089825282528681209551865460ff1916901515178655915194840194909455845180860190955287855292840186815281549283018255925291517f8a35acfbc15ff81a39ae7d344fd709f28e8600b4aa8c65c6b64bfe7fe36bd19b600290930292830155517f8a35acfbc15ff81a39ae7d344fd709f28e8600b4aa8c65c6b64bfe7fe36bd19c909101555b505050565b60606004805480602002602001604051908101604052809291908181526020016000905b8282101561060d578382906000526020600020906002020160405180604001604052908160008201548152602001600182015481525050815260200190600101906105c7565b50505050905090565b60008281526002602090815260408083208484529091528120805460ff1661063d57600080fd5b600101549392505050565b6001546040516302abf57960e61b8152721259195b9d1a599a595c95da1a5d195b1a5cdd606a1b60048201526000916001600160a01b03169063aafd5e4090602401602060405180830381865afa1580156106a7573d6000803e3d6000fd5b505050506040513d601f19601f8201168201806040525081019061041991906107fe565b6000806000606084860312156106e057600080fd5b505081359360208301359350604090920135919050565b60006020828403121561070957600080fd5b5035919050565b6000806040838503121561072357600080fd5b50508035926020909101359150565b602080825282518282018190526000919060409081850190868401855b828110156107745781518051855286015186850152928401929085019060010161074f565b5091979650505050505050565b6000828210156107a157634e487b7160e01b600052601160045260246000fd5b500390565b634e487b7160e01b600052603260045260246000fd5b6000602082840312156107ce57600080fd5b5051919050565b6000602082840312156107e757600080fd5b815180151581146107f757600080fd5b9392505050565b60006020828403121561081057600080fd5b81516001600160a01b03811681146107f757600080fdfea264697066735822122041d3870357c136a1dadadbaf58569107418247e0acd26717a00090d84716208864736f6c634300080d0033",
    "linkReferences": {}
  },
  "methodIdentifiers": {
    "getCurrentTime()": "29cb924d",
    "getPendingQueries()": "b555d608",
    "getPrice(bytes32,uint256)": "c9280f06",
    "hasPrice(bytes32,uint256)": "a03e881a",
    "pushPrice(bytes32,uint256,int256)": "051fd48c",
    "requestPrice(bytes32,uint256)": "68ad8ae3",
    "setCurrentTime(uint256)": "22f8e566",
    "timerAddress()": "1c39c38d"
  },
  "id": 28
}