{
  "abi": [
    {
      "anonymous": false,
      "inputs": [
        {
          "indexed": true,
          "internalType": "address",
          "name": "addedAddress",
          "type": "address"
        }
      ],
      "name": "AddedToWhitelist",
      "type": "event"
    },
    {
      "anonymous": false,
      "inputs": [
        {
          "indexed": true,
          "internalType": "address",
          "name": "previousOwner",
          "type": "address"
        },
        {
          "indexed": true,
          "internalType": "address",
          "name": "newOwner",
          "type": "address"
        }
      ],
      "name": "OwnershipTransferred",
      "type": "event"
    },
    {
      "anonymous": false,
      "inputs": [
        {
          "indexed": true,
          "internalType": "address",
          "name": "removedAddress",
          "type": "address"
        }
      ],
      "name": "RemovedFromWhitelist",
      "type": "event"
    },
    {
      "inputs": [
        {
          "internalType": "address",
          "name": "newElement",
          "type": "address"
        }
      ],
      "name": "addToWhitelist",
      "outputs": [],
      "stateMutability": "nonpayable",
      "type": "function"
    },
    {
      "inputs": [],
      "name": "getWhitelist",
      "outputs": [
        {
          "internalType": "address[]",
          "name": "activeWhitelist",
          "type": "address[]"
        }
      ],
      "stateMutability": "view",
      "type": "function"
    },
    {
      "inputs": [
        {
          "internalType": "address",
          "name": "elementToCheck",
          "type": "address"
        }
      ],
      "name": "isOnWhitelist",
      "outputs": [
        {
          "internalType": "bool",
          "name": "",
          "type": "bool"
        }
      ],
      "stateMutability": "view",
      "type": "function"
    },
    {
      "inputs": [],
      "name": "owner",
      "outputs": [
        {
          "internalType": "address",
          "name": "",
          "type": "address"
        }
      ],
      "stateMutability": "view",
      "type": "function"
    },
    {
      "inputs": [
        {
          "internalType": "address",
          "name": "elementToRemove",
          "type": "address"
        }
      ],
      "name": "removeFromWhitelist",
      "outputs": [],
      "stateMutability": "nonpayable",
      "type": "function"
    },
    {
      "inputs": [],
      "name": "renounceOwnership",
      "outputs": [],
      "stateMutability": "nonpayable",
      "type": "function"
    },
    {
      "inputs": [
        {
          "internalType": "address",
          "name": "newOwner",
          "type": "address"
        }
      ],
      "name": "transferOwnership",
      "outputs": [],
      "stateMutability": "nonpayable",
      "type": "function"
    },
    {
      "inputs": [
        {
          "internalType": "address",
          "name": "",
          "type": "address"
        }
      ],
      "name": "whitelist",
      "outputs": [
        {
          "internalType": "enum AddressWhitelist.Status",
          "name": "",
          "type": "uint8"
        }
      ],
      "stateMutability": "view",
      "type": "function"
    },
    {
      "inputs": [
        {
          "internalType": "uint256",
          "name": "",
          "type": "uint256"
        }
      ],
      "name": "whitelistIndices",
      "outputs": [
        {
          "internalType": "address",
          "name": "",
          "type": "address"
        }
      ],
      "stateMutability": "view",
      "type": "function"
    }
  ],
  "bytecode": {
    "object": "0x608060405234801561001057600080fd5b5061001a33610032565b6000805460ff60a01b1916600160a01b179055610082565b600080546001600160a01b038381166001600160a01b0319831681178455604051919092169283917f8be0079c531659141344cd1fd0a4f28419497f9722a3daafe3b4186f6b6457e09190a35050565b610866806100916000396000f3fe608060405234801561001057600080fd5b50600436106100935760003560e01c80638da5cb5b116100665780638da5cb5b146101085780639b19251a14610119578063d01f63f514610149578063e43252d71461015e578063f2fde38b1461017157600080fd5b806337797c08146100985780633a3ab672146100c8578063715018a6146100eb5780638ab1d681146100f5575b600080fd5b6100ab6100a6366004610709565b610184565b6040516001600160a01b0390911681526020015b60405180910390f35b6100db6100d6366004610722565b6101ae565b60405190151581526020016100bf565b6100f36101ee565b005b6100f3610103366004610722565b610202565b6000546001600160a01b03166100ab565b61013c610127366004610722565b60016020526000908152604090205460ff1681565b6040516100bf9190610768565b6101516102bd565b6040516100bf9190610790565b6100f361016c366004610722565b610453565b6100f361017f366004610722565b61058b565b6002818154811061019457600080fd5b6000918252602090912001546001600160a01b0316905081565b60006101b8610606565b60016001600160a01b03831660009081526001602052604090205460ff1660028111156101e7576101e7610752565b1492915050565b6101f661065f565b61020060006106b9565b565b61020a610606565b61021c6000805460ff60a01b19169055565b61022461065f565b60026001600160a01b03821660009081526001602052604090205460ff16600281111561025357610253610752565b146102a2576001600160a01b038116600081815260016020526040808220805460ff19166002179055517fcdd2e9b91a56913d370075169cefa1602ba36be5301664f752192bb1709df7579190a25b6102ba6000805460ff60a01b1916600160a01b179055565b50565b60606102c7610606565b6000805b60025481101561034b576001806000600284815481106102ed576102ed6107dd565b60009182526020808320909101546001600160a01b0316835282019290925260400190205460ff16600281111561032657610326610752565b036103395781610335816107f3565b9250505b80610343816107f3565b9150506102cb565b508067ffffffffffffffff8111156103655761036561081a565b60405190808252806020026020018201604052801561038e578160200160208202803683370190505b5091506000905060005b60025481101561044e576000600282815481106103b7576103b76107dd565b6000918252602090912001546001600160a01b0316905060016001600160a01b03821660009081526001602052604090205460ff1660028111156103fd576103fd610752565b0361043b5780848481518110610415576104156107dd565b6001600160a01b039092166020928302919091019091015282610437816107f3565b9350505b5080610446816107f3565b915050610398565b505090565b61045b610606565b61046d6000805460ff60a01b19169055565b61047561065f565b60016001600160a01b03821660009081526001602052604090205460ff1660028111156104a4576104a4610752565b146102a2576001600160a01b03811660009081526001602052604081205460ff1660028111156104d6576104d6610752565b0361052757600280546001810182556000919091527f405787fa12a823e0f2b7631cc41b3ba8828b3321ca811111fa75cd3aa3bb5ace0180546001600160a01b0319166001600160a01b0383161790555b6001600160a01b0381166000818152600160208190526040808320805460ff1916909217909155517fa850ae9193f515cbae8d35e8925bd2be26627fc91bce650b8652ed254e9cab039190a26102ba6000805460ff60a01b1916600160a01b179055565b61059361065f565b6001600160a01b0381166105fd5760405162461bcd60e51b815260206004820152602660248201527f4f776e61626c653a206e6577206f776e657220697320746865207a65726f206160448201526564647265737360d01b60648201526084015b60405180910390fd5b6102ba816106b9565b600054600160a01b900460ff166102005760405162461bcd60e51b815260206004820152601f60248201527f5265656e7472616e637947756172643a207265656e7472616e742063616c6c0060448201526064016105f4565b6000546001600160a01b031633146102005760405162461bcd60e51b815260206004820181905260248201527f4f776e61626c653a2063616c6c6572206973206e6f7420746865206f776e657260448201526064016105f4565b600080546001600160a01b038381166001600160a01b0319831681178455604051919092169283917f8be0079c531659141344cd1fd0a4f28419497f9722a3daafe3b4186f6b6457e09190a35050565b60006020828403121561071b57600080fd5b5035919050565b60006020828403121561073457600080fd5b81356001600160a01b038116811461074b57600080fd5b9392505050565b634e487b7160e01b600052602160045260246000fd5b602081016003831061078a57634e487b7160e01b600052602160045260246000fd5b91905290565b6020808252825182820181905260009190848201906040850190845b818110156107d15783516001600160a01b0316835292840192918401916001016107ac565b50909695505050505050565b634e487b7160e01b600052603260045260246000fd5b60006001820161081357634e487b7160e01b600052601160045260246000fd5b5060010190565b634e487b7160e01b600052604160045260246000fdfea26469706673582212201d816c2e5fd882e8b14127ca09788ee136b02464f77e8084a553f5b81ec18f1864736f6c63430008110033",
    "linkReferences": {}
  },
  "methodIdentifiers": {
    "addToWhitelist(address)": "e43252d7",
    "getWhitelist()": "d01f63f5",
    "isOnWhitelist(address)": "3a3ab672",
    "owner()": "8da5cb5b",
    "removeFromWhitelist(address)": "8ab1d681",
    "renounceOwnership()": "715018a6",
    "transferOwnership(address)": "f2fde38b",
    "whitelist(address)": "9b19251a",
    "whitelistIndices(uint256)": "37797c08"
  },
  "id": 34
}