{
  "abi": [
    {
      "inputs": [
        {
          "internalType": "address",
          "name": "_finderAddress",
          "type": "address"
        },
        {
          "internalType": "address",
          "name": "_timerAddress",
          "type": "address"
        }
      ],
      "stateMutability": "nonpayable",
      "type": "constructor"
    },
    {
      "anonymous": false,
      "inputs": [
        {
          "indexed": true,
          "internalType": "address",
          "name": "requester",
          "type": "address"
        },
        {
          "indexed": true,
          "internalType": "bytes32",
          "name": "identifier",
          "type": "bytes32"
        },
        {
          "indexed": false,
          "internalType": "uint256",
          "name": "time",
          "type": "uint256"
        },
        {
          "indexed": false,
          "internalType": "bytes",
          "name": "ancillaryData",
          "type": "bytes"
        }
      ],
      "name": "PriceRequestAdded",
      "type": "event"
    },
    {
      "anonymous": false,
      "inputs": [
        {
          "indexed": true,
          "internalType": "address",
          "name": "pusher",
          "type": "address"
        },
        {
          "indexed": true,
          "internalType": "bytes32",
          "name": "identifier",
          "type": "bytes32"
        },
        {
          "indexed": false,
          "internalType": "uint256",
          "name": "time",
          "type": "uint256"
        },
        {
          "indexed": false,
          "internalType": "bytes",
          "name": "ancillaryData",
          "type": "bytes"
        },
        {
          "indexed": false,
          "internalType": "int256",
          "name": "price",
          "type": "int256"
        }
      ],
      "name": "PushedPrice",
      "type": "event"
    },
    {
      "inputs": [],
      "name": "getCurrentTime",
      "outputs": [
        {
          "internalType": "uint256",
          "name": "",
          "type": "uint256"
        }
      ],
      "stateMutability": "view",
      "type": "function"
    },
    {
      "inputs": [],
      "name": "getPendingQueries",
      "outputs": [
        {
          "components": [
            {
              "internalType": "bytes32",
              "name": "identifier",
              "type": "bytes32"
            },
            {
              "internalType": "uint256",
              "name": "time",
              "type": "uint256"
            },
            {
              "internalType": "bytes",
              "name": "ancillaryData",
              "type": "bytes"
            }
          ],
          "internalType": "struct MockOracleAncillary.QueryPoint[]",
          "name": "",
          "type": "tuple[]"
        }
      ],
      "stateMutability": "view",
      "type": "function"
    },
    {
      "inputs": [
        {
          "internalType": "bytes32",
          "name": "identifier",
          "type": "bytes32"
        },
        {
          "internalType": "uint256",
          "name": "time",
          "type": "uint256"
        },
        {
          "internalType": "bytes",
          "name": "ancillaryData",
          "type": "bytes"
        }
      ],
      "name": "getPrice",
      "outputs": [
        {
          "internalType": "int256",
          "name": "",
          "type": "int256"
        }
      ],
      "stateMutability": "view",
      "type": "function"
    },
    {
      "inputs": [
        {
          "internalType": "bytes32",
          "name": "identifier",
          "type": "bytes32"
        },
        {
          "internalType": "uint256",
          "name": "time",
          "type": "uint256"
        },
        {
          "internalType": "bytes",
          "name": "ancillaryData",
          "type": "bytes"
        }
      ],
      "name": "hasPrice",
      "outputs": [
        {
          "internalType": "bool",
          "name": "",
          "type": "bool"
        }
      ],
      "stateMutability": "view",
      "type": "function"
    },
    {
      "inputs": [
        {
          "internalType": "bytes32",
          "name": "identifier",
          "type": "bytes32"
        },
        {
          "internalType": "uint256",
          "name": "time",
          "type": "uint256"
        },
        {
          "internalType": "bytes",
          "name": "ancillaryData",
          "type": "bytes"
        },
        {
          "internalType": "int256",
          "name": "price",
          "type": "int256"
        }
      ],
      "name": "pushPrice",
      "outputs": [],
      "stateMutability": "nonpayable",
      "type": "function"
    },
    {
      "inputs": [
        {
          "internalType": "bytes32",
          "name": "identifier",
          "type": "bytes32"
        },
        {
          "internalType": "uint256",
          "name": "time",
          "type": "uint256"
        },
        {
          "internalType": "bytes",
          "name": "ancillaryData",
          "type": "bytes"
        }
      ],
      "name": "requestPrice",
      "outputs": [],
      "stateMutability": "nonpayable",
      "type": "function"
    },
    {
      "inputs": [
        {
          "internalType": "uint256",
          "name": "time",
          "type": "uint256"
        }
      ],
      "name": "setCurrentTime",
      "outputs": [],
      "stateMutability": "nonpayable",
      "type": "function"
    },
    {
      "inputs": [],
      "name": "timerAddress",
      "outputs": [
        {
          "internalType": "address",
          "name": "",
          "type": "address"
        }
      ],
      "stateMutability": "view",
      "type": "function"
    }
  ],
  "bytecode": {
    "object": "0x608060405234801561001057600080fd5b50604051610faa380380610faa83398101604081905261002f9161007f565b600080546001600160a01b039283166001600160a01b031991821617909155600180549390921692169190911790556100b2565b80516001600160a01b038116811461007a57600080fd5b919050565b6000806040838503121561009257600080fd5b61009b83610063565b91506100a960208401610063565b90509250929050565b610ee9806100c16000396000f3fe608060405234801561001057600080fd5b50600436106100885760003560e01c8063719c6d561161005b578063719c6d56146100fb578063b551cd501461010e578063b555d60814610131578063d7d6f43d1461014657600080fd5b80631c39c38d1461008d578063216666a4146100bd57806322f8e566146100d257806329cb924d146100e5575b600080fd5b6000546100a0906001600160a01b031681565b6040516001600160a01b0390911681526020015b60405180910390f35b6100d06100cb366004610b3a565b610159565b005b6100d06100e0366004610b8a565b6103c0565b6100ed610436565b6040519081526020016100b4565b6100ed610109366004610b3a565b6104c7565b61012161011c366004610b3a565b61051d565b60405190151581526020016100b4565b610139610564565b6040516100b49190610bfb565b6100d0610154366004610c7a565b610669565b610161610900565b6001600160a01b03166390978d1b846040518263ffffffff1660e01b815260040161018e91815260200190565b602060405180830381865afa1580156101ab573d6000803e3d6000fd5b505050506040513d601f19601f820116820180604052508101906101cf9190610cd2565b6101d857600080fd5b600083815260026020908152604080832085845290915280822090516101ff908490610cfb565b908152604051908190036020019020805490915060ff1615801561025b57506000848152600360209081526040808320868452909152908190209051610246908490610cfb565b9081526040519081900360200190205460ff16155b156103ba5760408051808201825260018152600454602080830191909152600087815260038252838120878252909152829020915190919061029e908590610cfb565b90815260408051602092819003830181208451815460ff19169015151781559383015160019485015560608101825287815282810187815291810186815260048054958601815560005281517f8a35acfbc15ff81a39ae7d344fd709f28e8600b4aa8c65c6b64bfe7fe36bd19b600390960295860190815592517f8a35acfbc15ff81a39ae7d344fd709f28e8600b4aa8c65c6b64bfe7fe36bd19c86015551805191949293610372937f8a35acfbc15ff81a39ae7d344fd709f28e8600b4aa8c65c6b64bfe7fe36bd19d0192910190610983565b50505083336001600160a01b03167f4e8f92be7f49d3a5247918a98fff73bf4b214b2f5a2e2fe71c8666daeab4360385856040516103b1929190610d17565b60405180910390a35b50505050565b6000546001600160a01b03166103d557600080fd5b60005460405163117c72b360e11b8152600481018390526001600160a01b03909116906322f8e56690602401600060405180830381600087803b15801561041b57600080fd5b505af115801561042f573d6000803e3d6000fd5b5050505050565b600080546001600160a01b0316156104c25760008054906101000a90046001600160a01b03166001600160a01b03166329cb924d6040518163ffffffff1660e01b8152600401602060405180830381865afa158015610499573d6000803e3d6000fd5b505050506040513d601f19601f820116820180604052508101906104bd9190610d38565b905090565b504290565b600083815260026020908152604080832085845290915280822090518291906104f1908590610cfb565b908152604051908190036020019020805490915060ff1661051157600080fd5b60010154949350505050565b60008381526002602090815260408083208584529091528082209051829190610547908590610cfb565b9081526040519081900360200190205460ff169150509392505050565b60606004805480602002602001604051908101604052809291908181526020016000905b82821015610660578382906000526020600020906003020160405180606001604052908160008201548152602001600182015481526020016002820180546105cf90610d51565b80601f01602080910402602001604051908101604052809291908181526020018280546105fb90610d51565b80156106485780601f1061061d57610100808354040283529160200191610648565b820191906000526020600020905b81548152906001019060200180831161062b57829003601f168201915b50505050508152505081526020019060010190610588565b50505050905090565b604051806060016040528060011515815260200182815260200161068b610436565b905260008581526002602090815260408083208784529091529081902090516106b5908590610cfb565b90815260408051602092819003830181208451815460ff1916901515178155848401516001820155938201516002909401939093556000878152600383528181208782529092528120909161070b908590610cfb565b908152604051908190036020019020805490915060ff166107885760405162461bcd60e51b815260206004820152602d60248201527f43616e2774207075736820707269636573207468617420686176656e2774206260448201526c19595b881c995c5d595cdd1959609a1b606482015260840160405180910390fd5b600181015460008681526003602090815260408083208884529091529081902090516107b5908690610cfb565b908152604051908190036020019020805460ff191681556000600191820181905560045490916107e491610d8b565b90508181146108b15760006004828154811061080257610802610db0565b6000918252602080832060039283020180548452918152604080842060018401548552909152918290209151909250849190610842906002850190610dc6565b908152602001604051809103902060010181905550806004848154811061086b5761086b610db0565b9060005260206000209060030201600082015481600001556001820154816001015560028201816002019080546108a190610d51565b6108ac929190610a07565b505050505b86336001600160a01b03167f766d17806eb1cbda2fa097f082481c7158f93c297beb98aafe57b78bae115d008888886040516108ef93929190610e61565b60405180910390a350505050505050565b6001546040516302abf57960e61b8152721259195b9d1a599a595c95da1a5d195b1a5cdd606a1b60048201526000916001600160a01b03169063aafd5e4090602401602060405180830381865afa15801561095f573d6000803e3d6000fd5b505050506040513d601f19601f820116820180604052508101906104bd9190610e8a565b82805461098f90610d51565b90600052602060002090601f0160209004810192826109b157600085556109f7565b82601f106109ca57805160ff19168380011785556109f7565b828001600101855582156109f7579182015b828111156109f75782518255916020019190600101906109dc565b50610a03929150610a82565b5090565b828054610a1390610d51565b90600052602060002090601f016020900481019282610a3557600085556109f7565b82601f10610a4657805485556109f7565b828001600101855582156109f757600052602060002091601f016020900482015b828111156109f7578254825591600101919060010190610a67565b5b80821115610a035760008155600101610a83565b634e487b7160e01b600052604160045260246000fd5b600082601f830112610abe57600080fd5b813567ffffffffffffffff80821115610ad957610ad9610a97565b604051601f8301601f19908116603f01168101908282118183101715610b0157610b01610a97565b81604052838152866020858801011115610b1a57600080fd5b836020870160208301376000602085830101528094505050505092915050565b600080600060608486031215610b4f57600080fd5b8335925060208401359150604084013567ffffffffffffffff811115610b7457600080fd5b610b8086828701610aad565b9150509250925092565b600060208284031215610b9c57600080fd5b5035919050565b60005b83811015610bbe578181015183820152602001610ba6565b838111156103ba5750506000910152565b60008151808452610be7816020860160208601610ba3565b601f01601f19169290920160200192915050565b60006020808301818452808551808352604092508286019150828160051b87010184880160005b83811015610c6c57888303603f1901855281518051845287810151888501528601516060878501819052610c5881860183610bcf565b968901969450505090860190600101610c22565b509098975050505050505050565b60008060008060808587031215610c9057600080fd5b8435935060208501359250604085013567ffffffffffffffff811115610cb557600080fd5b610cc187828801610aad565b949793965093946060013593505050565b600060208284031215610ce457600080fd5b81518015158114610cf457600080fd5b9392505050565b60008251610d0d818460208701610ba3565b9190910192915050565b828152604060208201526000610d306040830184610bcf565b949350505050565b600060208284031215610d4a57600080fd5b5051919050565b600181811c90821680610d6557607f821691505b602082108103610d8557634e487b7160e01b600052602260045260246000fd5b50919050565b600082821015610dab57634e487b7160e01b600052601160045260246000fd5b500390565b634e487b7160e01b600052603260045260246000fd5b600080835481600182811c915080831680610de257607f831692505b60208084108203610e0157634e487b7160e01b86526022600452602486fd5b818015610e155760018114610e2657610e53565b60ff19861689528489019650610e53565b60008a81526020902060005b86811015610e4b5781548b820152908501908301610e32565b505084890196505b509498975050505050505050565b838152606060208201526000610e7a6060830185610bcf565b9050826040830152949350505050565b600060208284031215610e9c57600080fd5b81516001600160a01b0381168114610cf457600080fdfea2646970667358221220bf1ea490a0c6f3c1ecb3b6b7da10c65cc12ad02173612648e73717a0631f229464736f6c634300080d0033",
    "linkReferences": {}
  },
  "methodIdentifiers": {
    "getCurrentTime()": "29cb924d",
    "getPendingQueries()": "b555d608",
    "getPrice(bytes32,uint256,bytes)": "719c6d56",
    "hasPrice(bytes32,uint256,bytes)": "b551cd50",
    "pushPrice(bytes32,uint256,bytes,int256)": "d7d6f43d",
    "requestPrice(bytes32,uint256,bytes)": "216666a4",
    "setCurrentTime(uint256)": "22f8e566",
    "timerAddress()": "1c39c38d"
  },
  "id": 37
}