{
  "abi": [
    {
      "inputs": [
        {
          "internalType": "address",
          "name": "_finderAddress",
          "type": "address"
        },
        {
          "internalType": "address",
          "name": "_timerAddress",
          "type": "address"
        }
      ],
      "stateMutability": "nonpayable",
      "type": "constructor"
    },
    {
      "anonymous": false,
      "inputs": [
        {
          "indexed": true,
          "internalType": "address",
          "name": "requester",
          "type": "address"
        },
        {
          "indexed": true,
          "internalType": "bytes32",
          "name": "identifier",
          "type": "bytes32"
        },
        {
          "indexed": false,
          "internalType": "uint256",
          "name": "time",
          "type": "uint256"
        },
        {
          "indexed": false,
          "internalType": "bytes",
          "name": "ancillaryData",
          "type": "bytes"
        }
      ],
      "name": "PriceRequestAdded",
      "type": "event"
    },
    {
      "anonymous": false,
      "inputs": [
        {
          "indexed": true,
          "internalType": "address",
          "name": "pusher",
          "type": "address"
        },
        {
          "indexed": true,
          "internalType": "bytes32",
          "name": "identifier",
          "type": "bytes32"
        },
        {
          "indexed": false,
          "internalType": "uint256",
          "name": "time",
          "type": "uint256"
        },
        {
          "indexed": false,
          "internalType": "bytes",
          "name": "ancillaryData",
          "type": "bytes"
        },
        {
          "indexed": false,
          "internalType": "int256",
          "name": "price",
          "type": "int256"
        }
      ],
      "name": "PushedPrice",
      "type": "event"
    },
    {
      "inputs": [],
      "name": "getCurrentTime",
      "outputs": [
        {
          "internalType": "uint256",
          "name": "",
          "type": "uint256"
        }
      ],
      "stateMutability": "view",
      "type": "function"
    },
    {
      "inputs": [],
      "name": "getPendingQueries",
      "outputs": [
        {
          "components": [
            {
              "internalType": "bytes32",
              "name": "identifier",
              "type": "bytes32"
            },
            {
              "internalType": "uint256",
              "name": "time",
              "type": "uint256"
            },
            {
              "internalType": "bytes",
              "name": "ancillaryData",
              "type": "bytes"
            }
          ],
          "internalType": "struct MockOracleAncillary.QueryPoint[]",
          "name": "",
          "type": "tuple[]"
        }
      ],
      "stateMutability": "view",
      "type": "function"
    },
    {
      "inputs": [
        {
          "internalType": "bytes32",
          "name": "identifier",
          "type": "bytes32"
        },
        {
          "internalType": "uint256",
          "name": "time",
          "type": "uint256"
        },
        {
          "internalType": "bytes",
          "name": "ancillaryData",
          "type": "bytes"
        }
      ],
      "name": "getPrice",
      "outputs": [
        {
          "internalType": "int256",
          "name": "",
          "type": "int256"
        }
      ],
      "stateMutability": "view",
      "type": "function"
    },
    {
      "inputs": [
        {
          "internalType": "bytes32",
          "name": "identifier",
          "type": "bytes32"
        },
        {
          "internalType": "uint256",
          "name": "time",
          "type": "uint256"
        },
        {
          "internalType": "bytes",
          "name": "ancillaryData",
          "type": "bytes"
        }
      ],
      "name": "hasPrice",
      "outputs": [
        {
          "internalType": "bool",
          "name": "",
          "type": "bool"
        }
      ],
      "stateMutability": "view",
      "type": "function"
    },
    {
      "inputs": [
        {
          "internalType": "bytes32",
          "name": "identifier",
          "type": "bytes32"
        },
        {
          "internalType": "uint256",
          "name": "time",
          "type": "uint256"
        },
        {
          "internalType": "bytes",
          "name": "ancillaryData",
          "type": "bytes"
        },
        {
          "internalType": "int256",
          "name": "price",
          "type": "int256"
        }
      ],
      "name": "pushPrice",
      "outputs": [],
      "stateMutability": "nonpayable",
      "type": "function"
    },
    {
      "inputs": [
        {
          "internalType": "bytes32",
          "name": "identifier",
          "type": "bytes32"
        },
        {
          "internalType": "uint256",
          "name": "time",
          "type": "uint256"
        },
        {
          "internalType": "bytes",
          "name": "ancillaryData",
          "type": "bytes"
        }
      ],
      "name": "requestPrice",
      "outputs": [],
      "stateMutability": "nonpayable",
      "type": "function"
    },
    {
      "inputs": [
        {
          "internalType": "uint256",
          "name": "time",
          "type": "uint256"
        }
      ],
      "name": "setCurrentTime",
      "outputs": [],
      "stateMutability": "nonpayable",
      "type": "function"
    },
    {
      "inputs": [],
      "name": "timerAddress",
      "outputs": [
        {
          "internalType": "address",
          "name": "",
          "type": "address"
        }
      ],
      "stateMutability": "view",
      "type": "function"
    }
  ],
  "bytecode": {
    "object": "0x608060405234801561001057600080fd5b5060405161104038038061104083398101604081905261002f9161007f565b600080546001600160a01b039283166001600160a01b031991821617909155600180549390921692169190911790556100b2565b80516001600160a01b038116811461007a57600080fd5b919050565b6000806040838503121561009257600080fd5b61009b83610063565b91506100a960208401610063565b90509250929050565b610f7f806100c16000396000f3fe608060405234801561001057600080fd5b50600436106100885760003560e01c8063719c6d561161005b578063719c6d56146100fb578063b551cd501461010e578063b555d60814610131578063d7d6f43d1461014657600080fd5b80631c39c38d1461008d578063216666a4146100bd57806322f8e566146100d257806329cb924d146100e5575b600080fd5b6000546100a0906001600160a01b031681565b6040516001600160a01b0390911681526020015b60405180910390f35b6100d06100cb366004610a19565b610159565b005b6100d06100e0366004610a69565b6103be565b6100ed610434565b6040519081526020016100b4565b6100ed610109366004610a19565b6104c5565b61012161011c366004610a19565b61051b565b60405190151581526020016100b4565b610139610562565b6040516100b49190610ad2565b6100d0610154366004610b51565b610667565b6101616108f3565b6001600160a01b03166390978d1b846040518263ffffffff1660e01b815260040161018e91815260200190565b602060405180830381865afa1580156101ab573d6000803e3d6000fd5b505050506040513d601f19601f820116820180604052508101906101cf9190610ba9565b6101d857600080fd5b600083815260026020908152604080832085845290915280822090516101ff908490610bd2565b908152604051908190036020019020805490915060ff1615801561025b57506000848152600360209081526040808320868452909152908190209051610246908490610bd2565b9081526040519081900360200190205460ff16155b156103b85760408051808201825260018152600454602080830191909152600087815260038252838120878252909152829020915190919061029e908590610bd2565b9081526040805191829003602090810183208451815490151560ff19909116178155938101516001948501556060830182528783528201868152908201858152600480549485018155600052825160039094027f8a35acfbc15ff81a39ae7d344fd709f28e8600b4aa8c65c6b64bfe7fe36bd19b810194855591517f8a35acfbc15ff81a39ae7d344fd709f28e8600b4aa8c65c6b64bfe7fe36bd19c830155519192917f8a35acfbc15ff81a39ae7d344fd709f28e8600b4aa8c65c6b64bfe7fe36bd19d909101906103709082610c77565b50505083336001600160a01b03167f4e8f92be7f49d3a5247918a98fff73bf4b214b2f5a2e2fe71c8666daeab4360385856040516103af929190610d37565b60405180910390a35b50505050565b6000546001600160a01b03166103d357600080fd5b60005460405163117c72b360e11b8152600481018390526001600160a01b03909116906322f8e56690602401600060405180830381600087803b15801561041957600080fd5b505af115801561042d573d6000803e3d6000fd5b5050505050565b600080546001600160a01b0316156104c05760008054906101000a90046001600160a01b03166001600160a01b03166329cb924d6040518163ffffffff1660e01b8152600401602060405180830381865afa158015610497573d6000803e3d6000fd5b505050506040513d601f19601f820116820180604052508101906104bb9190610d58565b905090565b504290565b600083815260026020908152604080832085845290915280822090518291906104ef908590610bd2565b908152604051908190036020019020805490915060ff1661050f57600080fd5b60010154949350505050565b60008381526002602090815260408083208584529091528082209051829190610545908590610bd2565b9081526040519081900360200190205460ff169150509392505050565b60606004805480602002602001604051908101604052809291908181526020016000905b8282101561065e578382906000526020600020906003020160405180606001604052908160008201548152602001600182015481526020016002820180546105cd90610bee565b80601f01602080910402602001604051908101604052809291908181526020018280546105f990610bee565b80156106465780601f1061061b57610100808354040283529160200191610646565b820191906000526020600020905b81548152906001019060200180831161062957829003601f168201915b50505050508152505081526020019060010190610586565b50505050905090565b6040518060600160405280600115158152602001828152602001610689610434565b905260008581526002602090815260408083208784529091529081902090516106b3908590610bd2565b90815260408051602092819003830181208451815460ff19169015151781558484015160018201559382015160029094019390935560008781526003835281812087825290925281209091610709908590610bd2565b908152604051908190036020019020805490915060ff166107865760405162461bcd60e51b815260206004820152602d60248201527f43616e2774207075736820707269636573207468617420686176656e2774206260448201526c19595b881c995c5d595cdd1959609a1b606482015260840160405180910390fd5b600181015460008681526003602090815260408083208884529091529081902090516107b3908690610bd2565b908152604051908190036020019020805460ff191681556000600191820181905560045490916107e291610d71565b90508181146108a45760006004828154811061080057610800610d98565b6000918252602080832060039283020180548452918152604080842060018401548552909152918290209151909250849190610840906002850190610dae565b908152602001604051809103902060010181905550806004848154811061086957610869610d98565b906000526020600020906003020160008201548160000155600182015481600101556002820181600201908161089f9190610e24565b505050505b86336001600160a01b03167f766d17806eb1cbda2fa097f082481c7158f93c297beb98aafe57b78bae115d008888886040516108e293929190610ef7565b60405180910390a350505050505050565b6001546040516302abf57960e61b8152721259195b9d1a599a595c95da1a5d195b1a5cdd606a1b60048201526000916001600160a01b03169063aafd5e4090602401602060405180830381865afa158015610952573d6000803e3d6000fd5b505050506040513d601f19601f820116820180604052508101906104bb9190610f20565b634e487b7160e01b600052604160045260246000fd5b600082601f83011261099d57600080fd5b813567ffffffffffffffff808211156109b8576109b8610976565b604051601f8301601f19908116603f011681019082821181831017156109e0576109e0610976565b816040528381528660208588010111156109f957600080fd5b836020870160208301376000602085830101528094505050505092915050565b600080600060608486031215610a2e57600080fd5b8335925060208401359150604084013567ffffffffffffffff811115610a5357600080fd5b610a5f8682870161098c565b9150509250925092565b600060208284031215610a7b57600080fd5b5035919050565b60005b83811015610a9d578181015183820152602001610a85565b50506000910152565b60008151808452610abe816020860160208601610a82565b601f01601f19169290920160200192915050565b60006020808301818452808551808352604092508286019150828160051b87010184880160005b83811015610b4357888303603f1901855281518051845287810151888501528601516060878501819052610b2f81860183610aa6565b968901969450505090860190600101610af9565b509098975050505050505050565b60008060008060808587031215610b6757600080fd5b8435935060208501359250604085013567ffffffffffffffff811115610b8c57600080fd5b610b988782880161098c565b949793965093946060013593505050565b600060208284031215610bbb57600080fd5b81518015158114610bcb57600080fd5b9392505050565b60008251610be4818460208701610a82565b9190910192915050565b600181811c90821680610c0257607f821691505b602082108103610c2257634e487b7160e01b600052602260045260246000fd5b50919050565b601f821115610c7257600081815260208120601f850160051c81016020861015610c4f5750805b601f850160051c820191505b81811015610c6e57828155600101610c5b565b5050505b505050565b815167ffffffffffffffff811115610c9157610c91610976565b610ca581610c9f8454610bee565b84610c28565b602080601f831160018114610cda5760008415610cc25750858301515b600019600386901b1c1916600185901b178555610c6e565b600085815260208120601f198616915b82811015610d0957888601518255948401946001909101908401610cea565b5085821015610d275787850151600019600388901b60f8161c191681555b5050505050600190811b01905550565b828152604060208201526000610d506040830184610aa6565b949350505050565b600060208284031215610d6a57600080fd5b5051919050565b81810381811115610d9257634e487b7160e01b600052601160045260246000fd5b92915050565b634e487b7160e01b600052603260045260246000fd5b6000808354610dbc81610bee565b60018281168015610dd45760018114610de957610e18565b60ff1984168752821515830287019450610e18565b8760005260208060002060005b85811015610e0f5781548a820152908401908201610df6565b50505082870194505b50929695505050505050565b818103610e2f575050565b610e398254610bee565b67ffffffffffffffff811115610e5157610e51610976565b610e5f81610c9f8454610bee565b6000601f821160018114610e935760008315610e7b5750848201545b600019600385901b1c1916600184901b17845561042d565b600085815260209020601f19841690600086815260209020845b83811015610ecd5782860154825560019586019590910190602001610ead565b5085831015610d275793015460001960f8600387901b161c19169092555050600190811b01905550565b838152606060208201526000610f106060830185610aa6565b9050826040830152949350505050565b600060208284031215610f3257600080fd5b81516001600160a01b0381168114610bcb57600080fdfea2646970667358221220a6566cf4c59e09491692bb3f87d30c6a540f54f34e77f13ad0bd74523b0a926e64736f6c63430008110033",
    "linkReferences": {}
  },
  "methodIdentifiers": {
    "getCurrentTime()": "29cb924d",
    "getPendingQueries()": "b555d608",
    "getPrice(bytes32,uint256,bytes)": "719c6d56",
    "hasPrice(bytes32,uint256,bytes)": "b551cd50",
    "pushPrice(bytes32,uint256,bytes,int256)": "d7d6f43d",
    "requestPrice(bytes32,uint256,bytes)": "216666a4",
    "setCurrentTime(uint256)": "22f8e566",
    "timerAddress()": "1c39c38d"
  },
  "id": 45
}