{
  "abi": [
    {
      "inputs": [],
      "stateMutability": "nonpayable",
      "type": "constructor"
    },
    {
      "inputs": [],
      "name": "getCurrentTime",
      "outputs": [
        {
          "internalType": "uint256",
          "name": "",
          "type": "uint256"
        }
      ],
      "stateMutability": "view",
      "type": "function"
    },
    {
      "inputs": [
        {
          "internalType": "uint256",
          "name": "time",
          "type": "uint256"
        }
      ],
      "name": "setCurrentTime",
      "outputs": [],
      "stateMutability": "nonpayable",
      "type": "function"
    }
  ],
  "bytecode": {
    "object": "0x608060405234801561001057600080fd5b504260005560ac806100236000396000f3fe6080604052348015600f57600080fd5b506004361060325760003560e01c806322f8e56614603757806329cb924d146049575b600080fd5b60476042366004605e565b600055565b005b60005460405190815260200160405180910390f35b600060208284031215606f57600080fd5b503591905056fea26469706673582212200d5d53346cd71aad6e6bdb2c14b228f3f4dfed085c2e6323c0cc778c10ce3a2f64736f6c63430008110033",
    "linkReferences": {}
  },
  "methodIdentifiers": {
    "getCurrentTime()": "29cb924d",
    "setCurrentTime(uint256)": "22f8e566"
  },
  "id": 41
}