{
  "abi": [
    {
      "anonymous": false,
      "inputs": [
        {
          "indexed": true,
          "internalType": "address",
          "name": "creator",
          "type": "address"
        },
        {
          "indexed": true,
          "internalType": "address",
          "name": "hunter",
          "type": "address"
        },
        {
          "indexed": true,
          "internalType": "string",
          "name": "bountyAppId",
          "type": "string"
        },
        {
          "indexed": false,
          "internalType": "string",
          "name": "message",
          "type": "string"
        }
      ],
      "name": "DisputeRespondedTo",
      "type": "event"
    },
    {
      "anonymous": false,
      "inputs": [
        {
          "indexed": true,
          "internalType": "address",
          "name": "creator",
          "type": "address"
        },
        {
          "indexed": true,
          "internalType": "address",
          "name": "hunter",
          "type": "address"
        },
        {
          "indexed": true,
          "internalType": "string",
          "name": "bountyAppId",
          "type": "string"
        },
        {
          "indexed": false,
          "internalType": "uint32",
          "name": "timestamp",
          "type": "uint32"
        },
        {
          "indexed": false,
          "internalType": "string",
          "name": "message",
          "type": "string"
        }
      ],
      "name": "Disputed",
      "type": "event"
    },
    {
      "anonymous": false,
      "inputs": [
        {
          "indexed": true,
          "internalType": "address",
          "name": "creator",
          "type": "address"
        },
        {
          "indexed": true,
          "internalType": "address",
          "name": "hunter",
          "type": "address"
        },
        {
          "indexed": true,
          "internalType": "string",
          "name": "bountyAppId",
          "type": "string"
        },
        {
          "indexed": false,
          "internalType": "string",
          "name": "message",
          "type": "string"
        }
      ],
      "name": "Escrowed",
      "type": "event"
    },
    {
      "anonymous": false,
      "inputs": [
        {
          "indexed": true,
          "internalType": "address",
          "name": "creator",
          "type": "address"
        },
        {
          "indexed": true,
          "internalType": "address",
          "name": "hunter",
          "type": "address"
        },
        {
          "indexed": true,
          "internalType": "string",
          "name": "bountyAppId",
          "type": "string"
        },
        {
          "indexed": false,
          "internalType": "string",
          "name": "message",
          "type": "string"
        }
      ],
      "name": "FundsForceSentToHunter",
      "type": "event"
    },
    {
      "anonymous": false,
      "inputs": [
        {
          "indexed": true,
          "internalType": "address",
          "name": "creator",
          "type": "address"
        },
        {
          "indexed": true,
          "internalType": "address",
          "name": "hunter",
          "type": "address"
        },
        {
          "indexed": true,
          "internalType": "string",
          "name": "bountyAppId",
          "type": "string"
        },
        {
          "indexed": false,
          "internalType": "string",
          "name": "message",
          "type": "string"
        }
      ],
      "name": "FundsSent",
      "type": "event"
    },
    {
      "anonymous": false,
      "inputs": [
        {
          "indexed": true,
          "internalType": "address",
          "name": "creator",
          "type": "address"
        },
        {
          "indexed": true,
          "internalType": "address",
          "name": "hunter",
          "type": "address"
        },
        {
          "indexed": true,
          "internalType": "string",
          "name": "bountyAppId",
          "type": "string"
        },
        {
          "indexed": false,
          "internalType": "string",
          "name": "message",
          "type": "string"
        }
      ],
      "name": "FundsWithdrawnToCreator",
      "type": "event"
    },
    {
      "anonymous": false,
      "inputs": [
        {
          "indexed": true,
          "internalType": "address",
          "name": "creator",
          "type": "address"
        },
        {
          "indexed": true,
          "internalType": "address",
          "name": "hunter",
          "type": "address"
        },
        {
          "indexed": true,
          "internalType": "string",
          "name": "bountyAppId",
          "type": "string"
        },
        {
          "indexed": false,
          "internalType": "address",
          "name": "winner",
          "type": "address"
        },
        {
          "indexed": false,
          "internalType": "string",
          "name": "message",
          "type": "string"
        }
      ],
      "name": "Resolved",
      "type": "event"
    },
    {
      "anonymous": false,
      "inputs": [
        {
          "indexed": true,
          "internalType": "address",
          "name": "creator",
          "type": "address"
        },
        {
          "indexed": true,
          "internalType": "address",
          "name": "hunter",
          "type": "address"
        },
        {
          "indexed": true,
          "internalType": "string",
          "name": "bountyAppId",
          "type": "string"
        },
        {
          "indexed": false,
          "internalType": "string",
          "name": "message",
          "type": "string"
        }
      ],
      "name": "Submitted",
      "type": "event"
    },
    {
      "inputs": [
        {
          "internalType": "bytes32",
          "name": "",
          "type": "bytes32"
        }
      ],
      "name": "bountyAmounts",
      "outputs": [
        {
          "internalType": "uint256",
          "name": "",
          "type": "uint256"
        }
      ],
      "stateMutability": "view",
      "type": "function"
    },
    {
      "inputs": [
        {
          "internalType": "string",
          "name": "_bountyAppId",
          "type": "string"
        },
        {
          "internalType": "address",
          "name": "_hunter",
          "type": "address"
        },
        {
          "internalType": "uint256",
          "name": "_expiration",
          "type": "uint256"
        },
        {
          "internalType": "address",
          "name": "_token",
          "type": "address"
        },
        {
          "internalType": "uint256",
          "name": "_amount",
          "type": "uint256"
        }
      ],
      "name": "escrow",
      "outputs": [],
      "stateMutability": "payable",
      "type": "function"
    },
    {
      "inputs": [
        {
          "internalType": "bytes32",
          "name": "",
          "type": "bytes32"
        }
      ],
      "name": "expiration",
      "outputs": [
        {
          "internalType": "uint256",
          "name": "",
          "type": "uint256"
        }
      ],
      "stateMutability": "view",
      "type": "function"
    },
    {
      "inputs": [
        {
          "internalType": "string",
          "name": "_bountyAppId",
          "type": "string"
        },
        {
          "internalType": "address",
          "name": "_creator",
          "type": "address"
        },
        {
          "internalType": "address",
          "name": "_token",
          "type": "address"
        }
      ],
      "name": "forceHunterPayout",
      "outputs": [],
      "stateMutability": "nonpayable",
      "type": "function"
    },
    {
      "inputs": [
        {
          "internalType": "string",
          "name": "_bountyAppId",
          "type": "string"
        },
        {
          "internalType": "address",
          "name": "_creator",
          "type": "address"
        },
        {
          "internalType": "uint32",
          "name": "_timestamp",
          "type": "uint32"
        },
        {
          "internalType": "bytes",
          "name": "_ancillaryData",
          "type": "bytes"
        },
        {
          "components": [
            {
              "internalType": "address",
              "name": "proposer",
              "type": "address"
            },
            {
              "internalType": "address",
              "name": "disputer",
              "type": "address"
            },
            {
              "internalType": "contract IERC20",
              "name": "currency",
              "type": "address"
            },
            {
              "internalType": "bool",
              "name": "settled",
              "type": "bool"
            },
            {
              "internalType": "int256",
              "name": "proposedPrice",
              "type": "int256"
            },
            {
              "internalType": "int256",
              "name": "resolvedPrice",
              "type": "int256"
            },
            {
              "internalType": "uint256",
              "name": "expirationTime",
              "type": "uint256"
            },
            {
              "internalType": "uint256",
              "name": "reward",
              "type": "uint256"
            },
            {
              "internalType": "uint256",
              "name": "finalFee",
              "type": "uint256"
            },
            {
              "internalType": "uint256",
              "name": "bond",
              "type": "uint256"
            },
            {
              "internalType": "uint256",
              "name": "customLiveness",
              "type": "uint256"
            }
          ],
          "internalType": "struct SkinnyOptimisticOracleInterface.Request",
          "name": "_request",
          "type": "tuple"
        }
      ],
      "name": "hunterDisputeResponse",
      "outputs": [
        {
          "internalType": "uint256",
          "name": "",
          "type": "uint256"
        }
      ],
      "stateMutability": "nonpayable",
      "type": "function"
    },
    {
      "inputs": [
        {
          "internalType": "string",
          "name": "_bountyAppId",
          "type": "string"
        },
        {
          "internalType": "address",
          "name": "_hunter",
          "type": "address"
        },
        {
          "internalType": "address",
          "name": "_oracleAddress",
          "type": "address"
        },
        {
          "internalType": "uint256",
          "name": "_bondAmt",
          "type": "uint256"
        },
        {
          "internalType": "string",
          "name": "_ancillaryData",
          "type": "string"
        },
        {
          "internalType": "contract IERC20",
          "name": "_currency",
          "type": "address"
        }
      ],
      "name": "initiateDispute",
      "outputs": [
        {
          "internalType": "uint256",
          "name": "",
          "type": "uint256"
        }
      ],
      "stateMutability": "nonpayable",
      "type": "function"
    },
    {
      "inputs": [],
      "name": "oracleInterface",
      "outputs": [
        {
          "internalType": "contract SkinnyOptimisticOracleInterface",
          "name": "",
          "type": "address"
        }
      ],
      "stateMutability": "view",
      "type": "function"
    },
    {
      "inputs": [
        {
          "internalType": "string",
          "name": "_bountyAppId",
          "type": "string"
        },
        {
          "internalType": "address",
          "name": "_hunter",
          "type": "address"
        },
        {
          "internalType": "address",
          "name": "_token",
          "type": "address"
        }
      ],
      "name": "payout",
      "outputs": [],
      "stateMutability": "nonpayable",
      "type": "function"
    },
    {
      "inputs": [
        {
          "internalType": "bytes32",
          "name": "",
          "type": "bytes32"
        }
      ],
      "name": "payoutExpiration",
      "outputs": [
        {
          "internalType": "uint256",
          "name": "",
          "type": "uint256"
        }
      ],
      "stateMutability": "view",
      "type": "function"
    },
    {
      "inputs": [
        {
          "internalType": "string",
          "name": "_bountyAppId",
          "type": "string"
        },
        {
          "internalType": "address",
          "name": "_hunter",
          "type": "address"
        },
        {
          "internalType": "uint32",
          "name": "_timestamp",
          "type": "uint32"
        },
        {
          "internalType": "bytes",
          "name": "_ancillaryData",
          "type": "bytes"
        },
        {
          "components": [
            {
              "internalType": "address",
              "name": "proposer",
              "type": "address"
            },
            {
              "internalType": "address",
              "name": "disputer",
              "type": "address"
            },
            {
              "internalType": "contract IERC20",
              "name": "currency",
              "type": "address"
            },
            {
              "internalType": "bool",
              "name": "settled",
              "type": "bool"
            },
            {
              "internalType": "int256",
              "name": "proposedPrice",
              "type": "int256"
            },
            {
              "internalType": "int256",
              "name": "resolvedPrice",
              "type": "int256"
            },
            {
              "internalType": "uint256",
              "name": "expirationTime",
              "type": "uint256"
            },
            {
              "internalType": "uint256",
              "name": "reward",
              "type": "uint256"
            },
            {
              "internalType": "uint256",
              "name": "finalFee",
              "type": "uint256"
            },
            {
              "internalType": "uint256",
              "name": "bond",
              "type": "uint256"
            },
            {
              "internalType": "uint256",
              "name": "customLiveness",
              "type": "uint256"
            }
          ],
          "internalType": "struct SkinnyOptimisticOracleInterface.Request",
          "name": "_request",
          "type": "tuple"
        },
        {
          "internalType": "address",
          "name": "_token",
          "type": "address"
        }
      ],
      "name": "payoutIfDispute",
      "outputs": [],
      "stateMutability": "nonpayable",
      "type": "function"
    },
    {
      "inputs": [
        {
          "internalType": "bytes32",
          "name": "",
          "type": "bytes32"
        }
      ],
      "name": "progress",
      "outputs": [
        {
          "internalType": "enum Escrow.Status",
          "name": "",
          "type": "uint8"
        }
      ],
      "stateMutability": "view",
      "type": "function"
    },
    {
      "inputs": [
        {
          "internalType": "string",
          "name": "_bountyAppId",
          "type": "string"
        },
        {
          "internalType": "address",
          "name": "_creator",
          "type": "address"
        }
      ],
      "name": "submit",
      "outputs": [],
      "stateMutability": "nonpayable",
      "type": "function"
    }
  ],
  "bytecode": {
    "object": "0x608060405234801561001057600080fd5b50612a6e806100206000396000f3fe6080604052600436106100a75760003560e01c80637aebd2a8116100645780637aebd2a8146101b3578063817f6c32146101f05780639e2172b514610210578063c031cd7314610230578063c5660dbf14610250578063d911392d1461026357600080fd5b806328ebaa6f146100ac5780632902f77f146100e957806351fad6b71461010b57806356406fa51461012b578063696b9aa714610166578063771eb85714610186575b600080fd5b3480156100b857600080fd5b506004546100cc906001600160a01b031681565b6040516001600160a01b0390911681526020015b60405180910390f35b3480156100f557600080fd5b50610109610104366004612247565b610290565b005b34801561011757600080fd5b50610109610126366004612385565b610873565b34801561013757600080fd5b50610158610146366004612436565b60026020526000908152604090205481565b6040519081526020016100e0565b34801561017257600080fd5b5061010961018136600461244f565b61111f565b34801561019257600080fd5b506101586101a1366004612436565b60006020819052908152604090205481565b3480156101bf57600080fd5b506101e36101ce366004612436565b60016020526000908152604090205460ff1681565b6040516100e091906124b7565b3480156101fc57600080fd5b5061015861020b3660046124df565b611368565b34801561021c57600080fd5b5061015861022b36600461257c565b6115f6565b34801561023c57600080fd5b5061010961024b366004612247565b611864565b61010961025e366004612618565b611ba1565b34801561026f57600080fd5b5061015861027e366004612436565b60036020526000908152604090205481565b60008060008533866040516020016102aa939291906126b8565b604051602081830303815290604052805190602001208152602001908152602001600020549050600060048111156102e4576102e46124a1565b600160008633876040516020016102fd939291906126b8565b60408051601f198184030181529181528151602092830120835290820192909252016000205460ff166004811115610337576103376124a1565b14801561038157504260026000863387604051602001610359939291906126b8565b6040516020818303038152906040528051906020012081526020019081526020016000205411155b15610563578060008086338760405160200161039f939291906126b8565b60405160208183030381529060405280519060200120815260200190815260200160002060008282546103d2919061270f565b90915550506001600160a01b038216156103ff576103fa6001600160a01b0383163383611d98565b610472565b604051600090339083908381818185875af1925050503d8060008114610441576040519150601f19603f3d011682016040523d82523d6000602084013e610446565b606091505b50509050806104705760405162461bcd60e51b815260040161046790612726565b60405180910390fd5b505b836040516104809190612754565b6040518091039020836001600160a01b0316336001600160a01b03167fb9bdb7ed8146376064d748bca1cc3449acc3526943957d471adcc7485e2e73116040516104fb906020808252601b908201527f46756e64732077697468647261776e20746f2063726561746f72210000000000604082015260600190565b60405180910390a460046001600086338760405160200161051e939291906126b8565b60408051601f19818403018152918152815160209283012083529082019290925201600020805460ff1916600183600481111561055d5761055d6124a1565b02179055505b60006001600086338760405160200161057e939291906126b8565b60408051601f198184030181529181528151602092830120835290820192909252016000205460ff16905060018160048111156105bd576105bd6124a1565b0361078b57816000808733886040516020016105db939291906126b8565b604051602081830303815290604052805190602001208152602001908152602001600020600082825461060e919061270f565b90915550506001600160a01b0383161561063b576106366001600160a01b0384168584611d98565b6106b0565b6000846001600160a01b03168360405160006040518083038185875af1925050503d8060008114610688576040519150601f19603f3d011682016040523d82523d6000602084013e61068d565b606091505b50509050806106ae5760405162461bcd60e51b815260040161046790612726565b505b846040516106be9190612754565b6040518091039020846001600160a01b0316336001600160a01b0316600080516020612a1983398151915260405161071f9060208082526015908201527446756e64732073656e7420746f2068756e7465722160581b604082015260600190565b60405180910390a4600460016000873388604051602001610742939291906126b8565b60408051601f19818403018152918152815160209283012083529082019290925201600020805460ff19166001836004811115610781576107816124a1565b021790555061086c565b600081600481111561079f5761079f6124a1565b1480156107ac5750600082115b156107f95760405162461bcd60e51b815260206004820181905260248201527f48756e746572206861736e2774207375626d697474656420776f726b207965746044820152606401610467565b600281600481111561080d5761080d6124a1565b148061082a57506003816004811115610828576108286124a1565b145b1561086c5760405162461bcd60e51b8152602060048201526012602482015271109bdd5b9d1e481a5cc8191a5cdc1d5d195960721b6044820152606401610467565b5050505050565b60006001600088338960405160200161088e939291906126b8565b60408051601f198184030181529181528151602092830120835290820192909252016000205460ff16905060018160048111156108cd576108cd6124a1565b0361091a5760405162461bcd60e51b815260206004820152601c60248201527f43726561746f72206861736e277420646973707574656420776f726b000000006044820152606401610467565b600481600481111561092e5761092e6124a1565b0361097b5760405162461bcd60e51b815260206004820152601960248201527f426f756e747920686173206265656e207061796564206f7574000000000000006044820152606401610467565b60048054604051631448155560e21b81526000926001600160a01b03909216916351205554916109c091309167554d49502d31303760c01b918c918c918c910161283d565b6020604051808303816000875af11580156109df573d6000803e3d6000fd5b505050506040513d601f19601f82011682018060405250810190610a039190612885565b905060008060008a338b604051602001610a1f939291906126b8565b60408051601f198184030181529181528151602092830120835290820192909252016000205490506004836004811115610a5b57610a5b6124a1565b14158015610a9557506005826006811115610a7857610a786124a1565b1480610a9557506003826006811115610a9357610a936124a1565b145b15611084576004805460405163b730539f60e01b81526000926001600160a01b039092169163b730539f91610adf91309167554d49502d31303760c01b918e918e918e910161283d565b60408051808303816000875af1158015610afd573d6000803e3d6000fd5b505050506040513d601f19601f82011682018060405250810190610b2191906128ad565b91505080600003610c9357816000808c338d604051602001610b45939291906126b8565b6040516020818303038152906040528051906020012081526020019081526020016000206000828254610b78919061270f565b90915550506001600160a01b03851615610ba557610ba06001600160a01b0386163384611d98565b610c0f565b604051600090339084908381818185875af1925050503d8060008114610be7576040519150601f19603f3d011682016040523d82523d6000602084013e610bec565b606091505b5050905080610c0d5760405162461bcd60e51b815260040161046790612726565b505b89604051610c1d9190612754565b6040518091039020896001600160a01b0316336001600160a01b0316600080516020612a19833981519152604051610c86906020808252601b908201527f46756e64732073656e74206261636b20746f2063726561746f72210000000000604082015260600190565b60405180910390a461101f565b80600103610df857816000808c338d604051602001610cb4939291906126b8565b6040516020818303038152906040528051906020012081526020019081526020016000206000828254610ce7919061270f565b90915550506001600160a01b03851615610d1457610d0f6001600160a01b0386168a84611d98565b610d89565b6000896001600160a01b03168360405160006040518083038185875af1925050503d8060008114610d61576040519150601f19603f3d011682016040523d82523d6000602084013e610d66565b606091505b5050905080610d875760405162461bcd60e51b815260040161046790612726565b505b89604051610d979190612754565b6040518091039020896001600160a01b0316336001600160a01b0316600080516020612a19833981519152604051610c869060208082526015908201527446756e64732073656e7420746f2068756e7465722160581b604082015260600190565b8060020361101f57816000808c338d604051602001610e19939291906126b8565b6040516020818303038152906040528051906020012081526020019081526020016000206000828254610e4c919061270f565b90915550506001600160a01b03851615610e9457610e8089610e6f6002856128d1565b6001600160a01b0388169190611d98565b610e8f33610e6f6002856128d1565b610f80565b60006001600160a01b038a16610eab6002856128d1565b604051600081818185875af1925050503d8060008114610ee7576040519150601f19603f3d011682016040523d82523d6000602084013e610eec565b606091505b5050905080610f0d5760405162461bcd60e51b815260040161046790612726565b600033610f1b6002866128d1565b604051600081818185875af1925050503d8060008114610f57576040519150601f19603f3d011682016040523d82523d6000602084013e610f5c565b606091505b5050905080610f7d5760405162461bcd60e51b815260040161046790612726565b50505b89604051610f8e9190612754565b6040518091039020896001600160a01b0316336001600160a01b0316600080516020612a198339815191526040516110169060208082526036908201527f48616c66206f662066756e64732073656e74206261636b20746f2063726561746040820152756f7220616e64207468656e20746f2068756e7465722160501b606082015260800190565b60405180910390a45b6004600160008c338d60405160200161103a939291906126b8565b60408051601f19818403018152918152815160209283012083529082019290925201600020805460ff19166001836004811115611079576110796124a1565b021790555050611114565b6004836004811115611098576110986124a1565b141580156110d2575060028260068111156110b5576110b56124a1565b14806110d2575060048260068111156110d0576110d06124a1565b145b156111145760405162461bcd60e51b815260206004820152601260248201527144697370757465207374696c6c206c69766560701b6044820152606401610467565b505050505050505050565b600080838333604051602001611137939291906126b8565b604051602081830303815290604052805190602001208152602001908152602001600020546000036111a05760405162461bcd60e51b8152602060048201526012602482015271119d5b991cc81b9bdd08195cd8dc9bddd95960721b6044820152606401610467565b60018060008484336040516020016111ba939291906126b8565b60408051601f198184030181529181528151602092830120835290820192909252016000205460ff1660048111156111f4576111f46124a1565b0361123a5760405162461bcd60e51b815260206004820152601660248201527515dbdc9ac8185b1c9958591e481cdd589b5a5d1d195960521b6044820152606401610467565b6001806000848433604051602001611254939291906126b8565b60408051601f19818403018152918152815160209283012083529082019290925201600020805460ff19166001836004811115611293576112936124a1565b02179055506112a542621275006128f3565b600360008484336040516020016112be939291906126b8565b60405160208183030381529060405280519060200120815260200190815260200160002081905550816040516112f49190612754565b6040518091039020336001600160a01b0316826001600160a01b03167f68a67c1cdac393ac88c3132d0e126d77a2b494fd4a9d2046d3b9999cb2ad780160405161135c906020808252600a90820152695375626d69747465642160b01b604082015260600190565b60405180910390a45050565b6000600260016000888833604051602001611385939291906126b8565b60408051601f198184030181529181528151602092830120835290820192909252016000205460ff1660048111156113bf576113bf6124a1565b1461140c5760405162461bcd60e51b815260206004820152601f60248201527f426f756e74792063726561746f7220686173206e6f74206469737075746564006044820152606401610467565b61143d333084610120015161015e61142491906128f3565b60408601516001600160a01b0316929190601018611e00565b600454610120830151611478916001600160a01b0316906114609061015e6128f3565b60408501516001600160a01b03169190601018611e3e565b6004805460405163139c641960e31b81526000926001600160a01b0390921691639ce320c8916114bf9167554d49502d31303760c01b918a918a918a91339130910161290b565b6020604051808303816000875af11580156114de573d6000803e3d6000fd5b505050506040513d601f19601f820116820180604052508101906115029190612968565b905060036001600089893360405160200161151f939291906126b8565b60408051601f19818403018152918152815160209283012083529082019290925201600020805460ff1916600183600481111561155e5761155e6124a1565b0217905550866040516115719190612754565b6040518091039020336001600160a01b0316876001600160a01b03167f3f7182f4231b269a10d1e02d72f7c47f5492854e8d58363b87dc09538a575bcf6040516115e4906020808252601590820152744469737075746520526573706f6e64656420546f2160581b604082015260600190565b60405180910390a49695505050505050565b6000600180600089338a604051602001611612939291906126b8565b60408051601f198184030181529181528151602092830120835290820192909252016000205460ff16600481111561164c5761164c6124a1565b1461168e5760405162461bcd60e51b815260206004820152601260248201527115dbdc9ac81b9bdd0814dd589b5a5d1d195960721b6044820152606401610467565b826116b533306116a08861015e6128f3565b6001600160a01b038716929190601018611e00565b6116d9866116c58761015e6128f3565b6001600160a01b0386169190601018611e3e565b600480546001600160a01b0319166001600160a01b038816908117825560405163579aae8f60e11b815260009263af355d1e916117369167554d49502d31303760c01b91429188918b9189918f9162093a80913391859101612981565b6020604051808303816000875af1158015611755573d6000803e3d6000fd5b505050506040513d601f19601f820116820180604052508101906117799190612968565b90506002600160008b338c604051602001611796939291906126b8565b60408051601f19818403018152918152815160209283012083529082019290925201600020805460ff191660018360048111156117d5576117d56124a1565b0217905550886040516117e89190612754565b604080519182900382204263ffffffff168352602083018290526009838301526844697370757465642160b81b6060840152905190916001600160a01b038b169133917f3178438e5e76b4e0fbbedfdb783349111bd0b217fc639b930dd3467546f828b4919081900360800190a49150505b9695505050505050565b600180600085853360405160200161187e939291906126b8565b60408051601f198184030181529181528151602092830120835290820192909252016000205460ff1660048111156118b8576118b86124a1565b146118fa5760405162461bcd60e51b815260206004820152601260248201527115dbdc9ac81b9bdd0814dd589b5a5d1d195960721b6044820152606401610467565b4260036000858533604051602001611914939291906126b8565b6040516020818303038152906040528051906020012081526020019081526020016000205411156119875760405162461bcd60e51b815260206004820181905260248201527f43726561746f722063616e207374696c6c20706179206f7220646973707574656044820152606401610467565b60008060008585336040516020016119a1939291906126b8565b604051602081830303815290604052805190602001208152602001908152602001600020549050806000808686336040516020016119e1939291906126b8565b6040516020818303038152906040528051906020012081526020019081526020016000206000828254611a14919061270f565b90915550506001600160a01b03821615611a4157611a3c6001600160a01b0383163383611d98565b611aab565b604051600090339083908381818185875af1925050503d8060008114611a83576040519150601f19603f3d011682016040523d82523d6000602084013e611a88565b606091505b5050905080611aa95760405162461bcd60e51b815260040161046790612726565b505b83604051611ab99190612754565b6040518091039020336001600160a01b0316846001600160a01b03167f3d3e6b9b452dfac5b1ec55216e1f4ad64bcff404fc6b256e98d3645e22949871604051611b34906020808252601b908201527f46756e647320666f7263652073656e7420746f2068756e746572210000000000604082015260600190565b60405180910390a4600460016000868633604051602001611b57939291906126b8565b60408051601f19818403018152918152815160209283012083529082019290925201600020805460ff19166001836004811115611b9657611b966124a1565b021790555050505050565b600080863387604051602001611bb9939291906126b8565b60405160208183030381529060405280519060200120815260200190815260200160002054600014611c265760405162461bcd60e51b8152602060048201526016602482015275119d5b991cc8185b1c9958591e48195cd8dc9bddd95960521b6044820152606401610467565b3415611c725734600080873388604051602001611c45939291906126b8565b60405160208183030381529060405280519060200120815260200190815260200160002081905550611cc9565b611c876001600160a01b038316333084611e00565b80600080873388604051602001611ca0939291906126b8565b604051602081830303815290604052805190602001208152602001908152602001600020819055505b611cd383426128f3565b60026000873388604051602001611cec939291906126b8565b6040516020818303038152906040528051906020012081526020019081526020016000208190555084604051611d229190612754565b6040518091039020846001600160a01b0316336001600160a01b03167fd1e07ed273f3f8baf4d06b102596f3d355cb8d1f264f85fade4e9708b67ee858604051611d8990602080825260099082015268457363726f7765642160b81b604082015260600190565b60405180910390a45050505050565b6040516001600160a01b038316602482015260448101829052611dfb90849063a9059cbb60e01b906064015b60408051601f198184030181529190526020810180516001600160e01b03166001600160e01b031990931692909217909152611ef0565b505050565b6040516001600160a01b0380851660248301528316604482015260648101829052611e389085906323b872dd60e01b90608401611dc4565b50505050565b604051636eb1769f60e11b81523060048201526001600160a01b038381166024830152600091839186169063dd62ed3e90604401602060405180830381865afa158015611e8f573d6000803e3d6000fd5b505050506040513d601f19601f82011682018060405250810190611eb39190612968565b611ebd91906128f3565b6040516001600160a01b038516602482015260448101829052909150611e3890859063095ea7b360e01b90606401611dc4565b6000611f45826040518060400160405280602081526020017f5361666545524332303a206c6f772d6c6576656c2063616c6c206661696c6564815250856001600160a01b0316611fc29092919063ffffffff16565b805190915015611dfb5780806020019051810190611f6391906129e8565b611dfb5760405162461bcd60e51b815260206004820152602a60248201527f5361666545524332303a204552433230206f7065726174696f6e20646964206e6044820152691bdd081cdd58d8d9595960b21b6064820152608401610467565b6060611fd18484600085611fd9565b949350505050565b60608247101561203a5760405162461bcd60e51b815260206004820152602660248201527f416464726573733a20696e73756666696369656e742062616c616e636520666f6044820152651c8818d85b1b60d21b6064820152608401610467565b600080866001600160a01b031685876040516120569190612754565b60006040518083038185875af1925050503d8060008114612093576040519150601f19603f3d011682016040523d82523d6000602084013e612098565b606091505b50915091506120a9878383876120b4565b979650505050505050565b6060831561212357825160000361211c576001600160a01b0385163b61211c5760405162461bcd60e51b815260206004820152601d60248201527f416464726573733a2063616c6c20746f206e6f6e2d636f6e74726163740000006044820152606401610467565b5081611fd1565b611fd183838151156121385781518083602001fd5b8060405162461bcd60e51b81526004016104679190612a05565b634e487b7160e01b600052604160045260246000fd5b604051610160810167ffffffffffffffff8111828210171561218c5761218c612152565b60405290565b600082601f8301126121a357600080fd5b813567ffffffffffffffff808211156121be576121be612152565b604051601f8301601f19908116603f011681019082821181831017156121e6576121e6612152565b816040528381528660208588010111156121ff57600080fd5b836020870160208301376000602085830101528094505050505092915050565b6001600160a01b038116811461223457600080fd5b50565b80356122428161221f565b919050565b60008060006060848603121561225c57600080fd5b833567ffffffffffffffff81111561227357600080fd5b61227f86828701612192565b93505060208401356122908161221f565b915060408401356122a08161221f565b809150509250925092565b803563ffffffff8116811461224257600080fd5b801515811461223457600080fd5b8035612242816122bf565b600061016082840312156122eb57600080fd5b6122f3612168565b90506122fe82612237565b815261230c60208301612237565b602082015261231d60408301612237565b604082015261232e606083016122cd565b60608201526080820135608082015260a082013560a082015260c082013560c082015260e082013560e082015261010080830135818301525061012080830135818301525061014080830135818301525092915050565b600080600080600080610200878903121561239f57600080fd5b863567ffffffffffffffff808211156123b757600080fd5b6123c38a838b01612192565b9750602089013591506123d58261221f565b8196506123e460408a016122ab565b955060608901359150808211156123fa57600080fd5b5061240789828a01612192565b93505061241788608089016122d8565b91506101e08701356124288161221f565b809150509295509295509295565b60006020828403121561244857600080fd5b5035919050565b6000806040838503121561246257600080fd5b823567ffffffffffffffff81111561247957600080fd5b61248585828601612192565b92505060208301356124968161221f565b809150509250929050565b634e487b7160e01b600052602160045260246000fd5b60208101600583106124d957634e487b7160e01b600052602160045260246000fd5b91905290565b60008060008060006101e086880312156124f857600080fd5b853567ffffffffffffffff8082111561251057600080fd5b61251c89838a01612192565b96506020880135915061252e8261221f565b81955061253d604089016122ab565b9450606088013591508082111561255357600080fd5b5061256088828901612192565b92505061257087608088016122d8565b90509295509295909350565b60008060008060008060c0878903121561259557600080fd5b863567ffffffffffffffff808211156125ad57600080fd5b6125b98a838b01612192565b9750602089013591506125cb8261221f565b9095506040880135906125dd8261221f565b90945060608801359350608088013590808211156125fa57600080fd5b5061260789828a01612192565b92505060a08701356124288161221f565b600080600080600060a0868803121561263057600080fd5b853567ffffffffffffffff81111561264757600080fd5b61265388828901612192565b95505060208601356126648161221f565b935060408601359250606086013561267b8161221f565b949793965091946080013592915050565b60005b838110156126a757818101518382015260200161268f565b83811115611e385750506000910152565b600084516126ca81846020890161268c565b6bffffffffffffffffffffffff19606095861b8116919093019081529290931b16601482015260280192915050565b634e487b7160e01b600052601160045260246000fd5b600082821015612721576127216126f9565b500390565b6020808252601490820152732330b4b632b2103a379039b2b7321022ba3432b960611b604082015260600190565b6000825161276681846020870161268c565b9190910192915050565b6000815180845261278881602086016020860161268c565b601f01601f19169290920160200192915050565b80516001600160a01b0316825260208101516127c360208401826001600160a01b03169052565b5060408101516127de60408401826001600160a01b03169052565b5060608101516127f2606084018215159052565b506080818101519083015260a0808201519083015260c0808201519083015260e080820151908301526101008082015190830152610120808201519083015261014090810151910152565b6001600160a01b03861681526020810185905263ffffffff841660408201526101e06060820181905260009061287583820186612770565b91505061185a608083018461279c565b60006020828403121561289757600080fd5b8151600781106128a657600080fd5b9392505050565b600080604083850312156128c057600080fd5b505080516020909101519092909150565b6000826128ee57634e487b7160e01b600052601260045260246000fd5b500490565b60008219821115612906576129066126f9565b500190565b600061020088835263ffffffff8816602084015280604084015261293181840188612770565b915050612941606083018661279c565b6001600160a01b039384166101c0830152919092166101e090920191909152949350505050565b60006020828403121561297a57600080fd5b5051919050565b60006101208b835263ffffffff8b1660208401528060408401526129a78184018b612770565b6001600160a01b03998a1660608501526080840198909852505060a081019490945260c084019290925290931660e082015261010001919091529392505050565b6000602082840312156129fa57600080fd5b81516128a6816122bf565b6020815260006128a6602083018461277056fe792ad3967c4edb1c07d26a2bb911a5dce93db0ec891f4bb69c55f2721bb888c2a2646970667358221220c903d1d53030dcd062560c8910f7245a86897f12046787260704241f58c1c10d64736f6c634300080d0033",
    "linkReferences": {}
  },
  "methodIdentifiers": {
    "bountyAmounts(bytes32)": "771eb857",
    "escrow(string,address,uint256,address,uint256)": "c5660dbf",
    "expiration(bytes32)": "56406fa5",
    "forceHunterPayout(string,address,address)": "c031cd73",
    "hunterDisputeResponse(string,address,uint32,bytes,(address,address,address,bool,int256,int256,uint256,uint256,uint256,uint256,uint256))": "817f6c32",
    "initiateDispute(string,address,address,uint256,string,address)": "9e2172b5",
    "oracleInterface()": "28ebaa6f",
    "payout(string,address,address)": "2902f77f",
    "payoutExpiration(bytes32)": "d911392d",
    "payoutIfDispute(string,address,uint32,bytes,(address,address,address,bool,int256,int256,uint256,uint256,uint256,uint256,uint256),address)": "51fad6b7",
    "progress(bytes32)": "7aebd2a8",
    "submit(string,address)": "696b9aa7"
  },
  "id": 41
}