{
  "abi": [
    {
      "anonymous": false,
      "inputs": [
        {
          "indexed": true,
          "internalType": "address",
          "name": "creator",
          "type": "address"
        },
        {
          "indexed": true,
          "internalType": "address",
          "name": "hunter",
          "type": "address"
        },
        {
          "indexed": true,
          "internalType": "string",
          "name": "bountyAppId",
          "type": "string"
        },
        {
          "indexed": false,
          "internalType": "string",
          "name": "message",
          "type": "string"
        }
      ],
      "name": "DisputeRespondedTo",
      "type": "event"
    },
    {
      "anonymous": false,
      "inputs": [
        {
          "indexed": true,
          "internalType": "address",
          "name": "creator",
          "type": "address"
        },
        {
          "indexed": true,
          "internalType": "address",
          "name": "hunter",
          "type": "address"
        },
        {
          "indexed": true,
          "internalType": "string",
          "name": "bountyAppId",
          "type": "string"
        },
        {
          "indexed": false,
          "internalType": "uint32",
          "name": "timestamp",
          "type": "uint32"
        },
        {
          "indexed": false,
          "internalType": "string",
          "name": "message",
          "type": "string"
        }
      ],
      "name": "Disputed",
      "type": "event"
    },
    {
      "anonymous": false,
      "inputs": [
        {
          "indexed": true,
          "internalType": "address",
          "name": "creator",
          "type": "address"
        },
        {
          "indexed": true,
          "internalType": "address",
          "name": "hunter",
          "type": "address"
        },
        {
          "indexed": true,
          "internalType": "string",
          "name": "bountyAppId",
          "type": "string"
        },
        {
          "indexed": false,
          "internalType": "string",
          "name": "message",
          "type": "string"
        }
      ],
      "name": "Escrowed",
      "type": "event"
    },
    {
      "anonymous": false,
      "inputs": [
        {
          "indexed": true,
          "internalType": "address",
          "name": "creator",
          "type": "address"
        },
        {
          "indexed": true,
          "internalType": "address",
          "name": "hunter",
          "type": "address"
        },
        {
          "indexed": true,
          "internalType": "string",
          "name": "bountyAppId",
          "type": "string"
        },
        {
          "indexed": false,
          "internalType": "string",
          "name": "message",
          "type": "string"
        }
      ],
      "name": "FundsForceSentToHunter",
      "type": "event"
    },
    {
      "anonymous": false,
      "inputs": [
        {
          "indexed": true,
          "internalType": "address",
          "name": "creator",
          "type": "address"
        },
        {
          "indexed": true,
          "internalType": "address",
          "name": "hunter",
          "type": "address"
        },
        {
          "indexed": true,
          "internalType": "string",
          "name": "bountyAppId",
          "type": "string"
        },
        {
          "indexed": false,
          "internalType": "string",
          "name": "message",
          "type": "string"
        }
      ],
      "name": "FundsSent",
      "type": "event"
    },
    {
      "anonymous": false,
      "inputs": [
        {
          "indexed": true,
          "internalType": "address",
          "name": "creator",
          "type": "address"
        },
        {
          "indexed": true,
          "internalType": "address",
          "name": "hunter",
          "type": "address"
        },
        {
          "indexed": true,
          "internalType": "string",
          "name": "bountyAppId",
          "type": "string"
        },
        {
          "indexed": false,
          "internalType": "string",
          "name": "message",
          "type": "string"
        }
      ],
      "name": "FundsWithdrawnToCreator",
      "type": "event"
    },
    {
      "anonymous": false,
      "inputs": [
        {
          "indexed": true,
          "internalType": "address",
          "name": "creator",
          "type": "address"
        },
        {
          "indexed": true,
          "internalType": "address",
          "name": "hunter",
          "type": "address"
        },
        {
          "indexed": true,
          "internalType": "string",
          "name": "bountyAppId",
          "type": "string"
        },
        {
          "indexed": false,
          "internalType": "address",
          "name": "winner",
          "type": "address"
        },
        {
          "indexed": false,
          "internalType": "string",
          "name": "message",
          "type": "string"
        }
      ],
      "name": "Resolved",
      "type": "event"
    },
    {
      "anonymous": false,
      "inputs": [
        {
          "indexed": true,
          "internalType": "address",
          "name": "creator",
          "type": "address"
        },
        {
          "indexed": true,
          "internalType": "address",
          "name": "hunter",
          "type": "address"
        },
        {
          "indexed": true,
          "internalType": "string",
          "name": "bountyAppId",
          "type": "string"
        },
        {
          "indexed": false,
          "internalType": "string",
          "name": "message",
          "type": "string"
        }
      ],
      "name": "Submitted",
      "type": "event"
    },
    {
      "inputs": [
        {
          "internalType": "bytes32",
          "name": "",
          "type": "bytes32"
        }
      ],
      "name": "bountyAmounts",
      "outputs": [
        {
          "internalType": "uint256",
          "name": "",
          "type": "uint256"
        }
      ],
      "stateMutability": "view",
      "type": "function"
    },
    {
      "inputs": [
        {
          "internalType": "string",
          "name": "_bountyAppId",
          "type": "string"
        },
        {
          "internalType": "address",
          "name": "_hunter",
          "type": "address"
        },
        {
          "internalType": "uint256",
          "name": "_expiration",
          "type": "uint256"
        }
      ],
      "name": "escrow",
      "outputs": [],
      "stateMutability": "payable",
      "type": "function"
    },
    {
      "inputs": [
        {
          "internalType": "bytes32",
          "name": "",
          "type": "bytes32"
        }
      ],
      "name": "expiration",
      "outputs": [
        {
          "internalType": "uint256",
          "name": "",
          "type": "uint256"
        }
      ],
      "stateMutability": "view",
      "type": "function"
    },
    {
      "inputs": [
        {
          "internalType": "string",
          "name": "_bountyAppId",
          "type": "string"
        },
        {
          "internalType": "address",
          "name": "_creator",
          "type": "address"
        }
      ],
      "name": "forceHunterPayout",
      "outputs": [],
      "stateMutability": "nonpayable",
      "type": "function"
    },
    {
      "inputs": [
        {
          "internalType": "string",
          "name": "_bountyAppId",
          "type": "string"
        },
        {
          "internalType": "address",
          "name": "_creator",
          "type": "address"
        },
        {
          "internalType": "uint32",
          "name": "_timestamp",
          "type": "uint32"
        },
        {
          "internalType": "bytes",
          "name": "_ancillaryData",
          "type": "bytes"
        },
        {
          "components": [
            {
              "internalType": "address",
              "name": "proposer",
              "type": "address"
            },
            {
              "internalType": "address",
              "name": "disputer",
              "type": "address"
            },
            {
              "internalType": "contract IERC20",
              "name": "currency",
              "type": "address"
            },
            {
              "internalType": "bool",
              "name": "settled",
              "type": "bool"
            },
            {
              "internalType": "int256",
              "name": "proposedPrice",
              "type": "int256"
            },
            {
              "internalType": "int256",
              "name": "resolvedPrice",
              "type": "int256"
            },
            {
              "internalType": "uint256",
              "name": "expirationTime",
              "type": "uint256"
            },
            {
              "internalType": "uint256",
              "name": "reward",
              "type": "uint256"
            },
            {
              "internalType": "uint256",
              "name": "finalFee",
              "type": "uint256"
            },
            {
              "internalType": "uint256",
              "name": "bond",
              "type": "uint256"
            },
            {
              "internalType": "uint256",
              "name": "customLiveness",
              "type": "uint256"
            }
          ],
          "internalType": "struct SkinnyOptimisticOracleInterface.Request",
          "name": "_request",
          "type": "tuple"
        }
      ],
      "name": "hunterDisputeResponse",
      "outputs": [
        {
          "internalType": "uint256",
          "name": "",
          "type": "uint256"
        }
      ],
      "stateMutability": "nonpayable",
      "type": "function"
    },
    {
      "inputs": [
        {
          "internalType": "string",
          "name": "_bountyAppId",
          "type": "string"
        },
        {
          "internalType": "address",
          "name": "_hunter",
          "type": "address"
        },
        {
          "internalType": "address",
          "name": "_oracleAddress",
          "type": "address"
        },
        {
          "internalType": "uint256",
          "name": "_bondAmt",
          "type": "uint256"
        },
        {
          "internalType": "string",
          "name": "_ancillaryData",
          "type": "string"
        },
        {
          "internalType": "contract IERC20",
          "name": "_currency",
          "type": "address"
        }
      ],
      "name": "initiateDispute",
      "outputs": [
        {
          "internalType": "uint256",
          "name": "",
          "type": "uint256"
        }
      ],
      "stateMutability": "nonpayable",
      "type": "function"
    },
    {
      "inputs": [],
      "name": "oracleInterface",
      "outputs": [
        {
          "internalType": "contract SkinnyOptimisticOracleInterface",
          "name": "",
          "type": "address"
        }
      ],
      "stateMutability": "view",
      "type": "function"
    },
    {
      "inputs": [
        {
          "internalType": "string",
          "name": "_bountyAppId",
          "type": "string"
        },
        {
          "internalType": "address",
          "name": "_hunter",
          "type": "address"
        }
      ],
      "name": "payout",
      "outputs": [],
      "stateMutability": "nonpayable",
      "type": "function"
    },
    {
      "inputs": [
        {
          "internalType": "bytes32",
          "name": "",
          "type": "bytes32"
        }
      ],
      "name": "payoutExpiration",
      "outputs": [
        {
          "internalType": "uint256",
          "name": "",
          "type": "uint256"
        }
      ],
      "stateMutability": "view",
      "type": "function"
    },
    {
      "inputs": [
        {
          "internalType": "string",
          "name": "_bountyAppId",
          "type": "string"
        },
        {
          "internalType": "address",
          "name": "_hunter",
          "type": "address"
        },
        {
          "internalType": "uint32",
          "name": "_timestamp",
          "type": "uint32"
        },
        {
          "internalType": "bytes",
          "name": "_ancillaryData",
          "type": "bytes"
        },
        {
          "components": [
            {
              "internalType": "address",
              "name": "proposer",
              "type": "address"
            },
            {
              "internalType": "address",
              "name": "disputer",
              "type": "address"
            },
            {
              "internalType": "contract IERC20",
              "name": "currency",
              "type": "address"
            },
            {
              "internalType": "bool",
              "name": "settled",
              "type": "bool"
            },
            {
              "internalType": "int256",
              "name": "proposedPrice",
              "type": "int256"
            },
            {
              "internalType": "int256",
              "name": "resolvedPrice",
              "type": "int256"
            },
            {
              "internalType": "uint256",
              "name": "expirationTime",
              "type": "uint256"
            },
            {
              "internalType": "uint256",
              "name": "reward",
              "type": "uint256"
            },
            {
              "internalType": "uint256",
              "name": "finalFee",
              "type": "uint256"
            },
            {
              "internalType": "uint256",
              "name": "bond",
              "type": "uint256"
            },
            {
              "internalType": "uint256",
              "name": "customLiveness",
              "type": "uint256"
            }
          ],
          "internalType": "struct SkinnyOptimisticOracleInterface.Request",
          "name": "_request",
          "type": "tuple"
        }
      ],
      "name": "payoutIfDispute",
      "outputs": [],
      "stateMutability": "nonpayable",
      "type": "function"
    },
    {
      "inputs": [
        {
          "internalType": "bytes32",
          "name": "",
          "type": "bytes32"
        }
      ],
      "name": "progress",
      "outputs": [
        {
          "internalType": "enum Escrow.Status",
          "name": "",
          "type": "uint8"
        }
      ],
      "stateMutability": "view",
      "type": "function"
    },
    {
      "inputs": [
        {
          "internalType": "string",
          "name": "_bountyAppId",
          "type": "string"
        },
        {
          "internalType": "address",
          "name": "_creator",
          "type": "address"
        }
      ],
      "name": "submit",
      "outputs": [],
      "stateMutability": "nonpayable",
      "type": "function"
    }
  ],
  "bytecode": {
    "object": "0x608060405234801561001057600080fd5b506125ce806100206000396000f3fe6080604052600436106100a75760003560e01c8063709ff50e11610064578063709ff50e14610199578063771eb857146101b95780637aebd2a8146101e6578063817f6c32146102235780639e2172b514610243578063d911392d1461026357600080fd5b806328ebaa6f146100ac57806333357018146100e95780633f5917d51461010b57806356406fa51461011e57806363be095c14610159578063696b9aa714610179575b600080fd5b3480156100b857600080fd5b506004546100cc906001600160a01b031681565b6040516001600160a01b0390911681526020015b60405180910390f35b3480156100f557600080fd5b50610109610104366004611ed6565b610290565b005b610109610119366004611f28565b61081e565b34801561012a57600080fd5b5061014b610139366004611f82565b60026020526000908152604090205481565b6040519081526020016100e0565b34801561016557600080fd5b50610109610174366004611ed6565b6109af565b34801561018557600080fd5b50610109610194366004611ed6565b610cc2565b3480156101a557600080fd5b506101096101b4366004612061565b610f0b565b3480156101c557600080fd5b5061014b6101d4366004611f82565b60006020819052908152604090205481565b3480156101f257600080fd5b50610216610201366004611f82565b60016020526000908152604090205460ff1681565b6040516100e09190612134565b34801561022f57600080fd5b5061014b61023e366004612061565b61171e565b34801561024f57600080fd5b5061014b61025e36600461215c565b611a85565b34801561026f57600080fd5b5061014b61027e366004611f82565b60036020526000908152604090205481565b60008060008433856040516020016102aa93929190612232565b604051602081830303815290604052805190602001208152602001908152602001600020549050600060048111156102e4576102e461211e565b600160008533866040516020016102fd93929190612232565b60408051601f198184030181529181528151602092830120835290820192909252016000205460ff1660048111156103375761033761211e565b1480156103815750426002600085338660405160200161035993929190612232565b6040516020818303038152906040528051906020012081526020019081526020016000205411155b1561053a578060008085338660405160200161039f93929190612232565b60405160208183030381529060405280519060200120815260200190815260200160002060008282546103d29190612289565b9091555050604051600090339083908381818185875af1925050503d8060008114610419576040519150601f19603f3d011682016040523d82523d6000602084013e61041e565b606091505b50509050806104485760405162461bcd60e51b815260040161043f906122a0565b60405180910390fd5b8360405161045691906122ce565b6040518091039020836001600160a01b0316336001600160a01b03167fb9bdb7ed8146376064d748bca1cc3449acc3526943957d471adcc7485e2e73116040516104d1906020808252601b908201527f46756e64732077697468647261776e20746f2063726561746f72210000000000604082015260600190565b60405180910390a46004600160008633876040516020016104f493929190612232565b60408051601f19818403018152918152815160209283012083529082019290925201600020805460ff191660018360048111156105335761053361211e565b0217905550505b60006001600085338660405160200161055593929190612232565b60408051601f198184030181529181528151602092830120835290820192909252016000205460ff16905060018160048111156105945761059461211e565b0361073757816000808633876040516020016105b293929190612232565b60405160208183030381529060405280519060200120815260200190815260200160002060008282546105e59190612289565b90915550506040516000906001600160a01b0385169084908381818185875af1925050503d8060008114610635576040519150601f19603f3d011682016040523d82523d6000602084013e61063a565b606091505b505090508061065b5760405162461bcd60e51b815260040161043f906122a0565b8460405161066991906122ce565b6040518091039020846001600160a01b0316336001600160a01b03166000805160206125798339815191526040516106ca9060208082526015908201527446756e64732073656e7420746f2068756e7465722160581b604082015260600190565b60405180910390a46004600160008733886040516020016106ed93929190612232565b60408051601f19818403018152918152815160209283012083529082019290925201600020805460ff1916600183600481111561072c5761072c61211e565b021790555050610818565b600081600481111561074b5761074b61211e565b1480156107585750600082115b156107a55760405162461bcd60e51b815260206004820181905260248201527f48756e746572206861736e2774207375626d697474656420776f726b20796574604482015260640161043f565b60028160048111156107b9576107b961211e565b14806107d6575060038160048111156107d4576107d461211e565b145b156108185760405162461bcd60e51b8152602060048201526012602482015271109bdd5b9d1e481a5cc8191a5cdc1d5d195960721b604482015260640161043f565b50505050565b60008084338560405160200161083693929190612232565b604051602081830303815290604052805190602001208152602001908152602001600020546000146108a35760405162461bcd60e51b8152602060048201526016602482015275119d5b991cc8185b1c9958591e48195cd8dc9bddd95960521b604482015260640161043f565b346000808533866040516020016108bc93929190612232565b60408051601f19818403018152918152815160209283012083529082019290925201600020556108ec81426122ea565b6002600085338660405160200161090593929190612232565b604051602081830303815290604052805190602001208152602001908152602001600020819055508260405161093b91906122ce565b6040518091039020826001600160a01b0316336001600160a01b03167fd1e07ed273f3f8baf4d06b102596f3d355cb8d1f264f85fade4e9708b67ee8586040516109a290602080825260099082015268457363726f7765642160b81b604082015260600190565b60405180910390a4505050565b60018060008484336040516020016109c993929190612232565b60408051601f198184030181529181528151602092830120835290820192909252016000205460ff166004811115610a0357610a0361211e565b14610a455760405162461bcd60e51b815260206004820152601260248201527115dbdc9ac81b9bdd0814dd589b5a5d1d195960721b604482015260640161043f565b4260036000848433604051602001610a5f93929190612232565b604051602081830303815290604052805190602001208152602001908152602001600020541115610ad25760405162461bcd60e51b815260206004820181905260248201527f43726561746f722063616e207374696c6c20706179206f722064697370757465604482015260640161043f565b6000806000848433604051602001610aec93929190612232565b60405160208183030381529060405280519060200120815260200190815260200160002054905080600080858533604051602001610b2c93929190612232565b6040516020818303038152906040528051906020012081526020019081526020016000206000828254610b5f9190612289565b9091555050604051600090339083908381818185875af1925050503d8060008114610ba6576040519150601f19603f3d011682016040523d82523d6000602084013e610bab565b606091505b5050905080610bcc5760405162461bcd60e51b815260040161043f906122a0565b83604051610bda91906122ce565b6040518091039020336001600160a01b0316846001600160a01b03167f3d3e6b9b452dfac5b1ec55216e1f4ad64bcff404fc6b256e98d3645e22949871604051610c55906020808252601b908201527f46756e647320666f7263652073656e7420746f2068756e746572210000000000604082015260600190565b60405180910390a4600460016000868633604051602001610c7893929190612232565b60408051601f19818403018152918152815160209283012083529082019290925201600020805460ff19166001836004811115610cb757610cb761211e565b021790555050505050565b600080838333604051602001610cda93929190612232565b60405160208183030381529060405280519060200120815260200190815260200160002054600003610d435760405162461bcd60e51b8152602060048201526012602482015271119d5b991cc81b9bdd08195cd8dc9bddd95960721b604482015260640161043f565b6001806000848433604051602001610d5d93929190612232565b60408051601f198184030181529181528151602092830120835290820192909252016000205460ff166004811115610d9757610d9761211e565b03610ddd5760405162461bcd60e51b815260206004820152601660248201527515dbdc9ac8185b1c9958591e481cdd589b5a5d1d195960521b604482015260640161043f565b6001806000848433604051602001610df793929190612232565b60408051601f19818403018152918152815160209283012083529082019290925201600020805460ff19166001836004811115610e3657610e3661211e565b0217905550610e4842621275006122ea565b60036000848433604051602001610e6193929190612232565b6040516020818303038152906040528051906020012081526020019081526020016000208190555081604051610e9791906122ce565b6040518091039020336001600160a01b0316826001600160a01b03167f68a67c1cdac393ac88c3132d0e126d77a2b494fd4a9d2046d3b9999cb2ad7801604051610eff906020808252600a90820152695375626d69747465642160b01b604082015260600190565b60405180910390a45050565b600060016000873388604051602001610f2693929190612232565b60408051601f198184030181529181528151602092830120835290820192909252016000205460ff1690506001816004811115610f6557610f6561211e565b03610fb25760405162461bcd60e51b815260206004820152601c60248201527f43726561746f72206861736e277420646973707574656420776f726b00000000604482015260640161043f565b6004816004811115610fc657610fc661211e565b036110135760405162461bcd60e51b815260206004820152601960248201527f426f756e747920686173206265656e207061796564206f757400000000000000604482015260640161043f565b60048054604051631448155560e21b81526000926001600160a01b039092169163512055549161105891309167554d49502d31303760c01b918b918b918b91016123cf565b6020604051808303816000875af1158015611077573d6000803e3d6000fd5b505050506040513d601f19601f8201168201806040525081019061109b9190612417565b9050600080600089338a6040516020016110b793929190612232565b60408051601f1981840301815291815281516020928301208352908201929092520160002054905060048360048111156110f3576110f361211e565b1415801561112d575060058260068111156111105761111061211e565b148061112d5750600382600681111561112b5761112b61211e565b145b15611684576004805460405163b730539f60e01b81526000926001600160a01b039092169163b730539f9161117791309167554d49502d31303760c01b918d918d918d91016123cf565b60408051808303816000875af1158015611195573d6000803e3d6000fd5b505050506040513d601f19601f820116820180604052508101906111b99190612438565b9150508060000361130257816000808b338c6040516020016111dd93929190612232565b60405160208183030381529060405280519060200120815260200190815260200160002060008282546112109190612289565b9091555050604051600090339084908381818185875af1925050503d8060008114611257576040519150601f19603f3d011682016040523d82523d6000602084013e61125c565b606091505b505090508061127d5760405162461bcd60e51b815260040161043f906122a0565b8960405161128b91906122ce565b6040518091039020896001600160a01b0316336001600160a01b03166000805160206125798339815191526040516112f4906020808252601b908201527f46756e64732073656e74206261636b20746f2063726561746f72210000000000604082015260600190565b60405180910390a45061161f565b8060010361143b57816000808b338c60405160200161132393929190612232565b60405160208183030381529060405280519060200120815260200190815260200160002060008282546113569190612289565b90915550506040516000906001600160a01b038a169084908381818185875af1925050503d80600081146113a6576040519150601f19603f3d011682016040523d82523d6000602084013e6113ab565b606091505b50509050806113cc5760405162461bcd60e51b815260040161043f906122a0565b896040516113da91906122ce565b6040518091039020896001600160a01b0316336001600160a01b03166000805160206125798339815191526040516112f49060208082526015908201527446756e64732073656e7420746f2068756e7465722160581b604082015260600190565b8060020361161f57816000808b338c60405160200161145c93929190612232565b604051602081830303815290604052805190602001208152602001908152602001600020600082825461148f9190612289565b90915550600090506001600160a01b0389166114ac60028561245c565b604051600081818185875af1925050503d80600081146114e8576040519150601f19603f3d011682016040523d82523d6000602084013e6114ed565b606091505b505090508061150e5760405162461bcd60e51b815260040161043f906122a0565b60003361151c60028661245c565b604051600081818185875af1925050503d8060008114611558576040519150601f19603f3d011682016040523d82523d6000602084013e61155d565b606091505b505090508061157e5760405162461bcd60e51b815260040161043f906122a0565b8a60405161158c91906122ce565b60405180910390208a6001600160a01b0316336001600160a01b03166000805160206125798339815191526040516116149060208082526036908201527f48616c66206f662066756e64732073656e74206261636b20746f2063726561746040820152756f7220616e64207468656e20746f2068756e7465722160501b606082015260800190565b60405180910390a450505b6004600160008b338c60405160200161163a93929190612232565b60408051601f19818403018152918152815160209283012083529082019290925201600020805460ff191660018360048111156116795761167961211e565b021790555050611714565b60048360048111156116985761169861211e565b141580156116d2575060028260068111156116b5576116b561211e565b14806116d2575060048260068111156116d0576116d061211e565b145b156117145760405162461bcd60e51b815260206004820152601260248201527144697370757465207374696c6c206c69766560701b604482015260640161043f565b5050505050505050565b600060026001600088883360405160200161173b93929190612232565b60408051601f198184030181529181528151602092830120835290820192909252016000205460ff1660048111156117755761177561211e565b146117c25760405162461bcd60e51b815260206004820152601f60248201527f426f756e74792063726561746f7220686173206e6f7420646973707574656400604482015260640161043f565b81604001516001600160a01b03166323b872dd333085610120015161015e6117ea91906122ea565b6040516001600160e01b031960e086901b1681526001600160a01b03938416600482015292909116602483015260101860448201526064016020604051808303816000875af1158015611841573d6000803e3d6000fd5b505050506040513d601f19601f82011682018060405250810190611865919061247e565b5060408201516004546101208401516001600160a01b039283169263095ea7b39216906118949061015e6122ea565b6040516001600160e01b031960e085901b1681526001600160a01b03909216600483015260101860248201526044016020604051808303816000875af11580156118e2573d6000803e3d6000fd5b505050506040513d601f19601f82011682018060405250810190611906919061247e565b506004805460405163139c641960e31b81526000926001600160a01b0390921691639ce320c89161194e9167554d49502d31303760c01b918a918a918a91339130910161249b565b6020604051808303816000875af115801561196d573d6000803e3d6000fd5b505050506040513d601f19601f8201168201806040525081019061199191906124f8565b90506003600160008989336040516020016119ae93929190612232565b60408051601f19818403018152918152815160209283012083529082019290925201600020805460ff191660018360048111156119ed576119ed61211e565b021790555086604051611a0091906122ce565b6040518091039020336001600160a01b0316876001600160a01b03167f3f7182f4231b269a10d1e02d72f7c47f5492854e8d58363b87dc09538a575bcf604051611a73906020808252601590820152744469737075746520526573706f6e64656420546f2160581b604082015260600190565b60405180910390a49695505050505050565b6000600180600089338a604051602001611aa193929190612232565b60408051601f198184030181529181528151602092830120835290820192909252016000205460ff166004811115611adb57611adb61211e565b14611b1d5760405162461bcd60e51b815260206004820152601260248201527115dbdc9ac81b9bdd0814dd589b5a5d1d195960721b604482015260640161043f565b826001600160a01b0383166323b872dd3330611b3b8961015e6122ea565b6040516001600160e01b031960e086901b1681526001600160a01b03938416600482015292909116602483015260101860448201526064016020604051808303816000875af1158015611b92573d6000803e3d6000fd5b505050506040513d601f19601f82011682018060405250810190611bb6919061247e565b506001600160a01b03831663095ea7b387611bd38861015e6122ea565b6040516001600160e01b031960e085901b1681526001600160a01b03909216600483015260101860248201526044016020604051808303816000875af1158015611c21573d6000803e3d6000fd5b505050506040513d601f19601f82011682018060405250810190611c45919061247e565b50600480546001600160a01b0319166001600160a01b038816908117825560405163579aae8f60e11b815260009263af355d1e91611ca39167554d49502d31303760c01b91429188918b9189918f9162093a80913391859101612511565b6020604051808303816000875af1158015611cc2573d6000803e3d6000fd5b505050506040513d601f19601f82011682018060405250810190611ce691906124f8565b90506002600160008b338c604051602001611d0393929190612232565b60408051601f19818403018152918152815160209283012083529082019290925201600020805460ff19166001836004811115611d4257611d4261211e565b021790555088604051611d5591906122ce565b604080519182900382204263ffffffff168352602083018290526009838301526844697370757465642160b81b6060840152905190916001600160a01b038b169133917f3178438e5e76b4e0fbbedfdb783349111bd0b217fc639b930dd3467546f828b4919081900360800190a49150505b9695505050505050565b634e487b7160e01b600052604160045260246000fd5b604051610160810167ffffffffffffffff81118282101715611e0b57611e0b611dd1565b60405290565b600067ffffffffffffffff80841115611e2c57611e2c611dd1565b604051601f8501601f19908116603f01168101908282118183101715611e5457611e54611dd1565b81604052809350858152868686011115611e6d57600080fd5b858560208301376000602087830101525050509392505050565b600082601f830112611e9857600080fd5b611ea783833560208501611e11565b9392505050565b6001600160a01b0381168114611ec357600080fd5b50565b8035611ed181611eae565b919050565b60008060408385031215611ee957600080fd5b823567ffffffffffffffff811115611f0057600080fd5b611f0c85828601611e87565b9250506020830135611f1d81611eae565b809150509250929050565b600080600060608486031215611f3d57600080fd5b833567ffffffffffffffff811115611f5457600080fd5b611f6086828701611e87565b9350506020840135611f7181611eae565b929592945050506040919091013590565b600060208284031215611f9457600080fd5b5035919050565b8015158114611ec357600080fd5b8035611ed181611f9b565b60006101608284031215611fc757600080fd5b611fcf611de7565b9050611fda82611ec6565b8152611fe860208301611ec6565b6020820152611ff960408301611ec6565b604082015261200a60608301611fa9565b60608201526080820135608082015260a082013560a082015260c082013560c082015260e082013560e082015261010080830135818301525061012080830135818301525061014080830135818301525092915050565b60008060008060006101e0868803121561207a57600080fd5b853567ffffffffffffffff8082111561209257600080fd5b61209e89838a01611e87565b9650602088013591506120b082611eae565b90945060408701359063ffffffff821682146120cb57600080fd5b909350606087013590808211156120e157600080fd5b508601601f810188136120f357600080fd5b61210288823560208401611e11565b9250506121128760808801611fb4565b90509295509295909350565b634e487b7160e01b600052602160045260246000fd5b602081016005831061215657634e487b7160e01b600052602160045260246000fd5b91905290565b60008060008060008060c0878903121561217557600080fd5b863567ffffffffffffffff8082111561218d57600080fd5b6121998a838b01611e87565b9750602089013591506121ab82611eae565b9095506040880135906121bd82611eae565b90945060608801359350608088013590808211156121da57600080fd5b506121e789828a01611e87565b92505060a08701356121f881611eae565b809150509295509295509295565b60005b83811015612221578181015183820152602001612209565b838111156108185750506000910152565b60008451612244818460208901612206565b6bffffffffffffffffffffffff19606095861b8116919093019081529290931b16601482015260280192915050565b634e487b7160e01b600052601160045260246000fd5b60008282101561229b5761229b612273565b500390565b6020808252601490820152732330b4b632b2103a379039b2b7321022ba3432b960611b604082015260600190565b600082516122e0818460208701612206565b9190910192915050565b600082198211156122fd576122fd612273565b500190565b6000815180845261231a816020860160208601612206565b601f01601f19169290920160200192915050565b80516001600160a01b03168252602081015161235560208401826001600160a01b03169052565b50604081015161237060408401826001600160a01b03169052565b506060810151612384606084018215159052565b506080818101519083015260a0808201519083015260c0808201519083015260e080820151908301526101008082015190830152610120808201519083015261014090810151910152565b6001600160a01b03861681526020810185905263ffffffff841660408201526101e06060820181905260009061240783820186612302565b915050611dc7608083018461232e565b60006020828403121561242957600080fd5b815160078110611ea757600080fd5b6000806040838503121561244b57600080fd5b505080516020909101519092909150565b60008261247957634e487b7160e01b600052601260045260246000fd5b500490565b60006020828403121561249057600080fd5b8151611ea781611f9b565b600061020088835263ffffffff881660208401528060408401526124c181840188612302565b9150506124d1606083018661232e565b6001600160a01b039384166101c0830152919092166101e090920191909152949350505050565b60006020828403121561250a57600080fd5b5051919050565b60006101208b835263ffffffff8b1660208401528060408401526125378184018b612302565b6001600160a01b03998a1660608501526080840198909852505060a081019490945260c084019290925290931660e08201526101000191909152939250505056fe792ad3967c4edb1c07d26a2bb911a5dce93db0ec891f4bb69c55f2721bb888c2a264697066735822122012055cec1ad9bbffbf02622a2ad390c459a8e9c75312d648acef2ec293298c3e64736f6c634300080d0033",
    "linkReferences": {}
  },
  "methodIdentifiers": {
    "bountyAmounts(bytes32)": "771eb857",
    "escrow(string,address,uint256)": "3f5917d5",
    "expiration(bytes32)": "56406fa5",
    "forceHunterPayout(string,address)": "63be095c",
    "hunterDisputeResponse(string,address,uint32,bytes,(address,address,address,bool,int256,int256,uint256,uint256,uint256,uint256,uint256))": "817f6c32",
    "initiateDispute(string,address,address,uint256,string,address)": "9e2172b5",
    "oracleInterface()": "28ebaa6f",
    "payout(string,address)": "33357018",
    "payoutExpiration(bytes32)": "d911392d",
    "payoutIfDispute(string,address,uint32,bytes,(address,address,address,bool,int256,int256,uint256,uint256,uint256,uint256,uint256))": "709ff50e",
    "progress(bytes32)": "7aebd2a8",
    "submit(string,address)": "696b9aa7"
  },
  "id": 38
}