{
  "abi": [
    {
      "anonymous": false,
      "inputs": [
        {
          "indexed": true,
          "internalType": "address",
          "name": "previousOwner",
          "type": "address"
        },
        {
          "indexed": true,
          "internalType": "address",
          "name": "newOwner",
          "type": "address"
        }
      ],
      "name": "OwnershipTransferred",
      "type": "event"
    },
    {
      "anonymous": false,
      "inputs": [
        {
          "indexed": true,
          "internalType": "bytes32",
          "name": "identifier",
          "type": "bytes32"
        }
      ],
      "name": "SupportedIdentifierAdded",
      "type": "event"
    },
    {
      "anonymous": false,
      "inputs": [
        {
          "indexed": true,
          "internalType": "bytes32",
          "name": "identifier",
          "type": "bytes32"
        }
      ],
      "name": "SupportedIdentifierRemoved",
      "type": "event"
    },
    {
      "inputs": [
        {
          "internalType": "bytes32",
          "name": "identifier",
          "type": "bytes32"
        }
      ],
      "name": "addSupportedIdentifier",
      "outputs": [],
      "stateMutability": "nonpayable",
      "type": "function"
    },
    {
      "inputs": [
        {
          "internalType": "bytes32",
          "name": "identifier",
          "type": "bytes32"
        }
      ],
      "name": "isIdentifierSupported",
      "outputs": [
        {
          "internalType": "bool",
          "name": "",
          "type": "bool"
        }
      ],
      "stateMutability": "view",
      "type": "function"
    },
    {
      "inputs": [],
      "name": "owner",
      "outputs": [
        {
          "internalType": "address",
          "name": "",
          "type": "address"
        }
      ],
      "stateMutability": "view",
      "type": "function"
    },
    {
      "inputs": [
        {
          "internalType": "bytes32",
          "name": "identifier",
          "type": "bytes32"
        }
      ],
      "name": "removeSupportedIdentifier",
      "outputs": [],
      "stateMutability": "nonpayable",
      "type": "function"
    },
    {
      "inputs": [],
      "name": "renounceOwnership",
      "outputs": [],
      "stateMutability": "nonpayable",
      "type": "function"
    },
    {
      "inputs": [
        {
          "internalType": "address",
          "name": "newOwner",
          "type": "address"
        }
      ],
      "name": "transferOwnership",
      "outputs": [],
      "stateMutability": "nonpayable",
      "type": "function"
    }
  ],
  "bytecode": {
    "object": "0x608060405234801561001057600080fd5b5061001a3361001f565b61006f565b600080546001600160a01b038381166001600160a01b0319831681178455604051919092169283917f8be0079c531659141344cd1fd0a4f28419497f9722a3daafe3b4186f6b6457e09190a35050565b6103798061007e6000396000f3fe608060405234801561001057600080fd5b50600436106100625760003560e01c806310a7e20114610067578063715018a61461007c5780638da5cb5b146100845780638e0d3ca7146100a457806390978d1b146100b7578063f2fde38b146100ea575b600080fd5b61007a6100753660046102fa565b6100fd565b005b61007a610162565b6000546040516001600160a01b0390911681526020015b60405180910390f35b61007a6100b23660046102fa565b610176565b6100da6100c53660046102fa565b60009081526001602052604090205460ff1690565b604051901515815260200161009b565b61007a6100f8366004610313565b6101d5565b610105610250565b60008181526001602052604090205460ff1661015f576000818152600160208190526040808320805460ff19169092179091555182917fa0ca1076d765c13772089a90b5121cf6ddf63c9f7891c4e5031adbc85936b27691a25b50565b61016a610250565b61017460006102aa565b565b61017e610250565b60008181526001602052604090205460ff161561015f57600081815260016020526040808220805460ff191690555182917fefdf15ca0f9402bd4e933b0edb0db65b23cc50d27cb010d8abcadaae4fa944e591a250565b6101dd610250565b6001600160a01b0381166102475760405162461bcd60e51b815260206004820152602660248201527f4f776e61626c653a206e6577206f776e657220697320746865207a65726f206160448201526564647265737360d01b60648201526084015b60405180910390fd5b61015f816102aa565b6000546001600160a01b031633146101745760405162461bcd60e51b815260206004820181905260248201527f4f776e61626c653a2063616c6c6572206973206e6f7420746865206f776e6572604482015260640161023e565b600080546001600160a01b038381166001600160a01b0319831681178455604051919092169283917f8be0079c531659141344cd1fd0a4f28419497f9722a3daafe3b4186f6b6457e09190a35050565b60006020828403121561030c57600080fd5b5035919050565b60006020828403121561032557600080fd5b81356001600160a01b038116811461033c57600080fd5b939250505056fea2646970667358221220e99262ac382ef1cbdc8e7e28761d04805768af4dcb66d13cfff675404cbcf1b364736f6c63430008110033",
    "linkReferences": {}
  },
  "methodIdentifiers": {
    "addSupportedIdentifier(bytes32)": "10a7e201",
    "isIdentifierSupported(bytes32)": "90978d1b",
    "owner()": "8da5cb5b",
    "removeSupportedIdentifier(bytes32)": "8e0d3ca7",
    "renounceOwnership()": "715018a6",
    "transferOwnership(address)": "f2fde38b"
  },
  "id": 48
}