{
  "abi": [
    {
      "anonymous": false,
      "inputs": [
        {
          "indexed": true,
          "internalType": "bytes32",
          "name": "interfaceName",
          "type": "bytes32"
        },
        {
          "indexed": true,
          "internalType": "address",
          "name": "newImplementationAddress",
          "type": "address"
        }
      ],
      "name": "InterfaceImplementationChanged",
      "type": "event"
    },
    {
      "anonymous": false,
      "inputs": [
        {
          "indexed": true,
          "internalType": "address",
          "name": "previousOwner",
          "type": "address"
        },
        {
          "indexed": true,
          "internalType": "address",
          "name": "newOwner",
          "type": "address"
        }
      ],
      "name": "OwnershipTransferred",
      "type": "event"
    },
    {
      "inputs": [
        {
          "internalType": "bytes32",
          "name": "interfaceName",
          "type": "bytes32"
        },
        {
          "internalType": "address",
          "name": "implementationAddress",
          "type": "address"
        }
      ],
      "name": "changeImplementationAddress",
      "outputs": [],
      "stateMutability": "nonpayable",
      "type": "function"
    },
    {
      "inputs": [
        {
          "internalType": "bytes32",
          "name": "interfaceName",
          "type": "bytes32"
        }
      ],
      "name": "getImplementationAddress",
      "outputs": [
        {
          "internalType": "address",
          "name": "",
          "type": "address"
        }
      ],
      "stateMutability": "view",
      "type": "function"
    },
    {
      "inputs": [
        {
          "internalType": "bytes32",
          "name": "",
          "type": "bytes32"
        }
      ],
      "name": "interfacesImplemented",
      "outputs": [
        {
          "internalType": "address",
          "name": "",
          "type": "address"
        }
      ],
      "stateMutability": "view",
      "type": "function"
    },
    {
      "inputs": [],
      "name": "owner",
      "outputs": [
        {
          "internalType": "address",
          "name": "",
          "type": "address"
        }
      ],
      "stateMutability": "view",
      "type": "function"
    },
    {
      "inputs": [],
      "name": "renounceOwnership",
      "outputs": [],
      "stateMutability": "nonpayable",
      "type": "function"
    },
    {
      "inputs": [
        {
          "internalType": "address",
          "name": "newOwner",
          "type": "address"
        }
      ],
      "name": "transferOwnership",
      "outputs": [],
      "stateMutability": "nonpayable",
      "type": "function"
    }
  ],
  "bytecode": {
    "object": "0x608060405234801561001057600080fd5b5061001a3361001f565b61006f565b600080546001600160a01b038381166001600160a01b0319831681178455604051919092169283917f8be0079c531659141344cd1fd0a4f28419497f9722a3daafe3b4186f6b6457e09190a35050565b6103bd8061007e6000396000f3fe608060405234801561001057600080fd5b50600436106100625760003560e01c806331f9665e14610067578063715018a61461007c5780638da5cb5b14610084578063aafd5e40146100ad578063cc48f4db146100c0578063f2fde38b146100e9575b600080fd5b61007a610075366004610320565b6100fc565b005b61007a61015d565b6000546001600160a01b03165b6040516001600160a01b03909116815260200160405180910390f35b6100916100bb36600461034c565b610171565b6100916100ce36600461034c565b6001602052600090815260409020546001600160a01b031681565b61007a6100f7366004610365565b6101e1565b61010461025a565b60008281526001602052604080822080546001600160a01b0319166001600160a01b0385169081179091559051909184917fb29aa13e555039289e0513962835b00fcc6e4a265ae8f99e68e5b90d5406fe489190a35050565b61016561025a565b61016f60006102b4565b565b6000818152600160205260408120546001600160a01b0316806101db5760405162461bcd60e51b815260206004820152601860248201527f496d706c656d656e746174696f6e206e6f7420666f756e64000000000000000060448201526064015b60405180910390fd5b92915050565b6101e961025a565b6001600160a01b03811661024e5760405162461bcd60e51b815260206004820152602660248201527f4f776e61626c653a206e6577206f776e657220697320746865207a65726f206160448201526564647265737360d01b60648201526084016101d2565b610257816102b4565b50565b6000546001600160a01b0316331461016f5760405162461bcd60e51b815260206004820181905260248201527f4f776e61626c653a2063616c6c6572206973206e6f7420746865206f776e657260448201526064016101d2565b600080546001600160a01b038381166001600160a01b0319831681178455604051919092169283917f8be0079c531659141344cd1fd0a4f28419497f9722a3daafe3b4186f6b6457e09190a35050565b80356001600160a01b038116811461031b57600080fd5b919050565b6000806040838503121561033357600080fd5b8235915061034360208401610304565b90509250929050565b60006020828403121561035e57600080fd5b5035919050565b60006020828403121561037757600080fd5b61038082610304565b939250505056fea2646970667358221220faf50cf6e5d3cc8861d30141d8d6b069c6f61b595fb9c3a3a8daf0ce03f3312564736f6c63430008110033",
    "linkReferences": {}
  },
  "methodIdentifiers": {
    "changeImplementationAddress(bytes32,address)": "31f9665e",
    "getImplementationAddress(bytes32)": "aafd5e40",
    "interfacesImplemented(bytes32)": "cc48f4db",
    "owner()": "8da5cb5b",
    "renounceOwnership()": "715018a6",
    "transferOwnership(address)": "f2fde38b"
  },
  "id": 46
}