{
  "abi": [
    {
      "inputs": [],
      "stateMutability": "nonpayable",
      "type": "constructor"
    },
    {
      "anonymous": false,
      "inputs": [
        {
          "indexed": false,
          "internalType": "address",
          "name": "previousAdmin",
          "type": "address"
        },
        {
          "indexed": false,
          "internalType": "address",
          "name": "newAdmin",
          "type": "address"
        }
      ],
      "name": "AdminChanged",
      "type": "event"
    },
    {
      "anonymous": false,
      "inputs": [
        {
          "indexed": true,
          "internalType": "address",
          "name": "beacon",
          "type": "address"
        }
      ],
      "name": "BeaconUpgraded",
      "type": "event"
    },
    {
      "anonymous": false,
      "inputs": [
        {
          "indexed": true,
          "internalType": "address",
          "name": "creator",
          "type": "address"
        },
        {
          "indexed": true,
          "internalType": "address",
          "name": "hunter",
          "type": "address"
        },
        {
          "indexed": true,
          "internalType": "string",
          "name": "bountyAppId",
          "type": "string"
        },
        {
          "indexed": false,
          "internalType": "string",
          "name": "message",
          "type": "string"
        }
      ],
      "name": "DisputeRespondedTo",
      "type": "event"
    },
    {
      "anonymous": false,
      "inputs": [
        {
          "indexed": true,
          "internalType": "address",
          "name": "creator",
          "type": "address"
        },
        {
          "indexed": true,
          "internalType": "address",
          "name": "hunter",
          "type": "address"
        },
        {
          "indexed": true,
          "internalType": "string",
          "name": "bountyAppId",
          "type": "string"
        },
        {
          "indexed": false,
          "internalType": "uint32",
          "name": "timestamp",
          "type": "uint32"
        },
        {
          "indexed": false,
          "internalType": "string",
          "name": "message",
          "type": "string"
        }
      ],
      "name": "Disputed",
      "type": "event"
    },
    {
      "anonymous": false,
      "inputs": [
        {
          "indexed": true,
          "internalType": "address",
          "name": "creator",
          "type": "address"
        },
        {
          "indexed": true,
          "internalType": "address",
          "name": "hunter",
          "type": "address"
        },
        {
          "indexed": true,
          "internalType": "string",
          "name": "bountyAppId",
          "type": "string"
        },
        {
          "indexed": false,
          "internalType": "string",
          "name": "message",
          "type": "string"
        }
      ],
      "name": "Escrowed",
      "type": "event"
    },
    {
      "anonymous": false,
      "inputs": [
        {
          "indexed": true,
          "internalType": "address",
          "name": "creator",
          "type": "address"
        },
        {
          "indexed": true,
          "internalType": "address",
          "name": "hunter",
          "type": "address"
        },
        {
          "indexed": true,
          "internalType": "string",
          "name": "bountyAppId",
          "type": "string"
        },
        {
          "indexed": false,
          "internalType": "string",
          "name": "message",
          "type": "string"
        }
      ],
      "name": "FundsForceSentToHunter",
      "type": "event"
    },
    {
      "anonymous": false,
      "inputs": [
        {
          "indexed": true,
          "internalType": "address",
          "name": "creator",
          "type": "address"
        },
        {
          "indexed": true,
          "internalType": "address",
          "name": "hunter",
          "type": "address"
        },
        {
          "indexed": true,
          "internalType": "string",
          "name": "bountyAppId",
          "type": "string"
        },
        {
          "indexed": false,
          "internalType": "string",
          "name": "message",
          "type": "string"
        }
      ],
      "name": "FundsSent",
      "type": "event"
    },
    {
      "anonymous": false,
      "inputs": [
        {
          "indexed": true,
          "internalType": "address",
          "name": "creator",
          "type": "address"
        },
        {
          "indexed": true,
          "internalType": "address",
          "name": "hunter",
          "type": "address"
        },
        {
          "indexed": true,
          "internalType": "string",
          "name": "bountyAppId",
          "type": "string"
        },
        {
          "indexed": false,
          "internalType": "string",
          "name": "message",
          "type": "string"
        }
      ],
      "name": "FundsWithdrawnToCreator",
      "type": "event"
    },
    {
      "anonymous": false,
      "inputs": [
        {
          "indexed": false,
          "internalType": "uint8",
          "name": "version",
          "type": "uint8"
        }
      ],
      "name": "Initialized",
      "type": "event"
    },
    {
      "anonymous": false,
      "inputs": [
        {
          "indexed": true,
          "internalType": "address",
          "name": "previousOwner",
          "type": "address"
        },
        {
          "indexed": true,
          "internalType": "address",
          "name": "newOwner",
          "type": "address"
        }
      ],
      "name": "OwnershipTransferred",
      "type": "event"
    },
    {
      "anonymous": false,
      "inputs": [
        {
          "indexed": true,
          "internalType": "address",
          "name": "creator",
          "type": "address"
        },
        {
          "indexed": true,
          "internalType": "address",
          "name": "hunter",
          "type": "address"
        },
        {
          "indexed": true,
          "internalType": "string",
          "name": "bountyAppId",
          "type": "string"
        },
        {
          "indexed": false,
          "internalType": "address",
          "name": "winner",
          "type": "address"
        },
        {
          "indexed": false,
          "internalType": "string",
          "name": "message",
          "type": "string"
        }
      ],
      "name": "Resolved",
      "type": "event"
    },
    {
      "anonymous": false,
      "inputs": [
        {
          "indexed": true,
          "internalType": "address",
          "name": "creator",
          "type": "address"
        },
        {
          "indexed": true,
          "internalType": "address",
          "name": "hunter",
          "type": "address"
        },
        {
          "indexed": true,
          "internalType": "string",
          "name": "bountyAppId",
          "type": "string"
        },
        {
          "indexed": false,
          "internalType": "string",
          "name": "message",
          "type": "string"
        }
      ],
      "name": "Submitted",
      "type": "event"
    },
    {
      "anonymous": false,
      "inputs": [
        {
          "indexed": true,
          "internalType": "address",
          "name": "implementation",
          "type": "address"
        }
      ],
      "name": "Upgraded",
      "type": "event"
    },
    {
      "inputs": [
        {
          "internalType": "bytes32",
          "name": "",
          "type": "bytes32"
        }
      ],
      "name": "bountyAmounts",
      "outputs": [
        {
          "internalType": "uint256",
          "name": "",
          "type": "uint256"
        }
      ],
      "stateMutability": "view",
      "type": "function"
    },
    {
      "inputs": [
        {
          "internalType": "bytes32",
          "name": "",
          "type": "bytes32"
        }
      ],
      "name": "bountyToken",
      "outputs": [
        {
          "internalType": "address",
          "name": "",
          "type": "address"
        }
      ],
      "stateMutability": "view",
      "type": "function"
    },
    {
      "inputs": [
        {
          "internalType": "string",
          "name": "_bountyAppId",
          "type": "string"
        },
        {
          "internalType": "address",
          "name": "_hunter",
          "type": "address"
        },
        {
          "internalType": "uint256",
          "name": "_expiration",
          "type": "uint256"
        },
        {
          "internalType": "address",
          "name": "_token",
          "type": "address"
        },
        {
          "internalType": "uint256",
          "name": "_amount",
          "type": "uint256"
        }
      ],
      "name": "escrow",
      "outputs": [],
      "stateMutability": "payable",
      "type": "function"
    },
    {
      "inputs": [
        {
          "internalType": "bytes32",
          "name": "",
          "type": "bytes32"
        }
      ],
      "name": "expiration",
      "outputs": [
        {
          "internalType": "uint256",
          "name": "",
          "type": "uint256"
        }
      ],
      "stateMutability": "view",
      "type": "function"
    },
    {
      "inputs": [
        {
          "internalType": "string",
          "name": "_bountyAppId",
          "type": "string"
        },
        {
          "internalType": "address",
          "name": "_creator",
          "type": "address"
        }
      ],
      "name": "forceHunterPayout",
      "outputs": [],
      "stateMutability": "nonpayable",
      "type": "function"
    },
    {
      "inputs": [
        {
          "internalType": "string",
          "name": "_bountyAppId",
          "type": "string"
        },
        {
          "internalType": "address",
          "name": "_creator",
          "type": "address"
        },
        {
          "internalType": "uint32",
          "name": "_timestamp",
          "type": "uint32"
        },
        {
          "internalType": "bytes",
          "name": "_ancillaryData",
          "type": "bytes"
        },
        {
          "components": [
            {
              "internalType": "address",
              "name": "proposer",
              "type": "address"
            },
            {
              "internalType": "address",
              "name": "disputer",
              "type": "address"
            },
            {
              "internalType": "contract IERC20",
              "name": "currency",
              "type": "address"
            },
            {
              "internalType": "bool",
              "name": "settled",
              "type": "bool"
            },
            {
              "internalType": "int256",
              "name": "proposedPrice",
              "type": "int256"
            },
            {
              "internalType": "int256",
              "name": "resolvedPrice",
              "type": "int256"
            },
            {
              "internalType": "uint256",
              "name": "expirationTime",
              "type": "uint256"
            },
            {
              "internalType": "uint256",
              "name": "reward",
              "type": "uint256"
            },
            {
              "internalType": "uint256",
              "name": "finalFee",
              "type": "uint256"
            },
            {
              "internalType": "uint256",
              "name": "bond",
              "type": "uint256"
            },
            {
              "internalType": "uint256",
              "name": "customLiveness",
              "type": "uint256"
            }
          ],
          "internalType": "struct SkinnyOptimisticOracleInterface.Request",
          "name": "_request",
          "type": "tuple"
        }
      ],
      "name": "hunterDisputeResponse",
      "outputs": [
        {
          "internalType": "uint256",
          "name": "",
          "type": "uint256"
        }
      ],
      "stateMutability": "nonpayable",
      "type": "function"
    },
    {
      "inputs": [],
      "name": "initialize",
      "outputs": [],
      "stateMutability": "nonpayable",
      "type": "function"
    },
    {
      "inputs": [
        {
          "internalType": "string",
          "name": "_bountyAppId",
          "type": "string"
        },
        {
          "internalType": "address",
          "name": "_hunter",
          "type": "address"
        },
        {
          "internalType": "address",
          "name": "_oracleAddress",
          "type": "address"
        },
        {
          "internalType": "uint256",
          "name": "_bondAmt",
          "type": "uint256"
        },
        {
          "internalType": "string",
          "name": "_ancillaryData",
          "type": "string"
        },
        {
          "internalType": "contract IERC20",
          "name": "_currency",
          "type": "address"
        }
      ],
      "name": "initiateDispute",
      "outputs": [
        {
          "internalType": "uint256",
          "name": "",
          "type": "uint256"
        }
      ],
      "stateMutability": "nonpayable",
      "type": "function"
    },
    {
      "inputs": [],
      "name": "oracleInterface",
      "outputs": [
        {
          "internalType": "contract SkinnyOptimisticOracleInterface",
          "name": "",
          "type": "address"
        }
      ],
      "stateMutability": "view",
      "type": "function"
    },
    {
      "inputs": [],
      "name": "owner",
      "outputs": [
        {
          "internalType": "address",
          "name": "",
          "type": "address"
        }
      ],
      "stateMutability": "view",
      "type": "function"
    },
    {
      "inputs": [
        {
          "internalType": "string",
          "name": "_bountyAppId",
          "type": "string"
        },
        {
          "internalType": "address",
          "name": "_hunter",
          "type": "address"
        }
      ],
      "name": "payout",
      "outputs": [],
      "stateMutability": "nonpayable",
      "type": "function"
    },
    {
      "inputs": [
        {
          "internalType": "bytes32",
          "name": "",
          "type": "bytes32"
        }
      ],
      "name": "payoutExpiration",
      "outputs": [
        {
          "internalType": "uint256",
          "name": "",
          "type": "uint256"
        }
      ],
      "stateMutability": "view",
      "type": "function"
    },
    {
      "inputs": [
        {
          "internalType": "string",
          "name": "_bountyAppId",
          "type": "string"
        },
        {
          "internalType": "address",
          "name": "_hunter",
          "type": "address"
        },
        {
          "internalType": "uint32",
          "name": "_timestamp",
          "type": "uint32"
        },
        {
          "internalType": "bytes",
          "name": "_ancillaryData",
          "type": "bytes"
        },
        {
          "components": [
            {
              "internalType": "address",
              "name": "proposer",
              "type": "address"
            },
            {
              "internalType": "address",
              "name": "disputer",
              "type": "address"
            },
            {
              "internalType": "contract IERC20",
              "name": "currency",
              "type": "address"
            },
            {
              "internalType": "bool",
              "name": "settled",
              "type": "bool"
            },
            {
              "internalType": "int256",
              "name": "proposedPrice",
              "type": "int256"
            },
            {
              "internalType": "int256",
              "name": "resolvedPrice",
              "type": "int256"
            },
            {
              "internalType": "uint256",
              "name": "expirationTime",
              "type": "uint256"
            },
            {
              "internalType": "uint256",
              "name": "reward",
              "type": "uint256"
            },
            {
              "internalType": "uint256",
              "name": "finalFee",
              "type": "uint256"
            },
            {
              "internalType": "uint256",
              "name": "bond",
              "type": "uint256"
            },
            {
              "internalType": "uint256",
              "name": "customLiveness",
              "type": "uint256"
            }
          ],
          "internalType": "struct SkinnyOptimisticOracleInterface.Request",
          "name": "_request",
          "type": "tuple"
        }
      ],
      "name": "payoutIfDispute",
      "outputs": [],
      "stateMutability": "nonpayable",
      "type": "function"
    },
    {
      "inputs": [
        {
          "internalType": "bytes32",
          "name": "",
          "type": "bytes32"
        }
      ],
      "name": "progress",
      "outputs": [
        {
          "internalType": "enum Escrow.Status",
          "name": "",
          "type": "uint8"
        }
      ],
      "stateMutability": "view",
      "type": "function"
    },
    {
      "inputs": [],
      "name": "proxiableUUID",
      "outputs": [
        {
          "internalType": "bytes32",
          "name": "",
          "type": "bytes32"
        }
      ],
      "stateMutability": "view",
      "type": "function"
    },
    {
      "inputs": [],
      "name": "renounceOwnership",
      "outputs": [],
      "stateMutability": "nonpayable",
      "type": "function"
    },
    {
      "inputs": [
        {
          "internalType": "string",
          "name": "_bountyAppId",
          "type": "string"
        },
        {
          "internalType": "address",
          "name": "_creator",
          "type": "address"
        }
      ],
      "name": "submit",
      "outputs": [],
      "stateMutability": "nonpayable",
      "type": "function"
    },
    {
      "inputs": [
        {
          "internalType": "address",
          "name": "newOwner",
          "type": "address"
        }
      ],
      "name": "transferOwnership",
      "outputs": [],
      "stateMutability": "nonpayable",
      "type": "function"
    },
    {
      "inputs": [
        {
          "internalType": "address",
          "name": "newImplementation",
          "type": "address"
        }
      ],
      "name": "upgradeTo",
      "outputs": [],
      "stateMutability": "nonpayable",
      "type": "function"
    },
    {
      "inputs": [
        {
          "internalType": "address",
          "name": "newImplementation",
          "type": "address"
        },
        {
          "internalType": "bytes",
          "name": "data",
          "type": "bytes"
        }
      ],
      "name": "upgradeToAndCall",
      "outputs": [],
      "stateMutability": "payable",
      "type": "function"
    }
  ],
  "bytecode": {
    "object": "0x60a0604052306080523480156200001557600080fd5b506200002062000026565b620000e8565b600054610100900460ff1615620000935760405162461bcd60e51b815260206004820152602760248201527f496e697469616c697a61626c653a20636f6e747261637420697320696e697469604482015266616c697a696e6760c81b606482015260840160405180910390fd5b60005460ff9081161015620000e6576000805460ff191660ff9081179091556040519081527f7f26b83ff96e1f2b6a682f133852f6798a09c465da95921460cefb38474024989060200160405180910390a15b565b6080516136986200012060003960008181610a1901528181610a5901528181610af801528181610b380152610bcb01526136986000f3fe60806040526004361061011f5760003560e01c8063771eb857116100a05780638da5cb5b116100645780638da5cb5b146103505780639e2172b51461036e578063c5660dbf1461038e578063d911392d146103a1578063f2fde38b146103ce57600080fd5b8063771eb8571461027b5780637aebd2a8146102a85780637b8e291e146102e55780638129fc1c1461031b578063817f6c321461033057600080fd5b806356406fa5116100e757806356406fa5146101d957806363be095c14610206578063696b9aa714610226578063709ff50e14610246578063715018a61461026657600080fd5b806328ebaa6f1461012457806333357018146101615780633659cfe6146101835780634f1ef286146101a357806352d1902d146101b6575b600080fd5b34801561013057600080fd5b5060ce54610144906001600160a01b031681565b6040516001600160a01b0390911681526020015b60405180910390f35b34801561016d57600080fd5b5061018161017c366004612e0b565b6103ee565b005b34801561018f57600080fd5b5061018161019e366004612e5d565b610a0f565b6101816101b1366004612e7a565b610aee565b3480156101c257600080fd5b506101cb610bbe565b604051908152602001610158565b3480156101e557600080fd5b506101cb6101f4366004612eca565b60cb6020526000908152604090205481565b34801561021257600080fd5b50610181610221366004612e0b565b610c71565b34801561023257600080fd5b50610181610241366004612e0b565b610ff6565b34801561025257600080fd5b50610181610261366004612efc565b611242565b34801561027257600080fd5b50610181611b49565b34801561028757600080fd5b506101cb610296366004612eca565b60c96020526000908152604090205481565b3480156102b457600080fd5b506102d86102c3366004612eca565b60ca6020526000908152604090205460ff1681565b604051610158919061305e565b3480156102f157600080fd5b50610144610300366004612eca565b60cd602052600090815260409020546001600160a01b031681565b34801561032757600080fd5b50610181611b5d565b34801561033c57600080fd5b506101cb61034b366004612efc565b611c75565b34801561035c57600080fd5b506033546001600160a01b0316610144565b34801561037a57600080fd5b506101cb610389366004613086565b611f09565b61018161039c366004613130565b612183565b3480156103ad57600080fd5b506101cb6103bc366004612eca565b60cc6020526000908152604090205481565b3480156103da57600080fd5b506101816103e9366004612e5d565b61242f565b600060c96000843385604051602001610409939291906131c8565b604051602081830303815290604052805190602001208152602001908152602001600020549050600060cd600085338660405160200161044b939291906131c8565b60408051601f198184030181529181528151602092830120835290820192909252016000908120546001600160a01b0316915060ca6000863387604051602001610497939291906131c8565b60408051601f198184030181529181528151602092830120835290820192909252016000205460ff1660048111156104d1576104d1613048565b14801561051b57504260cb60008633876040516020016104f3939291906131c8565b6040516020818303038152906040528051906020012081526020019081526020016000205411155b156106fe578160c9600086338760405160200161053a939291906131c8565b604051602081830303815290604052805190602001208152602001908152602001600020600082825461056d919061321f565b90915550506001600160a01b0381161561059a576105956001600160a01b03821633846124a5565b61060d565b604051600090339084908381818185875af1925050503d80600081146105dc576040519150601f19603f3d011682016040523d82523d6000602084013e6105e1565b606091505b505090508061060b5760405162461bcd60e51b815260040161060290613232565b60405180910390fd5b505b8360405161061b9190613260565b6040518091039020836001600160a01b0316336001600160a01b03167fb9bdb7ed8146376064d748bca1cc3449acc3526943957d471adcc7485e2e7311604051610696906020808252601b908201527f46756e64732077697468647261776e20746f2063726561746f72210000000000604082015260600190565b60405180910390a4600460ca60008633876040516020016106b9939291906131c8565b60408051601f19818403018152918152815160209283012083529082019290925201600020805460ff191660018360048111156106f8576106f8613048565b02179055505b600060ca6000863387604051602001610719939291906131c8565b60408051601f198184030181529181528151602092830120835290820192909252016000205460ff169050600181600481111561075857610758613048565b03610927578260c96000873388604051602001610777939291906131c8565b60405160208183030381529060405280519060200120815260200190815260200160002060008282546107aa919061321f565b90915550506001600160a01b038216156107d7576107d26001600160a01b03831685856124a5565b61084c565b6000846001600160a01b03168460405160006040518083038185875af1925050503d8060008114610824576040519150601f19603f3d011682016040523d82523d6000602084013e610829565b606091505b505090508061084a5760405162461bcd60e51b815260040161060290613232565b505b8460405161085a9190613260565b6040518091039020846001600160a01b0316336001600160a01b03166000805160206135fc8339815191526040516108bb9060208082526015908201527446756e64732073656e7420746f2068756e7465722160581b604082015260600190565b60405180910390a4600460ca60008733886040516020016108de939291906131c8565b60408051601f19818403018152918152815160209283012083529082019290925201600020805460ff1916600183600481111561091d5761091d613048565b0217905550610a08565b600081600481111561093b5761093b613048565b1480156109485750600083115b156109955760405162461bcd60e51b815260206004820181905260248201527f48756e746572206861736e2774207375626d697474656420776f726b207965746044820152606401610602565b60028160048111156109a9576109a9613048565b14806109c6575060038160048111156109c4576109c4613048565b145b15610a085760405162461bcd60e51b8152602060048201526012602482015271109bdd5b9d1e481a5cc8191a5cdc1d5d195960721b6044820152606401610602565b5050505050565b6001600160a01b037f0000000000000000000000000000000000000000000000000000000000000000163003610a575760405162461bcd60e51b81526004016106029061327c565b7f00000000000000000000000000000000000000000000000000000000000000006001600160a01b0316610aa060008051602061361c833981519152546001600160a01b031690565b6001600160a01b031614610ac65760405162461bcd60e51b8152600401610602906132c8565b610acf8161250d565b60408051600080825260208201909252610aeb91839190612515565b50565b6001600160a01b037f0000000000000000000000000000000000000000000000000000000000000000163003610b365760405162461bcd60e51b81526004016106029061327c565b7f00000000000000000000000000000000000000000000000000000000000000006001600160a01b0316610b7f60008051602061361c833981519152546001600160a01b031690565b6001600160a01b031614610ba55760405162461bcd60e51b8152600401610602906132c8565b610bae8261250d565b610bba82826001612515565b5050565b6000306001600160a01b037f00000000000000000000000000000000000000000000000000000000000000001614610c5e5760405162461bcd60e51b815260206004820152603860248201527f555550535570677261646561626c653a206d757374206e6f742062652063616c60448201527f6c6564207468726f7567682064656c656761746563616c6c00000000000000006064820152608401610602565b5060008051602061361c83398151915290565b600160ca6000848433604051602001610c8c939291906131c8565b60408051601f198184030181529181528151602092830120835290820192909252016000205460ff166004811115610cc657610cc6613048565b14610d085760405162461bcd60e51b815260206004820152601260248201527115dbdc9ac81b9bdd0814dd589b5a5d1d195960721b6044820152606401610602565b4260cc6000848433604051602001610d22939291906131c8565b604051602081830303815290604052805190602001208152602001908152602001600020541115610d955760405162461bcd60e51b815260206004820181905260248201527f43726561746f722063616e207374696c6c20706179206f7220646973707574656044820152606401610602565b600060c96000848433604051602001610db0939291906131c8565b6040516020818303038152906040528051906020012081526020019081526020016000205490508060c96000858533604051602001610df1939291906131c8565b6040516020818303038152906040528051906020012081526020019081526020016000206000828254610e24919061321f565b92505081905550600060cd6000858533604051602001610e46939291906131c8565b60408051601f19818403018152918152815160209283012083529082019290925201600020546001600160a01b031690508015610e9657610e916001600160a01b03821633846124a5565b610f00565b604051600090339084908381818185875af1925050503d8060008114610ed8576040519150601f19603f3d011682016040523d82523d6000602084013e610edd565b606091505b5050905080610efe5760405162461bcd60e51b815260040161060290613232565b505b83604051610f0e9190613260565b6040518091039020336001600160a01b0316846001600160a01b03167f3d3e6b9b452dfac5b1ec55216e1f4ad64bcff404fc6b256e98d3645e22949871604051610f89906020808252601b908201527f46756e647320666f7263652073656e7420746f2068756e746572210000000000604082015260600190565b60405180910390a4600460ca6000868633604051602001610fac939291906131c8565b60408051601f19818403018152918152815160209283012083529082019290925201600020805460ff19166001836004811115610feb57610feb613048565b021790555050505050565b60c9600083833360405160200161100f939291906131c8565b604051602081830303815290604052805190602001208152602001908152602001600020546000036110785760405162461bcd60e51b8152602060048201526012602482015271119d5b991cc81b9bdd08195cd8dc9bddd95960721b6044820152606401610602565b600060ca6000848433604051602001611093939291906131c8565b60408051601f198184030181529181528151602092830120835290820192909252016000205460ff1660048111156110cd576110cd613048565b146111135760405162461bcd60e51b815260206004820152601660248201527515dbdc9ac8185b1c9958591e481cdd589b5a5d1d195960521b6044820152606401610602565b600160ca600084843360405160200161112e939291906131c8565b60408051601f19818403018152918152815160209283012083529082019290925201600020805460ff1916600183600481111561116d5761116d613048565b021790555061117f4262127500613314565b60cc6000848433604051602001611198939291906131c8565b60405160208183030381529060405280519060200120815260200190815260200160002081905550816040516111ce9190613260565b6040518091039020336001600160a01b0316826001600160a01b03167f68a67c1cdac393ac88c3132d0e126d77a2b494fd4a9d2046d3b9999cb2ad7801604051611236906020808252600a90820152695375626d69747465642160b01b604082015260600190565b60405180910390a45050565b600060ca600087338860405160200161125d939291906131c8565b60408051601f198184030181529181528151602092830120835290820192909252016000205460ff169050600181600481111561129c5761129c613048565b036112e95760405162461bcd60e51b815260206004820152601c60248201527f43726561746f72206861736e277420646973707574656420776f726b000000006044820152606401610602565b60048160048111156112fd576112fd613048565b0361134a5760405162461bcd60e51b815260206004820152601960248201527f426f756e747920686173206265656e207061796564206f7574000000000000006044820152606401610602565b60ce54604051631448155560e21b81526000916001600160a01b0316906351205554906113959030906e5945535f4f525f4e4f5f515545525960881b908a908a908a906004016133f4565b6020604051808303816000875af11580156113b4573d6000803e3d6000fd5b505050506040513d601f19601f820116820180604052508101906113d8919061343c565b9050600060c9600089338a6040516020016113f5939291906131c8565b604051602081830303815290604052805190602001208152602001908152602001600020549050600060cd60008a338b604051602001611437939291906131c8565b60408051601f19818403018152918152815160209283012083529082019290925201600020546001600160a01b03169050600484600481111561147c5761147c613048565b141580156114b65750600583600681111561149957611499613048565b14806114b6575060038360068111156114b4576114b4613048565b145b15611aae5760ce5460405163b730539f60e01b81526000916001600160a01b03169063b730539f906115069030906e5945535f4f525f4e4f5f515545525960881b908d908d908d906004016133f4565b60408051808303816000875af1158015611524573d6000803e3d6000fd5b505050506040513d601f19601f82011682018060405250810190611548919061345d565b915050806000036116bb578260c960008c338d60405160200161156d939291906131c8565b60405160208183030381529060405280519060200120815260200190815260200160002060008282546115a0919061321f565b90915550506001600160a01b038216156115cd576115c86001600160a01b03831633856124a5565b611637565b604051600090339085908381818185875af1925050503d806000811461160f576040519150601f19603f3d011682016040523d82523d6000602084013e611614565b606091505b50509050806116355760405162461bcd60e51b815260040161060290613232565b505b896040516116459190613260565b6040518091039020896001600160a01b0316336001600160a01b03166000805160206135fc8339815191526040516116ae906020808252601b908201527f46756e64732073656e74206261636b20746f2063726561746f72210000000000604082015260600190565b60405180910390a4611a49565b80600103611821578260c960008c338d6040516020016116dd939291906131c8565b6040516020818303038152906040528051906020012081526020019081526020016000206000828254611710919061321f565b90915550506001600160a01b0382161561173d576117386001600160a01b0383168a856124a5565b6117b2565b6000896001600160a01b03168460405160006040518083038185875af1925050503d806000811461178a576040519150601f19603f3d011682016040523d82523d6000602084013e61178f565b606091505b50509050806117b05760405162461bcd60e51b815260040161060290613232565b505b896040516117c09190613260565b6040518091039020896001600160a01b0316336001600160a01b03166000805160206135fc8339815191526040516116ae9060208082526015908201527446756e64732073656e7420746f2068756e7465722160581b604082015260600190565b80600203611a49578260c960008c338d604051602001611843939291906131c8565b6040516020818303038152906040528051906020012081526020019081526020016000206000828254611876919061321f565b90915550506001600160a01b038216156118be576118aa89611899600286613481565b6001600160a01b03851691906124a5565b6118b933611899600286613481565b6119aa565b60006001600160a01b038a166118d5600286613481565b604051600081818185875af1925050503d8060008114611911576040519150601f19603f3d011682016040523d82523d6000602084013e611916565b606091505b50509050806119375760405162461bcd60e51b815260040161060290613232565b600033611945600287613481565b604051600081818185875af1925050503d8060008114611981576040519150601f19603f3d011682016040523d82523d6000602084013e611986565b606091505b50509050806119a75760405162461bcd60e51b815260040161060290613232565b50505b896040516119b89190613260565b6040518091039020896001600160a01b0316336001600160a01b03166000805160206135fc833981519152604051611a409060208082526036908201527f48616c66206f662066756e64732073656e74206261636b20746f2063726561746040820152756f7220616e64207468656e20746f2068756e7465722160501b606082015260800190565b60405180910390a45b600460ca60008c338d604051602001611a64939291906131c8565b60408051601f19818403018152918152815160209283012083529082019290925201600020805460ff19166001836004811115611aa357611aa3613048565b021790555050611b3e565b6004846004811115611ac257611ac2613048565b14158015611afc57506002836006811115611adf57611adf613048565b1480611afc57506004836006811115611afa57611afa613048565b145b15611b3e5760405162461bcd60e51b815260206004820152601260248201527144697370757465207374696c6c206c69766560701b6044820152606401610602565b505050505050505050565b611b51612680565b611b5b60006126da565b565b600054610100900460ff1615808015611b7d5750600054600160ff909116105b80611b975750303b158015611b97575060005460ff166001145b611bfa5760405162461bcd60e51b815260206004820152602e60248201527f496e697469616c697a61626c653a20636f6e747261637420697320616c72656160448201526d191e481a5b9a5d1a585b1a5e995960921b6064820152608401610602565b6000805460ff191660011790558015611c1d576000805461ff0019166101001790555b611c2561272c565b611c2d61275b565b8015610aeb576000805461ff0019169055604051600181527f7f26b83ff96e1f2b6a682f133852f6798a09c465da95921460cefb38474024989060200160405180910390a150565b6000600260ca6000888833604051602001611c92939291906131c8565b60408051601f198184030181529181528151602092830120835290820192909252016000205460ff166004811115611ccc57611ccc613048565b14611d195760405162461bcd60e51b815260206004820152601f60248201527f426f756e74792063726561746f7220686173206e6f74206469737075746564006044820152606401610602565b611d4a333084610120015161015e611d319190613314565b60408601516001600160a01b0316929190601018612782565b60ce54610120830151611d85916001600160a01b031690611d6d9061015e613314565b60408501516001600160a01b031691906010186127c0565b60ce5460405163139c641960e31b81526000916001600160a01b031690639ce320c890611dd2906e5945535f4f525f4e4f5f515545525960881b90899089908990339030906004016134a3565b6020604051808303816000875af1158015611df1573d6000803e3d6000fd5b505050506040513d601f19601f82011682018060405250810190611e159190613500565b9050600360ca6000898933604051602001611e32939291906131c8565b60408051601f19818403018152918152815160209283012083529082019290925201600020805460ff19166001836004811115611e7157611e71613048565b021790555086604051611e849190613260565b6040518091039020336001600160a01b0316876001600160a01b03167f3f7182f4231b269a10d1e02d72f7c47f5492854e8d58363b87dc09538a575bcf604051611ef7906020808252601590820152744469737075746520526573706f6e64656420546f2160581b604082015260600190565b60405180910390a49695505050505050565b6000600160ca600089338a604051602001611f26939291906131c8565b60408051601f198184030181529181528151602092830120835290820192909252016000205460ff166004811115611f6057611f60613048565b14611fa25760405162461bcd60e51b815260206004820152601260248201527115dbdc9ac81b9bdd0814dd589b5a5d1d195960721b6044820152606401610602565b82611fc93330611fb48861015e613314565b6001600160a01b038716929190601018612782565b611fed86611fd98761015e613314565b6001600160a01b03861691906010186127c0565b60ce80546001600160a01b0319166001600160a01b03881690811790915560405163579aae8f60e11b81526000919063af355d1e90612055906e5945535f4f525f4e4f5f515545525960881b90429087908a9088908e9062093a809033908490600401613519565b6020604051808303816000875af1158015612074573d6000803e3d6000fd5b505050506040513d601f19601f820116820180604052508101906120989190613500565b9050600260ca60008b338c6040516020016120b5939291906131c8565b60408051601f19818403018152918152815160209283012083529082019290925201600020805460ff191660018360048111156120f4576120f4613048565b0217905550886040516121079190613260565b604080519182900382204263ffffffff168352602083018290526009838301526844697370757465642160b81b6060840152905190916001600160a01b038b169133917f3178438e5e76b4e0fbbedfdb783349111bd0b217fc639b930dd3467546f828b4919081900360800190a49150505b9695505050505050565b60c9600086338760405160200161219c939291906131c8565b604051602081830303815290604052805190602001208152602001908152602001600020546000146122095760405162461bcd60e51b8152602060048201526016602482015275119d5b991cc8185b1c9958591e48195cd8dc9bddd95960521b6044820152606401610602565b3415612256573460c96000873388604051602001612229939291906131c8565b60405160208183030381529060405280519060200120815260200190815260200160002081905550612360565b600081116122a65760405162461bcd60e51b815260206004820152601760248201527f416d6f756e74206d757374206265206e6f6e2d7a65726f0000000000000000006044820152606401610602565b6122bb6001600160a01b038316333084612782565b8060c960008733886040516020016122d5939291906131c8565b604051602081830303815290604052805190602001208152602001908152602001600020819055508160cd6000873388604051602001612317939291906131c8565b60405160208183030381529060405280519060200120815260200190815260200160002060006101000a8154816001600160a01b0302191690836001600160a01b031602179055505b61236a8342613314565b60cb6000873388604051602001612383939291906131c8565b60405160208183030381529060405280519060200120815260200190815260200160002081905550846040516123b99190613260565b6040518091039020846001600160a01b0316336001600160a01b03167fd1e07ed273f3f8baf4d06b102596f3d355cb8d1f264f85fade4e9708b67ee85860405161242090602080825260099082015268457363726f7765642160b81b604082015260600190565b60405180910390a45050505050565b612437612680565b6001600160a01b03811661249c5760405162461bcd60e51b815260206004820152602660248201527f4f776e61626c653a206e6577206f776e657220697320746865207a65726f206160448201526564647265737360d01b6064820152608401610602565b610aeb816126da565b6040516001600160a01b03831660248201526044810182905261250890849063a9059cbb60e01b906064015b60408051601f198184030181529190526020810180516001600160e01b03166001600160e01b031990931692909217909152612872565b505050565b610aeb612680565b7f4910fdfa16fed3260ed0e7147f7cc6da11a60208b5b9406d12a635614ffd91435460ff16156125485761250883612944565b826001600160a01b03166352d1902d6040518163ffffffff1660e01b8152600401602060405180830381865afa9250505080156125a2575060408051601f3d908101601f1916820190925261259f91810190613500565b60015b6126055760405162461bcd60e51b815260206004820152602e60248201527f45524331393637557067726164653a206e657720696d706c656d656e7461746960448201526d6f6e206973206e6f74205555505360901b6064820152608401610602565b60008051602061361c83398151915281146126745760405162461bcd60e51b815260206004820152602960248201527f45524331393637557067726164653a20756e737570706f727465642070726f786044820152681a58589b195555525160ba1b6064820152608401610602565b506125088383836129e0565b6033546001600160a01b03163314611b5b5760405162461bcd60e51b815260206004820181905260248201527f4f776e61626c653a2063616c6c6572206973206e6f7420746865206f776e65726044820152606401610602565b603380546001600160a01b038381166001600160a01b0319831681179093556040519116919082907f8be0079c531659141344cd1fd0a4f28419497f9722a3daafe3b4186f6b6457e090600090a35050565b600054610100900460ff166127535760405162461bcd60e51b815260040161060290613580565b611b5b612a05565b600054610100900460ff16611b5b5760405162461bcd60e51b815260040161060290613580565b6040516001600160a01b03808516602483015283166044820152606481018290526127ba9085906323b872dd60e01b906084016124d1565b50505050565b604051636eb1769f60e11b81523060048201526001600160a01b038381166024830152600091839186169063dd62ed3e90604401602060405180830381865afa158015612811573d6000803e3d6000fd5b505050506040513d601f19601f820116820180604052508101906128359190613500565b61283f9190613314565b6040516001600160a01b0385166024820152604481018290529091506127ba90859063095ea7b360e01b906064016124d1565b60006128c7826040518060400160405280602081526020017f5361666545524332303a206c6f772d6c6576656c2063616c6c206661696c6564815250856001600160a01b0316612a359092919063ffffffff16565b80519091501561250857808060200190518101906128e591906135cb565b6125085760405162461bcd60e51b815260206004820152602a60248201527f5361666545524332303a204552433230206f7065726174696f6e20646964206e6044820152691bdd081cdd58d8d9595960b21b6064820152608401610602565b6001600160a01b0381163b6129b15760405162461bcd60e51b815260206004820152602d60248201527f455243313936373a206e657720696d706c656d656e746174696f6e206973206e60448201526c1bdd08184818dbdb9d1c9858dd609a1b6064820152608401610602565b60008051602061361c83398151915280546001600160a01b0319166001600160a01b0392909216919091179055565b6129e983612a4e565b6000825111806129f65750805b15612508576127ba8383612a8e565b600054610100900460ff16612a2c5760405162461bcd60e51b815260040161060290613580565b611b5b336126da565b6060612a448484600085612b84565b90505b9392505050565b612a5781612944565b6040516001600160a01b038216907fbc7cd75a20ee27fd9adebab32041f755214dbc6bffa90cc0225b39da2e5c2d3b90600090a250565b60606001600160a01b0383163b612af65760405162461bcd60e51b815260206004820152602660248201527f416464726573733a2064656c65676174652063616c6c20746f206e6f6e2d636f6044820152651b9d1c9858dd60d21b6064820152608401610602565b600080846001600160a01b031684604051612b119190613260565b600060405180830381855af49150503d8060008114612b4c576040519150601f19603f3d011682016040523d82523d6000602084013e612b51565b606091505b5091509150612b79828260405180606001604052806027815260200161363c60279139612c61565b925050505b92915050565b606082471015612be55760405162461bcd60e51b815260206004820152602660248201527f416464726573733a20696e73756666696369656e742062616c616e636520666f6044820152651c8818d85b1b60d21b6064820152608401610602565b600080866001600160a01b03168587604051612c019190613260565b60006040518083038185875af1925050503d8060008114612c3e576040519150601f19603f3d011682016040523d82523d6000602084013e612c43565b606091505b5091509150612c5487838387612c7a565b925050505b949350505050565b60608315612c70575081612a47565b612a478383612cef565b60608315612ce9578251600003612ce2576001600160a01b0385163b612ce25760405162461bcd60e51b815260206004820152601d60248201527f416464726573733a2063616c6c20746f206e6f6e2d636f6e74726163740000006044820152606401610602565b5081612c59565b612c5983835b815115612cff5781518083602001fd5b8060405162461bcd60e51b815260040161060291906135e8565b634e487b7160e01b600052604160045260246000fd5b604051610160810167ffffffffffffffff81118282101715612d5357612d53612d19565b60405290565b600082601f830112612d6a57600080fd5b813567ffffffffffffffff80821115612d8557612d85612d19565b604051601f8301601f19908116603f01168101908282118183101715612dad57612dad612d19565b81604052838152866020858801011115612dc657600080fd5b836020870160208301376000602085830101528094505050505092915050565b6001600160a01b0381168114610aeb57600080fd5b8035612e0681612de6565b919050565b60008060408385031215612e1e57600080fd5b823567ffffffffffffffff811115612e3557600080fd5b612e4185828601612d59565b9250506020830135612e5281612de6565b809150509250929050565b600060208284031215612e6f57600080fd5b8135612a4781612de6565b60008060408385031215612e8d57600080fd5b8235612e9881612de6565b9150602083013567ffffffffffffffff811115612eb457600080fd5b612ec085828601612d59565b9150509250929050565b600060208284031215612edc57600080fd5b5035919050565b8015158114610aeb57600080fd5b8035612e0681612ee3565b60008060008060008587036101e0811215612f1657600080fd5b863567ffffffffffffffff80821115612f2e57600080fd5b612f3a8a838b01612d59565b975060208901359150612f4c82612de6565b90955060408801359063ffffffff82168214612f6757600080fd5b90945060608801359080821115612f7d57600080fd5b50612f8a89828a01612d59565b93505061016080607f1983011215612fa157600080fd5b612fa9612d2f565b9150612fb760808901612dfb565b8252612fc560a08901612dfb565b6020830152612fd660c08901612dfb565b6040830152612fe760e08901612ef1565b6060830152610100888101356080840152610120808a013560a0850152610140808b013560c0860152928a013560e08501526101808a0135918401919091526101a0890135908301526101c090970135968101969096525092959194509290565b634e487b7160e01b600052602160045260246000fd5b602081016005831061308057634e487b7160e01b600052602160045260246000fd5b91905290565b60008060008060008060c0878903121561309f57600080fd5b863567ffffffffffffffff808211156130b757600080fd5b6130c38a838b01612d59565b9750602089013591506130d582612de6565b9095506040880135906130e782612de6565b909450606088013593506080880135908082111561310457600080fd5b5061311189828a01612d59565b92505060a087013561312281612de6565b809150509295509295509295565b600080600080600060a0868803121561314857600080fd5b853567ffffffffffffffff81111561315f57600080fd5b61316b88828901612d59565b955050602086013561317c81612de6565b935060408601359250606086013561319381612de6565b949793965091946080013592915050565b60005b838110156131bf5781810151838201526020016131a7565b50506000910152565b600084516131da8184602089016131a4565b6bffffffffffffffffffffffff19606095861b8116919093019081529290931b16601482015260280192915050565b634e487b7160e01b600052601160045260246000fd5b81810381811115612b7e57612b7e613209565b6020808252601490820152732330b4b632b2103a379039b2b7321022ba3432b960611b604082015260600190565b600082516132728184602087016131a4565b9190910192915050565b6020808252602c908201527f46756e6374696f6e206d7573742062652063616c6c6564207468726f7567682060408201526b19195b1959d85d1958d85b1b60a21b606082015260800190565b6020808252602c908201527f46756e6374696f6e206d7573742062652063616c6c6564207468726f7567682060408201526b6163746976652070726f787960a01b606082015260800190565b80820180821115612b7e57612b7e613209565b6000815180845261333f8160208601602086016131a4565b601f01601f19169290920160200192915050565b80516001600160a01b03168252602081015161337a60208401826001600160a01b03169052565b50604081015161339560408401826001600160a01b03169052565b5060608101516133a9606084018215159052565b506080818101519083015260a0808201519083015260c0808201519083015260e080820151908301526101008082015190830152610120808201519083015261014090810151910152565b6001600160a01b03861681526020810185905263ffffffff841660408201526101e06060820181905260009061342c83820186613327565b9150506121796080830184613353565b60006020828403121561344e57600080fd5b815160078110612a4757600080fd5b6000806040838503121561347057600080fd5b505080516020909101519092909150565b60008261349e57634e487b7160e01b600052601260045260246000fd5b500490565b600061020088835263ffffffff881660208401528060408401526134c981840188613327565b9150506134d96060830186613353565b6001600160a01b039384166101c0830152919092166101e090920191909152949350505050565b60006020828403121561351257600080fd5b5051919050565b60006101208b835263ffffffff8b16602084015280604084015261353f8184018b613327565b6001600160a01b03998a1660608501526080840198909852505060a081019490945260c084019290925290931660e082015261010001919091529392505050565b6020808252602b908201527f496e697469616c697a61626c653a20636f6e7472616374206973206e6f74206960408201526a6e697469616c697a696e6760a81b606082015260800190565b6000602082840312156135dd57600080fd5b8151612a4781612ee3565b602081526000612a47602083018461332756fe792ad3967c4edb1c07d26a2bb911a5dce93db0ec891f4bb69c55f2721bb888c2360894a13ba1a3210667c828492db98dca3e2076cc3735a920a3ca505d382bbc416464726573733a206c6f772d6c6576656c2064656c65676174652063616c6c206661696c6564a2646970667358221220b525c4fb3cc361b2bdf5f5c951ddc1be597ac458e84b0d68f6b5227d647d89e364736f6c63430008110033",
    "linkReferences": {}
  },
  "methodIdentifiers": {
    "bountyAmounts(bytes32)": "771eb857",
    "bountyToken(bytes32)": "7b8e291e",
    "escrow(string,address,uint256,address,uint256)": "c5660dbf",
    "expiration(bytes32)": "56406fa5",
    "forceHunterPayout(string,address)": "63be095c",
    "hunterDisputeResponse(string,address,uint32,bytes,(address,address,address,bool,int256,int256,uint256,uint256,uint256,uint256,uint256))": "817f6c32",
    "initialize()": "8129fc1c",
    "initiateDispute(string,address,address,uint256,string,address)": "9e2172b5",
    "oracleInterface()": "28ebaa6f",
    "owner()": "8da5cb5b",
    "payout(string,address)": "33357018",
    "payoutExpiration(bytes32)": "d911392d",
    "payoutIfDispute(string,address,uint32,bytes,(address,address,address,bool,int256,int256,uint256,uint256,uint256,uint256,uint256))": "709ff50e",
    "progress(bytes32)": "7aebd2a8",
    "proxiableUUID()": "52d1902d",
    "renounceOwnership()": "715018a6",
    "submit(string,address)": "696b9aa7",
    "transferOwnership(address)": "f2fde38b",
    "upgradeTo(address)": "3659cfe6",
    "upgradeToAndCall(address,bytes)": "4f1ef286"
  },
  "id": 59
}