{
  "abi": [
    {
      "inputs": [],
      "stateMutability": "nonpayable",
      "type": "constructor"
    },
    {
      "anonymous": false,
      "inputs": [
        {
          "indexed": false,
          "internalType": "address",
          "name": "previousAdmin",
          "type": "address"
        },
        {
          "indexed": false,
          "internalType": "address",
          "name": "newAdmin",
          "type": "address"
        }
      ],
      "name": "AdminChanged",
      "type": "event"
    },
    {
      "anonymous": false,
      "inputs": [
        {
          "indexed": true,
          "internalType": "address",
          "name": "beacon",
          "type": "address"
        }
      ],
      "name": "BeaconUpgraded",
      "type": "event"
    },
    {
      "anonymous": false,
      "inputs": [
        {
          "indexed": true,
          "internalType": "address",
          "name": "creator",
          "type": "address"
        },
        {
          "indexed": true,
          "internalType": "address",
          "name": "hunter",
          "type": "address"
        },
        {
          "indexed": true,
          "internalType": "string",
          "name": "bountyAppId",
          "type": "string"
        },
        {
          "indexed": false,
          "internalType": "string",
          "name": "message",
          "type": "string"
        }
      ],
      "name": "DisputeRespondedTo",
      "type": "event"
    },
    {
      "anonymous": false,
      "inputs": [
        {
          "indexed": true,
          "internalType": "address",
          "name": "creator",
          "type": "address"
        },
        {
          "indexed": true,
          "internalType": "address",
          "name": "hunter",
          "type": "address"
        },
        {
          "indexed": true,
          "internalType": "string",
          "name": "bountyAppId",
          "type": "string"
        },
        {
          "indexed": false,
          "internalType": "uint32",
          "name": "timestamp",
          "type": "uint32"
        },
        {
          "indexed": false,
          "internalType": "string",
          "name": "message",
          "type": "string"
        }
      ],
      "name": "Disputed",
      "type": "event"
    },
    {
      "anonymous": false,
      "inputs": [
        {
          "indexed": true,
          "internalType": "address",
          "name": "creator",
          "type": "address"
        },
        {
          "indexed": true,
          "internalType": "address",
          "name": "hunter",
          "type": "address"
        },
        {
          "indexed": true,
          "internalType": "string",
          "name": "bountyAppId",
          "type": "string"
        },
        {
          "indexed": false,
          "internalType": "string",
          "name": "message",
          "type": "string"
        }
      ],
      "name": "Escrowed",
      "type": "event"
    },
    {
      "anonymous": false,
      "inputs": [
        {
          "indexed": true,
          "internalType": "address",
          "name": "creator",
          "type": "address"
        },
        {
          "indexed": true,
          "internalType": "address",
          "name": "hunter",
          "type": "address"
        },
        {
          "indexed": true,
          "internalType": "string",
          "name": "bountyAppId",
          "type": "string"
        },
        {
          "indexed": false,
          "internalType": "string",
          "name": "message",
          "type": "string"
        }
      ],
      "name": "FundsForceSentToHunter",
      "type": "event"
    },
    {
      "anonymous": false,
      "inputs": [
        {
          "indexed": true,
          "internalType": "address",
          "name": "creator",
          "type": "address"
        },
        {
          "indexed": true,
          "internalType": "address",
          "name": "hunter",
          "type": "address"
        },
        {
          "indexed": true,
          "internalType": "string",
          "name": "bountyAppId",
          "type": "string"
        },
        {
          "indexed": false,
          "internalType": "string",
          "name": "message",
          "type": "string"
        }
      ],
      "name": "FundsSent",
      "type": "event"
    },
    {
      "anonymous": false,
      "inputs": [
        {
          "indexed": true,
          "internalType": "address",
          "name": "creator",
          "type": "address"
        },
        {
          "indexed": true,
          "internalType": "address",
          "name": "hunter",
          "type": "address"
        },
        {
          "indexed": true,
          "internalType": "string",
          "name": "bountyAppId",
          "type": "string"
        },
        {
          "indexed": false,
          "internalType": "string",
          "name": "message",
          "type": "string"
        }
      ],
      "name": "FundsWithdrawnToCreator",
      "type": "event"
    },
    {
      "anonymous": false,
      "inputs": [
        {
          "indexed": false,
          "internalType": "uint8",
          "name": "version",
          "type": "uint8"
        }
      ],
      "name": "Initialized",
      "type": "event"
    },
    {
      "anonymous": false,
      "inputs": [
        {
          "indexed": true,
          "internalType": "address",
          "name": "previousOwner",
          "type": "address"
        },
        {
          "indexed": true,
          "internalType": "address",
          "name": "newOwner",
          "type": "address"
        }
      ],
      "name": "OwnershipTransferred",
      "type": "event"
    },
    {
      "anonymous": false,
      "inputs": [
        {
          "indexed": true,
          "internalType": "address",
          "name": "creator",
          "type": "address"
        },
        {
          "indexed": true,
          "internalType": "address",
          "name": "hunter",
          "type": "address"
        },
        {
          "indexed": true,
          "internalType": "string",
          "name": "bountyAppId",
          "type": "string"
        },
        {
          "indexed": false,
          "internalType": "address",
          "name": "winner",
          "type": "address"
        },
        {
          "indexed": false,
          "internalType": "string",
          "name": "message",
          "type": "string"
        }
      ],
      "name": "Resolved",
      "type": "event"
    },
    {
      "anonymous": false,
      "inputs": [
        {
          "indexed": true,
          "internalType": "address",
          "name": "creator",
          "type": "address"
        },
        {
          "indexed": true,
          "internalType": "address",
          "name": "hunter",
          "type": "address"
        },
        {
          "indexed": true,
          "internalType": "string",
          "name": "bountyAppId",
          "type": "string"
        },
        {
          "indexed": false,
          "internalType": "string",
          "name": "message",
          "type": "string"
        }
      ],
      "name": "Submitted",
      "type": "event"
    },
    {
      "anonymous": false,
      "inputs": [
        {
          "indexed": true,
          "internalType": "address",
          "name": "implementation",
          "type": "address"
        }
      ],
      "name": "Upgraded",
      "type": "event"
    },
    {
      "inputs": [],
      "name": "ORACLE_ADDRESS",
      "outputs": [
        {
          "internalType": "address",
          "name": "",
          "type": "address"
        }
      ],
      "stateMutability": "view",
      "type": "function"
    },
    {
      "inputs": [
        {
          "internalType": "bytes32",
          "name": "",
          "type": "bytes32"
        }
      ],
      "name": "bountyAmounts",
      "outputs": [
        {
          "internalType": "uint256",
          "name": "",
          "type": "uint256"
        }
      ],
      "stateMutability": "view",
      "type": "function"
    },
    {
      "inputs": [
        {
          "internalType": "bytes32",
          "name": "",
          "type": "bytes32"
        }
      ],
      "name": "bountyToken",
      "outputs": [
        {
          "internalType": "address",
          "name": "",
          "type": "address"
        }
      ],
      "stateMutability": "view",
      "type": "function"
    },
    {
      "inputs": [
        {
          "internalType": "string",
          "name": "_bountyAppId",
          "type": "string"
        },
        {
          "internalType": "address",
          "name": "_hunter",
          "type": "address"
        },
        {
          "internalType": "uint256",
          "name": "_expiration",
          "type": "uint256"
        },
        {
          "internalType": "address",
          "name": "_token",
          "type": "address"
        },
        {
          "internalType": "uint256",
          "name": "_amount",
          "type": "uint256"
        }
      ],
      "name": "escrow",
      "outputs": [],
      "stateMutability": "payable",
      "type": "function"
    },
    {
      "inputs": [
        {
          "internalType": "bytes32",
          "name": "",
          "type": "bytes32"
        }
      ],
      "name": "expiration",
      "outputs": [
        {
          "internalType": "uint256",
          "name": "",
          "type": "uint256"
        }
      ],
      "stateMutability": "view",
      "type": "function"
    },
    {
      "inputs": [
        {
          "internalType": "string",
          "name": "_bountyAppId",
          "type": "string"
        },
        {
          "internalType": "address",
          "name": "_creator",
          "type": "address"
        }
      ],
      "name": "forceHunterPayout",
      "outputs": [],
      "stateMutability": "nonpayable",
      "type": "function"
    },
    {
      "inputs": [
        {
          "internalType": "string",
          "name": "_bountyAppId",
          "type": "string"
        },
        {
          "internalType": "address",
          "name": "_creator",
          "type": "address"
        },
        {
          "internalType": "uint32",
          "name": "_timestamp",
          "type": "uint32"
        },
        {
          "internalType": "bytes",
          "name": "_ancillaryData",
          "type": "bytes"
        },
        {
          "components": [
            {
              "internalType": "address",
              "name": "proposer",
              "type": "address"
            },
            {
              "internalType": "address",
              "name": "disputer",
              "type": "address"
            },
            {
              "internalType": "contract IERC20",
              "name": "currency",
              "type": "address"
            },
            {
              "internalType": "bool",
              "name": "settled",
              "type": "bool"
            },
            {
              "internalType": "int256",
              "name": "proposedPrice",
              "type": "int256"
            },
            {
              "internalType": "int256",
              "name": "resolvedPrice",
              "type": "int256"
            },
            {
              "internalType": "uint256",
              "name": "expirationTime",
              "type": "uint256"
            },
            {
              "internalType": "uint256",
              "name": "reward",
              "type": "uint256"
            },
            {
              "internalType": "uint256",
              "name": "finalFee",
              "type": "uint256"
            },
            {
              "internalType": "uint256",
              "name": "bond",
              "type": "uint256"
            },
            {
              "internalType": "uint256",
              "name": "customLiveness",
              "type": "uint256"
            }
          ],
          "internalType": "struct SkinnyOptimisticOracleInterface.Request",
          "name": "_request",
          "type": "tuple"
        }
      ],
      "name": "hunterDisputeResponse",
      "outputs": [
        {
          "internalType": "uint256",
          "name": "",
          "type": "uint256"
        }
      ],
      "stateMutability": "nonpayable",
      "type": "function"
    },
    {
      "inputs": [],
      "name": "initialize",
      "outputs": [],
      "stateMutability": "nonpayable",
      "type": "function"
    },
    {
      "inputs": [
        {
          "internalType": "string",
          "name": "_bountyAppId",
          "type": "string"
        },
        {
          "internalType": "address",
          "name": "_hunter",
          "type": "address"
        },
        {
          "internalType": "uint256",
          "name": "_bondAmt",
          "type": "uint256"
        },
        {
          "internalType": "string",
          "name": "_ancillaryData",
          "type": "string"
        },
        {
          "internalType": "contract IERC20",
          "name": "_currency",
          "type": "address"
        }
      ],
      "name": "initiateDispute",
      "outputs": [
        {
          "internalType": "uint256",
          "name": "",
          "type": "uint256"
        }
      ],
      "stateMutability": "nonpayable",
      "type": "function"
    },
    {
      "inputs": [],
      "name": "oracleInterface",
      "outputs": [
        {
          "internalType": "contract SkinnyOptimisticOracleInterface",
          "name": "",
          "type": "address"
        }
      ],
      "stateMutability": "view",
      "type": "function"
    },
    {
      "inputs": [],
      "name": "owner",
      "outputs": [
        {
          "internalType": "address",
          "name": "",
          "type": "address"
        }
      ],
      "stateMutability": "view",
      "type": "function"
    },
    {
      "inputs": [
        {
          "internalType": "string",
          "name": "_bountyAppId",
          "type": "string"
        },
        {
          "internalType": "address",
          "name": "_hunter",
          "type": "address"
        }
      ],
      "name": "payout",
      "outputs": [],
      "stateMutability": "nonpayable",
      "type": "function"
    },
    {
      "inputs": [
        {
          "internalType": "bytes32",
          "name": "",
          "type": "bytes32"
        }
      ],
      "name": "payoutExpiration",
      "outputs": [
        {
          "internalType": "uint256",
          "name": "",
          "type": "uint256"
        }
      ],
      "stateMutability": "view",
      "type": "function"
    },
    {
      "inputs": [
        {
          "internalType": "string",
          "name": "_bountyAppId",
          "type": "string"
        },
        {
          "internalType": "address",
          "name": "_creator",
          "type": "address"
        },
        {
          "internalType": "address",
          "name": "_hunter",
          "type": "address"
        },
        {
          "internalType": "uint32",
          "name": "_timestamp",
          "type": "uint32"
        },
        {
          "internalType": "bytes",
          "name": "_ancillaryData",
          "type": "bytes"
        },
        {
          "components": [
            {
              "internalType": "address",
              "name": "proposer",
              "type": "address"
            },
            {
              "internalType": "address",
              "name": "disputer",
              "type": "address"
            },
            {
              "internalType": "contract IERC20",
              "name": "currency",
              "type": "address"
            },
            {
              "internalType": "bool",
              "name": "settled",
              "type": "bool"
            },
            {
              "internalType": "int256",
              "name": "proposedPrice",
              "type": "int256"
            },
            {
              "internalType": "int256",
              "name": "resolvedPrice",
              "type": "int256"
            },
            {
              "internalType": "uint256",
              "name": "expirationTime",
              "type": "uint256"
            },
            {
              "internalType": "uint256",
              "name": "reward",
              "type": "uint256"
            },
            {
              "internalType": "uint256",
              "name": "finalFee",
              "type": "uint256"
            },
            {
              "internalType": "uint256",
              "name": "bond",
              "type": "uint256"
            },
            {
              "internalType": "uint256",
              "name": "customLiveness",
              "type": "uint256"
            }
          ],
          "internalType": "struct SkinnyOptimisticOracleInterface.Request",
          "name": "_request",
          "type": "tuple"
        }
      ],
      "name": "payoutIfDispute",
      "outputs": [],
      "stateMutability": "nonpayable",
      "type": "function"
    },
    {
      "inputs": [
        {
          "internalType": "bytes32",
          "name": "",
          "type": "bytes32"
        }
      ],
      "name": "progress",
      "outputs": [
        {
          "internalType": "enum Escrow.Status",
          "name": "",
          "type": "uint8"
        }
      ],
      "stateMutability": "view",
      "type": "function"
    },
    {
      "inputs": [],
      "name": "proxiableUUID",
      "outputs": [
        {
          "internalType": "bytes32",
          "name": "",
          "type": "bytes32"
        }
      ],
      "stateMutability": "view",
      "type": "function"
    },
    {
      "inputs": [],
      "name": "renounceOwnership",
      "outputs": [],
      "stateMutability": "nonpayable",
      "type": "function"
    },
    {
      "inputs": [
        {
          "internalType": "string",
          "name": "_bountyAppId",
          "type": "string"
        },
        {
          "internalType": "address",
          "name": "_creator",
          "type": "address"
        }
      ],
      "name": "submit",
      "outputs": [],
      "stateMutability": "nonpayable",
      "type": "function"
    },
    {
      "inputs": [
        {
          "internalType": "address",
          "name": "newOwner",
          "type": "address"
        }
      ],
      "name": "transferOwnership",
      "outputs": [],
      "stateMutability": "nonpayable",
      "type": "function"
    },
    {
      "inputs": [
        {
          "internalType": "address",
          "name": "newImplementation",
          "type": "address"
        }
      ],
      "name": "upgradeTo",
      "outputs": [],
      "stateMutability": "nonpayable",
      "type": "function"
    },
    {
      "inputs": [
        {
          "internalType": "address",
          "name": "newImplementation",
          "type": "address"
        },
        {
          "internalType": "bytes",
          "name": "data",
          "type": "bytes"
        }
      ],
      "name": "upgradeToAndCall",
      "outputs": [],
      "stateMutability": "payable",
      "type": "function"
    }
  ],
  "bytecode": {
    "object": "0x60a0604052306080523480156200001557600080fd5b506200002062000026565b620000e8565b600054610100900460ff1615620000935760405162461bcd60e51b815260206004820152602760248201527f496e697469616c697a61626c653a20636f6e747261637420697320696e697469604482015266616c697a696e6760c81b606482015260840160405180910390fd5b60005460ff9081161015620000e6576000805460ff191660ff9081179091556040519081527f7f26b83ff96e1f2b6a682f133852f6798a09c465da95921460cefb38474024989060200160405180910390a15b565b6080516139c86200012060003960008181610a5f01528181610a9f01528181610b3e01528181610b7e0152610c0d01526139c86000f3fe60806040526004361061012a5760003560e01c80637aebd2a8116100ab578063a2c1e3e01161006f578063a2c1e3e01461035a578063b636ec551461037a578063c5660dbf1461039a578063d911392d146103ad578063f2fde38b146103da578063fcfc430c146103fa57600080fd5b80637aebd2a8146102945780637b8e291e146102d15780638129fc1c14610307578063817f6c321461031c5780638da5cb5b1461033c57600080fd5b806356406fa5116100f257806356406fa5146101e557806363be095c14610212578063696b9aa714610232578063715018a614610252578063771eb8571461026757600080fd5b806328ebaa6f1461012f578063333570181461016d5780633659cfe61461018f5780634f1ef286146101af57806352d1902d146101c2575b600080fd5b34801561013b57600080fd5b5061010054610150906001600160a01b031681565b6040516001600160a01b0390911681526020015b60405180910390f35b34801561017957600080fd5b5061018d610188366004613082565b610422565b005b34801561019b57600080fd5b5061018d6101aa3660046130d4565b610a55565b61018d6101bd3660046130f1565b610b34565b3480156101ce57600080fd5b506101d7610c00565b604051908152602001610164565b3480156101f157600080fd5b506101d7610200366004613141565b60fd6020526000908152604090205481565b34801561021e57600080fd5b5061018d61022d366004613082565b610cb3565b34801561023e57600080fd5b5061018d61024d366004613082565b611046565b34801561025e57600080fd5b5061018d6112a0565b34801561027357600080fd5b506101d7610282366004613141565b60fb6020526000908152604090205481565b3480156102a057600080fd5b506102c46102af366004613141565b60fc6020526000908152604090205460ff1681565b6040516101649190613170565b3480156102dd57600080fd5b506101506102ec366004613141565b60ff602052600090815260409020546001600160a01b031681565b34801561031357600080fd5b5061018d6112b4565b34801561032857600080fd5b506101d7610337366004613272565b6113cc565b34801561034857600080fd5b506033546001600160a01b0316610150565b34801561036657600080fd5b506101d761037536600461330f565b61167b565b34801561038657600080fd5b5061018d6103953660046133a6565b611922565b61018d6103a8366004613456565b61238f565b3480156103b957600080fd5b506101d76103c8366004613141565b60fe6020526000908152604090205481565b3480156103e657600080fd5b5061018d6103f53660046130d4565b61264d565b34801561040657600080fd5b506101507303a6a84cd762d9707a21605b548aaab891562aab81565b61042a6126c3565b600060fb6000843385604051602001610445939291906134ee565b604051602081830303815290604052805190602001208152602001908152602001600020549050600060ff6000853386604051602001610487939291906134ee565b60408051601f198184030181529181528151602092830120835290820192909252016000908120546001600160a01b0316915060fc60008633876040516020016104d3939291906134ee565b60408051601f198184030181529181528151602092830120835290820192909252016000205460ff16600481111561050d5761050d61315a565b14801561055757504260fd600086338760405160200161052f939291906134ee565b6040516020818303038152906040528051906020012081526020019081526020016000205411155b1561073a578160fb6000863387604051602001610576939291906134ee565b60405160208183030381529060405280519060200120815260200190815260200160002060008282546105a99190613545565b90915550506001600160a01b038116156105d6576105d16001600160a01b038216338461271c565b610649565b604051600090339084908381818185875af1925050503d8060008114610618576040519150601f19603f3d011682016040523d82523d6000602084013e61061d565b606091505b50509050806106475760405162461bcd60e51b815260040161063e90613558565b60405180910390fd5b505b836040516106579190613586565b6040518091039020836001600160a01b0316336001600160a01b03167fb9bdb7ed8146376064d748bca1cc3449acc3526943957d471adcc7485e2e73116040516106d2906020808252601b908201527f46756e64732077697468647261776e20746f2063726561746f72210000000000604082015260600190565b60405180910390a4600460fc60008633876040516020016106f5939291906134ee565b60408051601f19818403018152918152815160209283012083529082019290925201600020805460ff191660018360048111156107345761073461315a565b02179055505b600060fc6000863387604051602001610755939291906134ee565b60408051601f198184030181529181528151602092830120835290820192909252016000205460ff16905060018160048111156107945761079461315a565b03610963578260fb60008733886040516020016107b3939291906134ee565b60405160208183030381529060405280519060200120815260200190815260200160002060008282546107e69190613545565b90915550506001600160a01b038216156108135761080e6001600160a01b038316858561271c565b610888565b6000846001600160a01b03168460405160006040518083038185875af1925050503d8060008114610860576040519150601f19603f3d011682016040523d82523d6000602084013e610865565b606091505b50509050806108865760405162461bcd60e51b815260040161063e90613558565b505b846040516108969190613586565b6040518091039020846001600160a01b0316336001600160a01b031660008051602061392c8339815191526040516108f79060208082526015908201527446756e64732073656e7420746f2068756e7465722160581b604082015260600190565b60405180910390a4600460fc600087338860405160200161091a939291906134ee565b60408051601f19818403018152918152815160209283012083529082019290925201600020805460ff191660018360048111156109595761095961315a565b0217905550610a44565b60008160048111156109775761097761315a565b1480156109845750600083115b156109d15760405162461bcd60e51b815260206004820181905260248201527f48756e746572206861736e2774207375626d697474656420776f726b20796574604482015260640161063e565b60028160048111156109e5576109e561315a565b1480610a0257506003816004811115610a0057610a0061315a565b145b15610a445760405162461bcd60e51b8152602060048201526012602482015271109bdd5b9d1e481a5cc8191a5cdc1d5d195960721b604482015260640161063e565b505050610a51600160c955565b5050565b6001600160a01b037f0000000000000000000000000000000000000000000000000000000000000000163003610a9d5760405162461bcd60e51b815260040161063e906135a2565b7f00000000000000000000000000000000000000000000000000000000000000006001600160a01b0316610ae660008051602061394c833981519152546001600160a01b031690565b6001600160a01b031614610b0c5760405162461bcd60e51b815260040161063e906135ee565b610b1581612784565b60408051600080825260208201909252610b319183919061278c565b50565b6001600160a01b037f0000000000000000000000000000000000000000000000000000000000000000163003610b7c5760405162461bcd60e51b815260040161063e906135a2565b7f00000000000000000000000000000000000000000000000000000000000000006001600160a01b0316610bc560008051602061394c833981519152546001600160a01b031690565b6001600160a01b031614610beb5760405162461bcd60e51b815260040161063e906135ee565b610bf482612784565b610a518282600161278c565b6000306001600160a01b037f00000000000000000000000000000000000000000000000000000000000000001614610ca05760405162461bcd60e51b815260206004820152603860248201527f555550535570677261646561626c653a206d757374206e6f742062652063616c60448201527f6c6564207468726f7567682064656c656761746563616c6c0000000000000000606482015260840161063e565b5060008051602061394c83398151915290565b610cbb6126c3565b600160fc6000848433604051602001610cd6939291906134ee565b60408051601f198184030181529181528151602092830120835290820192909252016000205460ff166004811115610d1057610d1061315a565b14610d525760405162461bcd60e51b815260206004820152601260248201527115dbdc9ac81b9bdd0814dd589b5a5d1d195960721b604482015260640161063e565b4260fe6000848433604051602001610d6c939291906134ee565b604051602081830303815290604052805190602001208152602001908152602001600020541115610ddf5760405162461bcd60e51b815260206004820181905260248201527f43726561746f722063616e207374696c6c20706179206f722064697370757465604482015260640161063e565b600060fb6000848433604051602001610dfa939291906134ee565b6040516020818303038152906040528051906020012081526020019081526020016000205490508060fb6000858533604051602001610e3b939291906134ee565b6040516020818303038152906040528051906020012081526020019081526020016000206000828254610e6e9190613545565b92505081905550600060ff6000858533604051602001610e90939291906134ee565b60408051601f19818403018152918152815160209283012083529082019290925201600020546001600160a01b031690508015610ee057610edb6001600160a01b038216338461271c565b610f4a565b604051600090339084908381818185875af1925050503d8060008114610f22576040519150601f19603f3d011682016040523d82523d6000602084013e610f27565b606091505b5050905080610f485760405162461bcd60e51b815260040161063e90613558565b505b83604051610f589190613586565b6040518091039020336001600160a01b0316846001600160a01b03167f3d3e6b9b452dfac5b1ec55216e1f4ad64bcff404fc6b256e98d3645e22949871604051610fd3906020808252601b908201527f46756e647320666f7263652073656e7420746f2068756e746572210000000000604082015260600190565b60405180910390a4600460fc6000868633604051602001610ff6939291906134ee565b60408051601f19818403018152918152815160209283012083529082019290925201600020805460ff191660018360048111156110355761103561315a565b02179055505050610a51600160c955565b61104e6126c3565b60fb6000838333604051602001611067939291906134ee565b604051602081830303815290604052805190602001208152602001908152602001600020546000036110d05760405162461bcd60e51b8152602060048201526012602482015271119d5b991cc81b9bdd08195cd8dc9bddd95960721b604482015260640161063e565b600060fc60008484336040516020016110eb939291906134ee565b60408051601f198184030181529181528151602092830120835290820192909252016000205460ff1660048111156111255761112561315a565b1461116b5760405162461bcd60e51b815260206004820152601660248201527515dbdc9ac8185b1c9958591e481cdd589b5a5d1d195960521b604482015260640161063e565b600160fc6000848433604051602001611186939291906134ee565b60408051601f19818403018152918152815160209283012083529082019290925201600020805460ff191660018360048111156111c5576111c561315a565b02179055506111d7426212750061363a565b60fe60008484336040516020016111f0939291906134ee565b60405160208183030381529060405280519060200120815260200190815260200160002081905550816040516112269190613586565b6040518091039020336001600160a01b0316826001600160a01b03167f68a67c1cdac393ac88c3132d0e126d77a2b494fd4a9d2046d3b9999cb2ad780160405161128e906020808252600a90820152695375626d69747465642160b01b604082015260600190565b60405180910390a4610a51600160c955565b6112a86128f7565b6112b26000612951565b565b600054610100900460ff16158080156112d45750600054600160ff909116105b806112ee5750303b1580156112ee575060005460ff166001145b6113515760405162461bcd60e51b815260206004820152602e60248201527f496e697469616c697a61626c653a20636f6e747261637420697320616c72656160448201526d191e481a5b9a5d1a585b1a5e995960921b606482015260840161063e565b6000805460ff191660011790558015611374576000805461ff0019166101001790555b61137c6129a3565b6113846129d2565b8015610b31576000805461ff0019169055604051600181527f7f26b83ff96e1f2b6a682f133852f6798a09c465da95921460cefb38474024989060200160405180910390a150565b60006113d66126c3565b600260fc60008888336040516020016113f1939291906134ee565b60408051601f198184030181529181528151602092830120835290820192909252016000205460ff16600481111561142b5761142b61315a565b146114785760405162461bcd60e51b815260206004820152601f60248201527f426f756e74792063726561746f7220686173206e6f7420646973707574656400604482015260640161063e565b6114ac33308461012001516704db732547630000611496919061363a565b60408601516001600160a01b03169291906129f9565b610100546101208301516114eb916001600160a01b0316906114d6906704db73254763000061363a565b60408501516001600160a01b03169190612a37565b6101005460405163139c641960e31b81526000916001600160a01b031690639ce320c890611539906e5945535f4f525f4e4f5f515545525960881b908990899089903390309060040161371a565b6020604051808303816000875af1158015611558573d6000803e3d6000fd5b505050506040513d601f19601f8201168201806040525081019061157c9190613777565b9050600360fc6000898933604051602001611599939291906134ee565b60408051601f19818403018152918152815160209283012083529082019290925201600020805460ff191660018360048111156115d8576115d861315a565b0217905550866040516115eb9190613586565b6040518091039020336001600160a01b0316876001600160a01b03167f3f7182f4231b269a10d1e02d72f7c47f5492854e8d58363b87dc09538a575bcf60405161165e906020808252601590820152744469737075746520526573706f6e64656420546f2160581b604082015260600190565b60405180910390a49050611672600160c955565b95945050505050565b60006116856126c3565b600160fc60008833896040516020016116a0939291906134ee565b60408051601f198184030181529181528151602092830120835290820192909252016000205460ff1660048111156116da576116da61315a565b1461171c5760405162461bcd60e51b815260206004820152601260248201527115dbdc9ac81b9bdd0814dd589b5a5d1d195960721b604482015260640161063e565b826117463330611734886704db73254763000061363a565b6001600160a01b0387169291906129f9565b6117817303a6a84cd762d9707a21605b548aaab891562aab611770876704db73254763000061363a565b6001600160a01b0386169190612a37565b61010080546001600160a01b0319167303a6a84cd762d9707a21605b548aaab891562aab90811790915560405163579aae8f60e11b81526000919063af355d1e906117f5906e5945535f4f525f4e4f5f515545525960881b90429087908a9088908e9062093a809033908490600401613790565b6020604051808303816000875af1158015611814573d6000803e3d6000fd5b505050506040513d601f19601f820116820180604052508101906118389190613777565b9050600260fc60008a338b604051602001611855939291906134ee565b60408051601f19818403018152918152815160209283012083529082019290925201600020805460ff191660018360048111156118945761189461315a565b0217905550876040516118a79190613586565b604080519182900382204263ffffffff168352602083018290526009838301526844697370757465642160b81b6060840152905190916001600160a01b038a169133917f3178438e5e76b4e0fbbedfdb783349111bd0b217fc639b930dd3467546f828b4919081900360800190a4915050611672600160c955565b61192a6126c3565b336001600160a01b03861614806119495750336001600160a01b038516145b6119955760405162461bcd60e51b815260206004820181905260248201527f43616c6c6572206d7573742062652063726561746f72206f722068756e746572604482015260640161063e565b600060fc60008888886040516020016119b0939291906134ee565b60408051601f198184030181529181528151602092830120835290820192909252016000205460ff16905060028160048111156119ef576119ef61315a565b1480611a0c57506003816004811115611a0a57611a0a61315a565b145b611a585760405162461bcd60e51b815260206004820152601760248201527f426f756e7479206d757374206265206469737075746564000000000000000000604482015260640161063e565b61010054604051631448155560e21b81526000916001600160a01b031690635120555490611aa49030906e5945535f4f525f4e4f5f515545525960881b908a908a908a906004016137f7565b6020604051808303816000875af1158015611ac3573d6000803e3d6000fd5b505050506040513d601f19601f82011682018060405250810190611ae79190613849565b9050600060fb60008a8a8a604051602001611b04939291906134ee565b604051602081830303815290604052805190602001208152602001908152602001600020549050600060ff60008b8b8b604051602001611b46939291906134ee565b60408051601f19818403018152918152815160209283012083529082019290925201600020546001600160a01b031690506004846004811115611b8b57611b8b61315a565b14158015611bc557506005836006811115611ba857611ba861315a565b1480611bc557506003836006811115611bc357611bc361315a565b145b156122e9576005836006811115611bde57611bde61315a565b03611c6757886001600160a01b031685600001516001600160a01b0316148015611c1d5750876001600160a01b031685602001516001600160a01b0316145b611c625760405162461bcd60e51b8152602060048201526016602482015275496e636f72726563742072657175657374206461746160501b604482015260640161063e565b611ce1565b6003836006811115611c7b57611c7b61315a565b03611ce1576002846004811115611c9457611c9461315a565b14611ce15760405162461bcd60e51b815260206004820152601a60248201527f496e636f72726563742068756e74657220737065636966696564000000000000604482015260640161063e565b6101005460405163b730539f60e01b81526000916001600160a01b03169063b730539f90611d2d9030906e5945535f4f525f4e4f5f515545525960881b908d908d908d906004016137f7565b60408051808303816000875af1158015611d4b573d6000803e3d6000fd5b505050506040513d601f19601f82011682018060405250810190611d6f919061386a565b91505080600003611eed578260fb60008d8d8d604051602001611d94939291906134ee565b6040516020818303038152906040528051906020012081526020019081526020016000206000828254611dc79190613545565b90915550506001600160a01b03821615611df457611def6001600160a01b0383168b8561271c565b611e69565b60008a6001600160a01b03168460405160006040518083038185875af1925050503d8060008114611e41576040519150601f19603f3d011682016040523d82523d6000602084013e611e46565b606091505b5050905080611e675760405162461bcd60e51b815260040161063e90613558565b505b8a604051611e779190613586565b6040518091039020896001600160a01b03168b6001600160a01b031660008051602061392c833981519152604051611ee0906020808252601b908201527f46756e64732073656e74206261636b20746f2063726561746f72210000000000604082015260600190565b60405180910390a4612284565b80600103612053578260fb60008d8d8d604051602001611f0f939291906134ee565b6040516020818303038152906040528051906020012081526020019081526020016000206000828254611f429190613545565b90915550506001600160a01b03821615611f6f57611f6a6001600160a01b0383168a8561271c565b611fe4565b6000896001600160a01b03168460405160006040518083038185875af1925050503d8060008114611fbc576040519150601f19603f3d011682016040523d82523d6000602084013e611fc1565b606091505b5050905080611fe25760405162461bcd60e51b815260040161063e90613558565b505b8a604051611ff29190613586565b6040518091039020896001600160a01b03168b6001600160a01b031660008051602061392c833981519152604051611ee09060208082526015908201527446756e64732073656e7420746f2068756e7465722160581b604082015260600190565b80600203612284578260fb60008d8d8d604051602001612075939291906134ee565b60405160208183030381529060405280519060200120815260200190815260200160002060008282546120a89190613545565b90915550506001600160a01b038216156120f0576120dc896120cb60028661388e565b6001600160a01b038516919061271c565b6120eb8a6120cb60028661388e565b6121e5565b60006001600160a01b038a1661210760028661388e565b604051600081818185875af1925050503d8060008114612143576040519150601f19603f3d011682016040523d82523d6000602084013e612148565b606091505b50509050806121695760405162461bcd60e51b815260040161063e90613558565b60006001600160a01b038c1661218060028761388e565b604051600081818185875af1925050503d80600081146121bc576040519150601f19603f3d011682016040523d82523d6000602084013e6121c1565b606091505b50509050806121e25760405162461bcd60e51b815260040161063e90613558565b50505b8a6040516121f39190613586565b6040518091039020896001600160a01b03168b6001600160a01b031660008051602061392c83398151915260405161227b9060208082526036908201527f48616c66206f662066756e64732073656e74206261636b20746f2063726561746040820152756f7220616e64207468656e20746f2068756e7465722160501b606082015260800190565b60405180910390a45b600460fc60008d8d8d60405160200161229f939291906134ee565b60408051601f19818403018152918152815160209283012083529082019290925201600020805460ff191660018360048111156122de576122de61315a565b021790555050612379565b60048460048111156122fd576122fd61315a565b141580156123375750600283600681111561231a5761231a61315a565b1480612337575060048360068111156123355761233561315a565b145b156123795760405162461bcd60e51b815260206004820152601260248201527144697370757465207374696c6c206c69766560701b604482015260640161063e565b50505050612387600160c955565b505050505050565b6123976126c3565b60fb60008633876040516020016123b0939291906134ee565b6040516020818303038152906040528051906020012081526020019081526020016000205460001461241d5760405162461bcd60e51b8152602060048201526016602482015275119d5b991cc8185b1c9958591e48195cd8dc9bddd95960521b604482015260640161063e565b341561246a573460fb600087338860405160200161243d939291906134ee565b60405160208183030381529060405280519060200120815260200190815260200160002081905550612574565b600081116124ba5760405162461bcd60e51b815260206004820152601760248201527f416d6f756e74206d757374206265206e6f6e2d7a65726f000000000000000000604482015260640161063e565b6124cf6001600160a01b0383163330846129f9565b8060fb60008733886040516020016124e9939291906134ee565b604051602081830303815290604052805190602001208152602001908152602001600020819055508160ff600087338860405160200161252b939291906134ee565b60405160208183030381529060405280519060200120815260200190815260200160002060006101000a8154816001600160a01b0302191690836001600160a01b031602179055505b61257e834261363a565b60fd6000873388604051602001612597939291906134ee565b60405160208183030381529060405280519060200120815260200190815260200160002081905550846040516125cd9190613586565b6040518091039020846001600160a01b0316336001600160a01b03167fd1e07ed273f3f8baf4d06b102596f3d355cb8d1f264f85fade4e9708b67ee85860405161263490602080825260099082015268457363726f7765642160b81b604082015260600190565b60405180910390a4612646600160c955565b5050505050565b6126556128f7565b6001600160a01b0381166126ba5760405162461bcd60e51b815260206004820152602660248201527f4f776e61626c653a206e6577206f776e657220697320746865207a65726f206160448201526564647265737360d01b606482015260840161063e565b610b3181612951565b600260c954036127155760405162461bcd60e51b815260206004820152601f60248201527f5265656e7472616e637947756172643a207265656e7472616e742063616c6c00604482015260640161063e565b600260c955565b6040516001600160a01b03831660248201526044810182905261277f90849063a9059cbb60e01b906064015b60408051601f198184030181529190526020810180516001600160e01b03166001600160e01b031990931692909217909152612ae9565b505050565b610b316128f7565b7f4910fdfa16fed3260ed0e7147f7cc6da11a60208b5b9406d12a635614ffd91435460ff16156127bf5761277f83612bbb565b826001600160a01b03166352d1902d6040518163ffffffff1660e01b8152600401602060405180830381865afa925050508015612819575060408051601f3d908101601f1916820190925261281691810190613777565b60015b61287c5760405162461bcd60e51b815260206004820152602e60248201527f45524331393637557067726164653a206e657720696d706c656d656e7461746960448201526d6f6e206973206e6f74205555505360901b606482015260840161063e565b60008051602061394c83398151915281146128eb5760405162461bcd60e51b815260206004820152602960248201527f45524331393637557067726164653a20756e737570706f727465642070726f786044820152681a58589b195555525160ba1b606482015260840161063e565b5061277f838383612c57565b6033546001600160a01b031633146112b25760405162461bcd60e51b815260206004820181905260248201527f4f776e61626c653a2063616c6c6572206973206e6f7420746865206f776e6572604482015260640161063e565b603380546001600160a01b038381166001600160a01b0319831681179093556040519116919082907f8be0079c531659141344cd1fd0a4f28419497f9722a3daafe3b4186f6b6457e090600090a35050565b600054610100900460ff166129ca5760405162461bcd60e51b815260040161063e906138b0565b6112b2612c7c565b600054610100900460ff166112b25760405162461bcd60e51b815260040161063e906138b0565b6040516001600160a01b0380851660248301528316604482015260648101829052612a319085906323b872dd60e01b90608401612748565b50505050565b604051636eb1769f60e11b81523060048201526001600160a01b038381166024830152600091839186169063dd62ed3e90604401602060405180830381865afa158015612a88573d6000803e3d6000fd5b505050506040513d601f19601f82011682018060405250810190612aac9190613777565b612ab6919061363a565b6040516001600160a01b038516602482015260448101829052909150612a3190859063095ea7b360e01b90606401612748565b6000612b3e826040518060400160405280602081526020017f5361666545524332303a206c6f772d6c6576656c2063616c6c206661696c6564815250856001600160a01b0316612cac9092919063ffffffff16565b80519091501561277f5780806020019051810190612b5c91906138fb565b61277f5760405162461bcd60e51b815260206004820152602a60248201527f5361666545524332303a204552433230206f7065726174696f6e20646964206e6044820152691bdd081cdd58d8d9595960b21b606482015260840161063e565b6001600160a01b0381163b612c285760405162461bcd60e51b815260206004820152602d60248201527f455243313936373a206e657720696d706c656d656e746174696f6e206973206e60448201526c1bdd08184818dbdb9d1c9858dd609a1b606482015260840161063e565b60008051602061394c83398151915280546001600160a01b0319166001600160a01b0392909216919091179055565b612c6083612cc5565b600082511180612c6d5750805b1561277f57612a318383612d05565b600054610100900460ff16612ca35760405162461bcd60e51b815260040161063e906138b0565b6112b233612951565b6060612cbb8484600085612dfb565b90505b9392505050565b612cce81612bbb565b6040516001600160a01b038216907fbc7cd75a20ee27fd9adebab32041f755214dbc6bffa90cc0225b39da2e5c2d3b90600090a250565b60606001600160a01b0383163b612d6d5760405162461bcd60e51b815260206004820152602660248201527f416464726573733a2064656c65676174652063616c6c20746f206e6f6e2d636f6044820152651b9d1c9858dd60d21b606482015260840161063e565b600080846001600160a01b031684604051612d889190613586565b600060405180830381855af49150503d8060008114612dc3576040519150601f19603f3d011682016040523d82523d6000602084013e612dc8565b606091505b5091509150612df0828260405180606001604052806027815260200161396c60279139612ed8565b925050505b92915050565b606082471015612e5c5760405162461bcd60e51b815260206004820152602660248201527f416464726573733a20696e73756666696369656e742062616c616e636520666f6044820152651c8818d85b1b60d21b606482015260840161063e565b600080866001600160a01b03168587604051612e789190613586565b60006040518083038185875af1925050503d8060008114612eb5576040519150601f19603f3d011682016040523d82523d6000602084013e612eba565b606091505b5091509150612ecb87838387612ef1565b925050505b949350505050565b60608315612ee7575081612cbe565b612cbe8383612f66565b60608315612f60578251600003612f59576001600160a01b0385163b612f595760405162461bcd60e51b815260206004820152601d60248201527f416464726573733a2063616c6c20746f206e6f6e2d636f6e7472616374000000604482015260640161063e565b5081612ed0565b612ed083835b815115612f765781518083602001fd5b8060405162461bcd60e51b815260040161063e9190613918565b634e487b7160e01b600052604160045260246000fd5b604051610160810167ffffffffffffffff81118282101715612fca57612fca612f90565b60405290565b600082601f830112612fe157600080fd5b813567ffffffffffffffff80821115612ffc57612ffc612f90565b604051601f8301601f19908116603f0116810190828211818310171561302457613024612f90565b8160405283815286602085880101111561303d57600080fd5b836020870160208301376000602085830101528094505050505092915050565b6001600160a01b0381168114610b3157600080fd5b803561307d8161305d565b919050565b6000806040838503121561309557600080fd5b823567ffffffffffffffff8111156130ac57600080fd5b6130b885828601612fd0565b92505060208301356130c98161305d565b809150509250929050565b6000602082840312156130e657600080fd5b8135612cbe8161305d565b6000806040838503121561310457600080fd5b823561310f8161305d565b9150602083013567ffffffffffffffff81111561312b57600080fd5b61313785828601612fd0565b9150509250929050565b60006020828403121561315357600080fd5b5035919050565b634e487b7160e01b600052602160045260246000fd5b602081016005831061319257634e487b7160e01b600052602160045260246000fd5b91905290565b803563ffffffff8116811461307d57600080fd5b8015158114610b3157600080fd5b803561307d816131ac565b600061016082840312156131d857600080fd5b6131e0612fa6565b90506131eb82613072565b81526131f960208301613072565b602082015261320a60408301613072565b604082015261321b606083016131ba565b60608201526080820135608082015260a082013560a082015260c082013560c082015260e082013560e082015261010080830135818301525061012080830135818301525061014080830135818301525092915050565b60008060008060006101e0868803121561328b57600080fd5b853567ffffffffffffffff808211156132a357600080fd5b6132af89838a01612fd0565b9650602088013591506132c18261305d565b8195506132d060408901613198565b945060608801359150808211156132e657600080fd5b506132f388828901612fd0565b92505061330387608088016131c5565b90509295509295909350565b600080600080600060a0868803121561332757600080fd5b853567ffffffffffffffff8082111561333f57600080fd5b61334b89838a01612fd0565b96506020880135915061335d8261305d565b909450604087013593506060870135908082111561337a57600080fd5b5061338788828901612fd0565b92505060808601356133988161305d565b809150509295509295909350565b60008060008060008061020087890312156133c057600080fd5b863567ffffffffffffffff808211156133d857600080fd5b6133e48a838b01612fd0565b9750602089013591506133f68261305d565b9095506040880135906134088261305d565b81955061341760608a01613198565b9450608089013591508082111561342d57600080fd5b5061343a89828a01612fd0565b92505061344a8860a089016131c5565b90509295509295509295565b600080600080600060a0868803121561346e57600080fd5b853567ffffffffffffffff81111561348557600080fd5b61349188828901612fd0565b95505060208601356134a28161305d565b93506040860135925060608601356134b98161305d565b949793965091946080013592915050565b60005b838110156134e55781810151838201526020016134cd565b50506000910152565b600084516135008184602089016134ca565b6bffffffffffffffffffffffff19606095861b8116919093019081529290931b16601482015260280192915050565b634e487b7160e01b600052601160045260246000fd5b81810381811115612df557612df561352f565b6020808252601490820152732330b4b632b2103a379039b2b7321022ba3432b960611b604082015260600190565b600082516135988184602087016134ca565b9190910192915050565b6020808252602c908201527f46756e6374696f6e206d7573742062652063616c6c6564207468726f7567682060408201526b19195b1959d85d1958d85b1b60a21b606082015260800190565b6020808252602c908201527f46756e6374696f6e206d7573742062652063616c6c6564207468726f7567682060408201526b6163746976652070726f787960a01b606082015260800190565b80820180821115612df557612df561352f565b600081518084526136658160208601602086016134ca565b601f01601f19169290920160200192915050565b80516001600160a01b0316825260208101516136a060208401826001600160a01b03169052565b5060408101516136bb60408401826001600160a01b03169052565b5060608101516136cf606084018215159052565b506080818101519083015260a0808201519083015260c0808201519083015260e080820151908301526101008082015190830152610120808201519083015261014090810151910152565b600061020088835263ffffffff881660208401528060408401526137408184018861364d565b9150506137506060830186613679565b6001600160a01b039384166101c0830152919092166101e090920191909152949350505050565b60006020828403121561378957600080fd5b5051919050565b60006101208b835263ffffffff8b1660208401528060408401526137b68184018b61364d565b6001600160a01b03998a1660608501526080840198909852505060a081019490945260c084019290925290931660e082015261010001919091529392505050565b6001600160a01b03861681526020810185905263ffffffff841660408201526101e06060820181905260009061382f8382018661364d565b91505061383f6080830184613679565b9695505050505050565b60006020828403121561385b57600080fd5b815160078110612cbe57600080fd5b6000806040838503121561387d57600080fd5b505080516020909101519092909150565b6000826138ab57634e487b7160e01b600052601260045260246000fd5b500490565b6020808252602b908201527f496e697469616c697a61626c653a20636f6e7472616374206973206e6f74206960408201526a6e697469616c697a696e6760a81b606082015260800190565b60006020828403121561390d57600080fd5b8151612cbe816131ac565b602081526000612cbe602083018461364d56fe792ad3967c4edb1c07d26a2bb911a5dce93db0ec891f4bb69c55f2721bb888c2360894a13ba1a3210667c828492db98dca3e2076cc3735a920a3ca505d382bbc416464726573733a206c6f772d6c6576656c2064656c65676174652063616c6c206661696c6564a26469706673582212204705f611f08edae985111a329528a62c285ef5cb54b9643f177afd3a4a3dd58b64736f6c63430008110033",
    "linkReferences": {}
  },
  "methodIdentifiers": {
    "ORACLE_ADDRESS()": "fcfc430c",
    "bountyAmounts(bytes32)": "771eb857",
    "bountyToken(bytes32)": "7b8e291e",
    "escrow(string,address,uint256,address,uint256)": "c5660dbf",
    "expiration(bytes32)": "56406fa5",
    "forceHunterPayout(string,address)": "63be095c",
    "hunterDisputeResponse(string,address,uint32,bytes,(address,address,address,bool,int256,int256,uint256,uint256,uint256,uint256,uint256))": "817f6c32",
    "initialize()": "8129fc1c",
    "initiateDispute(string,address,uint256,string,address)": "a2c1e3e0",
    "oracleInterface()": "28ebaa6f",
    "owner()": "8da5cb5b",
    "payout(string,address)": "33357018",
    "payoutExpiration(bytes32)": "d911392d",
    "payoutIfDispute(string,address,address,uint32,bytes,(address,address,address,bool,int256,int256,uint256,uint256,uint256,uint256,uint256))": "b636ec55",
    "progress(bytes32)": "7aebd2a8",
    "proxiableUUID()": "52d1902d",
    "renounceOwnership()": "715018a6",
    "submit(string,address)": "696b9aa7",
    "transferOwnership(address)": "f2fde38b",
    "upgradeTo(address)": "3659cfe6",
    "upgradeToAndCall(address,bytes)": "4f1ef286"
  },
  "id": 60
}