{
  "abi": [
    {
      "inputs": [],
      "stateMutability": "nonpayable",
      "type": "constructor"
    },
    {
      "anonymous": false,
      "inputs": [
        {
          "indexed": false,
          "internalType": "address",
          "name": "previousAdmin",
          "type": "address"
        },
        {
          "indexed": false,
          "internalType": "address",
          "name": "newAdmin",
          "type": "address"
        }
      ],
      "name": "AdminChanged",
      "type": "event"
    },
    {
      "anonymous": false,
      "inputs": [
        {
          "indexed": true,
          "internalType": "address",
          "name": "beacon",
          "type": "address"
        }
      ],
      "name": "BeaconUpgraded",
      "type": "event"
    },
    {
      "anonymous": false,
      "inputs": [
        {
          "indexed": true,
          "internalType": "address",
          "name": "creator",
          "type": "address"
        },
        {
          "indexed": true,
          "internalType": "address",
          "name": "hunter",
          "type": "address"
        },
        {
          "indexed": true,
          "internalType": "string",
          "name": "bountyAppId",
          "type": "string"
        },
        {
          "indexed": false,
          "internalType": "string",
          "name": "message",
          "type": "string"
        }
      ],
      "name": "DisputeRespondedTo",
      "type": "event"
    },
    {
      "anonymous": false,
      "inputs": [
        {
          "indexed": true,
          "internalType": "address",
          "name": "creator",
          "type": "address"
        },
        {
          "indexed": true,
          "internalType": "address",
          "name": "hunter",
          "type": "address"
        },
        {
          "indexed": true,
          "internalType": "string",
          "name": "bountyAppId",
          "type": "string"
        },
        {
          "indexed": false,
          "internalType": "uint32",
          "name": "timestamp",
          "type": "uint32"
        },
        {
          "indexed": false,
          "internalType": "string",
          "name": "message",
          "type": "string"
        }
      ],
      "name": "Disputed",
      "type": "event"
    },
    {
      "anonymous": false,
      "inputs": [
        {
          "indexed": true,
          "internalType": "address",
          "name": "creator",
          "type": "address"
        },
        {
          "indexed": true,
          "internalType": "address",
          "name": "hunter",
          "type": "address"
        },
        {
          "indexed": true,
          "internalType": "string",
          "name": "bountyAppId",
          "type": "string"
        },
        {
          "indexed": false,
          "internalType": "string",
          "name": "message",
          "type": "string"
        }
      ],
      "name": "Escrowed",
      "type": "event"
    },
    {
      "anonymous": false,
      "inputs": [
        {
          "indexed": true,
          "internalType": "address",
          "name": "creator",
          "type": "address"
        },
        {
          "indexed": true,
          "internalType": "address",
          "name": "hunter",
          "type": "address"
        },
        {
          "indexed": true,
          "internalType": "string",
          "name": "bountyAppId",
          "type": "string"
        },
        {
          "indexed": false,
          "internalType": "string",
          "name": "message",
          "type": "string"
        }
      ],
      "name": "FundsForceSentToHunter",
      "type": "event"
    },
    {
      "anonymous": false,
      "inputs": [
        {
          "indexed": true,
          "internalType": "address",
          "name": "creator",
          "type": "address"
        },
        {
          "indexed": true,
          "internalType": "address",
          "name": "hunter",
          "type": "address"
        },
        {
          "indexed": true,
          "internalType": "string",
          "name": "bountyAppId",
          "type": "string"
        },
        {
          "indexed": false,
          "internalType": "string",
          "name": "message",
          "type": "string"
        }
      ],
      "name": "FundsSent",
      "type": "event"
    },
    {
      "anonymous": false,
      "inputs": [
        {
          "indexed": true,
          "internalType": "address",
          "name": "creator",
          "type": "address"
        },
        {
          "indexed": true,
          "internalType": "address",
          "name": "hunter",
          "type": "address"
        },
        {
          "indexed": true,
          "internalType": "string",
          "name": "bountyAppId",
          "type": "string"
        },
        {
          "indexed": false,
          "internalType": "string",
          "name": "message",
          "type": "string"
        }
      ],
      "name": "FundsWithdrawnToCreator",
      "type": "event"
    },
    {
      "anonymous": false,
      "inputs": [
        {
          "indexed": false,
          "internalType": "uint8",
          "name": "version",
          "type": "uint8"
        }
      ],
      "name": "Initialized",
      "type": "event"
    },
    {
      "anonymous": false,
      "inputs": [
        {
          "indexed": true,
          "internalType": "address",
          "name": "previousOwner",
          "type": "address"
        },
        {
          "indexed": true,
          "internalType": "address",
          "name": "newOwner",
          "type": "address"
        }
      ],
      "name": "OwnershipTransferred",
      "type": "event"
    },
    {
      "anonymous": false,
      "inputs": [
        {
          "indexed": true,
          "internalType": "address",
          "name": "creator",
          "type": "address"
        },
        {
          "indexed": true,
          "internalType": "address",
          "name": "hunter",
          "type": "address"
        },
        {
          "indexed": true,
          "internalType": "string",
          "name": "bountyAppId",
          "type": "string"
        },
        {
          "indexed": false,
          "internalType": "address",
          "name": "winner",
          "type": "address"
        },
        {
          "indexed": false,
          "internalType": "string",
          "name": "message",
          "type": "string"
        }
      ],
      "name": "Resolved",
      "type": "event"
    },
    {
      "anonymous": false,
      "inputs": [
        {
          "indexed": true,
          "internalType": "address",
          "name": "creator",
          "type": "address"
        },
        {
          "indexed": true,
          "internalType": "address",
          "name": "hunter",
          "type": "address"
        },
        {
          "indexed": true,
          "internalType": "string",
          "name": "bountyAppId",
          "type": "string"
        },
        {
          "indexed": false,
          "internalType": "string",
          "name": "message",
          "type": "string"
        }
      ],
      "name": "Submitted",
      "type": "event"
    },
    {
      "anonymous": false,
      "inputs": [
        {
          "indexed": true,
          "internalType": "address",
          "name": "implementation",
          "type": "address"
        }
      ],
      "name": "Upgraded",
      "type": "event"
    },
    {
      "inputs": [
        {
          "internalType": "bytes32",
          "name": "",
          "type": "bytes32"
        }
      ],
      "name": "bountyAmounts",
      "outputs": [
        {
          "internalType": "uint256",
          "name": "",
          "type": "uint256"
        }
      ],
      "stateMutability": "view",
      "type": "function"
    },
    {
      "inputs": [
        {
          "internalType": "string",
          "name": "_bountyAppId",
          "type": "string"
        },
        {
          "internalType": "address",
          "name": "_hunter",
          "type": "address"
        },
        {
          "internalType": "uint256",
          "name": "_expiration",
          "type": "uint256"
        },
        {
          "internalType": "address",
          "name": "_token",
          "type": "address"
        },
        {
          "internalType": "uint256",
          "name": "_amount",
          "type": "uint256"
        }
      ],
      "name": "escrow",
      "outputs": [],
      "stateMutability": "payable",
      "type": "function"
    },
    {
      "inputs": [
        {
          "internalType": "bytes32",
          "name": "",
          "type": "bytes32"
        }
      ],
      "name": "expiration",
      "outputs": [
        {
          "internalType": "uint256",
          "name": "",
          "type": "uint256"
        }
      ],
      "stateMutability": "view",
      "type": "function"
    },
    {
      "inputs": [
        {
          "internalType": "string",
          "name": "_bountyAppId",
          "type": "string"
        },
        {
          "internalType": "address",
          "name": "_creator",
          "type": "address"
        },
        {
          "internalType": "address",
          "name": "_token",
          "type": "address"
        }
      ],
      "name": "forceHunterPayout",
      "outputs": [],
      "stateMutability": "nonpayable",
      "type": "function"
    },
    {
      "inputs": [
        {
          "internalType": "string",
          "name": "_bountyAppId",
          "type": "string"
        },
        {
          "internalType": "address",
          "name": "_creator",
          "type": "address"
        },
        {
          "internalType": "uint32",
          "name": "_timestamp",
          "type": "uint32"
        },
        {
          "internalType": "bytes",
          "name": "_ancillaryData",
          "type": "bytes"
        },
        {
          "components": [
            {
              "internalType": "address",
              "name": "proposer",
              "type": "address"
            },
            {
              "internalType": "address",
              "name": "disputer",
              "type": "address"
            },
            {
              "internalType": "contract IERC20",
              "name": "currency",
              "type": "address"
            },
            {
              "internalType": "bool",
              "name": "settled",
              "type": "bool"
            },
            {
              "internalType": "int256",
              "name": "proposedPrice",
              "type": "int256"
            },
            {
              "internalType": "int256",
              "name": "resolvedPrice",
              "type": "int256"
            },
            {
              "internalType": "uint256",
              "name": "expirationTime",
              "type": "uint256"
            },
            {
              "internalType": "uint256",
              "name": "reward",
              "type": "uint256"
            },
            {
              "internalType": "uint256",
              "name": "finalFee",
              "type": "uint256"
            },
            {
              "internalType": "uint256",
              "name": "bond",
              "type": "uint256"
            },
            {
              "internalType": "uint256",
              "name": "customLiveness",
              "type": "uint256"
            }
          ],
          "internalType": "struct SkinnyOptimisticOracleInterface.Request",
          "name": "_request",
          "type": "tuple"
        }
      ],
      "name": "hunterDisputeResponse",
      "outputs": [
        {
          "internalType": "uint256",
          "name": "",
          "type": "uint256"
        }
      ],
      "stateMutability": "nonpayable",
      "type": "function"
    },
    {
      "inputs": [],
      "name": "initialize",
      "outputs": [],
      "stateMutability": "nonpayable",
      "type": "function"
    },
    {
      "inputs": [
        {
          "internalType": "string",
          "name": "_bountyAppId",
          "type": "string"
        },
        {
          "internalType": "address",
          "name": "_hunter",
          "type": "address"
        },
        {
          "internalType": "address",
          "name": "_oracleAddress",
          "type": "address"
        },
        {
          "internalType": "uint256",
          "name": "_bondAmt",
          "type": "uint256"
        },
        {
          "internalType": "string",
          "name": "_ancillaryData",
          "type": "string"
        },
        {
          "internalType": "contract IERC20",
          "name": "_currency",
          "type": "address"
        }
      ],
      "name": "initiateDispute",
      "outputs": [
        {
          "internalType": "uint256",
          "name": "",
          "type": "uint256"
        }
      ],
      "stateMutability": "nonpayable",
      "type": "function"
    },
    {
      "inputs": [],
      "name": "oracleInterface",
      "outputs": [
        {
          "internalType": "contract SkinnyOptimisticOracleInterface",
          "name": "",
          "type": "address"
        }
      ],
      "stateMutability": "view",
      "type": "function"
    },
    {
      "inputs": [],
      "name": "owner",
      "outputs": [
        {
          "internalType": "address",
          "name": "",
          "type": "address"
        }
      ],
      "stateMutability": "view",
      "type": "function"
    },
    {
      "inputs": [
        {
          "internalType": "string",
          "name": "_bountyAppId",
          "type": "string"
        },
        {
          "internalType": "address",
          "name": "_hunter",
          "type": "address"
        },
        {
          "internalType": "address",
          "name": "_token",
          "type": "address"
        }
      ],
      "name": "payout",
      "outputs": [],
      "stateMutability": "nonpayable",
      "type": "function"
    },
    {
      "inputs": [
        {
          "internalType": "bytes32",
          "name": "",
          "type": "bytes32"
        }
      ],
      "name": "payoutExpiration",
      "outputs": [
        {
          "internalType": "uint256",
          "name": "",
          "type": "uint256"
        }
      ],
      "stateMutability": "view",
      "type": "function"
    },
    {
      "inputs": [
        {
          "internalType": "string",
          "name": "_bountyAppId",
          "type": "string"
        },
        {
          "internalType": "address",
          "name": "_hunter",
          "type": "address"
        },
        {
          "internalType": "uint32",
          "name": "_timestamp",
          "type": "uint32"
        },
        {
          "internalType": "bytes",
          "name": "_ancillaryData",
          "type": "bytes"
        },
        {
          "components": [
            {
              "internalType": "address",
              "name": "proposer",
              "type": "address"
            },
            {
              "internalType": "address",
              "name": "disputer",
              "type": "address"
            },
            {
              "internalType": "contract IERC20",
              "name": "currency",
              "type": "address"
            },
            {
              "internalType": "bool",
              "name": "settled",
              "type": "bool"
            },
            {
              "internalType": "int256",
              "name": "proposedPrice",
              "type": "int256"
            },
            {
              "internalType": "int256",
              "name": "resolvedPrice",
              "type": "int256"
            },
            {
              "internalType": "uint256",
              "name": "expirationTime",
              "type": "uint256"
            },
            {
              "internalType": "uint256",
              "name": "reward",
              "type": "uint256"
            },
            {
              "internalType": "uint256",
              "name": "finalFee",
              "type": "uint256"
            },
            {
              "internalType": "uint256",
              "name": "bond",
              "type": "uint256"
            },
            {
              "internalType": "uint256",
              "name": "customLiveness",
              "type": "uint256"
            }
          ],
          "internalType": "struct SkinnyOptimisticOracleInterface.Request",
          "name": "_request",
          "type": "tuple"
        },
        {
          "internalType": "address",
          "name": "_token",
          "type": "address"
        }
      ],
      "name": "payoutIfDispute",
      "outputs": [],
      "stateMutability": "nonpayable",
      "type": "function"
    },
    {
      "inputs": [
        {
          "internalType": "bytes32",
          "name": "",
          "type": "bytes32"
        }
      ],
      "name": "progress",
      "outputs": [
        {
          "internalType": "enum Escrow.Status",
          "name": "",
          "type": "uint8"
        }
      ],
      "stateMutability": "view",
      "type": "function"
    },
    {
      "inputs": [],
      "name": "proxiableUUID",
      "outputs": [
        {
          "internalType": "bytes32",
          "name": "",
          "type": "bytes32"
        }
      ],
      "stateMutability": "view",
      "type": "function"
    },
    {
      "inputs": [],
      "name": "renounceOwnership",
      "outputs": [],
      "stateMutability": "nonpayable",
      "type": "function"
    },
    {
      "inputs": [
        {
          "internalType": "string",
          "name": "_bountyAppId",
          "type": "string"
        },
        {
          "internalType": "address",
          "name": "_creator",
          "type": "address"
        }
      ],
      "name": "submit",
      "outputs": [],
      "stateMutability": "nonpayable",
      "type": "function"
    },
    {
      "inputs": [
        {
          "internalType": "address",
          "name": "newOwner",
          "type": "address"
        }
      ],
      "name": "transferOwnership",
      "outputs": [],
      "stateMutability": "nonpayable",
      "type": "function"
    },
    {
      "inputs": [
        {
          "internalType": "address",
          "name": "newImplementation",
          "type": "address"
        }
      ],
      "name": "upgradeTo",
      "outputs": [],
      "stateMutability": "nonpayable",
      "type": "function"
    },
    {
      "inputs": [
        {
          "internalType": "address",
          "name": "newImplementation",
          "type": "address"
        },
        {
          "internalType": "bytes",
          "name": "data",
          "type": "bytes"
        }
      ],
      "name": "upgradeToAndCall",
      "outputs": [],
      "stateMutability": "payable",
      "type": "function"
    }
  ],
  "bytecode": {
    "object": "0x60a0604052306080523480156200001557600080fd5b506200002062000026565b620000e8565b600054610100900460ff1615620000935760405162461bcd60e51b815260206004820152602760248201527f496e697469616c697a61626c653a20636f6e747261637420697320696e697469604482015266616c697a696e6760c81b606482015260840160405180910390fd5b60005460ff9081161015620000e6576000805460ff191660ff9081179091556040519081527f7f26b83ff96e1f2b6a682f133852f6798a09c465da95921460cefb38474024989060200160405180910390a15b565b6080516135f3620001206000396000818161099d015281816109dd01528181610a7c01528181610abc015261140b01526135f36000f3fe6080604052600436106101145760003560e01c8063771eb857116100a05780639e2172b5116100645780639e2172b51461030d578063c031cd731461032d578063c5660dbf1461034d578063d911392d14610360578063f2fde38b1461038d57600080fd5b8063771eb857146102505780637aebd2a81461027d5780638129fc1c146102ba578063817f6c32146102cf5780638da5cb5b146102ef57600080fd5b806351fad6b7116100e757806351fad6b7146101ab57806352d1902d146101cb57806356406fa5146101ee578063696b9aa71461021b578063715018a61461023b57600080fd5b806328ebaa6f146101195780632902f77f146101565780633659cfe6146101785780634f1ef28614610198575b600080fd5b34801561012557600080fd5b5060cd54610139906001600160a01b031681565b6040516001600160a01b0390911681526020015b60405180910390f35b34801561016257600080fd5b50610176610171366004612c4d565b6103ad565b005b34801561018457600080fd5b50610176610193366004612cb1565b610993565b6101766101a6366004612cce565b610a72565b3480156101b757600080fd5b506101766101c6366004612df8565b610b42565b3480156101d757600080fd5b506101e06113fe565b60405190815260200161014d565b3480156101fa57600080fd5b506101e0610209366004612ea9565b60cb6020526000908152604090205481565b34801561022757600080fd5b50610176610236366004612ec2565b6114b1565b34801561024757600080fd5b506101766116fd565b34801561025c57600080fd5b506101e061026b366004612ea9565b60c96020526000908152604090205481565b34801561028957600080fd5b506102ad610298366004612ea9565b60ca6020526000908152604090205460ff1681565b60405161014d9190612f2a565b3480156102c657600080fd5b50610176611711565b3480156102db57600080fd5b506101e06102ea366004612f52565b611829565b3480156102fb57600080fd5b506033546001600160a01b0316610139565b34801561031957600080fd5b506101e0610328366004612fef565b611abd565b34801561033957600080fd5b50610176610348366004612c4d565b611d37565b61017661035b36600461308b565b612077565b34801561036c57600080fd5b506101e061037b366004612ea9565b60cc6020526000908152604090205481565b34801561039957600080fd5b506101766103a8366004612cb1565b612271565b600060c960008533866040516020016103c893929190613123565b6040516020818303038152906040528051906020012081526020019081526020016000205490506000600481111561040257610402612f14565b60ca600086338760405160200161041b93929190613123565b60408051601f198184030181529181528151602092830120835290820192909252016000205460ff16600481111561045557610455612f14565b14801561049f57504260cb600086338760405160200161047793929190613123565b6040516020818303038152906040528051906020012081526020019081526020016000205411155b15610682578060c960008633876040516020016104be93929190613123565b60405160208183030381529060405280519060200120815260200190815260200160002060008282546104f1919061317a565b90915550506001600160a01b0382161561051e576105196001600160a01b03831633836122e7565b610591565b604051600090339083908381818185875af1925050503d8060008114610560576040519150601f19603f3d011682016040523d82523d6000602084013e610565565b606091505b505090508061058f5760405162461bcd60e51b81526004016105869061318d565b60405180910390fd5b505b8360405161059f91906131bb565b6040518091039020836001600160a01b0316336001600160a01b03167fb9bdb7ed8146376064d748bca1cc3449acc3526943957d471adcc7485e2e731160405161061a906020808252601b908201527f46756e64732077697468647261776e20746f2063726561746f72210000000000604082015260600190565b60405180910390a4600460ca600086338760405160200161063d93929190613123565b60408051601f19818403018152918152815160209283012083529082019290925201600020805460ff1916600183600481111561067c5761067c612f14565b02179055505b600060ca600086338760405160200161069d93929190613123565b60408051601f198184030181529181528151602092830120835290820192909252016000205460ff16905060018160048111156106dc576106dc612f14565b036108ab578160c960008733886040516020016106fb93929190613123565b604051602081830303815290604052805190602001208152602001908152602001600020600082825461072e919061317a565b90915550506001600160a01b0383161561075b576107566001600160a01b03841685846122e7565b6107d0565b6000846001600160a01b03168360405160006040518083038185875af1925050503d80600081146107a8576040519150601f19603f3d011682016040523d82523d6000602084013e6107ad565b606091505b50509050806107ce5760405162461bcd60e51b81526004016105869061318d565b505b846040516107de91906131bb565b6040518091039020846001600160a01b0316336001600160a01b031660008051602061355783398151915260405161083f9060208082526015908201527446756e64732073656e7420746f2068756e7465722160581b604082015260600190565b60405180910390a4600460ca600087338860405160200161086293929190613123565b60408051601f19818403018152918152815160209283012083529082019290925201600020805460ff191660018360048111156108a1576108a1612f14565b021790555061098c565b60008160048111156108bf576108bf612f14565b1480156108cc5750600082115b156109195760405162461bcd60e51b815260206004820181905260248201527f48756e746572206861736e2774207375626d697474656420776f726b207965746044820152606401610586565b600281600481111561092d5761092d612f14565b148061094a5750600381600481111561094857610948612f14565b145b1561098c5760405162461bcd60e51b8152602060048201526012602482015271109bdd5b9d1e481a5cc8191a5cdc1d5d195960721b6044820152606401610586565b5050505050565b6001600160a01b037f00000000000000000000000000000000000000000000000000000000000000001630036109db5760405162461bcd60e51b8152600401610586906131d7565b7f00000000000000000000000000000000000000000000000000000000000000006001600160a01b0316610a24600080516020613577833981519152546001600160a01b031690565b6001600160a01b031614610a4a5760405162461bcd60e51b815260040161058690613223565b610a538161234f565b60408051600080825260208201909252610a6f91839190612357565b50565b6001600160a01b037f0000000000000000000000000000000000000000000000000000000000000000163003610aba5760405162461bcd60e51b8152600401610586906131d7565b7f00000000000000000000000000000000000000000000000000000000000000006001600160a01b0316610b03600080516020613577833981519152546001600160a01b031690565b6001600160a01b031614610b295760405162461bcd60e51b815260040161058690613223565b610b328261234f565b610b3e82826001612357565b5050565b600060ca6000883389604051602001610b5d93929190613123565b60408051601f198184030181529181528151602092830120835290820192909252016000205460ff1690506001816004811115610b9c57610b9c612f14565b03610be95760405162461bcd60e51b815260206004820152601c60248201527f43726561746f72206861736e277420646973707574656420776f726b000000006044820152606401610586565b6004816004811115610bfd57610bfd612f14565b03610c4a5760405162461bcd60e51b815260206004820152601960248201527f426f756e747920686173206265656e207061796564206f7574000000000000006044820152606401610586565b60cd54604051631448155560e21b81526000916001600160a01b031690635120555490610c959030906e5945535f4f525f4e4f5f515545525960881b908b908b908b9060040161333c565b6020604051808303816000875af1158015610cb4573d6000803e3d6000fd5b505050506040513d601f19601f82011682018060405250810190610cd89190613384565b9050600060c960008a338b604051602001610cf593929190613123565b60408051601f198184030181529181528151602092830120835290820192909252016000205490506004836004811115610d3157610d31612f14565b14158015610d6b57506005826006811115610d4e57610d4e612f14565b1480610d6b57506003826006811115610d6957610d69612f14565b145b156113635760cd5460405163b730539f60e01b81526000916001600160a01b03169063b730539f90610dbb9030906e5945535f4f525f4e4f5f515545525960881b908d908d908d9060040161333c565b60408051808303816000875af1158015610dd9573d6000803e3d6000fd5b505050506040513d601f19601f82011682018060405250810190610dfd91906133a5565b91505080600003610f70578160c960008c338d604051602001610e2293929190613123565b6040516020818303038152906040528051906020012081526020019081526020016000206000828254610e55919061317a565b90915550506001600160a01b03851615610e8257610e7d6001600160a01b03861633846122e7565b610eec565b604051600090339084908381818185875af1925050503d8060008114610ec4576040519150601f19603f3d011682016040523d82523d6000602084013e610ec9565b606091505b5050905080610eea5760405162461bcd60e51b81526004016105869061318d565b505b89604051610efa91906131bb565b6040518091039020896001600160a01b0316336001600160a01b0316600080516020613557833981519152604051610f63906020808252601b908201527f46756e64732073656e74206261636b20746f2063726561746f72210000000000604082015260600190565b60405180910390a46112fe565b806001036110d6578160c960008c338d604051602001610f9293929190613123565b6040516020818303038152906040528051906020012081526020019081526020016000206000828254610fc5919061317a565b90915550506001600160a01b03851615610ff257610fed6001600160a01b0386168a846122e7565b611067565b6000896001600160a01b03168360405160006040518083038185875af1925050503d806000811461103f576040519150601f19603f3d011682016040523d82523d6000602084013e611044565b606091505b50509050806110655760405162461bcd60e51b81526004016105869061318d565b505b8960405161107591906131bb565b6040518091039020896001600160a01b0316336001600160a01b0316600080516020613557833981519152604051610f639060208082526015908201527446756e64732073656e7420746f2068756e7465722160581b604082015260600190565b806002036112fe578160c960008c338d6040516020016110f893929190613123565b604051602081830303815290604052805190602001208152602001908152602001600020600082825461112b919061317a565b90915550506001600160a01b038516156111735761115f8961114e6002856133c9565b6001600160a01b03881691906122e7565b61116e3361114e6002856133c9565b61125f565b60006001600160a01b038a1661118a6002856133c9565b604051600081818185875af1925050503d80600081146111c6576040519150601f19603f3d011682016040523d82523d6000602084013e6111cb565b606091505b50509050806111ec5760405162461bcd60e51b81526004016105869061318d565b6000336111fa6002866133c9565b604051600081818185875af1925050503d8060008114611236576040519150601f19603f3d011682016040523d82523d6000602084013e61123b565b606091505b505090508061125c5760405162461bcd60e51b81526004016105869061318d565b50505b8960405161126d91906131bb565b6040518091039020896001600160a01b0316336001600160a01b03166000805160206135578339815191526040516112f59060208082526036908201527f48616c66206f662066756e64732073656e74206261636b20746f2063726561746040820152756f7220616e64207468656e20746f2068756e7465722160501b606082015260800190565b60405180910390a45b600460ca60008c338d60405160200161131993929190613123565b60408051601f19818403018152918152815160209283012083529082019290925201600020805460ff1916600183600481111561135857611358612f14565b0217905550506113f3565b600483600481111561137757611377612f14565b141580156113b15750600282600681111561139457611394612f14565b14806113b1575060048260068111156113af576113af612f14565b145b156113f35760405162461bcd60e51b815260206004820152601260248201527144697370757465207374696c6c206c69766560701b6044820152606401610586565b505050505050505050565b6000306001600160a01b037f0000000000000000000000000000000000000000000000000000000000000000161461149e5760405162461bcd60e51b815260206004820152603860248201527f555550535570677261646561626c653a206d757374206e6f742062652063616c60448201527f6c6564207468726f7567682064656c656761746563616c6c00000000000000006064820152608401610586565b5060008051602061357783398151915290565b60c960008383336040516020016114ca93929190613123565b604051602081830303815290604052805190602001208152602001908152602001600020546000036115335760405162461bcd60e51b8152602060048201526012602482015271119d5b991cc81b9bdd08195cd8dc9bddd95960721b6044820152606401610586565b600160ca600084843360405160200161154e93929190613123565b60408051601f198184030181529181528151602092830120835290820192909252016000205460ff16600481111561158857611588612f14565b036115ce5760405162461bcd60e51b815260206004820152601660248201527515dbdc9ac8185b1c9958591e481cdd589b5a5d1d195960521b6044820152606401610586565b600160ca60008484336040516020016115e993929190613123565b60408051601f19818403018152918152815160209283012083529082019290925201600020805460ff1916600183600481111561162857611628612f14565b021790555061163a42621275006133eb565b60cc600084843360405160200161165393929190613123565b604051602081830303815290604052805190602001208152602001908152602001600020819055508160405161168991906131bb565b6040518091039020336001600160a01b0316826001600160a01b03167f68a67c1cdac393ac88c3132d0e126d77a2b494fd4a9d2046d3b9999cb2ad78016040516116f1906020808252600a90820152695375626d69747465642160b01b604082015260600190565b60405180910390a45050565b6117056124c2565b61170f600061251c565b565b600054610100900460ff16158080156117315750600054600160ff909116105b8061174b5750303b15801561174b575060005460ff166001145b6117ae5760405162461bcd60e51b815260206004820152602e60248201527f496e697469616c697a61626c653a20636f6e747261637420697320616c72656160448201526d191e481a5b9a5d1a585b1a5e995960921b6064820152608401610586565b6000805460ff1916600117905580156117d1576000805461ff0019166101001790555b6117d961256e565b6117e161259d565b8015610a6f576000805461ff0019169055604051600181527f7f26b83ff96e1f2b6a682f133852f6798a09c465da95921460cefb38474024989060200160405180910390a150565b6000600260ca600088883360405160200161184693929190613123565b60408051601f198184030181529181528151602092830120835290820192909252016000205460ff16600481111561188057611880612f14565b146118cd5760405162461bcd60e51b815260206004820152601f60248201527f426f756e74792063726561746f7220686173206e6f74206469737075746564006044820152606401610586565b6118fe333084610120015161015e6118e591906133eb565b60408601516001600160a01b03169291906010186125c4565b60cd54610120830151611939916001600160a01b0316906119219061015e6133eb565b60408501516001600160a01b03169190601018612602565b60cd5460405163139c641960e31b81526000916001600160a01b031690639ce320c890611986906e5945535f4f525f4e4f5f515545525960881b90899089908990339030906004016133fe565b6020604051808303816000875af11580156119a5573d6000803e3d6000fd5b505050506040513d601f19601f820116820180604052508101906119c9919061345b565b9050600360ca60008989336040516020016119e693929190613123565b60408051601f19818403018152918152815160209283012083529082019290925201600020805460ff19166001836004811115611a2557611a25612f14565b021790555086604051611a3891906131bb565b6040518091039020336001600160a01b0316876001600160a01b03167f3f7182f4231b269a10d1e02d72f7c47f5492854e8d58363b87dc09538a575bcf604051611aab906020808252601590820152744469737075746520526573706f6e64656420546f2160581b604082015260600190565b60405180910390a49695505050505050565b6000600160ca600089338a604051602001611ada93929190613123565b60408051601f198184030181529181528151602092830120835290820192909252016000205460ff166004811115611b1457611b14612f14565b14611b565760405162461bcd60e51b815260206004820152601260248201527115dbdc9ac81b9bdd0814dd589b5a5d1d195960721b6044820152606401610586565b82611b7d3330611b688861015e6133eb565b6001600160a01b0387169291906010186125c4565b611ba186611b8d8761015e6133eb565b6001600160a01b0386169190601018612602565b60cd80546001600160a01b0319166001600160a01b03881690811790915560405163579aae8f60e11b81526000919063af355d1e90611c09906e5945535f4f525f4e4f5f515545525960881b90429087908a9088908e9062093a809033908490600401613474565b6020604051808303816000875af1158015611c28573d6000803e3d6000fd5b505050506040513d601f19601f82011682018060405250810190611c4c919061345b565b9050600260ca60008b338c604051602001611c6993929190613123565b60408051601f19818403018152918152815160209283012083529082019290925201600020805460ff19166001836004811115611ca857611ca8612f14565b021790555088604051611cbb91906131bb565b604080519182900382204263ffffffff168352602083018290526009838301526844697370757465642160b81b6060840152905190916001600160a01b038b169133917f3178438e5e76b4e0fbbedfdb783349111bd0b217fc639b930dd3467546f828b4919081900360800190a49150505b9695505050505050565b600160ca6000858533604051602001611d5293929190613123565b60408051601f198184030181529181528151602092830120835290820192909252016000205460ff166004811115611d8c57611d8c612f14565b14611dce5760405162461bcd60e51b815260206004820152601260248201527115dbdc9ac81b9bdd0814dd589b5a5d1d195960721b6044820152606401610586565b4260cc6000858533604051602001611de893929190613123565b604051602081830303815290604052805190602001208152602001908152602001600020541115611e5b5760405162461bcd60e51b815260206004820181905260248201527f43726561746f722063616e207374696c6c20706179206f7220646973707574656044820152606401610586565b600060c96000858533604051602001611e7693929190613123565b6040516020818303038152906040528051906020012081526020019081526020016000205490508060c96000868633604051602001611eb793929190613123565b6040516020818303038152906040528051906020012081526020019081526020016000206000828254611eea919061317a565b90915550506001600160a01b03821615611f1757611f126001600160a01b03831633836122e7565b611f81565b604051600090339083908381818185875af1925050503d8060008114611f59576040519150601f19603f3d011682016040523d82523d6000602084013e611f5e565b606091505b5050905080611f7f5760405162461bcd60e51b81526004016105869061318d565b505b83604051611f8f91906131bb565b6040518091039020336001600160a01b0316846001600160a01b03167f3d3e6b9b452dfac5b1ec55216e1f4ad64bcff404fc6b256e98d3645e2294987160405161200a906020808252601b908201527f46756e647320666f7263652073656e7420746f2068756e746572210000000000604082015260600190565b60405180910390a4600460ca600086863360405160200161202d93929190613123565b60408051601f19818403018152918152815160209283012083529082019290925201600020805460ff1916600183600481111561206c5761206c612f14565b021790555050505050565b60c9600086338760405160200161209093929190613123565b604051602081830303815290604052805190602001208152602001908152602001600020546000146120fd5760405162461bcd60e51b8152602060048201526016602482015275119d5b991cc8185b1c9958591e48195cd8dc9bddd95960521b6044820152606401610586565b341561214a573460c9600087338860405160200161211d93929190613123565b604051602081830303815290604052805190602001208152602001908152602001600020819055506121a2565b61215f6001600160a01b0383163330846125c4565b8060c9600087338860405160200161217993929190613123565b604051602081830303815290604052805190602001208152602001908152602001600020819055505b6121ac83426133eb565b60cb60008733886040516020016121c593929190613123565b60405160208183030381529060405280519060200120815260200190815260200160002081905550846040516121fb91906131bb565b6040518091039020846001600160a01b0316336001600160a01b03167fd1e07ed273f3f8baf4d06b102596f3d355cb8d1f264f85fade4e9708b67ee85860405161226290602080825260099082015268457363726f7765642160b81b604082015260600190565b60405180910390a45050505050565b6122796124c2565b6001600160a01b0381166122de5760405162461bcd60e51b815260206004820152602660248201527f4f776e61626c653a206e6577206f776e657220697320746865207a65726f206160448201526564647265737360d01b6064820152608401610586565b610a6f8161251c565b6040516001600160a01b03831660248201526044810182905261234a90849063a9059cbb60e01b906064015b60408051601f198184030181529190526020810180516001600160e01b03166001600160e01b0319909316929092179091526126b4565b505050565b610a6f6124c2565b7f4910fdfa16fed3260ed0e7147f7cc6da11a60208b5b9406d12a635614ffd91435460ff161561238a5761234a83612786565b826001600160a01b03166352d1902d6040518163ffffffff1660e01b8152600401602060405180830381865afa9250505080156123e4575060408051601f3d908101601f191682019092526123e19181019061345b565b60015b6124475760405162461bcd60e51b815260206004820152602e60248201527f45524331393637557067726164653a206e657720696d706c656d656e7461746960448201526d6f6e206973206e6f74205555505360901b6064820152608401610586565b60008051602061357783398151915281146124b65760405162461bcd60e51b815260206004820152602960248201527f45524331393637557067726164653a20756e737570706f727465642070726f786044820152681a58589b195555525160ba1b6064820152608401610586565b5061234a838383612822565b6033546001600160a01b0316331461170f5760405162461bcd60e51b815260206004820181905260248201527f4f776e61626c653a2063616c6c6572206973206e6f7420746865206f776e65726044820152606401610586565b603380546001600160a01b038381166001600160a01b0319831681179093556040519116919082907f8be0079c531659141344cd1fd0a4f28419497f9722a3daafe3b4186f6b6457e090600090a35050565b600054610100900460ff166125955760405162461bcd60e51b8152600401610586906134db565b61170f612847565b600054610100900460ff1661170f5760405162461bcd60e51b8152600401610586906134db565b6040516001600160a01b03808516602483015283166044820152606481018290526125fc9085906323b872dd60e01b90608401612313565b50505050565b604051636eb1769f60e11b81523060048201526001600160a01b038381166024830152600091839186169063dd62ed3e90604401602060405180830381865afa158015612653573d6000803e3d6000fd5b505050506040513d601f19601f82011682018060405250810190612677919061345b565b61268191906133eb565b6040516001600160a01b0385166024820152604481018290529091506125fc90859063095ea7b360e01b90606401612313565b6000612709826040518060400160405280602081526020017f5361666545524332303a206c6f772d6c6576656c2063616c6c206661696c6564815250856001600160a01b03166128779092919063ffffffff16565b80519091501561234a57808060200190518101906127279190613526565b61234a5760405162461bcd60e51b815260206004820152602a60248201527f5361666545524332303a204552433230206f7065726174696f6e20646964206e6044820152691bdd081cdd58d8d9595960b21b6064820152608401610586565b6001600160a01b0381163b6127f35760405162461bcd60e51b815260206004820152602d60248201527f455243313936373a206e657720696d706c656d656e746174696f6e206973206e60448201526c1bdd08184818dbdb9d1c9858dd609a1b6064820152608401610586565b60008051602061357783398151915280546001600160a01b0319166001600160a01b0392909216919091179055565b61282b83612890565b6000825111806128385750805b1561234a576125fc83836128d0565b600054610100900460ff1661286e5760405162461bcd60e51b8152600401610586906134db565b61170f3361251c565b606061288684846000856129c6565b90505b9392505050565b61289981612786565b6040516001600160a01b038216907fbc7cd75a20ee27fd9adebab32041f755214dbc6bffa90cc0225b39da2e5c2d3b90600090a250565b60606001600160a01b0383163b6129385760405162461bcd60e51b815260206004820152602660248201527f416464726573733a2064656c65676174652063616c6c20746f206e6f6e2d636f6044820152651b9d1c9858dd60d21b6064820152608401610586565b600080846001600160a01b03168460405161295391906131bb565b600060405180830381855af49150503d806000811461298e576040519150601f19603f3d011682016040523d82523d6000602084013e612993565b606091505b50915091506129bb828260405180606001604052806027815260200161359760279139612aa3565b925050505b92915050565b606082471015612a275760405162461bcd60e51b815260206004820152602660248201527f416464726573733a20696e73756666696369656e742062616c616e636520666f6044820152651c8818d85b1b60d21b6064820152608401610586565b600080866001600160a01b03168587604051612a4391906131bb565b60006040518083038185875af1925050503d8060008114612a80576040519150601f19603f3d011682016040523d82523d6000602084013e612a85565b606091505b5091509150612a9687838387612abc565b925050505b949350505050565b60608315612ab2575081612889565b6128898383612b31565b60608315612b2b578251600003612b24576001600160a01b0385163b612b245760405162461bcd60e51b815260206004820152601d60248201527f416464726573733a2063616c6c20746f206e6f6e2d636f6e74726163740000006044820152606401610586565b5081612a9b565b612a9b83835b815115612b415781518083602001fd5b8060405162461bcd60e51b81526004016105869190613543565b634e487b7160e01b600052604160045260246000fd5b604051610160810167ffffffffffffffff81118282101715612b9557612b95612b5b565b60405290565b600082601f830112612bac57600080fd5b813567ffffffffffffffff80821115612bc757612bc7612b5b565b604051601f8301601f19908116603f01168101908282118183101715612bef57612bef612b5b565b81604052838152866020858801011115612c0857600080fd5b836020870160208301376000602085830101528094505050505092915050565b6001600160a01b0381168114610a6f57600080fd5b8035612c4881612c28565b919050565b600080600060608486031215612c6257600080fd5b833567ffffffffffffffff811115612c7957600080fd5b612c8586828701612b9b565b9350506020840135612c9681612c28565b91506040840135612ca681612c28565b809150509250925092565b600060208284031215612cc357600080fd5b813561288981612c28565b60008060408385031215612ce157600080fd5b8235612cec81612c28565b9150602083013567ffffffffffffffff811115612d0857600080fd5b612d1485828601612b9b565b9150509250929050565b803563ffffffff81168114612c4857600080fd5b8015158114610a6f57600080fd5b8035612c4881612d32565b60006101608284031215612d5e57600080fd5b612d66612b71565b9050612d7182612c3d565b8152612d7f60208301612c3d565b6020820152612d9060408301612c3d565b6040820152612da160608301612d40565b60608201526080820135608082015260a082013560a082015260c082013560c082015260e082013560e082015261010080830135818301525061012080830135818301525061014080830135818301525092915050565b6000806000806000806102008789031215612e1257600080fd5b863567ffffffffffffffff80821115612e2a57600080fd5b612e368a838b01612b9b565b975060208901359150612e4882612c28565b819650612e5760408a01612d1e565b95506060890135915080821115612e6d57600080fd5b50612e7a89828a01612b9b565b935050612e8a8860808901612d4b565b91506101e0870135612e9b81612c28565b809150509295509295509295565b600060208284031215612ebb57600080fd5b5035919050565b60008060408385031215612ed557600080fd5b823567ffffffffffffffff811115612eec57600080fd5b612ef885828601612b9b565b9250506020830135612f0981612c28565b809150509250929050565b634e487b7160e01b600052602160045260246000fd5b6020810160058310612f4c57634e487b7160e01b600052602160045260246000fd5b91905290565b60008060008060006101e08688031215612f6b57600080fd5b853567ffffffffffffffff80821115612f8357600080fd5b612f8f89838a01612b9b565b965060208801359150612fa182612c28565b819550612fb060408901612d1e565b94506060880135915080821115612fc657600080fd5b50612fd388828901612b9b565b925050612fe38760808801612d4b565b90509295509295909350565b60008060008060008060c0878903121561300857600080fd5b863567ffffffffffffffff8082111561302057600080fd5b61302c8a838b01612b9b565b97506020890135915061303e82612c28565b90955060408801359061305082612c28565b909450606088013593506080880135908082111561306d57600080fd5b5061307a89828a01612b9b565b92505060a0870135612e9b81612c28565b600080600080600060a086880312156130a357600080fd5b853567ffffffffffffffff8111156130ba57600080fd5b6130c688828901612b9b565b95505060208601356130d781612c28565b93506040860135925060608601356130ee81612c28565b949793965091946080013592915050565b60005b8381101561311a578181015183820152602001613102565b50506000910152565b600084516131358184602089016130ff565b6bffffffffffffffffffffffff19606095861b8116919093019081529290931b16601482015260280192915050565b634e487b7160e01b600052601160045260246000fd5b818103818111156129c0576129c0613164565b6020808252601490820152732330b4b632b2103a379039b2b7321022ba3432b960611b604082015260600190565b600082516131cd8184602087016130ff565b9190910192915050565b6020808252602c908201527f46756e6374696f6e206d7573742062652063616c6c6564207468726f7567682060408201526b19195b1959d85d1958d85b1b60a21b606082015260800190565b6020808252602c908201527f46756e6374696f6e206d7573742062652063616c6c6564207468726f7567682060408201526b6163746976652070726f787960a01b606082015260800190565b600081518084526132878160208601602086016130ff565b601f01601f19169290920160200192915050565b80516001600160a01b0316825260208101516132c260208401826001600160a01b03169052565b5060408101516132dd60408401826001600160a01b03169052565b5060608101516132f1606084018215159052565b506080818101519083015260a0808201519083015260c0808201519083015260e080820151908301526101008082015190830152610120808201519083015261014090810151910152565b6001600160a01b03861681526020810185905263ffffffff841660408201526101e0606082018190526000906133748382018661326f565b915050611d2d608083018461329b565b60006020828403121561339657600080fd5b81516007811061288957600080fd5b600080604083850312156133b857600080fd5b505080516020909101519092909150565b6000826133e657634e487b7160e01b600052601260045260246000fd5b500490565b808201808211156129c0576129c0613164565b600061020088835263ffffffff881660208401528060408401526134248184018861326f565b915050613434606083018661329b565b6001600160a01b039384166101c0830152919092166101e090920191909152949350505050565b60006020828403121561346d57600080fd5b5051919050565b60006101208b835263ffffffff8b16602084015280604084015261349a8184018b61326f565b6001600160a01b03998a1660608501526080840198909852505060a081019490945260c084019290925290931660e082015261010001919091529392505050565b6020808252602b908201527f496e697469616c697a61626c653a20636f6e7472616374206973206e6f74206960408201526a6e697469616c697a696e6760a81b606082015260800190565b60006020828403121561353857600080fd5b815161288981612d32565b602081526000612889602083018461326f56fe792ad3967c4edb1c07d26a2bb911a5dce93db0ec891f4bb69c55f2721bb888c2360894a13ba1a3210667c828492db98dca3e2076cc3735a920a3ca505d382bbc416464726573733a206c6f772d6c6576656c2064656c65676174652063616c6c206661696c6564a264697066735822122086a8331b3b07111ded1b7e8684ba1f9f0fb3eaf568620cb8e88c54bbc5442a8064736f6c63430008110033",
    "linkReferences": {}
  },
  "methodIdentifiers": {
    "bountyAmounts(bytes32)": "771eb857",
    "escrow(string,address,uint256,address,uint256)": "c5660dbf",
    "expiration(bytes32)": "56406fa5",
    "forceHunterPayout(string,address,address)": "c031cd73",
    "hunterDisputeResponse(string,address,uint32,bytes,(address,address,address,bool,int256,int256,uint256,uint256,uint256,uint256,uint256))": "817f6c32",
    "initialize()": "8129fc1c",
    "initiateDispute(string,address,address,uint256,string,address)": "9e2172b5",
    "oracleInterface()": "28ebaa6f",
    "owner()": "8da5cb5b",
    "payout(string,address,address)": "2902f77f",
    "payoutExpiration(bytes32)": "d911392d",
    "payoutIfDispute(string,address,uint32,bytes,(address,address,address,bool,int256,int256,uint256,uint256,uint256,uint256,uint256),address)": "51fad6b7",
    "progress(bytes32)": "7aebd2a8",
    "proxiableUUID()": "52d1902d",
    "renounceOwnership()": "715018a6",
    "submit(string,address)": "696b9aa7",
    "transferOwnership(address)": "f2fde38b",
    "upgradeTo(address)": "3659cfe6",
    "upgradeToAndCall(address,bytes)": "4f1ef286"
  },
  "id": 59
}