{
  "abi": [
    {
      "anonymous": false,
      "inputs": [
        {
          "indexed": true,
          "internalType": "address",
          "name": "creator",
          "type": "address"
        },
        {
          "indexed": true,
          "internalType": "address",
          "name": "hunter",
          "type": "address"
        },
        {
          "indexed": true,
          "internalType": "string",
          "name": "bountyAppId",
          "type": "string"
        },
        {
          "indexed": false,
          "internalType": "string",
          "name": "message",
          "type": "string"
        }
      ],
      "name": "DisputeRespondedTo",
      "type": "event"
    },
    {
      "anonymous": false,
      "inputs": [
        {
          "indexed": true,
          "internalType": "address",
          "name": "creator",
          "type": "address"
        },
        {
          "indexed": true,
          "internalType": "address",
          "name": "hunter",
          "type": "address"
        },
        {
          "indexed": true,
          "internalType": "string",
          "name": "bountyAppId",
          "type": "string"
        },
        {
          "indexed": false,
          "internalType": "uint32",
          "name": "timestamp",
          "type": "uint32"
        },
        {
          "indexed": false,
          "internalType": "string",
          "name": "message",
          "type": "string"
        }
      ],
      "name": "Disputed",
      "type": "event"
    },
    {
      "anonymous": false,
      "inputs": [
        {
          "indexed": true,
          "internalType": "address",
          "name": "creator",
          "type": "address"
        },
        {
          "indexed": true,
          "internalType": "address",
          "name": "hunter",
          "type": "address"
        },
        {
          "indexed": true,
          "internalType": "string",
          "name": "bountyAppId",
          "type": "string"
        },
        {
          "indexed": false,
          "internalType": "string",
          "name": "message",
          "type": "string"
        }
      ],
      "name": "Escrowed",
      "type": "event"
    },
    {
      "anonymous": false,
      "inputs": [
        {
          "indexed": true,
          "internalType": "address",
          "name": "creator",
          "type": "address"
        },
        {
          "indexed": true,
          "internalType": "address",
          "name": "hunter",
          "type": "address"
        },
        {
          "indexed": true,
          "internalType": "string",
          "name": "bountyAppId",
          "type": "string"
        },
        {
          "indexed": false,
          "internalType": "string",
          "name": "message",
          "type": "string"
        }
      ],
      "name": "FundsForceSentToHunter",
      "type": "event"
    },
    {
      "anonymous": false,
      "inputs": [
        {
          "indexed": true,
          "internalType": "address",
          "name": "creator",
          "type": "address"
        },
        {
          "indexed": true,
          "internalType": "address",
          "name": "hunter",
          "type": "address"
        },
        {
          "indexed": true,
          "internalType": "string",
          "name": "bountyAppId",
          "type": "string"
        },
        {
          "indexed": false,
          "internalType": "string",
          "name": "message",
          "type": "string"
        }
      ],
      "name": "FundsSent",
      "type": "event"
    },
    {
      "anonymous": false,
      "inputs": [
        {
          "indexed": true,
          "internalType": "address",
          "name": "creator",
          "type": "address"
        },
        {
          "indexed": true,
          "internalType": "address",
          "name": "hunter",
          "type": "address"
        },
        {
          "indexed": true,
          "internalType": "string",
          "name": "bountyAppId",
          "type": "string"
        },
        {
          "indexed": false,
          "internalType": "string",
          "name": "message",
          "type": "string"
        }
      ],
      "name": "FundsWithdrawnToCreator",
      "type": "event"
    },
    {
      "anonymous": false,
      "inputs": [
        {
          "indexed": true,
          "internalType": "address",
          "name": "creator",
          "type": "address"
        },
        {
          "indexed": true,
          "internalType": "address",
          "name": "hunter",
          "type": "address"
        },
        {
          "indexed": true,
          "internalType": "string",
          "name": "bountyAppId",
          "type": "string"
        },
        {
          "indexed": false,
          "internalType": "address",
          "name": "winner",
          "type": "address"
        },
        {
          "indexed": false,
          "internalType": "string",
          "name": "message",
          "type": "string"
        }
      ],
      "name": "Resolved",
      "type": "event"
    },
    {
      "anonymous": false,
      "inputs": [
        {
          "indexed": true,
          "internalType": "address",
          "name": "creator",
          "type": "address"
        },
        {
          "indexed": true,
          "internalType": "address",
          "name": "hunter",
          "type": "address"
        },
        {
          "indexed": true,
          "internalType": "string",
          "name": "bountyAppId",
          "type": "string"
        },
        {
          "indexed": false,
          "internalType": "string",
          "name": "message",
          "type": "string"
        }
      ],
      "name": "Submitted",
      "type": "event"
    },
    {
      "inputs": [
        {
          "internalType": "bytes32",
          "name": "",
          "type": "bytes32"
        }
      ],
      "name": "bountyAmounts",
      "outputs": [
        {
          "internalType": "uint256",
          "name": "",
          "type": "uint256"
        }
      ],
      "stateMutability": "view",
      "type": "function"
    },
    {
      "inputs": [
        {
          "internalType": "string",
          "name": "_bountyAppId",
          "type": "string"
        },
        {
          "internalType": "address",
          "name": "_hunter",
          "type": "address"
        },
        {
          "internalType": "uint256",
          "name": "_expiration",
          "type": "uint256"
        },
        {
          "internalType": "address",
          "name": "_token",
          "type": "address"
        },
        {
          "internalType": "uint256",
          "name": "_amount",
          "type": "uint256"
        }
      ],
      "name": "escrow",
      "outputs": [],
      "stateMutability": "payable",
      "type": "function"
    },
    {
      "inputs": [
        {
          "internalType": "bytes32",
          "name": "",
          "type": "bytes32"
        }
      ],
      "name": "expiration",
      "outputs": [
        {
          "internalType": "uint256",
          "name": "",
          "type": "uint256"
        }
      ],
      "stateMutability": "view",
      "type": "function"
    },
    {
      "inputs": [
        {
          "internalType": "string",
          "name": "_bountyAppId",
          "type": "string"
        },
        {
          "internalType": "address",
          "name": "_creator",
          "type": "address"
        },
        {
          "internalType": "address",
          "name": "_token",
          "type": "address"
        }
      ],
      "name": "forceHunterPayout",
      "outputs": [],
      "stateMutability": "nonpayable",
      "type": "function"
    },
    {
      "inputs": [
        {
          "internalType": "string",
          "name": "_bountyAppId",
          "type": "string"
        },
        {
          "internalType": "address",
          "name": "_creator",
          "type": "address"
        },
        {
          "internalType": "uint32",
          "name": "_timestamp",
          "type": "uint32"
        },
        {
          "internalType": "bytes",
          "name": "_ancillaryData",
          "type": "bytes"
        },
        {
          "components": [
            {
              "internalType": "address",
              "name": "proposer",
              "type": "address"
            },
            {
              "internalType": "address",
              "name": "disputer",
              "type": "address"
            },
            {
              "internalType": "contract IERC20",
              "name": "currency",
              "type": "address"
            },
            {
              "internalType": "bool",
              "name": "settled",
              "type": "bool"
            },
            {
              "internalType": "int256",
              "name": "proposedPrice",
              "type": "int256"
            },
            {
              "internalType": "int256",
              "name": "resolvedPrice",
              "type": "int256"
            },
            {
              "internalType": "uint256",
              "name": "expirationTime",
              "type": "uint256"
            },
            {
              "internalType": "uint256",
              "name": "reward",
              "type": "uint256"
            },
            {
              "internalType": "uint256",
              "name": "finalFee",
              "type": "uint256"
            },
            {
              "internalType": "uint256",
              "name": "bond",
              "type": "uint256"
            },
            {
              "internalType": "uint256",
              "name": "customLiveness",
              "type": "uint256"
            }
          ],
          "internalType": "struct SkinnyOptimisticOracleInterface.Request",
          "name": "_request",
          "type": "tuple"
        }
      ],
      "name": "hunterDisputeResponse",
      "outputs": [
        {
          "internalType": "uint256",
          "name": "",
          "type": "uint256"
        }
      ],
      "stateMutability": "nonpayable",
      "type": "function"
    },
    {
      "inputs": [
        {
          "internalType": "string",
          "name": "_bountyAppId",
          "type": "string"
        },
        {
          "internalType": "address",
          "name": "_hunter",
          "type": "address"
        },
        {
          "internalType": "address",
          "name": "_oracleAddress",
          "type": "address"
        },
        {
          "internalType": "uint256",
          "name": "_bondAmt",
          "type": "uint256"
        },
        {
          "internalType": "string",
          "name": "_ancillaryData",
          "type": "string"
        },
        {
          "internalType": "contract IERC20",
          "name": "_currency",
          "type": "address"
        }
      ],
      "name": "initiateDispute",
      "outputs": [
        {
          "internalType": "uint256",
          "name": "",
          "type": "uint256"
        }
      ],
      "stateMutability": "nonpayable",
      "type": "function"
    },
    {
      "inputs": [],
      "name": "oracleInterface",
      "outputs": [
        {
          "internalType": "contract SkinnyOptimisticOracleInterface",
          "name": "",
          "type": "address"
        }
      ],
      "stateMutability": "view",
      "type": "function"
    },
    {
      "inputs": [
        {
          "internalType": "string",
          "name": "_bountyAppId",
          "type": "string"
        },
        {
          "internalType": "address",
          "name": "_hunter",
          "type": "address"
        },
        {
          "internalType": "address",
          "name": "_token",
          "type": "address"
        }
      ],
      "name": "payout",
      "outputs": [],
      "stateMutability": "nonpayable",
      "type": "function"
    },
    {
      "inputs": [
        {
          "internalType": "bytes32",
          "name": "",
          "type": "bytes32"
        }
      ],
      "name": "payoutExpiration",
      "outputs": [
        {
          "internalType": "uint256",
          "name": "",
          "type": "uint256"
        }
      ],
      "stateMutability": "view",
      "type": "function"
    },
    {
      "inputs": [
        {
          "internalType": "string",
          "name": "_bountyAppId",
          "type": "string"
        },
        {
          "internalType": "address",
          "name": "_hunter",
          "type": "address"
        },
        {
          "internalType": "uint32",
          "name": "_timestamp",
          "type": "uint32"
        },
        {
          "internalType": "bytes",
          "name": "_ancillaryData",
          "type": "bytes"
        },
        {
          "components": [
            {
              "internalType": "address",
              "name": "proposer",
              "type": "address"
            },
            {
              "internalType": "address",
              "name": "disputer",
              "type": "address"
            },
            {
              "internalType": "contract IERC20",
              "name": "currency",
              "type": "address"
            },
            {
              "internalType": "bool",
              "name": "settled",
              "type": "bool"
            },
            {
              "internalType": "int256",
              "name": "proposedPrice",
              "type": "int256"
            },
            {
              "internalType": "int256",
              "name": "resolvedPrice",
              "type": "int256"
            },
            {
              "internalType": "uint256",
              "name": "expirationTime",
              "type": "uint256"
            },
            {
              "internalType": "uint256",
              "name": "reward",
              "type": "uint256"
            },
            {
              "internalType": "uint256",
              "name": "finalFee",
              "type": "uint256"
            },
            {
              "internalType": "uint256",
              "name": "bond",
              "type": "uint256"
            },
            {
              "internalType": "uint256",
              "name": "customLiveness",
              "type": "uint256"
            }
          ],
          "internalType": "struct SkinnyOptimisticOracleInterface.Request",
          "name": "_request",
          "type": "tuple"
        },
        {
          "internalType": "address",
          "name": "_token",
          "type": "address"
        }
      ],
      "name": "payoutIfDispute",
      "outputs": [],
      "stateMutability": "nonpayable",
      "type": "function"
    },
    {
      "inputs": [
        {
          "internalType": "bytes32",
          "name": "",
          "type": "bytes32"
        }
      ],
      "name": "progress",
      "outputs": [
        {
          "internalType": "enum Escrow.Status",
          "name": "",
          "type": "uint8"
        }
      ],
      "stateMutability": "view",
      "type": "function"
    },
    {
      "inputs": [
        {
          "internalType": "string",
          "name": "_bountyAppId",
          "type": "string"
        },
        {
          "internalType": "address",
          "name": "_creator",
          "type": "address"
        }
      ],
      "name": "submit",
      "outputs": [],
      "stateMutability": "nonpayable",
      "type": "function"
    }
  ],
  "bytecode": {
    "object": "0x608060405234801561001057600080fd5b50612a7f806100206000396000f3fe6080604052600436106100a75760003560e01c80637aebd2a8116100645780637aebd2a8146101b3578063817f6c32146101f05780639e2172b514610210578063c031cd7314610230578063c5660dbf14610250578063d911392d1461026357600080fd5b806328ebaa6f146100ac5780632902f77f146100e957806351fad6b71461010b57806356406fa51461012b578063696b9aa714610166578063771eb85714610186575b600080fd5b3480156100b857600080fd5b506004546100cc906001600160a01b031681565b6040516001600160a01b0390911681526020015b60405180910390f35b3480156100f557600080fd5b50610109610104366004612263565b610290565b005b34801561011757600080fd5b506101096101263660046123a1565b610873565b34801561013757600080fd5b50610158610146366004612452565b60026020526000908152604090205481565b6040519081526020016100e0565b34801561017257600080fd5b5061010961018136600461246b565b61112d565b34801561019257600080fd5b506101586101a1366004612452565b60006020819052908152604090205481565b3480156101bf57600080fd5b506101e36101ce366004612452565b60016020526000908152604090205460ff1681565b6040516100e091906124d3565b3480156101fc57600080fd5b5061015861020b3660046124fb565b611376565b34801561021c57600080fd5b5061015861022b366004612598565b61160b565b34801561023c57600080fd5b5061010961024b366004612263565b611880565b61010961025e366004612634565b611bbd565b34801561026f57600080fd5b5061015861027e366004612452565b60036020526000908152604090205481565b60008060008533866040516020016102aa939291906126cc565b604051602081830303815290604052805190602001208152602001908152602001600020549050600060048111156102e4576102e46124bd565b600160008633876040516020016102fd939291906126cc565b60408051601f198184030181529181528151602092830120835290820192909252016000205460ff166004811115610337576103376124bd565b14801561038157504260026000863387604051602001610359939291906126cc565b6040516020818303038152906040528051906020012081526020019081526020016000205411155b15610563578060008086338760405160200161039f939291906126cc565b60405160208183030381529060405280519060200120815260200190815260200160002060008282546103d29190612723565b90915550506001600160a01b038216156103ff576103fa6001600160a01b0383163383611db4565b610472565b604051600090339083908381818185875af1925050503d8060008114610441576040519150601f19603f3d011682016040523d82523d6000602084013e610446565b606091505b50509050806104705760405162461bcd60e51b81526004016104679061273c565b60405180910390fd5b505b83604051610480919061276a565b6040518091039020836001600160a01b0316336001600160a01b03167fb9bdb7ed8146376064d748bca1cc3449acc3526943957d471adcc7485e2e73116040516104fb906020808252601b908201527f46756e64732077697468647261776e20746f2063726561746f72210000000000604082015260600190565b60405180910390a460046001600086338760405160200161051e939291906126cc565b60408051601f19818403018152918152815160209283012083529082019290925201600020805460ff1916600183600481111561055d5761055d6124bd565b02179055505b60006001600086338760405160200161057e939291906126cc565b60408051601f198184030181529181528151602092830120835290820192909252016000205460ff16905060018160048111156105bd576105bd6124bd565b0361078b57816000808733886040516020016105db939291906126cc565b604051602081830303815290604052805190602001208152602001908152602001600020600082825461060e9190612723565b90915550506001600160a01b0383161561063b576106366001600160a01b0384168584611db4565b6106b0565b6000846001600160a01b03168360405160006040518083038185875af1925050503d8060008114610688576040519150601f19603f3d011682016040523d82523d6000602084013e61068d565b606091505b50509050806106ae5760405162461bcd60e51b81526004016104679061273c565b505b846040516106be919061276a565b6040518091039020846001600160a01b0316336001600160a01b0316600080516020612a2a83398151915260405161071f9060208082526015908201527446756e64732073656e7420746f2068756e7465722160581b604082015260600190565b60405180910390a4600460016000873388604051602001610742939291906126cc565b60408051601f19818403018152918152815160209283012083529082019290925201600020805460ff19166001836004811115610781576107816124bd565b021790555061086c565b600081600481111561079f5761079f6124bd565b1480156107ac5750600082115b156107f95760405162461bcd60e51b815260206004820181905260248201527f48756e746572206861736e2774207375626d697474656420776f726b207965746044820152606401610467565b600281600481111561080d5761080d6124bd565b148061082a57506003816004811115610828576108286124bd565b145b1561086c5760405162461bcd60e51b8152602060048201526012602482015271109bdd5b9d1e481a5cc8191a5cdc1d5d195960721b6044820152606401610467565b5050505050565b60006001600088338960405160200161088e939291906126cc565b60408051601f198184030181529181528151602092830120835290820192909252016000205460ff16905060018160048111156108cd576108cd6124bd565b0361091a5760405162461bcd60e51b815260206004820152601c60248201527f43726561746f72206861736e277420646973707574656420776f726b000000006044820152606401610467565b600481600481111561092e5761092e6124bd565b0361097b5760405162461bcd60e51b815260206004820152601960248201527f426f756e747920686173206265656e207061796564206f7574000000000000006044820152606401610467565b60048054604051631448155560e21b81526000926001600160a01b03909216916351205554916109c79130916e5945535f4f525f4e4f5f515545525960881b918c918c918c9101612853565b6020604051808303816000875af11580156109e6573d6000803e3d6000fd5b505050506040513d601f19601f82011682018060405250810190610a0a919061289b565b905060008060008a338b604051602001610a26939291906126cc565b60408051601f198184030181529181528151602092830120835290820192909252016000205490506004836004811115610a6257610a626124bd565b14158015610a9c57506005826006811115610a7f57610a7f6124bd565b1480610a9c57506003826006811115610a9a57610a9a6124bd565b145b15611092576004805460405163b730539f60e01b81526000926001600160a01b039092169163b730539f91610aed9130916e5945535f4f525f4e4f5f515545525960881b918e918e918e9101612853565b60408051808303816000875af1158015610b0b573d6000803e3d6000fd5b505050506040513d601f19601f82011682018060405250810190610b2f91906128c3565b91505080600003610ca157816000808c338d604051602001610b53939291906126cc565b6040516020818303038152906040528051906020012081526020019081526020016000206000828254610b869190612723565b90915550506001600160a01b03851615610bb357610bae6001600160a01b0386163384611db4565b610c1d565b604051600090339084908381818185875af1925050503d8060008114610bf5576040519150601f19603f3d011682016040523d82523d6000602084013e610bfa565b606091505b5050905080610c1b5760405162461bcd60e51b81526004016104679061273c565b505b89604051610c2b919061276a565b6040518091039020896001600160a01b0316336001600160a01b0316600080516020612a2a833981519152604051610c94906020808252601b908201527f46756e64732073656e74206261636b20746f2063726561746f72210000000000604082015260600190565b60405180910390a461102d565b80600103610e0657816000808c338d604051602001610cc2939291906126cc565b6040516020818303038152906040528051906020012081526020019081526020016000206000828254610cf59190612723565b90915550506001600160a01b03851615610d2257610d1d6001600160a01b0386168a84611db4565b610d97565b6000896001600160a01b03168360405160006040518083038185875af1925050503d8060008114610d6f576040519150601f19603f3d011682016040523d82523d6000602084013e610d74565b606091505b5050905080610d955760405162461bcd60e51b81526004016104679061273c565b505b89604051610da5919061276a565b6040518091039020896001600160a01b0316336001600160a01b0316600080516020612a2a833981519152604051610c949060208082526015908201527446756e64732073656e7420746f2068756e7465722160581b604082015260600190565b8060020361102d57816000808c338d604051602001610e27939291906126cc565b6040516020818303038152906040528051906020012081526020019081526020016000206000828254610e5a9190612723565b90915550506001600160a01b03851615610ea257610e8e89610e7d6002856128e7565b6001600160a01b0388169190611db4565b610e9d33610e7d6002856128e7565b610f8e565b60006001600160a01b038a16610eb96002856128e7565b604051600081818185875af1925050503d8060008114610ef5576040519150601f19603f3d011682016040523d82523d6000602084013e610efa565b606091505b5050905080610f1b5760405162461bcd60e51b81526004016104679061273c565b600033610f296002866128e7565b604051600081818185875af1925050503d8060008114610f65576040519150601f19603f3d011682016040523d82523d6000602084013e610f6a565b606091505b5050905080610f8b5760405162461bcd60e51b81526004016104679061273c565b50505b89604051610f9c919061276a565b6040518091039020896001600160a01b0316336001600160a01b0316600080516020612a2a8339815191526040516110249060208082526036908201527f48616c66206f662066756e64732073656e74206261636b20746f2063726561746040820152756f7220616e64207468656e20746f2068756e7465722160501b606082015260800190565b60405180910390a45b6004600160008c338d604051602001611048939291906126cc565b60408051601f19818403018152918152815160209283012083529082019290925201600020805460ff19166001836004811115611087576110876124bd565b021790555050611122565b60048360048111156110a6576110a66124bd565b141580156110e0575060028260068111156110c3576110c36124bd565b14806110e0575060048260068111156110de576110de6124bd565b145b156111225760405162461bcd60e51b815260206004820152601260248201527144697370757465207374696c6c206c69766560701b6044820152606401610467565b505050505050505050565b600080838333604051602001611145939291906126cc565b604051602081830303815290604052805190602001208152602001908152602001600020546000036111ae5760405162461bcd60e51b8152602060048201526012602482015271119d5b991cc81b9bdd08195cd8dc9bddd95960721b6044820152606401610467565b60018060008484336040516020016111c8939291906126cc565b60408051601f198184030181529181528151602092830120835290820192909252016000205460ff166004811115611202576112026124bd565b036112485760405162461bcd60e51b815260206004820152601660248201527515dbdc9ac8185b1c9958591e481cdd589b5a5d1d195960521b6044820152606401610467565b6001806000848433604051602001611262939291906126cc565b60408051601f19818403018152918152815160209283012083529082019290925201600020805460ff191660018360048111156112a1576112a16124bd565b02179055506112b34262127500612909565b600360008484336040516020016112cc939291906126cc565b6040516020818303038152906040528051906020012081526020019081526020016000208190555081604051611302919061276a565b6040518091039020336001600160a01b0316826001600160a01b03167f68a67c1cdac393ac88c3132d0e126d77a2b494fd4a9d2046d3b9999cb2ad780160405161136a906020808252600a90820152695375626d69747465642160b01b604082015260600190565b60405180910390a45050565b6000600260016000888833604051602001611393939291906126cc565b60408051601f198184030181529181528151602092830120835290820192909252016000205460ff1660048111156113cd576113cd6124bd565b1461141a5760405162461bcd60e51b815260206004820152601f60248201527f426f756e74792063726561746f7220686173206e6f74206469737075746564006044820152606401610467565b61144b333084610120015161015e6114329190612909565b60408601516001600160a01b0316929190601018611e1c565b600454610120830151611486916001600160a01b03169061146e9061015e612909565b60408501516001600160a01b03169190601018611e5a565b6004805460405163139c641960e31b81526000926001600160a01b0390921691639ce320c8916114d4916e5945535f4f525f4e4f5f515545525960881b918a918a918a91339130910161291c565b6020604051808303816000875af11580156114f3573d6000803e3d6000fd5b505050506040513d601f19601f820116820180604052508101906115179190612979565b9050600360016000898933604051602001611534939291906126cc565b60408051601f19818403018152918152815160209283012083529082019290925201600020805460ff19166001836004811115611573576115736124bd565b021790555086604051611586919061276a565b6040518091039020336001600160a01b0316876001600160a01b03167f3f7182f4231b269a10d1e02d72f7c47f5492854e8d58363b87dc09538a575bcf6040516115f9906020808252601590820152744469737075746520526573706f6e64656420546f2160581b604082015260600190565b60405180910390a49695505050505050565b6000600180600089338a604051602001611627939291906126cc565b60408051601f198184030181529181528151602092830120835290820192909252016000205460ff166004811115611661576116616124bd565b146116a35760405162461bcd60e51b815260206004820152601260248201527115dbdc9ac81b9bdd0814dd589b5a5d1d195960721b6044820152606401610467565b826116ca33306116b58861015e612909565b6001600160a01b038716929190601018611e1c565b6116ee866116da8761015e612909565b6001600160a01b0386169190601018611e5a565b600480546001600160a01b0319166001600160a01b038816908117825560405163579aae8f60e11b815260009263af355d1e91611752916e5945535f4f525f4e4f5f515545525960881b91429188918b9189918f9162093a80913391859101612992565b6020604051808303816000875af1158015611771573d6000803e3d6000fd5b505050506040513d601f19601f820116820180604052508101906117959190612979565b90506002600160008b338c6040516020016117b2939291906126cc565b60408051601f19818403018152918152815160209283012083529082019290925201600020805460ff191660018360048111156117f1576117f16124bd565b021790555088604051611804919061276a565b604080519182900382204263ffffffff168352602083018290526009838301526844697370757465642160b81b6060840152905190916001600160a01b038b169133917f3178438e5e76b4e0fbbedfdb783349111bd0b217fc639b930dd3467546f828b4919081900360800190a49150505b9695505050505050565b600180600085853360405160200161189a939291906126cc565b60408051601f198184030181529181528151602092830120835290820192909252016000205460ff1660048111156118d4576118d46124bd565b146119165760405162461bcd60e51b815260206004820152601260248201527115dbdc9ac81b9bdd0814dd589b5a5d1d195960721b6044820152606401610467565b4260036000858533604051602001611930939291906126cc565b6040516020818303038152906040528051906020012081526020019081526020016000205411156119a35760405162461bcd60e51b815260206004820181905260248201527f43726561746f722063616e207374696c6c20706179206f7220646973707574656044820152606401610467565b60008060008585336040516020016119bd939291906126cc565b604051602081830303815290604052805190602001208152602001908152602001600020549050806000808686336040516020016119fd939291906126cc565b6040516020818303038152906040528051906020012081526020019081526020016000206000828254611a309190612723565b90915550506001600160a01b03821615611a5d57611a586001600160a01b0383163383611db4565b611ac7565b604051600090339083908381818185875af1925050503d8060008114611a9f576040519150601f19603f3d011682016040523d82523d6000602084013e611aa4565b606091505b5050905080611ac55760405162461bcd60e51b81526004016104679061273c565b505b83604051611ad5919061276a565b6040518091039020336001600160a01b0316846001600160a01b03167f3d3e6b9b452dfac5b1ec55216e1f4ad64bcff404fc6b256e98d3645e22949871604051611b50906020808252601b908201527f46756e647320666f7263652073656e7420746f2068756e746572210000000000604082015260600190565b60405180910390a4600460016000868633604051602001611b73939291906126cc565b60408051601f19818403018152918152815160209283012083529082019290925201600020805460ff19166001836004811115611bb257611bb26124bd565b021790555050505050565b600080863387604051602001611bd5939291906126cc565b60405160208183030381529060405280519060200120815260200190815260200160002054600014611c425760405162461bcd60e51b8152602060048201526016602482015275119d5b991cc8185b1c9958591e48195cd8dc9bddd95960521b6044820152606401610467565b3415611c8e5734600080873388604051602001611c61939291906126cc565b60405160208183030381529060405280519060200120815260200190815260200160002081905550611ce5565b611ca36001600160a01b038316333084611e1c565b80600080873388604051602001611cbc939291906126cc565b604051602081830303815290604052805190602001208152602001908152602001600020819055505b611cef8342612909565b60026000873388604051602001611d08939291906126cc565b6040516020818303038152906040528051906020012081526020019081526020016000208190555084604051611d3e919061276a565b6040518091039020846001600160a01b0316336001600160a01b03167fd1e07ed273f3f8baf4d06b102596f3d355cb8d1f264f85fade4e9708b67ee858604051611da590602080825260099082015268457363726f7765642160b81b604082015260600190565b60405180910390a45050505050565b6040516001600160a01b038316602482015260448101829052611e1790849063a9059cbb60e01b906064015b60408051601f198184030181529190526020810180516001600160e01b03166001600160e01b031990931692909217909152611f0c565b505050565b6040516001600160a01b0380851660248301528316604482015260648101829052611e549085906323b872dd60e01b90608401611de0565b50505050565b604051636eb1769f60e11b81523060048201526001600160a01b038381166024830152600091839186169063dd62ed3e90604401602060405180830381865afa158015611eab573d6000803e3d6000fd5b505050506040513d601f19601f82011682018060405250810190611ecf9190612979565b611ed99190612909565b6040516001600160a01b038516602482015260448101829052909150611e5490859063095ea7b360e01b90606401611de0565b6000611f61826040518060400160405280602081526020017f5361666545524332303a206c6f772d6c6576656c2063616c6c206661696c6564815250856001600160a01b0316611fde9092919063ffffffff16565b805190915015611e175780806020019051810190611f7f91906129f9565b611e175760405162461bcd60e51b815260206004820152602a60248201527f5361666545524332303a204552433230206f7065726174696f6e20646964206e6044820152691bdd081cdd58d8d9595960b21b6064820152608401610467565b6060611fed8484600085611ff5565b949350505050565b6060824710156120565760405162461bcd60e51b815260206004820152602660248201527f416464726573733a20696e73756666696369656e742062616c616e636520666f6044820152651c8818d85b1b60d21b6064820152608401610467565b600080866001600160a01b03168587604051612072919061276a565b60006040518083038185875af1925050503d80600081146120af576040519150601f19603f3d011682016040523d82523d6000602084013e6120b4565b606091505b50915091506120c5878383876120d0565b979650505050505050565b6060831561213f578251600003612138576001600160a01b0385163b6121385760405162461bcd60e51b815260206004820152601d60248201527f416464726573733a2063616c6c20746f206e6f6e2d636f6e74726163740000006044820152606401610467565b5081611fed565b611fed83838151156121545781518083602001fd5b8060405162461bcd60e51b81526004016104679190612a16565b634e487b7160e01b600052604160045260246000fd5b604051610160810167ffffffffffffffff811182821017156121a8576121a861216e565b60405290565b600082601f8301126121bf57600080fd5b813567ffffffffffffffff808211156121da576121da61216e565b604051601f8301601f19908116603f011681019082821181831017156122025761220261216e565b8160405283815286602085880101111561221b57600080fd5b836020870160208301376000602085830101528094505050505092915050565b6001600160a01b038116811461225057600080fd5b50565b803561225e8161223b565b919050565b60008060006060848603121561227857600080fd5b833567ffffffffffffffff81111561228f57600080fd5b61229b868287016121ae565b93505060208401356122ac8161223b565b915060408401356122bc8161223b565b809150509250925092565b803563ffffffff8116811461225e57600080fd5b801515811461225057600080fd5b803561225e816122db565b6000610160828403121561230757600080fd5b61230f612184565b905061231a82612253565b815261232860208301612253565b602082015261233960408301612253565b604082015261234a606083016122e9565b60608201526080820135608082015260a082013560a082015260c082013560c082015260e082013560e082015261010080830135818301525061012080830135818301525061014080830135818301525092915050565b60008060008060008061020087890312156123bb57600080fd5b863567ffffffffffffffff808211156123d357600080fd5b6123df8a838b016121ae565b9750602089013591506123f18261223b565b81965061240060408a016122c7565b9550606089013591508082111561241657600080fd5b5061242389828a016121ae565b93505061243388608089016122f4565b91506101e08701356124448161223b565b809150509295509295509295565b60006020828403121561246457600080fd5b5035919050565b6000806040838503121561247e57600080fd5b823567ffffffffffffffff81111561249557600080fd5b6124a1858286016121ae565b92505060208301356124b28161223b565b809150509250929050565b634e487b7160e01b600052602160045260246000fd5b60208101600583106124f557634e487b7160e01b600052602160045260246000fd5b91905290565b60008060008060006101e0868803121561251457600080fd5b853567ffffffffffffffff8082111561252c57600080fd5b61253889838a016121ae565b96506020880135915061254a8261223b565b819550612559604089016122c7565b9450606088013591508082111561256f57600080fd5b5061257c888289016121ae565b92505061258c87608088016122f4565b90509295509295909350565b60008060008060008060c087890312156125b157600080fd5b863567ffffffffffffffff808211156125c957600080fd5b6125d58a838b016121ae565b9750602089013591506125e78261223b565b9095506040880135906125f98261223b565b909450606088013593506080880135908082111561261657600080fd5b5061262389828a016121ae565b92505060a08701356124448161223b565b600080600080600060a0868803121561264c57600080fd5b853567ffffffffffffffff81111561266357600080fd5b61266f888289016121ae565b95505060208601356126808161223b565b93506040860135925060608601356126978161223b565b949793965091946080013592915050565b60005b838110156126c35781810151838201526020016126ab565b50506000910152565b600084516126de8184602089016126a8565b6bffffffffffffffffffffffff19606095861b8116919093019081529290931b16601482015260280192915050565b634e487b7160e01b600052601160045260246000fd5b818103818111156127365761273661270d565b92915050565b6020808252601490820152732330b4b632b2103a379039b2b7321022ba3432b960611b604082015260600190565b6000825161277c8184602087016126a8565b9190910192915050565b6000815180845261279e8160208601602086016126a8565b601f01601f19169290920160200192915050565b80516001600160a01b0316825260208101516127d960208401826001600160a01b03169052565b5060408101516127f460408401826001600160a01b03169052565b506060810151612808606084018215159052565b506080818101519083015260a0808201519083015260c0808201519083015260e080820151908301526101008082015190830152610120808201519083015261014090810151910152565b6001600160a01b03861681526020810185905263ffffffff841660408201526101e06060820181905260009061288b83820186612786565b91505061187660808301846127b2565b6000602082840312156128ad57600080fd5b8151600781106128bc57600080fd5b9392505050565b600080604083850312156128d657600080fd5b505080516020909101519092909150565b60008261290457634e487b7160e01b600052601260045260246000fd5b500490565b808201808211156127365761273661270d565b600061020088835263ffffffff8816602084015280604084015261294281840188612786565b91505061295260608301866127b2565b6001600160a01b039384166101c0830152919092166101e090920191909152949350505050565b60006020828403121561298b57600080fd5b5051919050565b60006101208b835263ffffffff8b1660208401528060408401526129b88184018b612786565b6001600160a01b03998a1660608501526080840198909852505060a081019490945260c084019290925290931660e082015261010001919091529392505050565b600060208284031215612a0b57600080fd5b81516128bc816122db565b6020815260006128bc602083018461278656fe792ad3967c4edb1c07d26a2bb911a5dce93db0ec891f4bb69c55f2721bb888c2a2646970667358221220b541f9efcf16b5f7ce1b1bcb7bca4920b5721e0baf580e46f9cd1c58edb316d664736f6c63430008110033",
    "linkReferences": {}
  },
  "methodIdentifiers": {
    "bountyAmounts(bytes32)": "771eb857",
    "escrow(string,address,uint256,address,uint256)": "c5660dbf",
    "expiration(bytes32)": "56406fa5",
    "forceHunterPayout(string,address,address)": "c031cd73",
    "hunterDisputeResponse(string,address,uint32,bytes,(address,address,address,bool,int256,int256,uint256,uint256,uint256,uint256,uint256))": "817f6c32",
    "initiateDispute(string,address,address,uint256,string,address)": "9e2172b5",
    "oracleInterface()": "28ebaa6f",
    "payout(string,address,address)": "2902f77f",
    "payoutExpiration(bytes32)": "d911392d",
    "payoutIfDispute(string,address,uint32,bytes,(address,address,address,bool,int256,int256,uint256,uint256,uint256,uint256,uint256),address)": "51fad6b7",
    "progress(bytes32)": "7aebd2a8",
    "submit(string,address)": "696b9aa7"
  },
  "id": 51
}