{"abi":[{"type":"constructor","inputs":[],"stateMutability":"nonpayable"},{"type":"function","name":"UPGRADE_INTERFACE_VERSION","inputs":[],"outputs":[{"name":"","type":"string","internalType":"string"}],"stateMutability":"view"},{"type":"function","name":"bountyAmounts","inputs":[{"name":"","type":"bytes32","internalType":"bytes32"}],"outputs":[{"name":"","type":"uint256","internalType":"uint256"}],"stateMutability":"view"},{"type":"function","name":"bountyToken","inputs":[{"name":"","type":"bytes32","internalType":"bytes32"}],"outputs":[{"name":"","type":"address","internalType":"address"}],"stateMutability":"view"},{"type":"function","name":"escrow","inputs":[{"name":"_bountyAppId","type":"string","internalType":"string"},{"name":"_hunter","type":"address","internalType":"address"},{"name":"_expiration","type":"uint256","internalType":"uint256"},{"name":"_token","type":"address","internalType":"address"},{"name":"_amount","type":"uint256","internalType":"uint256"}],"outputs":[],"stateMutability":"payable"},{"type":"function","name":"expiration","inputs":[{"name":"","type":"bytes32","internalType":"bytes32"}],"outputs":[{"name":"","type":"uint256","internalType":"uint256"}],"stateMutability":"view"},{"type":"function","name":"forceHunterPayout","inputs":[{"name":"_bountyAppId","type":"string","internalType":"string"},{"name":"_creator","type":"address","internalType":"address"}],"outputs":[],"stateMutability":"nonpayable"},{"type":"function","name":"initialize","inputs":[{"name":"_owner","type":"address","internalType":"address"}],"outputs":[],"stateMutability":"nonpayable"},{"type":"function","name":"owner","inputs":[],"outputs":[{"name":"","type":"address","internalType":"address"}],"stateMutability":"view"},{"type":"function","name":"payout","inputs":[{"name":"_bountyAppId","type":"string","internalType":"string"},{"name":"_hunter","type":"address","internalType":"address"}],"outputs":[],"stateMutability":"nonpayable"},{"type":"function","name":"payoutExpiration","inputs":[{"name":"","type":"bytes32","internalType":"bytes32"}],"outputs":[{"name":"","type":"uint256","internalType":"uint256"}],"stateMutability":"view"},{"type":"function","name":"progress","inputs":[{"name":"","type":"bytes32","internalType":"bytes32"}],"outputs":[{"name":"","type":"uint8","internalType":"enum Cornucopia.Status"}],"stateMutability":"view"},{"type":"function","name":"proxiableUUID","inputs":[],"outputs":[{"name":"","type":"bytes32","internalType":"bytes32"}],"stateMutability":"view"},{"type":"function","name":"renounceOwnership","inputs":[],"outputs":[],"stateMutability":"nonpayable"},{"type":"function","name":"submit","inputs":[{"name":"_bountyAppId","type":"string","internalType":"string"},{"name":"_creator","type":"address","internalType":"address"}],"outputs":[],"stateMutability":"nonpayable"},{"type":"function","name":"transferOwnership","inputs":[{"name":"newOwner","type":"address","internalType":"address"}],"outputs":[],"stateMutability":"nonpayable"},{"type":"function","name":"upgradeToAndCall","inputs":[{"name":"newImplementation","type":"address","internalType":"address"},{"name":"data","type":"bytes","internalType":"bytes"}],"outputs":[],"stateMutability":"payable"},{"type":"event","name":"Escrowed","inputs":[{"name":"creator","type":"address","indexed":true,"internalType":"address"},{"name":"hunter","type":"address","indexed":true,"internalType":"address"},{"name":"bountyAppId","type":"string","indexed":true,"internalType":"string"},{"name":"message","type":"string","indexed":false,"internalType":"string"}],"anonymous":false},{"type":"event","name":"FundsForceSentToHunter","inputs":[{"name":"creator","type":"address","indexed":true,"internalType":"address"},{"name":"hunter","type":"address","indexed":true,"internalType":"address"},{"name":"bountyAppId","type":"string","indexed":true,"internalType":"string"},{"name":"message","type":"string","indexed":false,"internalType":"string"}],"anonymous":false},{"type":"event","name":"FundsSent","inputs":[{"name":"creator","type":"address","indexed":true,"internalType":"address"},{"name":"hunter","type":"address","indexed":true,"internalType":"address"},{"name":"bountyAppId","type":"string","indexed":true,"internalType":"string"},{"name":"message","type":"string","indexed":false,"internalType":"string"}],"anonymous":false},{"type":"event","name":"FundsWithdrawnToCreator","inputs":[{"name":"creator","type":"address","indexed":true,"internalType":"address"},{"name":"hunter","type":"address","indexed":true,"internalType":"address"},{"name":"bountyAppId","type":"string","indexed":true,"internalType":"string"},{"name":"message","type":"string","indexed":false,"internalType":"string"}],"anonymous":false},{"type":"event","name":"Initialized","inputs":[{"name":"version","type":"uint64","indexed":false,"internalType":"uint64"}],"anonymous":false},{"type":"event","name":"OwnershipTransferred","inputs":[{"name":"previousOwner","type":"address","indexed":true,"internalType":"address"},{"name":"newOwner","type":"address","indexed":true,"internalType":"address"}],"anonymous":false},{"type":"event","name":"Resolved","inputs":[{"name":"creator","type":"address","indexed":true,"internalType":"address"},{"name":"hunter","type":"address","indexed":true,"internalType":"address"},{"name":"bountyAppId","type":"string","indexed":true,"internalType":"string"},{"name":"winner","type":"address","indexed":false,"internalType":"address"},{"name":"message","type":"string","indexed":false,"internalType":"string"}],"anonymous":false},{"type":"event","name":"Submitted","inputs":[{"name":"creator","type":"address","indexed":true,"internalType":"address"},{"name":"hunter","type":"address","indexed":true,"internalType":"address"},{"name":"bountyAppId","type":"string","indexed":true,"internalType":"string"},{"name":"message","type":"string","indexed":false,"internalType":"string"}],"anonymous":false},{"type":"event","name":"Upgraded","inputs":[{"name":"implementation","type":"address","indexed":true,"internalType":"address"}],"anonymous":false},{"type":"error","name":"AddressEmptyCode","inputs":[{"name":"target","type":"address","internalType":"address"}]},{"type":"error","name":"AddressInsufficientBalance","inputs":[{"name":"account","type":"address","internalType":"address"}]},{"type":"error","name":"ERC1967InvalidImplementation","inputs":[{"name":"implementation","type":"address","internalType":"address"}]},{"type":"error","name":"ERC1967NonPayable","inputs":[]},{"type":"error","name":"FailedInnerCall","inputs":[]},{"type":"error","name":"InvalidInitialization","inputs":[]},{"type":"error","name":"NotInitializing","inputs":[]},{"type":"error","name":"OwnableInvalidOwner","inputs":[{"name":"owner","type":"address","internalType":"address"}]},{"type":"error","name":"OwnableUnauthorizedAccount","inputs":[{"name":"account","type":"address","internalType":"address"}]},{"type":"error","name":"ReentrancyGuardReentrantCall","inputs":[]},{"type":"error","name":"SafeERC20FailedOperation","inputs":[{"name":"token","type":"address","internalType":"address"}]},{"type":"error","name":"UUPSUnauthorizedCallContext","inputs":[]},{"type":"error","name":"UUPSUnsupportedProxiableUUID","inputs":[{"name":"slot","type":"bytes32","internalType":"bytes32"}]}],"bytecode":{"object":"0x60a06040523060805234801561001457600080fd5b5061001d610022565b6100d4565b7ff0c57e16840df040f15088dc2f81fe391c3923bec73e23a9662efc9c229c6a00805468010000000000000000900460ff16156100725760405163f92ee8a960e01b815260040160405180910390fd5b80546001600160401b03908116146100d15780546001600160401b0319166001600160401b0390811782556040519081527fc7f505b2f371ae2175ee4913f4499e1f2633a7b5936321eed1cdaeb6115181d29060200160405180910390a15b50565b608051611f476100fd600039600081816115130152818161153c015261167d0152611f476000f3fe6080604052600436106100f35760003560e01c80637aebd2a81161008a578063c4d66de811610059578063c4d66de81461030a578063c5660dbf1461032a578063d911392d1461033d578063f2fde38b1461036a57600080fd5b80637aebd2a8146102045780637b8e291e146102415780638da5cb5b1461028f578063ad3cb1cc146102cc57600080fd5b806363be095c116100c657806363be095c14610182578063696b9aa7146101a2578063715018a6146101c2578063771eb857146101d757600080fd5b806333357018146100f85780634f1ef2861461011a57806352d1902d1461012d57806356406fa514610155575b600080fd5b34801561010457600080fd5b50610118610113366004611be6565b61038a565b005b610118610128366004611c34565b610966565b34801561013957600080fd5b50610142610981565b6040519081526020015b60405180910390f35b34801561016157600080fd5b50610142610170366004611c96565b60026020526000908152604090205481565b34801561018e57600080fd5b5061011861019d366004611be6565b61099e565b3480156101ae57600080fd5b506101186101bd366004611be6565b610d33565b3480156101ce57600080fd5b50610118610f98565b3480156101e357600080fd5b506101426101f2366004611c96565b60006020819052908152604090205481565b34801561021057600080fd5b5061023461021f366004611c96565b60016020526000908152604090205460ff1681565b60405161014c9190611cc5565b34801561024d57600080fd5b5061027761025c366004611c96565b6004602052600090815260409020546001600160a01b031681565b6040516001600160a01b03909116815260200161014c565b34801561029b57600080fd5b507f9016d09d72d40fdae2fd8ceac6b6234c7706214fd39c1cd1e609a0528c199300546001600160a01b0316610277565b3480156102d857600080fd5b506102fd604051806040016040528060058152602001640352e302e360dc1b81525081565b60405161014c9190611d11565b34801561031657600080fd5b50610118610325366004611d44565b610fac565b610118610338366004611d5f565b6110c4565b34801561034957600080fd5b50610142610358366004611c96565b60036020526000908152604090205481565b34801561037657600080fd5b50610118610385366004611d44565b61142e565b61039261146c565b60008060008433856040516020016103ac93929190611dcf565b6040516020818303038152906040528051906020012081526020019081526020016000205490506000600460008533866040516020016103ee93929190611dcf565b60408051601f198184030181529181528151602092830120835290820192909252016000908120546001600160a01b031691506001600086338760405160200161043a93929190611dcf565b60408051601f198184030181529181528151602092830120835290820192909252016000205460ff16600281111561047457610474611caf565b1480156104be5750426002600086338760405160200161049693929190611dcf565b6040516020818303038152906040528051906020012081526020019081526020016000205411155b156106a057816000808633876040516020016104dc93929190611dcf565b604051602081830303815290604052805190602001208152602001908152602001600020600082825461050f9190611e26565b90915550506001600160a01b0381161561053c576105376001600160a01b03821633846114a4565b6105af565b604051600090339084908381818185875af1925050503d806000811461057e576040519150601f19603f3d011682016040523d82523d6000602084013e610583565b606091505b50509050806105ad5760405162461bcd60e51b81526004016105a490611e39565b60405180910390fd5b505b836040516105bd9190611e67565b6040518091039020836001600160a01b0316336001600160a01b03167fb9bdb7ed8146376064d748bca1cc3449acc3526943957d471adcc7485e2e7311604051610638906020808252601b908201527f46756e64732077697468647261776e20746f2063726561746f72210000000000604082015260600190565b60405180910390a460026001600086338760405160200161065b93929190611dcf565b60408051601f19818403018152918152815160209283012083529082019290925201600020805460ff1916600183600281111561069a5761069a611caf565b02179055505b6000600160008633876040516020016106bb93929190611dcf565b60408051601f198184030181529181528151602092830120835290820192909252016000205460ff16905060018160028111156106fa576106fa611caf565b036108da578260008087338860405160200161071893929190611dcf565b604051602081830303815290604052805190602001208152602001908152602001600020600082825461074b9190611e26565b90915550506001600160a01b03821615610778576107736001600160a01b03831685856114a4565b6107ed565b6000846001600160a01b03168460405160006040518083038185875af1925050503d80600081146107c5576040519150601f19603f3d011682016040523d82523d6000602084013e6107ca565b606091505b50509050806107eb5760405162461bcd60e51b81526004016105a490611e39565b505b846040516107fb9190611e67565b6040518091039020846001600160a01b0316336001600160a01b03167f792ad3967c4edb1c07d26a2bb911a5dce93db0ec891f4bb69c55f2721bb888c260405161086e9060208082526015908201527446756e64732073656e7420746f2068756e7465722160581b604082015260600190565b60405180910390a460026001600087338860405160200161089193929190611dcf565b60408051601f19818403018152918152815160209283012083529082019290925201600020805460ff191660018360028111156108d0576108d0611caf565b0217905550610948565b60008160028111156108ee576108ee611caf565b1480156108fb5750600083115b156109485760405162461bcd60e51b815260206004820181905260248201527f48756e746572206861736e2774207375626d697474656420776f726b2079657460448201526064016105a4565b5050506109626001600080516020611ef283398151915255565b5050565b61096e611508565b610977826115ad565b61096282826115b5565b600061098b611672565b50600080516020611ed283398151915290565b6109a661146c565b60018060008484336040516020016109c093929190611dcf565b60408051601f198184030181529181528151602092830120835290820192909252016000205460ff1660028111156109fa576109fa611caf565b14610a3c5760405162461bcd60e51b815260206004820152601260248201527115dbdc9ac81b9bdd0814dd589b5a5d1d195960721b60448201526064016105a4565b4260036000848433604051602001610a5693929190611dcf565b604051602081830303815290604052805190602001208152602001908152602001600020541115610ac15760405162461bcd60e51b815260206004820152601560248201527443726561746f722063616e207374696c6c2070617960581b60448201526064016105a4565b6000806000848433604051602001610adb93929190611dcf565b60405160208183030381529060405280519060200120815260200190815260200160002054905080600080858533604051602001610b1b93929190611dcf565b6040516020818303038152906040528051906020012081526020019081526020016000206000828254610b4e9190611e26565b92505081905550600060046000858533604051602001610b7093929190611dcf565b60408051601f19818403018152918152815160209283012083529082019290925201600020546001600160a01b031690508015610bc057610bbb6001600160a01b03821633846114a4565b610c2a565b604051600090339084908381818185875af1925050503d8060008114610c02576040519150601f19603f3d011682016040523d82523d6000602084013e610c07565b606091505b5050905080610c285760405162461bcd60e51b81526004016105a490611e39565b505b83604051610c389190611e67565b6040518091039020336001600160a01b0316846001600160a01b03167f3d3e6b9b452dfac5b1ec55216e1f4ad64bcff404fc6b256e98d3645e22949871604051610cb3906020808252601b908201527f46756e647320666f7263652073656e7420746f2068756e746572210000000000604082015260600190565b60405180910390a4600260016000868633604051602001610cd693929190611dcf565b60408051601f19818403018152918152815160209283012083529082019290925201600020805460ff19166001836002811115610d1557610d15611caf565b021790555050506109626001600080516020611ef283398151915255565b610d3b61146c565b600080838333604051602001610d5393929190611dcf565b60405160208183030381529060405280519060200120815260200190815260200160002054600003610dbc5760405162461bcd60e51b8152602060048201526012602482015271119d5b991cc81b9bdd08195cd8dc9bddd95960721b60448201526064016105a4565b600060016000848433604051602001610dd793929190611dcf565b60408051601f198184030181529181528151602092830120835290820192909252016000205460ff166002811115610e1157610e11611caf565b14610e575760405162461bcd60e51b815260206004820152601660248201527515dbdc9ac8185b1c9958591e481cdd589b5a5d1d195960521b60448201526064016105a4565b6001806000848433604051602001610e7193929190611dcf565b60408051601f19818403018152918152815160209283012083529082019290925201600020805460ff19166001836002811115610eb057610eb0611caf565b0217905550610ec24262127500611e83565b60036000848433604051602001610edb93929190611dcf565b6040516020818303038152906040528051906020012081526020019081526020016000208190555081604051610f119190611e67565b6040518091039020336001600160a01b0316826001600160a01b03167f68a67c1cdac393ac88c3132d0e126d77a2b494fd4a9d2046d3b9999cb2ad7801604051610f79906020808252600a90820152695375626d69747465642160b01b604082015260600190565b60405180910390a46109626001600080516020611ef283398151915255565b610fa06116bb565b610faa6000611716565b565b7ff0c57e16840df040f15088dc2f81fe391c3923bec73e23a9662efc9c229c6a008054600160401b810460ff16159067ffffffffffffffff16600081158015610ff25750825b905060008267ffffffffffffffff16600114801561100f5750303b155b90508115801561101d575080155b1561103b5760405163f92ee8a960e01b815260040160405180910390fd5b845467ffffffffffffffff19166001178555831561106557845460ff60401b1916600160401b1785555b61106e86611787565b611076611798565b83156110bc57845460ff60401b19168555604051600181527fc7f505b2f371ae2175ee4913f4499e1f2633a7b5936321eed1cdaeb6115181d29060200160405180910390a15b505050505050565b6110cc61146c565b6000808633876040516020016110e493929190611dcf565b604051602081830303815290604052805190602001208152602001908152602001600020546000146111515760405162461bcd60e51b8152602060048201526016602482015275119d5b991cc8185b1c9958591e48195cd8dc9bddd95960521b60448201526064016105a4565b60006001600087338860405160200161116c93929190611dcf565b60408051601f198184030181529181528151602092830120835290820192909252016000205460ff1660028111156111a6576111a6611caf565b146111f35760405162461bcd60e51b815260206004820152601760248201527f5374617465206d757374206265204e6f20426f756e747900000000000000000060448201526064016105a4565b341561123f573460008087338860405160200161121293929190611dcf565b60405160208183030381529060405280519060200120815260200190815260200160002081905550611348565b6000811161128f5760405162461bcd60e51b815260206004820152601760248201527f416d6f756e74206d757374206265206e6f6e2d7a65726f00000000000000000060448201526064016105a4565b6112a46001600160a01b0383163330846117a0565b806000808733886040516020016112bd93929190611dcf565b6040516020818303038152906040528051906020012081526020019081526020016000208190555081600460008733886040516020016112ff93929190611dcf565b60405160208183030381529060405280519060200120815260200190815260200160002060006101000a8154816001600160a01b0302191690836001600160a01b031602179055505b6113528342611e83565b6002600087338860405160200161136b93929190611dcf565b60405160208183030381529060405280519060200120815260200190815260200160002081905550846040516113a19190611e67565b6040518091039020846001600160a01b0316336001600160a01b03167fd1e07ed273f3f8baf4d06b102596f3d355cb8d1f264f85fade4e9708b67ee85860405161140890602080825260099082015268457363726f7765642160b81b604082015260600190565b60405180910390a46114276001600080516020611ef283398151915255565b5050505050565b6114366116bb565b6001600160a01b03811661146057604051631e4fbdf760e01b8152600060048201526024016105a4565b61146981611716565b50565b600080516020611ef283398151915280546001190161149e57604051633ee5aeb560e01b815260040160405180910390fd5b60029055565b6040516001600160a01b0383811660248301526044820183905261150391859182169063a9059cbb906064015b604051602081830303815290604052915060e01b6020820180516001600160e01b0383818316178352505050506117df565b505050565b306001600160a01b037f000000000000000000000000000000000000000000000000000000000000000016148061158f57507f00000000000000000000000000000000000000000000000000000000000000006001600160a01b0316611583600080516020611ed2833981519152546001600160a01b031690565b6001600160a01b031614155b15610faa5760405163703e46dd60e11b815260040160405180910390fd5b6114696116bb565b816001600160a01b03166352d1902d6040518163ffffffff1660e01b8152600401602060405180830381865afa92505050801561160f575060408051601f3d908101601f1916820190925261160c91810190611e96565b60015b61163757604051634c9c8ce360e01b81526001600160a01b03831660048201526024016105a4565b600080516020611ed2833981519152811461166857604051632a87526960e21b8152600481018290526024016105a4565b6115038383611842565b306001600160a01b037f00000000000000000000000000000000000000000000000000000000000000001614610faa5760405163703e46dd60e11b815260040160405180910390fd5b336116ed7f9016d09d72d40fdae2fd8ceac6b6234c7706214fd39c1cd1e609a0528c199300546001600160a01b031690565b6001600160a01b031614610faa5760405163118cdaa760e01b81523360048201526024016105a4565b7f9016d09d72d40fdae2fd8ceac6b6234c7706214fd39c1cd1e609a0528c19930080546001600160a01b031981166001600160a01b03848116918217845560405192169182907f8be0079c531659141344cd1fd0a4f28419497f9722a3daafe3b4186f6b6457e090600090a3505050565b61178f611898565b611469816118e1565b610faa611898565b6040516001600160a01b0384811660248301528381166044830152606482018390526117d99186918216906323b872dd906084016114d1565b50505050565b60006117f46001600160a01b038416836118e9565b905080516000141580156118195750808060200190518101906118179190611eaf565b155b1561150357604051635274afe760e01b81526001600160a01b03841660048201526024016105a4565b61184b82611900565b6040516001600160a01b038316907fbc7cd75a20ee27fd9adebab32041f755214dbc6bffa90cc0225b39da2e5c2d3b90600090a2805115611890576115038282611965565b6109626119db565b7ff0c57e16840df040f15088dc2f81fe391c3923bec73e23a9662efc9c229c6a0054600160401b900460ff16610faa57604051631afcd79f60e31b815260040160405180910390fd5b611436611898565b60606118f7838360006119fa565b90505b92915050565b806001600160a01b03163b60000361193657604051634c9c8ce360e01b81526001600160a01b03821660048201526024016105a4565b600080516020611ed283398151915280546001600160a01b0319166001600160a01b0392909216919091179055565b6060600080846001600160a01b0316846040516119829190611e67565b600060405180830381855af49150503d80600081146119bd576040519150601f19603f3d011682016040523d82523d6000602084013e6119c2565b606091505b50915091506119d2858383611a99565b95945050505050565b3415610faa5760405163b398979f60e01b815260040160405180910390fd5b606081471015611a1f5760405163cd78605960e01b81523060048201526024016105a4565b600080856001600160a01b03168486604051611a3b9190611e67565b60006040518083038185875af1925050503d8060008114611a78576040519150601f19603f3d011682016040523d82523d6000602084013e611a7d565b606091505b5091509150611a8d868383611a99565b925050505b9392505050565b606082611aae57611aa982611af5565b611a92565b8151158015611ac557506001600160a01b0384163b155b15611aee57604051639996b31560e01b81526001600160a01b03851660048201526024016105a4565b5080611a92565b805115611b055780518082602001fd5b604051630a12f52160e11b815260040160405180910390fd5b634e487b7160e01b600052604160045260246000fd5b600067ffffffffffffffff80841115611b4f57611b4f611b1e565b604051601f8501601f19908116603f01168101908282118183101715611b7757611b77611b1e565b81604052809350858152868686011115611b9057600080fd5b858560208301376000602087830101525050509392505050565b600082601f830112611bbb57600080fd5b6118f783833560208501611b34565b80356001600160a01b0381168114611be157600080fd5b919050565b60008060408385031215611bf957600080fd5b823567ffffffffffffffff811115611c1057600080fd5b611c1c85828601611baa565b925050611c2b60208401611bca565b90509250929050565b60008060408385031215611c4757600080fd5b611c5083611bca565b9150602083013567ffffffffffffffff811115611c6c57600080fd5b8301601f81018513611c7d57600080fd5b611c8c85823560208401611b34565b9150509250929050565b600060208284031215611ca857600080fd5b5035919050565b634e487b7160e01b600052602160045260246000fd5b6020810160038310611ce757634e487b7160e01b600052602160045260246000fd5b91905290565b60005b83811015611d08578181015183820152602001611cf0565b50506000910152565b6020815260008251806020840152611d30816040850160208701611ced565b601f01601f19169190910160400192915050565b600060208284031215611d5657600080fd5b6118f782611bca565b600080600080600060a08688031215611d7757600080fd5b853567ffffffffffffffff811115611d8e57600080fd5b611d9a88828901611baa565b955050611da960208701611bca565b935060408601359250611dbe60608701611bca565b949793965091946080013592915050565b60008451611de1818460208901611ced565b6bffffffffffffffffffffffff19606095861b8116919093019081529290931b16601482015260280192915050565b634e487b7160e01b600052601160045260246000fd5b818103818111156118fa576118fa611e10565b6020808252601490820152732330b4b632b2103a379039b2b7321022ba3432b960611b604082015260600190565b60008251611e79818460208701611ced565b9190910192915050565b808201808211156118fa576118fa611e10565b600060208284031215611ea857600080fd5b5051919050565b600060208284031215611ec157600080fd5b81518015158114611a9257600080fdfe360894a13ba1a3210667c828492db98dca3e2076cc3735a920a3ca505d382bbc9b779b17422d0df92223018b32b4d1fa46e071723d6817e2486d003becc55f00a2646970667358221220bdec62fd10a1bf1cfea587aaa4d6b3cf9f887e132917135caf6bfc41effb324a64736f6c63430008140033","linkReferences":{}},"methodIdentifiers":{"UPGRADE_INTERFACE_VERSION()":"ad3cb1cc","bountyAmounts(bytes32)":"771eb857","bountyToken(bytes32)":"7b8e291e","escrow(string,address,uint256,address,uint256)":"c5660dbf","expiration(bytes32)":"56406fa5","forceHunterPayout(string,address)":"63be095c","initialize(address)":"c4d66de8","owner()":"8da5cb5b","payout(string,address)":"33357018","payoutExpiration(bytes32)":"d911392d","progress(bytes32)":"7aebd2a8","proxiableUUID()":"52d1902d","renounceOwnership()":"715018a6","submit(string,address)":"696b9aa7","transferOwnership(address)":"f2fde38b","upgradeToAndCall(address,bytes)":"4f1ef286"},"id":40}