{
  "abi": [
    {
      "inputs": [],
      "name": "Bridge",
      "outputs": [
        {
          "internalType": "bytes32",
          "name": "",
          "type": "bytes32"
        }
      ],
      "stateMutability": "view",
      "type": "function"
    },
    {
      "inputs": [],
      "name": "ChildMessenger",
      "outputs": [
        {
          "internalType": "bytes32",
          "name": "",
          "type": "bytes32"
        }
      ],
      "stateMutability": "view",
      "type": "function"
    },
    {
      "inputs": [],
      "name": "CollateralWhitelist",
      "outputs": [
        {
          "internalType": "bytes32",
          "name": "",
          "type": "bytes32"
        }
      ],
      "stateMutability": "view",
      "type": "function"
    },
    {
      "inputs": [],
      "name": "FinancialContractsAdmin",
      "outputs": [
        {
          "internalType": "bytes32",
          "name": "",
          "type": "bytes32"
        }
      ],
      "stateMutability": "view",
      "type": "function"
    },
    {
      "inputs": [],
      "name": "GenericHandler",
      "outputs": [
        {
          "internalType": "bytes32",
          "name": "",
          "type": "bytes32"
        }
      ],
      "stateMutability": "view",
      "type": "function"
    },
    {
      "inputs": [],
      "name": "IdentifierWhitelist",
      "outputs": [
        {
          "internalType": "bytes32",
          "name": "",
          "type": "bytes32"
        }
      ],
      "stateMutability": "view",
      "type": "function"
    },
    {
      "inputs": [],
      "name": "OptimisticOracle",
      "outputs": [
        {
          "internalType": "bytes32",
          "name": "",
          "type": "bytes32"
        }
      ],
      "stateMutability": "view",
      "type": "function"
    },
    {
      "inputs": [],
      "name": "Oracle",
      "outputs": [
        {
          "internalType": "bytes32",
          "name": "",
          "type": "bytes32"
        }
      ],
      "stateMutability": "view",
      "type": "function"
    },
    {
      "inputs": [],
      "name": "OracleHub",
      "outputs": [
        {
          "internalType": "bytes32",
          "name": "",
          "type": "bytes32"
        }
      ],
      "stateMutability": "view",
      "type": "function"
    },
    {
      "inputs": [],
      "name": "OracleSpoke",
      "outputs": [
        {
          "internalType": "bytes32",
          "name": "",
          "type": "bytes32"
        }
      ],
      "stateMutability": "view",
      "type": "function"
    },
    {
      "inputs": [],
      "name": "Registry",
      "outputs": [
        {
          "internalType": "bytes32",
          "name": "",
          "type": "bytes32"
        }
      ],
      "stateMutability": "view",
      "type": "function"
    },
    {
      "inputs": [],
      "name": "SkinnyOptimisticOracle",
      "outputs": [
        {
          "internalType": "bytes32",
          "name": "",
          "type": "bytes32"
        }
      ],
      "stateMutability": "view",
      "type": "function"
    },
    {
      "inputs": [],
      "name": "Store",
      "outputs": [
        {
          "internalType": "bytes32",
          "name": "",
          "type": "bytes32"
        }
      ],
      "stateMutability": "view",
      "type": "function"
    }
  ],
  "bytecode": {
    "object": "0x61025a61003a600b82828239805160001a60731461002d57634e487b7160e01b600052600060045260246000fd5b30600052607381538281f3fe73000000000000000000000000000000000000000030146080604052600436106100d95760003560e01c80634f4a180b116100965780637608ea2f116100705780637608ea2f146101da5780637db9743b146101ed5780638adca47f146101ff578063f24a534e1461021457600080fd5b80634f4a180b14610190578063598dd097146101ad5780635fa2ef10146101ca57600080fd5b8063079b6c63146100de5780631a0fbfb3146101085780631a4dbd1c146101205780632a71e5b31461013a57806342e90c33146101615780634596ac9b14610170575b600080fd5b6100f66d23b2b732b934b1a430b7323632b960911b81565b60405190815260200160405180910390f35b6100f66d21b434b63226b2b9b9b2b733b2b960911b81565b6100f66f4f7074696d69737469634f7261636c6560801b81565b6100f67f46696e616e6369616c436f6e74726163747341646d696e00000000000000000081565b6100f66453746f726560d81b81565b6100f675536b696e6e794f7074696d69737469634f7261636c6560501b81565b6100f6721259195b9d1a599a595c95da1a5d195b1a5cdd606a1b81565b6100f67210dbdb1b185d195c985b15da1a5d195b1a5cdd606a1b81565b6100f66542726964676560d01b81565b6100f66827b930b1b632a43ab160b91b81565b6100f667526567697374727960c01b81565b6100f66a4f7261636c6553706f6b6560a81b81565b6100f6654f7261636c6560d01b8156fea26469706673582212204d1d88848b4e38351717d24229cdb012d76fae8d6b2435329e8da8e2700cd27064736f6c634300080d0033",
    "linkReferences": {}
  },
  "methodIdentifiers": {
    "Bridge()": "5fa2ef10",
    "ChildMessenger()": "1a0fbfb3",
    "CollateralWhitelist()": "598dd097",
    "FinancialContractsAdmin()": "2a71e5b3",
    "GenericHandler()": "079b6c63",
    "IdentifierWhitelist()": "4f4a180b",
    "OptimisticOracle()": "1a4dbd1c",
    "Oracle()": "f24a534e",
    "OracleHub()": "7608ea2f",
    "OracleSpoke()": "8adca47f",
    "Registry()": "7db9743b",
    "SkinnyOptimisticOracle()": "4596ac9b",
    "Store()": "42e90c33"
  },
  "id": 19
}